{
  "contractName": "Tartist",
  "abi": [
    {
      "inputs": [],
      "stateMutability": "nonpayable",
      "type": "constructor"
    },
    {
      "anonymous": false,
      "inputs": [
        {
          "indexed": true,
          "internalType": "address",
          "name": "owner",
          "type": "address"
        },
        {
          "indexed": true,
          "internalType": "address",
          "name": "approved",
          "type": "address"
        },
        {
          "indexed": true,
          "internalType": "uint256",
          "name": "tokenId",
          "type": "uint256"
        }
      ],
      "name": "Approval",
      "type": "event"
    },
    {
      "anonymous": false,
      "inputs": [
        {
          "indexed": true,
          "internalType": "address",
          "name": "owner",
          "type": "address"
        },
        {
          "indexed": true,
          "internalType": "address",
          "name": "operator",
          "type": "address"
        },
        {
          "indexed": false,
          "internalType": "bool",
          "name": "approved",
          "type": "bool"
        }
      ],
      "name": "ApprovalForAll",
      "type": "event"
    },
    {
      "anonymous": false,
      "inputs": [
        {
          "indexed": false,
          "internalType": "uint256",
          "name": "_fromTokenId",
          "type": "uint256"
        },
        {
          "indexed": false,
          "internalType": "uint256",
          "name": "_toTokenId",
          "type": "uint256"
        }
      ],
      "name": "BatchMetadataUpdate",
      "type": "event"
    },
    {
      "anonymous": false,
      "inputs": [
        {
          "indexed": false,
          "internalType": "uint256",
          "name": "_tokenId",
          "type": "uint256"
        }
      ],
      "name": "MetadataUpdate",
      "type": "event"
    },
    {
      "anonymous": false,
      "inputs": [
        {
          "indexed": true,
          "internalType": "address",
          "name": "previousOwner",
          "type": "address"
        },
        {
          "indexed": true,
          "internalType": "address",
          "name": "newOwner",
          "type": "address"
        }
      ],
      "name": "OwnershipTransferred",
      "type": "event"
    },
    {
      "anonymous": false,
      "inputs": [
        {
          "indexed": false,
          "internalType": "string",
          "name": "_value",
          "type": "string"
        },
        {
          "indexed": true,
          "internalType": "uint256",
          "name": "_id",
          "type": "uint256"
        }
      ],
      "name": "PermanentURI",
      "type": "event"
    },
    {
      "anonymous": false,
      "inputs": [
        {
          "indexed": true,
          "internalType": "address",
          "name": "from",
          "type": "address"
        },
        {
          "indexed": true,
          "internalType": "address",
          "name": "to",
          "type": "address"
        },
        {
          "indexed": true,
          "internalType": "uint256",
          "name": "tokenId",
          "type": "uint256"
        }
      ],
      "name": "Transfer",
      "type": "event"
    },
    {
      "inputs": [],
      "name": "MINT_TARTIST_PRICE",
      "outputs": [
        {
          "internalType": "uint256",
          "name": "",
          "type": "uint256"
        }
      ],
      "stateMutability": "view",
      "type": "function",
      "constant": true
    },
    {
      "inputs": [],
      "name": "MINT_TARTI_PRICE",
      "outputs": [
        {
          "internalType": "uint256",
          "name": "",
          "type": "uint256"
        }
      ],
      "stateMutability": "view",
      "type": "function",
      "constant": true
    },
    {
      "inputs": [
        {
          "internalType": "uint256",
          "name": "",
          "type": "uint256"
        }
      ],
      "name": "allTraits",
      "outputs": [
        {
          "internalType": "uint256",
          "name": "",
          "type": "uint256"
        }
      ],
      "stateMutability": "view",
      "type": "function",
      "constant": true
    },
    {
      "inputs": [
        {
          "internalType": "address",
          "name": "to",
          "type": "address"
        },
        {
          "internalType": "uint256",
          "name": "tokenId",
          "type": "uint256"
        }
      ],
      "name": "approve",
      "outputs": [],
      "stateMutability": "nonpayable",
      "type": "function"
    },
    {
      "inputs": [
        {
          "internalType": "uint256",
          "name": "",
          "type": "uint256"
        }
      ],
      "name": "availableTraits",
      "outputs": [
        {
          "internalType": "string",
          "name": "",
          "type": "string"
        }
      ],
      "stateMutability": "view",
      "type": "function",
      "constant": true
    },
    {
      "inputs": [
        {
          "internalType": "address",
          "name": "owner",
          "type": "address"
        }
      ],
      "name": "balanceOf",
      "outputs": [
        {
          "internalType": "uint256",
          "name": "",
          "type": "uint256"
        }
      ],
      "stateMutability": "view",
      "type": "function",
      "constant": true
    },
    {
      "inputs": [
        {
          "internalType": "uint256",
          "name": "",
          "type": "uint256"
        },
        {
          "internalType": "uint256",
          "name": "",
          "type": "uint256"
        }
      ],
      "name": "botTraitDominances",
      "outputs": [
        {
          "internalType": "uint256",
          "name": "",
          "type": "uint256"
        }
      ],
      "stateMutability": "view",
      "type": "function",
      "constant": true
    },
    {
      "inputs": [
        {
          "internalType": "uint256",
          "name": "",
          "type": "uint256"
        },
        {
          "internalType": "uint256",
          "name": "",
          "type": "uint256"
        }
      ],
      "name": "botTraitValues",
      "outputs": [
        {
          "internalType": "string",
          "name": "",
          "type": "string"
        }
      ],
      "stateMutability": "view",
      "type": "function",
      "constant": true
    },
    {
      "inputs": [
        {
          "internalType": "uint256",
          "name": "",
          "type": "uint256"
        },
        {
          "internalType": "uint256",
          "name": "",
          "type": "uint256"
        }
      ],
      "name": "botTraits",
      "outputs": [
        {
          "internalType": "uint256",
          "name": "",
          "type": "uint256"
        }
      ],
      "stateMutability": "view",
      "type": "function",
      "constant": true
    },
    {
      "inputs": [
        {
          "internalType": "uint256",
          "name": "tokenId",
          "type": "uint256"
        }
      ],
      "name": "getApproved",
      "outputs": [
        {
          "internalType": "address",
          "name": "",
          "type": "address"
        }
      ],
      "stateMutability": "view",
      "type": "function",
      "constant": true
    },
    {
      "inputs": [
        {
          "internalType": "address",
          "name": "owner",
          "type": "address"
        },
        {
          "internalType": "address",
          "name": "operator",
          "type": "address"
        }
      ],
      "name": "isApprovedForAll",
      "outputs": [
        {
          "internalType": "bool",
          "name": "",
          "type": "bool"
        }
      ],
      "stateMutability": "view",
      "type": "function",
      "constant": true
    },
    {
      "inputs": [],
      "name": "name",
      "outputs": [
        {
          "internalType": "string",
          "name": "",
          "type": "string"
        }
      ],
      "stateMutability": "view",
      "type": "function",
      "constant": true
    },
    {
      "inputs": [],
      "name": "owner",
      "outputs": [
        {
          "internalType": "address",
          "name": "",
          "type": "address"
        }
      ],
      "stateMutability": "view",
      "type": "function",
      "constant": true
    },
    {
      "inputs": [
        {
          "internalType": "uint256",
          "name": "tokenId",
          "type": "uint256"
        }
      ],
      "name": "ownerOf",
      "outputs": [
        {
          "internalType": "address",
          "name": "",
          "type": "address"
        }
      ],
      "stateMutability": "view",
      "type": "function",
      "constant": true
    },
    {
      "inputs": [
        {
          "internalType": "address",
          "name": "dest",
          "type": "address"
        }
      ],
      "name": "payments",
      "outputs": [
        {
          "internalType": "uint256",
          "name": "",
          "type": "uint256"
        }
      ],
      "stateMutability": "view",
      "type": "function",
      "constant": true
    },
    {
      "inputs": [],
      "name": "renounceOwnership",
      "outputs": [],
      "stateMutability": "nonpayable",
      "type": "function"
    },
    {
      "inputs": [
        {
          "internalType": "address",
          "name": "from",
          "type": "address"
        },
        {
          "internalType": "address",
          "name": "to",
          "type": "address"
        },
        {
          "internalType": "uint256",
          "name": "tokenId",
          "type": "uint256"
        }
      ],
      "name": "safeTransferFrom",
      "outputs": [],
      "stateMutability": "nonpayable",
      "type": "function"
    },
    {
      "inputs": [
        {
          "internalType": "address",
          "name": "from",
          "type": "address"
        },
        {
          "internalType": "address",
          "name": "to",
          "type": "address"
        },
        {
          "internalType": "uint256",
          "name": "tokenId",
          "type": "uint256"
        },
        {
          "internalType": "bytes",
          "name": "data",
          "type": "bytes"
        }
      ],
      "name": "safeTransferFrom",
      "outputs": [],
      "stateMutability": "nonpayable",
      "type": "function"
    },
    {
      "inputs": [
        {
          "internalType": "address",
          "name": "operator",
          "type": "address"
        },
        {
          "internalType": "bool",
          "name": "approved",
          "type": "bool"
        }
      ],
      "name": "setApprovalForAll",
      "outputs": [],
      "stateMutability": "nonpayable",
      "type": "function"
    },
    {
      "inputs": [],
      "name": "symbol",
      "outputs": [
        {
          "internalType": "string",
          "name": "",
          "type": "string"
        }
      ],
      "stateMutability": "view",
      "type": "function",
      "constant": true
    },
    {
      "inputs": [
        {
          "internalType": "uint8",
          "name": "",
          "type": "uint8"
        }
      ],
      "name": "tartiRoyaltyRate",
      "outputs": [
        {
          "internalType": "uint256",
          "name": "",
          "type": "uint256"
        }
      ],
      "stateMutability": "view",
      "type": "function",
      "constant": true
    },
    {
      "inputs": [
        {
          "internalType": "uint256",
          "name": "index",
          "type": "uint256"
        }
      ],
      "name": "tokenByIndex",
      "outputs": [
        {
          "internalType": "uint256",
          "name": "",
          "type": "uint256"
        }
      ],
      "stateMutability": "view",
      "type": "function",
      "constant": true
    },
    {
      "inputs": [
        {
          "internalType": "address",
          "name": "owner",
          "type": "address"
        },
        {
          "internalType": "uint256",
          "name": "index",
          "type": "uint256"
        }
      ],
      "name": "tokenOfOwnerByIndex",
      "outputs": [
        {
          "internalType": "uint256",
          "name": "",
          "type": "uint256"
        }
      ],
      "stateMutability": "view",
      "type": "function",
      "constant": true
    },
    {
      "inputs": [],
      "name": "totalSupply",
      "outputs": [
        {
          "internalType": "uint256",
          "name": "",
          "type": "uint256"
        }
      ],
      "stateMutability": "view",
      "type": "function",
      "constant": true
    },
    {
      "inputs": [
        {
          "internalType": "address",
          "name": "from",
          "type": "address"
        },
        {
          "internalType": "address",
          "name": "to",
          "type": "address"
        },
        {
          "internalType": "uint256",
          "name": "tokenId",
          "type": "uint256"
        }
      ],
      "name": "transferFrom",
      "outputs": [],
      "stateMutability": "nonpayable",
      "type": "function"
    },
    {
      "inputs": [
        {
          "internalType": "address",
          "name": "newOwner",
          "type": "address"
        }
      ],
      "name": "transferOwnership",
      "outputs": [],
      "stateMutability": "nonpayable",
      "type": "function"
    },
    {
      "inputs": [
        {
          "internalType": "uint256[]",
          "name": "traitCode",
          "type": "uint256[]"
        },
        {
          "internalType": "string[]",
          "name": "traitName",
          "type": "string[]"
        }
      ],
      "name": "addTraits",
      "outputs": [],
      "stateMutability": "nonpayable",
      "type": "function"
    },
    {
      "inputs": [
        {
          "internalType": "uint256",
          "name": "traitCode",
          "type": "uint256"
        }
      ],
      "name": "cancelTrait",
      "outputs": [],
      "stateMutability": "nonpayable",
      "type": "function"
    },
    {
      "inputs": [],
      "name": "getAllTraits",
      "outputs": [
        {
          "internalType": "uint256[]",
          "name": "",
          "type": "uint256[]"
        }
      ],
      "stateMutability": "view",
      "type": "function",
      "constant": true
    },
    {
      "inputs": [
        {
          "internalType": "address",
          "name": "recipient",
          "type": "address"
        },
        {
          "internalType": "uint256[]",
          "name": "traits",
          "type": "uint256[]"
        },
        {
          "internalType": "string[]",
          "name": "dynamicTraitValues",
          "type": "string[]"
        },
        {
          "internalType": "uint8[]",
          "name": "traitDominance",
          "type": "uint8[]"
        }
      ],
      "name": "giveBirth",
      "outputs": [
        {
          "internalType": "uint256",
          "name": "",
          "type": "uint256"
        }
      ],
      "stateMutability": "payable",
      "type": "function",
      "payable": true
    },
    {
      "inputs": [
        {
          "internalType": "uint8",
          "name": "artistId",
          "type": "uint8"
        },
        {
          "internalType": "uint256",
          "name": "ratePerTarti",
          "type": "uint256"
        }
      ],
      "name": "setRoyaltyRate",
      "outputs": [],
      "stateMutability": "nonpayable",
      "type": "function"
    },
    {
      "inputs": [
        {
          "internalType": "uint8",
          "name": "artistId",
          "type": "uint8"
        }
      ],
      "name": "newArt",
      "outputs": [
        {
          "internalType": "uint256",
          "name": "",
          "type": "uint256"
        }
      ],
      "stateMutability": "payable",
      "type": "function",
      "payable": true
    },
    {
      "inputs": [],
      "name": "contractURI",
      "outputs": [
        {
          "internalType": "string",
          "name": "",
          "type": "string"
        }
      ],
      "stateMutability": "pure",
      "type": "function",
      "constant": true
    },
    {
      "inputs": [
        {
          "internalType": "address",
          "name": "tartiAddr",
          "type": "address"
        }
      ],
      "name": "setTartiAddr",
      "outputs": [],
      "stateMutability": "nonpayable",
      "type": "function"
    },
    {
      "inputs": [
        {
          "internalType": "uint256",
          "name": "tokenId",
          "type": "uint256"
        },
        {
          "internalType": "bool",
          "name": "onTarti",
          "type": "bool"
        }
      ],
      "name": "setCreationStarted",
      "outputs": [],
      "stateMutability": "nonpayable",
      "type": "function"
    },
    {
      "inputs": [
        {
          "internalType": "uint256",
          "name": "tokenId",
          "type": "uint256"
        },
        {
          "internalType": "bytes",
          "name": "cid",
          "type": "bytes"
        },
        {
          "internalType": "bool",
          "name": "onTarti",
          "type": "bool"
        }
      ],
      "name": "setCreated",
      "outputs": [],
      "stateMutability": "nonpayable",
      "type": "function"
    },
    {
      "inputs": [
        {
          "internalType": "uint256",
          "name": "tokenId",
          "type": "uint256"
        }
      ],
      "name": "getTraits",
      "outputs": [
        {
          "internalType": "uint256[]",
          "name": "",
          "type": "uint256[]"
        }
      ],
      "stateMutability": "view",
      "type": "function",
      "constant": true
    },
    {
      "inputs": [
        {
          "internalType": "uint256",
          "name": "tokenId",
          "type": "uint256"
        }
      ],
      "name": "getTraitValues",
      "outputs": [
        {
          "internalType": "string[]",
          "name": "",
          "type": "string[]"
        }
      ],
      "stateMutability": "view",
      "type": "function",
      "constant": true
    },
    {
      "inputs": [
        {
          "internalType": "uint256",
          "name": "tokenId",
          "type": "uint256"
        }
      ],
      "name": "getTraitDominances",
      "outputs": [
        {
          "internalType": "uint256[]",
          "name": "",
          "type": "uint256[]"
        }
      ],
      "stateMutability": "view",
      "type": "function",
      "constant": true
    },
    {
      "inputs": [
        {
          "internalType": "address payable",
          "name": "payee",
          "type": "address"
        }
      ],
      "name": "withdrawPayments",
      "outputs": [],
      "stateMutability": "nonpayable",
      "type": "function"
    },
    {
      "inputs": [
        {
          "internalType": "bytes4",
          "name": "interfaceId",
          "type": "bytes4"
        }
      ],
      "name": "supportsInterface",
      "outputs": [
        {
          "internalType": "bool",
          "name": "",
          "type": "bool"
        }
      ],
      "stateMutability": "view",
      "type": "function",
      "constant": true
    },
    {
      "inputs": [
        {
          "internalType": "uint256",
          "name": "tokenId",
          "type": "uint256"
        }
      ],
      "name": "tokenURI",
      "outputs": [
        {
          "internalType": "string",
          "name": "",
          "type": "string"
        }
      ],
      "stateMutability": "view",
      "type": "function",
      "constant": true
    }
  ],
  "bytecode": "0x60a06040523480156200001157600080fd5b506040518060400160405280600c81526020016b15185c9d1a48105c9d1a5cdd60a21b81525060405180604001604052806007815260200166151054951254d560ca1b8152508160009081620000689190620001c8565b506001620000778282620001c8565b505050604051620000889062000115565b604051809103906000f080158015620000a5573d6000803e3d6000fd5b506001600160a01b0316608052620000bd33620000c3565b62000294565b600b80546001600160a01b038381166001600160a01b0319831681179093556040519116919082907f8be0079c531659141344cd1fd0a4f28419497f9722a3daafe3b4186f6b6457e090600090a35050565b6105a98062003f7883390190565b634e487b7160e01b600052604160045260246000fd5b600181811c908216806200014e57607f821691505b6020821081036200016f57634e487b7160e01b600052602260045260246000fd5b50919050565b601f821115620001c357600081815260208120601f850160051c810160208610156200019e5750805b601f850160051c820191505b81811015620001bf57828155600101620001aa565b5050505b505050565b81516001600160401b03811115620001e457620001e462000123565b620001fc81620001f5845462000139565b8462000175565b602080601f8311600181146200023457600084156200021b5750858301515b600019600386901b1c1916600185901b178555620001bf565b600085815260208120601f198616915b82811015620002655788860151825594840194600190910190840162000244565b5085821015620002845787850151600019600388901b60f8161c191681555b5050505050600190811b01905550565b608051613cba620002be60003960008181611cb70152818161223601526122ff0152613cba6000f3fe6080604052600436106102715760003560e01c8063751ee47311610149578063bfa44a3a116100c6578063e1dc07611161008a578063e985e9c511610064578063e985e9c514610767578063ee14918c146107b0578063f2fde38b146107c557600080fd5b8063e1dc076114610712578063e2982c2114610732578063e8a3d4851461075257600080fd5b8063bfa44a3a14610658578063c87b56dd14610685578063ce62e936146106a5578063dc5effe7146106c5578063e0b64371146106e557600080fd5b80639b848ea91161010d5780639b848ea9146105c5578063a22cb465146105e5578063adaa00e514610605578063b543842e14610625578063b88d4fde1461063857600080fd5b8063751ee4731461053f5780638da5cb5b1461055f57806395204a961461057d57806395d89b411461059d5780639ab5dc47146105b257600080fd5b806340eb171a116101f2578063639eac2e116101b657806370a082311161019057806370a08231146104ea578063715018a61461050a578063750f681c1461051f57600080fd5b8063639eac2e146104825780636bf1c36a146104a25780636ce75ea2146104bd57600080fd5b806340eb171a146103e657806342842e0e146104065780634f6ccce714610426578063580a294b146104465780636352211e1461046257600080fd5b806323b872dd1161023957806323b872dd146103465780632f745c591461036657806330b640901461038657806331806368146103a657806331b3eb94146103c657600080fd5b806301ffc9a71461027657806306fdde03146102ab578063081812fc146102cd578063095ea7b31461030557806318160ddd14610327575b600080fd5b34801561028257600080fd5b50610296610291366004612ed2565b6107e5565b60405190151581526020015b60405180910390f35b3480156102b757600080fd5b506102c06107f6565b6040516102a29190612f3f565b3480156102d957600080fd5b506102ed6102e8366004612f52565b610888565b6040516001600160a01b0390911681526020016102a2565b34801561031157600080fd5b50610325610320366004612f80565b6108af565b005b34801561033357600080fd5b506009545b6040519081526020016102a2565b34801561035257600080fd5b50610325610361366004612fac565b6109c9565b34801561037257600080fd5b50610338610381366004612f80565b6109fa565b34801561039257600080fd5b506102c06103a1366004612fed565b610a90565b3480156103b257600080fd5b506103256103c1366004613024565b610b49565b3480156103d257600080fd5b506103256103e13660046130b1565b610d19565b3480156103f257600080fd5b506103256104013660046130b1565b610d84565b34801561041257600080fd5b50610325610421366004612fac565b610dae565b34801561043257600080fd5b50610338610441366004612f52565b610dc9565b34801561045257600080fd5b5061033867025bf6196bd1000081565b34801561046e57600080fd5b506102ed61047d366004612f52565b610e5c565b34801561048e57600080fd5b5061032561049d366004612f52565b610ebc565b3480156104ae57600080fd5b5061033866a6fa404071800081565b3480156104c957600080fd5b506104dd6104d8366004612f52565b610f19565b6040516102a291906130ce565b3480156104f657600080fd5b506103386105053660046130b1565b610f7b565b34801561051657600080fd5b50610325611001565b34801561052b57600080fd5b5061033861053a366004612f52565b611015565b34801561054b57600080fd5b5061033861055a366004612fed565b611036565b34801561056b57600080fd5b50600b546001600160a01b03166102ed565b34801561058957600080fd5b50610325610598366004613123565b611067565b3480156105a957600080fd5b506102c06110d4565b6103386105c036600461313f565b6110e3565b3480156105d157600080fd5b506103256105e036600461315a565b611346565b3480156105f157600080fd5b50610325610600366004613186565b6114d9565b34801561061157600080fd5b50610338610620366004612fed565b6114e4565b61033861063336600461337c565b611500565b34801561064457600080fd5b5061032561065336600461346e565b6118e8565b34801561066457600080fd5b5061033861067336600461313f565b60126020526000908152604090205481565b34801561069157600080fd5b506102c06106a0366004612f52565b61191a565b3480156106b157600080fd5b506103256106c036600461352e565b611925565b3480156106d157600080fd5b506102c06106e0366004612f52565b611b30565b3480156106f157600080fd5b50610705610700366004612f52565b611b49565b6040516102a2919061359a565b34801561071e57600080fd5b506104dd61072d366004612f52565b611c35565b34801561073e57600080fd5b5061033861074d3660046130b1565b611c95565b34801561075e57600080fd5b506102c0611d24565b34801561077357600080fd5b506102966107823660046135fc565b6001600160a01b03918216600090815260056020908152604080832093909416825291909152205460ff1690565b3480156107bc57600080fd5b506104dd611d44565b3480156107d157600080fd5b506103256107e03660046130b1565b611d9b565b60006107f082611e11565b92915050565b60606000805461080590613635565b80601f016020809104026020016040519081016040528092919081815260200182805461083190613635565b801561087e5780601f106108535761010080835404028352916020019161087e565b820191906000526020600020905b81548152906001019060200180831161086157829003601f168201915b5050505050905090565b600061089382611e36565b506000908152600460205260409020546001600160a01b031690565b60006108ba82610e5c565b9050806001600160a01b0316836001600160a01b03160361092c5760405162461bcd60e51b815260206004820152602160248201527f4552433732313a20617070726f76616c20746f2063757272656e74206f776e656044820152603960f91b60648201526084015b60405180910390fd5b336001600160a01b038216148061094857506109488133610782565b6109ba5760405162461bcd60e51b815260206004820152603d60248201527f4552433732313a20617070726f76652063616c6c6572206973206e6f7420746f60448201527f6b656e206f776e6572206f7220617070726f76656420666f7220616c6c0000006064820152608401610923565b6109c48383611e95565b505050565b6109d33382611f03565b6109ef5760405162461bcd60e51b81526004016109239061366f565b6109c4838383611f81565b6000610a0583610f7b565b8210610a675760405162461bcd60e51b815260206004820152602b60248201527f455243373231456e756d657261626c653a206f776e657220696e646578206f7560448201526a74206f6620626f756e647360a81b6064820152608401610923565b506001600160a01b03919091166000908152600760209081526040808320938352929052205490565b60106020528160005260406000208181548110610aac57600080fd5b90600052602060002001600091509150508054610ac890613635565b80601f0160208091040260200160405190810160405280929190818152602001828054610af490613635565b8015610b415780601f10610b1657610100808354040283529160200191610b41565b820191906000526020600020905b815481529060010190602001808311610b2457829003601f168201915b505050505081565b610b516120f2565b8015610c13576013546001600160a01b0316610ba55760405162461bcd60e51b81526020600482015260136024820152721d185c9d1a58dbdb9d1c9858dd1b9bdd1cd95d606a1b6044820152606401610923565b601354604051636a71167960e11b81526001600160a01b0390911690819063d4e22cf290610bdb908890889088906004016136bc565b600060405180830381600087803b158015610bf557600080fd5b505af1158015610c09573d6000803e3d6000fd5b5050505050610d13565b6000610c1e8561191a565b805190602001209050604051806060016040528060358152602001613c2260359139604051602001610c5091906136f2565b604051602081830303815290604052805190602001208114610ca85760405162461bcd60e51b81526020600482015260116024820152701d185c9d1a5cdd1b9bdd1cdd185c9d1959607a1b6044820152606401610923565b60008484604051602001610cbd92919061370e565b6040516020818303038152906040529050610cd8868261214c565b857fa109ba539900bf1b633f956d63c96fc89b814c7287f7aa50a9216d0b5565720782604051610d089190612f3f565b60405180910390a250505b50505050565b336001600160a01b0382161480610d3a5750600b546001600160a01b031633145b610d785760405162461bcd60e51b815260206004820152600f60248201526e1d5b985d5d1a1dda5d1a191c985ddb608a1b6044820152606401610923565b610d8181612217565b50565b610d8c6120f2565b601380546001600160a01b0319166001600160a01b0392909216919091179055565b6109c4838383604051806020016040528060008152506118e8565b6000610dd460095490565b8210610e375760405162461bcd60e51b815260206004820152602c60248201527f455243373231456e756d657261626c653a20676c6f62616c20696e646578206f60448201526b7574206f6620626f756e647360a01b6064820152608401610923565b60098281548110610e4a57610e4a61371e565b90600052602060002001549050919050565b6000818152600260205260408120546001600160a01b0316806107f05760405162461bcd60e51b8152602060048201526018602482015277115490cdcc8c4e881a5b9d985b1a59081d1bdad95b88125160421b6044820152606401610923565b610ec46120f2565b6000818152600f60205260408082209051601591610ee191613734565b90815260408051602092819003830181209390935581830181526000808452848152600f909252902090610f1590826137f8565b5050565b6000818152600e6020908152604091829020805483518184028101840190945280845260609392830182828015610f6f57602002820191906000526020600020905b815481526020019060010190808311610f5b575b50505050509050919050565b60006001600160a01b038216610fe55760405162461bcd60e51b815260206004820152602960248201527f4552433732313a2061646472657373207a65726f206973206e6f7420612076616044820152683634b21037bbb732b960b91b6064820152608401610923565b506001600160a01b031660009081526003602052604090205490565b6110096120f2565b611013600061228e565b565b600c818154811061102557600080fd5b600091825260209091200154905081565b600d602052816000526040600020818154811061105257600080fd5b90600052602060002001600091509150505481565b6110738260ff16610e5c565b6001600160a01b0316336001600160a01b0316146110be5760405162461bcd60e51b81526020600482015260086024820152676e6f72696768747360c01b6044820152606401610923565b60ff909116600090815260126020526040902055565b60606001805461080590613635565b6013546000906001600160a01b03166111345760405162461bcd60e51b81526020600482015260136024820152721d185c9d1a58dbdb9d1c9858dd1b9bdd1cd95d606a1b6044820152606401610923565b60ff821660009081526012602052604081205490036111ee576111598260ff16610e5c565b6001600160a01b0316336001600160a01b0316146111a45760405162461bcd60e51b81526020600482015260086024820152676e6f72696768747360c01b6044820152606401610923565b66a6fa404071800034146111ee5760405162461bcd60e51b815260206004820152601160248201527036b4b9b9b4b733b1b7b6b6b4b9b9b4b7b760791b6044820152606401610923565b60ff82166000908152601260205260409020541561129f5760ff821660009081526012602052604090205461122a9066a6fa40407180006138ce565b34146112785760405162461bcd60e51b815260206004820152601760248201527f6d697373696e67636f6d6d697373696f6e726f79616c730000000000000000006044820152606401610923565b61129f6112878360ff16610e5c565b60ff84166000908152601260205260409020546122e0565b601354604051639e31203160e01b815233600482015260ff841660248201526001600160a01b03909116906000908290639e312031906044016020604051808303816000875af11580156112f7573d6000803e3d6000fd5b505050506040513d601f19601f8201168201806040525081019061131b91906138e1565b905061133f611332600b546001600160a01b031690565b66a6fa40407180006122e0565b9392505050565b61134e6120f2565b8015611407576013546001600160a01b03166113a25760405162461bcd60e51b81526020600482015260136024820152721d185c9d1a58dbdb9d1c9858dd1b9bdd1cd95d606a1b6044820152606401610923565b601354604051632d0de82160e01b8152600481018490526001600160a01b03909116908190632d0de82190602401600060405180830381600087803b1580156113ea57600080fd5b505af11580156113fe573d6000803e3d6000fd5b50505050505050565b60006114128361191a565b805190602001209050604051806060016040528060358152602001613bed6035913960405160200161144491906136f2565b6040516020818303038152906040528051906020012081146114985760405162461bcd60e51b815260206004820152600d60248201526c746172746973746e6f746e657760981b6044820152606401610923565b6109c4836040518060600160405280602e8152602001613bbf602e91396040516020016114c591906136f2565b60405160208183030381529060405261214c565b610f15338383612344565b600e602052816000526040600020818154811061105257600080fd5b600067025bf6196bd10000341461154d5760405162461bcd60e51b815260206004820152601160248201527036b4b9b9b4b733b1b7b6b6b4b9b9b4b7b760791b6044820152606401610923565b606484511061158e5760405162461bcd60e51b815260206004820152600d60248201526c746f6f6d616e7974726169747360981b6044820152606401610923565b60648351106115d25760405162461bcd60e51b815260206004820152601060248201526f746f6f6d616e79747261697476616c7360801b6044820152606401610923565b60648251106116165760405162461bcd60e51b815260206004820152601060248201526f746f6f6d616e797472616974646f6d7360801b6044820152606401610923565b60005b84518110156116ab576000600f600087848151811061163a5761163a61371e565b60200260200101518152602001908152602001600020805461165b90613635565b9050116116995760405162461bcd60e51b815260206004820152600c60248201526b1a5b9d985b1a591d1c985a5d60a21b6044820152606401610923565b806116a3816138fa565b915050611619565b50606060005b855181101561170a57818682815181106116cd576116cd61371e565b60200260200101516040516020016116e6929190613913565b60405160208183030381529060405291508080611702906138fa565b9150506116b1565b50606060005b8551811015611769578186828151811061172c5761172c61371e565b6020026020010151604051602001611745929190613935565b60405160208183030381529060405291508080611761906138fa565b915050611710565b506000828260405160200161177f929190613935565b60408051601f1981840301815291815281516020928301206000818152601190935291205490915060ff1615156001036117e95760405162461bcd60e51b815260206004820152600b60248201526a67656e65746963636f707960a81b6044820152606401610923565b6000818152601160205260409020805460ff19166001179055611810601480546001019055565b600061181b60145490565b6000818152600d602090815260409091208a5192935061183f9290918b0190612d73565b506000818152601060209081526040909120885161185f928a0190612dbe565b506000818152600e60209081526040909120875161187f92890190612e10565b5061188a8982612412565b6118b7816040518060600160405280602e8152602001613c57602e91396040516020016114c591906136f2565b6118da6118cc600b546001600160a01b031690565b67025bf6196bd100006122e0565b93505050505b949350505050565b6118f23383611f03565b61190e5760405162461bcd60e51b81526004016109239061366f565b610d138484848461242c565b60606107f08261245f565b61192d6120f2565b60005b83811015611b2957600f600086868481811061194e5761194e61371e565b905060200201358152602001908152602001600020805461196e90613635565b1590506119aa5760405162461bcd60e51b815260206004820152600a6024820152690747261697469646475760b41b6044820152606401610923565b60158383838181106119be576119be61371e565b90506020028101906119d09190613964565b6040516119de92919061370e565b908152602001604051809103902054600014611a275760405162461bcd60e51b8152602060048201526008602482015267074726169746475760c41b6044820152606401610923565b828282818110611a3957611a3961371e565b9050602002810190611a4b9190613964565b600f6000888886818110611a6157611a6161371e565b9050602002013581526020019081526020016000209182611a839291906139ab565b50848482818110611a9657611a9661371e565b905060200201356015848484818110611ab157611ab161371e565b9050602002810190611ac39190613964565b604051611ad192919061370e565b90815260405190819003602001902055600c858583818110611af557611af561371e565b8354600181018555600094855260209485902091909402929092013591909201555080611b21816138fa565b915050611930565b5050505050565b600f6020526000908152604090208054610ac890613635565b606060106000838152602001908152602001600020805480602002602001604051908101604052809291908181526020016000905b82821015611c2a578382906000526020600020018054611b9d90613635565b80601f0160208091040260200160405190810160405280929190818152602001828054611bc990613635565b8015611c165780601f10611beb57610100808354040283529160200191611c16565b820191906000526020600020905b815481529060010190602001808311611bf957829003601f168201915b505050505081526020019060010190611b7e565b505050509050919050565b6000818152600d6020908152604091829020805483518184028101840190945280845260609392830182828015610f6f5760200282019190600052602060002090815481526020019060010190808311610f5b5750505050509050919050565b6040516371d4ed8d60e11b81526001600160a01b0382811660048301526000917f00000000000000000000000000000000000000000000000000000000000000009091169063e3a9db1a90602401602060405180830381865afa158015611d00573d6000803e3d6000fd5b505050506040513d601f19601f820116820180604052508101906107f091906138e1565b60606040518060600160405280603a8152602001613b85603a9139905090565b6060600c80548060200260200160405190810160405280929190818152602001828054801561087e57602002820191906000526020600020905b815481526020019060010190808311611d7e575050505050905090565b611da36120f2565b6001600160a01b038116611e085760405162461bcd60e51b815260206004820152602660248201527f4f776e61626c653a206e6577206f776e657220697320746865207a65726f206160448201526564647265737360d01b6064820152608401610923565b610d818161228e565b60006001600160e01b0319821663780e9d6360e01b14806107f057506107f082612576565b6000818152600260205260409020546001600160a01b0316610d815760405162461bcd60e51b8152602060048201526018602482015277115490cdcc8c4e881a5b9d985b1a59081d1bdad95b88125160421b6044820152606401610923565b600081815260046020526040902080546001600160a01b0319166001600160a01b0384169081179091558190611eca82610e5c565b6001600160a01b03167f8c5be1e5ebec7d5bd14f71427d1e84f3dd0314c0f7b2291e5b200ac8c7c3b92560405160405180910390a45050565b600080611f0f83610e5c565b9050806001600160a01b0316846001600160a01b03161480611f5657506001600160a01b0380821660009081526005602090815260408083209388168352929052205460ff165b806118e05750836001600160a01b0316611f6f84610888565b6001600160a01b031614949350505050565b826001600160a01b0316611f9482610e5c565b6001600160a01b031614611fba5760405162461bcd60e51b815260040161092390613a6b565b6001600160a01b03821661201c5760405162461bcd60e51b8152602060048201526024808201527f4552433732313a207472616e7366657220746f20746865207a65726f206164646044820152637265737360e01b6064820152608401610923565b612029838383600161259b565b826001600160a01b031661203c82610e5c565b6001600160a01b0316146120625760405162461bcd60e51b815260040161092390613a6b565b600081815260046020908152604080832080546001600160a01b03199081169091556001600160a01b0387811680865260038552838620805460001901905590871680865283862080546001019055868652600290945282852080549092168417909155905184937fddf252ad1be2c89b69c2b068fc378daa952ba7f163c4a11628f55a4df523b3ef91a4505050565b600b546001600160a01b031633146110135760405162461bcd60e51b815260206004820181905260248201527f4f776e61626c653a2063616c6c6572206973206e6f7420746865206f776e65726044820152606401610923565b6000828152600260205260409020546001600160a01b03166121c75760405162461bcd60e51b815260206004820152602e60248201527f45524337323155524953746f726167653a2055524920736574206f66206e6f6e60448201526d32bc34b9ba32b73a103a37b5b2b760911b6064820152608401610923565b60008281526006602052604090206121df82826137f8565b506040518281527ff8e1a15aba9398e019f0b49df1a4fde98ee17ae345cb5f6b5e2c27f5033e8ce79060200160405180910390a15050565b6040516351cff8d960e01b81526001600160a01b0382811660048301527f000000000000000000000000000000000000000000000000000000000000000016906351cff8d990602401600060405180830381600087803b15801561227a57600080fd5b505af1158015611b29573d6000803e3d6000fd5b600b80546001600160a01b038381166001600160a01b0319831681179093556040519116919082907f8be0079c531659141344cd1fd0a4f28419497f9722a3daafe3b4186f6b6457e090600090a35050565b60405163f340fa0160e01b81526001600160a01b0383811660048301527f0000000000000000000000000000000000000000000000000000000000000000169063f340fa019083906024016000604051808303818588803b1580156113ea57600080fd5b816001600160a01b0316836001600160a01b0316036123a55760405162461bcd60e51b815260206004820152601960248201527f4552433732313a20617070726f766520746f2063616c6c6572000000000000006044820152606401610923565b6001600160a01b03838116600081815260056020908152604080832094871680845294825291829020805460ff191686151590811790915591519182527f17307eab39ab6107e8899845ad3d59bd9653f200f220920489ca2b5937696c31910160405180910390a3505050565b610f158282604051806020016040528060008152506125a7565b612437848484611f81565b612443848484846125da565b610d135760405162461bcd60e51b815260040161092390613ab0565b606061246a82611e36565b6000828152600660205260408120805461248390613635565b80601f01602080910402602001604051908101604052809291908181526020018280546124af90613635565b80156124fc5780601f106124d1576101008083540402835291602001916124fc565b820191906000526020600020905b8154815290600101906020018083116124df57829003601f168201915b505050505090506000612529604080518082019091526007815266697066733a2f2f60c81b602082015290565b9050805160000361253b575092915050565b81511561256d578082604051602001612555929190613935565b60405160208183030381529060405292505050919050565b6118e0846126d8565b60006001600160e01b03198216632483248360e11b14806107f057506107f08261275a565b610d13848484846127aa565b6125b183836128df565b6125be60008484846125da565b6109c45760405162461bcd60e51b815260040161092390613ab0565b60006001600160a01b0384163b156126d057604051630a85bd0160e11b81526001600160a01b0385169063150b7a029061261e903390899088908890600401613b02565b6020604051808303816000875af1925050508015612659575060408051601f3d908101601f1916820190925261265691810190613b3e565b60015b6126b6573d808015612687576040519150601f19603f3d011682016040523d82523d6000602084013e61268c565b606091505b5080516000036126ae5760405162461bcd60e51b815260040161092390613ab0565b805181602001fd5b6001600160e01b031916630a85bd0160e11b1490506118e0565b5060016118e0565b60606126e382611e36565b6000612709604080518082019091526007815266697066733a2f2f60c81b602082015290565b90506000815111612729576040518060200160405280600081525061133f565b8061273384612a78565b604051602001612744929190613935565b6040516020818303038152906040529392505050565b60006001600160e01b031982166380ac58cd60e01b148061278b57506001600160e01b03198216635b5e139f60e01b145b806107f057506301ffc9a760e01b6001600160e01b03198316146107f0565b60018111156128215760405162461bcd60e51b815260206004820152603560248201527f455243373231456e756d657261626c653a20636f6e736563757469766520747260448201527f616e7366657273206e6f7420737570706f7274656400000000000000000000006064820152608401610923565b816001600160a01b03851661287d5761287881600980546000838152600a60205260408120829055600182018355919091527f6e1540171b6c0c960b71a7020d9f60077f6af931a8bbf590da0223dacf75c7af0155565b6128a0565b836001600160a01b0316856001600160a01b0316146128a0576128a08582612b0b565b6001600160a01b0384166128bc576128b781612ba8565b611b29565b846001600160a01b0316846001600160a01b031614611b2957611b298482612c57565b6001600160a01b0382166129355760405162461bcd60e51b815260206004820181905260248201527f4552433732313a206d696e7420746f20746865207a65726f20616464726573736044820152606401610923565b6000818152600260205260409020546001600160a01b03161561299a5760405162461bcd60e51b815260206004820152601c60248201527f4552433732313a20746f6b656e20616c7265616479206d696e746564000000006044820152606401610923565b6129a860008383600161259b565b6000818152600260205260409020546001600160a01b031615612a0d5760405162461bcd60e51b815260206004820152601c60248201527f4552433732313a20746f6b656e20616c7265616479206d696e746564000000006044820152606401610923565b6001600160a01b038216600081815260036020908152604080832080546001019055848352600290915280822080546001600160a01b0319168417905551839291907fddf252ad1be2c89b69c2b068fc378daa952ba7f163c4a11628f55a4df523b3ef908290a45050565b60606000612a8583612c9b565b600101905060008167ffffffffffffffff811115612aa557612aa56131b2565b6040519080825280601f01601f191660200182016040528015612acf576020820181803683370190505b5090508181016020015b600019016f181899199a1a9b1b9c1cb0b131b232b360811b600a86061a8153600a8504945084612ad957509392505050565b60006001612b1884610f7b565b612b229190613b5b565b600083815260086020526040902054909150808214612b75576001600160a01b03841660009081526007602090815260408083208584528252808320548484528184208190558352600890915290208190555b5060009182526008602090815260408084208490556001600160a01b039094168352600781528383209183525290812055565b600954600090612bba90600190613b5b565b6000838152600a602052604081205460098054939450909284908110612be257612be261371e565b906000526020600020015490508060098381548110612c0357612c0361371e565b6000918252602080832090910192909255828152600a90915260408082208490558582528120556009805480612c3b57612c3b613b6e565b6001900381819060005260206000200160009055905550505050565b6000612c6283610f7b565b6001600160a01b039093166000908152600760209081526040808320868452825280832085905593825260089052919091209190915550565b60008072184f03e93ff9f4daa797ed6e38ed64bf6a1f0160401b8310612cda5772184f03e93ff9f4daa797ed6e38ed64bf6a1f0160401b830492506040015b6d04ee2d6d415b85acef81000000008310612d06576d04ee2d6d415b85acef8100000000830492506020015b662386f26fc100008310612d2457662386f26fc10000830492506010015b6305f5e1008310612d3c576305f5e100830492506008015b6127108310612d5057612710830492506004015b60648310612d62576064830492506002015b600a83106107f05760010192915050565b828054828255906000526020600020908101928215612dae579160200282015b82811115612dae578251825591602001919060010190612d93565b50612dba929150612e50565b5090565b828054828255906000526020600020908101928215612e04579160200282015b82811115612e045782518290612df490826137f8565b5091602001919060010190612dde565b50612dba929150612e65565b828054828255906000526020600020908101928215612dae579160200282015b82811115612dae578251829060ff16905591602001919060010190612e30565b5b80821115612dba5760008155600101612e51565b80821115612dba576000612e798282612e82565b50600101612e65565b508054612e8e90613635565b6000825580601f10612e9e575050565b601f016020900490600052602060002090810190610d819190612e50565b6001600160e01b031981168114610d8157600080fd5b600060208284031215612ee457600080fd5b813561133f81612ebc565b60005b83811015612f0a578181015183820152602001612ef2565b50506000910152565b60008151808452612f2b816020860160208601612eef565b601f01601f19169290920160200192915050565b60208152600061133f6020830184612f13565b600060208284031215612f6457600080fd5b5035919050565b6001600160a01b0381168114610d8157600080fd5b60008060408385031215612f9357600080fd5b8235612f9e81612f6b565b946020939093013593505050565b600080600060608486031215612fc157600080fd5b8335612fcc81612f6b565b92506020840135612fdc81612f6b565b929592945050506040919091013590565b6000806040838503121561300057600080fd5b50508035926020909101359150565b8035801515811461301f57600080fd5b919050565b6000806000806060858703121561303a57600080fd5b84359350602085013567ffffffffffffffff8082111561305957600080fd5b818701915087601f83011261306d57600080fd5b81358181111561307c57600080fd5b88602082850101111561308e57600080fd5b6020830195508094505050506130a66040860161300f565b905092959194509250565b6000602082840312156130c357600080fd5b813561133f81612f6b565b6020808252825182820181905260009190848201906040850190845b81811015613106578351835292840192918401916001016130ea565b50909695505050505050565b803560ff8116811461301f57600080fd5b6000806040838503121561313657600080fd5b612f9e83613112565b60006020828403121561315157600080fd5b61133f82613112565b6000806040838503121561316d57600080fd5b8235915061317d6020840161300f565b90509250929050565b6000806040838503121561319957600080fd5b82356131a481612f6b565b915061317d6020840161300f565b634e487b7160e01b600052604160045260246000fd5b604051601f8201601f1916810167ffffffffffffffff811182821017156131f1576131f16131b2565b604052919050565b600067ffffffffffffffff821115613213576132136131b2565b5060051b60200190565b600067ffffffffffffffff831115613237576132376131b2565b61324a601f8401601f19166020016131c8565b905082815283838301111561325e57600080fd5b828260208301376000602084830101529392505050565b600082601f83011261328657600080fd5b8135602061329b613296836131f9565b6131c8565b82815260059290921b840181019181810190868411156132ba57600080fd5b8286015b8481101561330f57803567ffffffffffffffff8111156132de5760008081fd5b8701603f810189136132f05760008081fd5b61330189868301356040840161321d565b8452509183019183016132be565b509695505050505050565b600082601f83011261332b57600080fd5b8135602061333b613296836131f9565b82815260059290921b8401810191818101908684111561335a57600080fd5b8286015b8481101561330f5761336f81613112565b835291830191830161335e565b6000806000806080858703121561339257600080fd5b843561339d81612f6b565b935060208581013567ffffffffffffffff808211156133bb57600080fd5b818801915088601f8301126133cf57600080fd5b81356133dd613296826131f9565b81815260059190911b8301840190848101908b8311156133fc57600080fd5b938501935b8285101561341a57843582529385019390850190613401565b97505050604088013592508083111561343257600080fd5b61343e89848a01613275565b9450606088013592508083111561345457600080fd5b50506134628782880161331a565b91505092959194509250565b6000806000806080858703121561348457600080fd5b843561348f81612f6b565b9350602085013561349f81612f6b565b925060408501359150606085013567ffffffffffffffff8111156134c257600080fd5b8501601f810187136134d357600080fd5b6134628782356020840161321d565b60008083601f8401126134f457600080fd5b50813567ffffffffffffffff81111561350c57600080fd5b6020830191508360208260051b850101111561352757600080fd5b9250929050565b6000806000806040858703121561354457600080fd5b843567ffffffffffffffff8082111561355c57600080fd5b613568888389016134e2565b9096509450602087013591508082111561358157600080fd5b5061358e878288016134e2565b95989497509550505050565b6000602080830181845280855180835260408601915060408160051b870101925083870160005b828110156135ef57603f198886030184526135dd858351612f13565b945092850192908501906001016135c1565b5092979650505050505050565b6000806040838503121561360f57600080fd5b823561361a81612f6b565b9150602083013561362a81612f6b565b809150509250929050565b600181811c9082168061364957607f821691505b60208210810361366957634e487b7160e01b600052602260045260246000fd5b50919050565b6020808252602d908201527f4552433732313a2063616c6c6572206973206e6f7420746f6b656e206f776e6560408201526c1c881bdc88185c1c1c9bdd9959609a1b606082015260800190565b83815260406020820152816040820152818360608301376000818301606090810191909152601f909201601f1916010192915050565b60008251613704818460208701612eef565b9190910192915050565b8183823760009101908152919050565b634e487b7160e01b600052603260045260246000fd5b600080835461374281613635565b6001828116801561375a576001811461376f5761379e565b60ff198416875282151583028701945061379e565b8760005260208060002060005b858110156137955781548a82015290840190820161377c565b50505082870194505b50929695505050505050565b601f8211156109c457600081815260208120601f850160051c810160208610156137d15750805b601f850160051c820191505b818110156137f0578281556001016137dd565b505050505050565b815167ffffffffffffffff811115613812576138126131b2565b613826816138208454613635565b846137aa565b602080601f83116001811461385b57600084156138435750858301515b600019600386901b1c1916600185901b1785556137f0565b600085815260208120601f198616915b8281101561388a5788860151825594840194600190910190840161386b565b50858210156138a85787850151600019600388901b60f8161c191681555b5050505050600190811b01905550565b634e487b7160e01b600052601160045260246000fd5b808201808211156107f0576107f06138b8565b6000602082840312156138f357600080fd5b5051919050565b60006001820161390c5761390c6138b8565b5060010190565b60008351613925818460208801612eef565b9190910191825250602001919050565b60008351613947818460208801612eef565b83519083019061395b818360208801612eef565b01949350505050565b6000808335601e1984360301811261397b57600080fd5b83018035915067ffffffffffffffff82111561399657600080fd5b60200191503681900382131561352757600080fd5b67ffffffffffffffff8311156139c3576139c36131b2565b6139d7836139d18354613635565b836137aa565b6000601f841160018114613a0b57600085156139f35750838201355b600019600387901b1c1916600186901b178355611b29565b600083815260209020601f19861690835b82811015613a3c5786850135825560209485019460019092019101613a1c565b5086821015613a595760001960f88860031b161c19848701351681555b505060018560011b0183555050505050565b60208082526025908201527f4552433732313a207472616e736665722066726f6d20696e636f72726563742060408201526437bbb732b960d91b606082015260800190565b60208082526032908201527f4552433732313a207472616e7366657220746f206e6f6e20455243373231526560408201527131b2b4bb32b91034b6b83632b6b2b73a32b960711b606082015260800190565b60006001600160a01b03808716835280861660208401525083604083015260806060830152613b346080830184612f13565b9695505050505050565b600060208284031215613b5057600080fd5b815161133f81612ebc565b818103818111156107f0576107f06138b8565b634e487b7160e01b600052603160045260246000fdfe687474703a2f2f74617274697075626c696366696c65732e74617274696172742e636f6d2f546172746973742e6d657461646174612e6a736f6e516d58554876447666466b6b36663447656958357470454e6832614179485977703542757a456843546f37396b46697066733a2f2f516d594b587270466d41425448375677664d5776585852744d4a57446354546d42337651585353643272456b5952697066733a2f2f516d58554876447666466b6b36663447656958357470454e6832614179485977703542757a456843546f37396b46516d594b587270466d41425448375677664d5776585852744d4a57446354546d42337651585353643272456b5952a264697066735822122019e62c86c4822df50609d84d5518c1369b979ef674cfbf7f4b47e3d841916be864736f6c63430008120033608060405234801561001057600080fd5b5061001a3361001f565b61006f565b600080546001600160a01b038381166001600160a01b0319831681178455604051919092169283917f8be0079c531659141344cd1fd0a4f28419497f9722a3daafe3b4186f6b6457e09190a35050565b61052b8061007e6000396000f3fe6080604052600436106100655760003560e01c8063e3a9db1a11610043578063e3a9db1a146100ce578063f2fde38b14610112578063f340fa011461013257600080fd5b806351cff8d91461006a578063715018a61461008c5780638da5cb5b146100a1575b600080fd5b34801561007657600080fd5b5061008a6100853660046104aa565b610145565b005b34801561009857600080fd5b5061008a6101bc565b3480156100ad57600080fd5b506000546040516001600160a01b0390911681526020015b60405180910390f35b3480156100da57600080fd5b506101046100e93660046104aa565b6001600160a01b031660009081526001602052604090205490565b6040519081526020016100c5565b34801561011e57600080fd5b5061008a61012d3660046104aa565b6101d0565b61008a6101403660046104aa565b61024e565b61014d6102c0565b6001600160a01b0381166000818152600160205260408120805491905590610175908261031a565b816001600160a01b03167f7084f5476618d8e60b11ef0d7d3f06914655adb8793e28ff7f018d4c76d505d5826040516101b091815260200190565b60405180910390a25050565b6101c46102c0565b6101ce6000610438565b565b6101d86102c0565b6001600160a01b0381166102425760405162461bcd60e51b815260206004820152602660248201527f4f776e61626c653a206e6577206f776e657220697320746865207a65726f206160448201526564647265737360d01b60648201526084015b60405180910390fd5b61024b81610438565b50565b6102566102c0565b6001600160a01b0381166000908152600160205260408120805434928392916102809084906104ce565b90915550506040518181526001600160a01b038316907f2da466a7b24304f47e87fa2e1e5a81b9831ce54fec19055ce277ca2f39ba42c4906020016101b0565b6000546001600160a01b031633146101ce5760405162461bcd60e51b815260206004820181905260248201527f4f776e61626c653a2063616c6c6572206973206e6f7420746865206f776e65726044820152606401610239565b8047101561036a5760405162461bcd60e51b815260206004820152601d60248201527f416464726573733a20696e73756666696369656e742062616c616e63650000006044820152606401610239565b6000826001600160a01b03168260405160006040518083038185875af1925050503d80600081146103b7576040519150601f19603f3d011682016040523d82523d6000602084013e6103bc565b606091505b50509050806104335760405162461bcd60e51b815260206004820152603a60248201527f416464726573733a20756e61626c6520746f2073656e642076616c75652c207260448201527f6563697069656e74206d617920686176652072657665727465640000000000006064820152608401610239565b505050565b600080546001600160a01b0383811673ffffffffffffffffffffffffffffffffffffffff19831681178455604051919092169283917f8be0079c531659141344cd1fd0a4f28419497f9722a3daafe3b4186f6b6457e09190a35050565b6001600160a01b038116811461024b57600080fd5b6000602082840312156104bc57600080fd5b81356104c781610495565b9392505050565b808201808211156104ef57634e487b7160e01b600052601160045260246000fd5b9291505056fea26469706673582212207630c956a833d396a6df8046df377a7513c6968c9f1862c2b44873c4fe356e9564736f6c63430008120033",
  "immutableReferences": {
    "147": [
      {
        "length": 32,
        "start": 7351
      },
      {
        "length": 32,
        "start": 8758
      },
      {
        "length": 32,
        "start": 8959
      }
    ]
  },
  "source": "// SPDX-License-Identifier: MIT\npragma solidity ^0.8.18;\n\nimport \"@openzeppelin/contracts/token/ERC721/extensions/ERC721URIStorage.sol\";\nimport \"@openzeppelin/contracts/utils/Counters.sol\";\nimport \"@openzeppelin/contracts/security/PullPayment.sol\";\nimport \"@openzeppelin/contracts/access/Ownable.sol\";\nimport \"./Tarti.sol\";\n\ncontract Tartist is ERC721URIStorage, ERC721Enumerable, PullPayment, Ownable {\n    using Counters for Counters.Counter;\n\n    uint256 public constant MINT_TARTIST_PRICE = 0.17 ether;\n    uint256 public constant MINT_TARTI_PRICE = 0.047 ether;\n    uint256[] public allTraits;\n    mapping(uint256 => uint256[]) public botTraits;\n    mapping(uint256 => uint256[]) public botTraitDominances;\n    mapping(uint256 => string) public availableTraits;\n    mapping(uint256 => string[]) public botTraitValues;\n    mapping(bytes32 => bool) private _usedTraitComboHashes;\n\n    //Tartist owner can set to greater than zero, allowing other to use their Tartist to make art\n    mapping(uint8 => uint256) public tartiRoyaltyRate;\n\n    address private _tartiAddr;\n    Counters.Counter private _currentTokenId;\n    mapping(string => uint256) private _allTraitsByName;\n\n    bytes private constant _newMetadataCid =\n        \"QmYKXrpFmABTH7VwfMWvXXRtMJWDcTTmB3vQXSSd2rEkYR\";\n    bytes private constant _newMetadataUri =\n        \"ipfs://QmYKXrpFmABTH7VwfMWvXXRtMJWDcTTmB3vQXSSd2rEkYR\";\n    bytes private constant _inProcessMetadataCid =\n        \"QmXUHvDvfFkk6f4GeiX5tpENh2aAyHYwp5BuzEhCTo79kF\";\n    bytes private constant _inProcessMetadataUri =\n        \"ipfs://QmXUHvDvfFkk6f4GeiX5tpENh2aAyHYwp5BuzEhCTo79kF\";\n\n    event PermanentURI(string _value, uint256 indexed _id);\n\n    constructor() ERC721(\"Tarti Artist\", \"TARTIST\") {}\n\n    /**\n    @dev\n    `traitName` will either be:\n    - The name of the Trait class (ie MusicProducer)\n    - The name of the Trait with dot then the name of the trait prop appended (ie DynMusicProductionStyle.FavoriteKeys)\n    -- In this case the TraitAI trait being added to the bot is DynMusicProductionStyle, \n    -- and the prop the value wll map to is FavoriteKeys.\n    -- This flat structure will be nice for the NFT metadata to be standard and easy.\n    -- When it gets sent into the TraitHttpIO we will need to pull out the props and put them all beneath the same single trait.\n     */\n    function addTraits(\n        uint256[] calldata traitCode,\n        string[] calldata traitName\n    ) public onlyOwner {\n\n        for (uint i = 0; i < traitCode.length; i++) {\n            require(bytes(availableTraits[traitCode[i]]).length == 0, \"traitiddup\");\n            require(_allTraitsByName[traitName[i]] == 0, \"traitdup\");\n            availableTraits[traitCode[i]] = traitName[i];\n            _allTraitsByName[traitName[i]] = traitCode[i];\n            allTraits.push(traitCode[i]);\n        }\n    }\n\n    function cancelTrait(uint256 traitCode) public onlyOwner {\n        _allTraitsByName[availableTraits[traitCode]] = 0;\n        availableTraits[traitCode] = \"\";\n    }\n\n    function getAllTraits() external view returns (uint256[] memory) {\n        return allTraits;\n    }\n\n    /**\n    Mint a TARTIST token\n    This function `giveBrith` should be used in place of the traditional `mintTo`. \n    */\n    function giveBirth(\n        address recipient,\n        uint256[] memory traits,\n        string[] memory dynamicTraitValues,\n        uint8[] memory traitDominance\n    ) public payable returns (uint256) {\n        require(msg.value == MINT_TARTIST_PRICE, \"missingcommission\");\n        require(traits.length < 100, \"toomanytraits\");\n        require(dynamicTraitValues.length < 100, \"toomanytraitvals\");\n        require(traitDominance.length < 100, \"toomanytraitdoms\");\n\n        for (uint256 i = 0; i < traits.length; i++) {\n            require(\n                bytes(availableTraits[traits[i]]).length > 0,\n                \"invalidtrait\"\n            );\n        }\n\n        bytes memory traitBytes;\n        for (uint256 i = 0; i < traits.length; i++) {\n            traitBytes = abi.encodePacked(traitBytes, traits[i]);\n        }\n\n        bytes memory dynTraitValuesBytes;\n        for (uint256 i = 0; i < dynamicTraitValues.length; i++) {\n            dynTraitValuesBytes = abi.encodePacked(\n                dynTraitValuesBytes,\n                dynamicTraitValues[i]\n            );\n        }\n        bytes32 botTraitsHash = keccak256(\n            bytes.concat(traitBytes, dynTraitValuesBytes)\n        );\n        require(_usedTraitComboHashes[botTraitsHash] != true, \"geneticcopy\");\n\n        _usedTraitComboHashes[botTraitsHash] = true;\n        _currentTokenId.increment();\n        uint256 newItemId = _currentTokenId.current();\n        botTraits[newItemId] = traits;\n        botTraitValues[newItemId] = dynamicTraitValues;\n        botTraitDominances[newItemId] = traitDominance;\n        _safeMint(recipient, newItemId);\n        _setTokenURI(newItemId, string(abi.encodePacked(_newMetadataCid)));\n\n        _asyncTransfer(owner(), MINT_TARTIST_PRICE);\n        return newItemId;\n    }\n\n    function setRoyaltyRate(uint8 artistId, uint256 ratePerTarti) public {\n        require(msg.sender == ownerOf(artistId), \"norights\");\n        tartiRoyaltyRate[artistId] = ratePerTarti;\n    }\n\n    /**\n    Mint a TARTI token.\n    You cannot mint a TARTI token directly on the TARTI contract.\n    You must do it through this (TARTIST) contract using the `newArt` function.\n    Minter must send MINT_TARTI_PRICE + whatever royalty the TARTIST owner has set.\n    */\n    function newArt(uint8 artistId) public payable returns (uint256) {\n        //address canot be blank\n        require(_tartiAddr != address(0), \"tarticontractnotset\");\n\n        //call newArt on the Tarti contract\n        //Tarti only allows this contract to call that method\n        //First check that the caller is allowed to use this tartist, either by owning it or paying royalties\n\n        //norights = specified artist is not contractually obligated, nor even allowed, to make any art for you.\n        if (tartiRoyaltyRate[artistId] == 0) {\n            //if royalty rate is not set, then only the owner can make art with this Tartist\n            require(msg.sender == ownerOf(artistId), \"norights\");\n            require(msg.value == MINT_TARTI_PRICE, \"missingcommission\"); //.018 eth\n        }\n        if (tartiRoyaltyRate[artistId] > 0) {\n            //if royalty rate is not set, then anyone can make art with this Tartist but they must pay the royalty.\n            require(\n                msg.value == MINT_TARTI_PRICE + tartiRoyaltyRate[artistId],\n                \"missingcommissionroyals\"\n            ); //.018 eth + royalty\n\n            //mark the royalty as payable to Tartist owner (can be withdrawn using pull payment)\n            _asyncTransfer(ownerOf(artistId), tartiRoyaltyRate[artistId]);\n        }\n\n        //use the Tarti contract to create a new Tarti token\n        //Trait engine will see the new Tarti on the blockchain and create the art/music\n\n        Tarti tarti = Tarti(_tartiAddr);\n\n        //mint the tarti token\n        uint256 newTartiToken = tarti.newArt(msg.sender, artistId);\n\n        //mark payment payable to contract owner\n        _asyncTransfer(owner(), MINT_TARTI_PRICE);\n        return newTartiToken;\n    }\n\n    /// @dev Returns an URI for a given token ID\n    function _baseURI() internal pure override returns (string memory) {\n        return \"ipfs://\";\n    }\n\n    function contractURI() public pure returns (string memory) {\n        return \"http://tartipublicfiles.tartiart.com/Tartist.metadata.json\";\n    }\n\n    function setTartiAddr(address tartiAddr) public onlyOwner {\n        _tartiAddr = tartiAddr;\n    }\n\n    function setCreationStarted(\n        uint256 tokenId,\n        bool onTarti\n    ) public onlyOwner {\n        if (onTarti) {\n            require(_tartiAddr != address(0), \"tarticontractnotset\");\n            Tarti tarti = Tarti(_tartiAddr);\n            return tarti.setCreationStarted(tokenId);\n        }\n\n        bytes32 tokenUriBytesHash = keccak256(bytes(tokenURI(tokenId)));\n        require(\n            tokenUriBytesHash == keccak256(abi.encodePacked(_newMetadataUri)),\n            \"tartistnotnew\"\n        );\n\n        _setTokenURI(tokenId, string(abi.encodePacked(_inProcessMetadataCid)));\n    }\n\n    function setCreated(\n        uint256 tokenId,\n        bytes calldata cid,\n        bool onTarti\n    ) public onlyOwner {\n        if (onTarti) {\n            require(_tartiAddr != address(0), \"tarticontractnotset\");\n            Tarti tarti = Tarti(_tartiAddr);\n            return tarti.setCreated(tokenId, cid);\n        }\n\n        bytes32 tokenUriBytesHash = keccak256(bytes(tokenURI(tokenId)));\n        require(\n            tokenUriBytesHash ==\n                keccak256(abi.encodePacked(_inProcessMetadataUri)),\n            \"tartistnotstarted\"\n        );\n\n        string memory newUri = string(abi.encodePacked(cid));\n        _setTokenURI(tokenId, newUri);\n        emit PermanentURI(newUri, tokenId);\n    }\n\n    function getTraits(\n        uint256 tokenId\n    ) external view returns (uint256[] memory) {\n        return botTraits[tokenId];\n    }\n\n    function getTraitValues(\n        uint256 tokenId\n    ) external view returns (string[] memory) {\n        return botTraitValues[tokenId];\n    }\n\n    function getTraitDominances(\n        uint256 tokenId\n    ) external view returns (uint256[] memory) {\n        return botTraitDominances[tokenId];\n    }\n\n    /// @dev Overridden in order to retrict caller to payee or owner\n    function withdrawPayments(address payable payee) public virtual override {\n        //Only allow payee to request withdrawl.\n        //Help protect against gas forwarding attack.\n        require(\n            msg.sender == payee || msg.sender == owner(),\n            \"unauthwithdrawl\"\n        );\n        super.withdrawPayments(payee);\n    }\n\n    function _burn(\n        uint256 tokenId\n    ) internal override(ERC721, ERC721URIStorage) {\n        super._burn(tokenId);\n    }\n\n    function _beforeTokenTransfer(\n        address from,\n        address to,\n        uint256 firstTokenId,\n        uint256 batchSize\n    ) internal override(ERC721, ERC721Enumerable) {\n        super._beforeTokenTransfer(from, to, firstTokenId, batchSize);\n    }\n\n    function supportsInterface(\n        bytes4 interfaceId\n    ) public view override(ERC721Enumerable, ERC721URIStorage) returns (bool) {\n        return super.supportsInterface(interfaceId);\n    }\n\n    function tokenURI(\n        uint256 tokenId\n    ) public view override(ERC721, ERC721URIStorage) returns (string memory) {\n        return ERC721URIStorage.tokenURI(tokenId);\n    }\n}\n",
  "sourcePath": "/home/evan/tartst/contracts/Tartist.sol",
  "compiler": {
    "name": "solc",
    "version": "0.8.18+commit.87f61d96.Emscripten.clang"
  },
  "schemaVersion": "3.4.14",
  "updatedAt": "2023-08-27T18:07:22.983Z",
  "networkType": "ethereum",
  "devdoc": {
    "events": {
      "Approval(address,address,uint256)": {
        "details": "Emitted when `owner` enables `approved` to manage the `tokenId` token."
      },
      "ApprovalForAll(address,address,bool)": {
        "details": "Emitted when `owner` enables or disables (`approved`) `operator` to manage all of its assets."
      },
      "BatchMetadataUpdate(uint256,uint256)": {
        "details": "This event emits when the metadata of a range of tokens is changed. So that the third-party platforms such as NFT market could timely update the images and related attributes of the NFTs."
      },
      "MetadataUpdate(uint256)": {
        "details": "This event emits when the metadata of a token is changed. So that the third-party platforms such as NFT market could timely update the images and related attributes of the NFT."
      },
      "Transfer(address,address,uint256)": {
        "details": "Emitted when `tokenId` token is transferred from `from` to `to`."
      }
    },
    "kind": "dev",
    "methods": {
      "addTraits(uint256[],string[])": {
        "details": "`traitName` will either be: - The name of the Trait class (ie MusicProducer) - The name of the Trait with dot then the name of the trait prop appended (ie DynMusicProductionStyle.FavoriteKeys) -- In this case the TraitAI trait being added to the bot is DynMusicProductionStyle,  -- and the prop the value wll map to is FavoriteKeys. -- This flat structure will be nice for the NFT metadata to be standard and easy. -- When it gets sent into the TraitHttpIO we will need to pull out the props and put them all beneath the same single trait."
      },
      "approve(address,uint256)": {
        "details": "See {IERC721-approve}."
      },
      "balanceOf(address)": {
        "details": "See {IERC721-balanceOf}."
      },
      "getApproved(uint256)": {
        "details": "See {IERC721-getApproved}."
      },
      "isApprovedForAll(address,address)": {
        "details": "See {IERC721-isApprovedForAll}."
      },
      "name()": {
        "details": "See {IERC721Metadata-name}."
      },
      "owner()": {
        "details": "Returns the address of the current owner."
      },
      "ownerOf(uint256)": {
        "details": "See {IERC721-ownerOf}."
      },
      "payments(address)": {
        "details": "Returns the payments owed to an address.",
        "params": {
          "dest": "The creditor's address."
        }
      },
      "renounceOwnership()": {
        "details": "Leaves the contract without owner. It will not be possible to call `onlyOwner` functions. Can only be called by the current owner. NOTE: Renouncing ownership will leave the contract without an owner, thereby disabling any functionality that is only available to the owner."
      },
      "safeTransferFrom(address,address,uint256)": {
        "details": "See {IERC721-safeTransferFrom}."
      },
      "safeTransferFrom(address,address,uint256,bytes)": {
        "details": "See {IERC721-safeTransferFrom}."
      },
      "setApprovalForAll(address,bool)": {
        "details": "See {IERC721-setApprovalForAll}."
      },
      "symbol()": {
        "details": "See {IERC721Metadata-symbol}."
      },
      "tokenByIndex(uint256)": {
        "details": "See {IERC721Enumerable-tokenByIndex}."
      },
      "tokenOfOwnerByIndex(address,uint256)": {
        "details": "See {IERC721Enumerable-tokenOfOwnerByIndex}."
      },
      "totalSupply()": {
        "details": "See {IERC721Enumerable-totalSupply}."
      },
      "transferFrom(address,address,uint256)": {
        "details": "See {IERC721-transferFrom}."
      },
      "transferOwnership(address)": {
        "details": "Transfers ownership of the contract to a new account (`newOwner`). Can only be called by the current owner."
      },
      "withdrawPayments(address)": {
        "details": "Overridden in order to retrict caller to payee or owner"
      }
    },
    "version": 1
  },
  "userdoc": {
    "kind": "user",
    "methods": {
      "giveBirth(address,uint256[],string[],uint8[])": {
        "notice": "Mint a TARTIST token This function `giveBrith` should be used in place of the traditional `mintTo`. "
      },
      "newArt(uint8)": {
        "notice": "Mint a TARTI token. You cannot mint a TARTI token directly on the TARTI contract. You must do it through this (TARTIST) contract using the `newArt` function. Minter must send MINT_TARTI_PRICE + whatever royalty the TARTIST owner has set."
      }
    },
    "version": 1
  }
}