{
  "contractName": "Tartist",
  "abi": [
    {
      "inputs": [],
      "stateMutability": "nonpayable",
      "type": "constructor"
    },
    {
      "anonymous": false,
      "inputs": [
        {
          "indexed": true,
          "internalType": "address",
          "name": "owner",
          "type": "address"
        },
        {
          "indexed": true,
          "internalType": "address",
          "name": "approved",
          "type": "address"
        },
        {
          "indexed": true,
          "internalType": "uint256",
          "name": "tokenId",
          "type": "uint256"
        }
      ],
      "name": "Approval",
      "type": "event"
    },
    {
      "anonymous": false,
      "inputs": [
        {
          "indexed": true,
          "internalType": "address",
          "name": "owner",
          "type": "address"
        },
        {
          "indexed": true,
          "internalType": "address",
          "name": "operator",
          "type": "address"
        },
        {
          "indexed": false,
          "internalType": "bool",
          "name": "approved",
          "type": "bool"
        }
      ],
      "name": "ApprovalForAll",
      "type": "event"
    },
    {
      "anonymous": false,
      "inputs": [
        {
          "indexed": false,
          "internalType": "uint256",
          "name": "_fromTokenId",
          "type": "uint256"
        },
        {
          "indexed": false,
          "internalType": "uint256",
          "name": "_toTokenId",
          "type": "uint256"
        }
      ],
      "name": "BatchMetadataUpdate",
      "type": "event"
    },
    {
      "anonymous": false,
      "inputs": [
        {
          "indexed": false,
          "internalType": "uint256",
          "name": "_tokenId",
          "type": "uint256"
        }
      ],
      "name": "MetadataUpdate",
      "type": "event"
    },
    {
      "anonymous": false,
      "inputs": [
        {
          "indexed": true,
          "internalType": "address",
          "name": "previousOwner",
          "type": "address"
        },
        {
          "indexed": true,
          "internalType": "address",
          "name": "newOwner",
          "type": "address"
        }
      ],
      "name": "OwnershipTransferred",
      "type": "event"
    },
    {
      "anonymous": false,
      "inputs": [
        {
          "indexed": false,
          "internalType": "string",
          "name": "_value",
          "type": "string"
        },
        {
          "indexed": true,
          "internalType": "uint256",
          "name": "_id",
          "type": "uint256"
        }
      ],
      "name": "PermanentURI",
      "type": "event"
    },
    {
      "anonymous": false,
      "inputs": [
        {
          "indexed": true,
          "internalType": "address",
          "name": "from",
          "type": "address"
        },
        {
          "indexed": true,
          "internalType": "address",
          "name": "to",
          "type": "address"
        },
        {
          "indexed": true,
          "internalType": "uint256",
          "name": "tokenId",
          "type": "uint256"
        }
      ],
      "name": "Transfer",
      "type": "event"
    },
    {
      "inputs": [],
      "name": "MINT_TARTIST_PRICE",
      "outputs": [
        {
          "internalType": "uint256",
          "name": "",
          "type": "uint256"
        }
      ],
      "stateMutability": "view",
      "type": "function",
      "constant": true
    },
    {
      "inputs": [],
      "name": "MINT_TARTI_PRICE",
      "outputs": [
        {
          "internalType": "uint256",
          "name": "",
          "type": "uint256"
        }
      ],
      "stateMutability": "view",
      "type": "function",
      "constant": true
    },
    {
      "inputs": [
        {
          "internalType": "uint256",
          "name": "",
          "type": "uint256"
        }
      ],
      "name": "allTraits",
      "outputs": [
        {
          "internalType": "uint256",
          "name": "",
          "type": "uint256"
        }
      ],
      "stateMutability": "view",
      "type": "function",
      "constant": true
    },
    {
      "inputs": [
        {
          "internalType": "address",
          "name": "to",
          "type": "address"
        },
        {
          "internalType": "uint256",
          "name": "tokenId",
          "type": "uint256"
        }
      ],
      "name": "approve",
      "outputs": [],
      "stateMutability": "nonpayable",
      "type": "function"
    },
    {
      "inputs": [
        {
          "internalType": "uint256",
          "name": "",
          "type": "uint256"
        }
      ],
      "name": "availableTraits",
      "outputs": [
        {
          "internalType": "string",
          "name": "",
          "type": "string"
        }
      ],
      "stateMutability": "view",
      "type": "function",
      "constant": true
    },
    {
      "inputs": [
        {
          "internalType": "address",
          "name": "owner",
          "type": "address"
        }
      ],
      "name": "balanceOf",
      "outputs": [
        {
          "internalType": "uint256",
          "name": "",
          "type": "uint256"
        }
      ],
      "stateMutability": "view",
      "type": "function",
      "constant": true
    },
    {
      "inputs": [
        {
          "internalType": "uint256",
          "name": "",
          "type": "uint256"
        },
        {
          "internalType": "uint256",
          "name": "",
          "type": "uint256"
        }
      ],
      "name": "botTraitDominances",
      "outputs": [
        {
          "internalType": "uint256",
          "name": "",
          "type": "uint256"
        }
      ],
      "stateMutability": "view",
      "type": "function",
      "constant": true
    },
    {
      "inputs": [
        {
          "internalType": "uint256",
          "name": "",
          "type": "uint256"
        },
        {
          "internalType": "uint256",
          "name": "",
          "type": "uint256"
        }
      ],
      "name": "botTraitValues",
      "outputs": [
        {
          "internalType": "string",
          "name": "",
          "type": "string"
        }
      ],
      "stateMutability": "view",
      "type": "function",
      "constant": true
    },
    {
      "inputs": [
        {
          "internalType": "uint256",
          "name": "",
          "type": "uint256"
        },
        {
          "internalType": "uint256",
          "name": "",
          "type": "uint256"
        }
      ],
      "name": "botTraits",
      "outputs": [
        {
          "internalType": "uint256",
          "name": "",
          "type": "uint256"
        }
      ],
      "stateMutability": "view",
      "type": "function",
      "constant": true
    },
    {
      "inputs": [
        {
          "internalType": "uint256",
          "name": "tokenId",
          "type": "uint256"
        }
      ],
      "name": "getApproved",
      "outputs": [
        {
          "internalType": "address",
          "name": "",
          "type": "address"
        }
      ],
      "stateMutability": "view",
      "type": "function",
      "constant": true
    },
    {
      "inputs": [
        {
          "internalType": "address",
          "name": "owner",
          "type": "address"
        },
        {
          "internalType": "address",
          "name": "operator",
          "type": "address"
        }
      ],
      "name": "isApprovedForAll",
      "outputs": [
        {
          "internalType": "bool",
          "name": "",
          "type": "bool"
        }
      ],
      "stateMutability": "view",
      "type": "function",
      "constant": true
    },
    {
      "inputs": [],
      "name": "name",
      "outputs": [
        {
          "internalType": "string",
          "name": "",
          "type": "string"
        }
      ],
      "stateMutability": "view",
      "type": "function",
      "constant": true
    },
    {
      "inputs": [],
      "name": "owner",
      "outputs": [
        {
          "internalType": "address",
          "name": "",
          "type": "address"
        }
      ],
      "stateMutability": "view",
      "type": "function",
      "constant": true
    },
    {
      "inputs": [
        {
          "internalType": "uint256",
          "name": "tokenId",
          "type": "uint256"
        }
      ],
      "name": "ownerOf",
      "outputs": [
        {
          "internalType": "address",
          "name": "",
          "type": "address"
        }
      ],
      "stateMutability": "view",
      "type": "function",
      "constant": true
    },
    {
      "inputs": [
        {
          "internalType": "address",
          "name": "dest",
          "type": "address"
        }
      ],
      "name": "payments",
      "outputs": [
        {
          "internalType": "uint256",
          "name": "",
          "type": "uint256"
        }
      ],
      "stateMutability": "view",
      "type": "function",
      "constant": true
    },
    {
      "inputs": [],
      "name": "renounceOwnership",
      "outputs": [],
      "stateMutability": "nonpayable",
      "type": "function"
    },
    {
      "inputs": [
        {
          "internalType": "address",
          "name": "from",
          "type": "address"
        },
        {
          "internalType": "address",
          "name": "to",
          "type": "address"
        },
        {
          "internalType": "uint256",
          "name": "tokenId",
          "type": "uint256"
        }
      ],
      "name": "safeTransferFrom",
      "outputs": [],
      "stateMutability": "nonpayable",
      "type": "function"
    },
    {
      "inputs": [
        {
          "internalType": "address",
          "name": "from",
          "type": "address"
        },
        {
          "internalType": "address",
          "name": "to",
          "type": "address"
        },
        {
          "internalType": "uint256",
          "name": "tokenId",
          "type": "uint256"
        },
        {
          "internalType": "bytes",
          "name": "data",
          "type": "bytes"
        }
      ],
      "name": "safeTransferFrom",
      "outputs": [],
      "stateMutability": "nonpayable",
      "type": "function"
    },
    {
      "inputs": [
        {
          "internalType": "address",
          "name": "operator",
          "type": "address"
        },
        {
          "internalType": "bool",
          "name": "approved",
          "type": "bool"
        }
      ],
      "name": "setApprovalForAll",
      "outputs": [],
      "stateMutability": "nonpayable",
      "type": "function"
    },
    {
      "inputs": [],
      "name": "symbol",
      "outputs": [
        {
          "internalType": "string",
          "name": "",
          "type": "string"
        }
      ],
      "stateMutability": "view",
      "type": "function",
      "constant": true
    },
    {
      "inputs": [
        {
          "internalType": "uint256",
          "name": "",
          "type": "uint256"
        }
      ],
      "name": "tartiRoyaltyRate",
      "outputs": [
        {
          "internalType": "uint256",
          "name": "",
          "type": "uint256"
        }
      ],
      "stateMutability": "view",
      "type": "function",
      "constant": true
    },
    {
      "inputs": [
        {
          "internalType": "uint256",
          "name": "index",
          "type": "uint256"
        }
      ],
      "name": "tokenByIndex",
      "outputs": [
        {
          "internalType": "uint256",
          "name": "",
          "type": "uint256"
        }
      ],
      "stateMutability": "view",
      "type": "function",
      "constant": true
    },
    {
      "inputs": [
        {
          "internalType": "address",
          "name": "owner",
          "type": "address"
        },
        {
          "internalType": "uint256",
          "name": "index",
          "type": "uint256"
        }
      ],
      "name": "tokenOfOwnerByIndex",
      "outputs": [
        {
          "internalType": "uint256",
          "name": "",
          "type": "uint256"
        }
      ],
      "stateMutability": "view",
      "type": "function",
      "constant": true
    },
    {
      "inputs": [],
      "name": "totalSupply",
      "outputs": [
        {
          "internalType": "uint256",
          "name": "",
          "type": "uint256"
        }
      ],
      "stateMutability": "view",
      "type": "function",
      "constant": true
    },
    {
      "inputs": [
        {
          "internalType": "address",
          "name": "from",
          "type": "address"
        },
        {
          "internalType": "address",
          "name": "to",
          "type": "address"
        },
        {
          "internalType": "uint256",
          "name": "tokenId",
          "type": "uint256"
        }
      ],
      "name": "transferFrom",
      "outputs": [],
      "stateMutability": "nonpayable",
      "type": "function"
    },
    {
      "inputs": [
        {
          "internalType": "address",
          "name": "newOwner",
          "type": "address"
        }
      ],
      "name": "transferOwnership",
      "outputs": [],
      "stateMutability": "nonpayable",
      "type": "function"
    },
    {
      "inputs": [
        {
          "internalType": "uint256",
          "name": "traitCode",
          "type": "uint256"
        },
        {
          "internalType": "string",
          "name": "traitName",
          "type": "string"
        }
      ],
      "name": "addTrait",
      "outputs": [],
      "stateMutability": "nonpayable",
      "type": "function"
    },
    {
      "inputs": [
        {
          "internalType": "uint256",
          "name": "traitCode",
          "type": "uint256"
        }
      ],
      "name": "cancelTrait",
      "outputs": [],
      "stateMutability": "nonpayable",
      "type": "function"
    },
    {
      "inputs": [],
      "name": "getAllTraits",
      "outputs": [
        {
          "internalType": "uint256[]",
          "name": "",
          "type": "uint256[]"
        }
      ],
      "stateMutability": "view",
      "type": "function",
      "constant": true
    },
    {
      "inputs": [
        {
          "internalType": "address",
          "name": "recipient",
          "type": "address"
        },
        {
          "internalType": "uint256[]",
          "name": "traits",
          "type": "uint256[]"
        },
        {
          "internalType": "string[]",
          "name": "dynamicTraitValues",
          "type": "string[]"
        },
        {
          "internalType": "uint8[]",
          "name": "traitDominance",
          "type": "uint8[]"
        }
      ],
      "name": "giveBirth",
      "outputs": [
        {
          "internalType": "uint256",
          "name": "",
          "type": "uint256"
        }
      ],
      "stateMutability": "payable",
      "type": "function",
      "payable": true
    },
    {
      "inputs": [
        {
          "internalType": "uint8",
          "name": "artistId",
          "type": "uint8"
        },
        {
          "internalType": "uint256",
          "name": "ratePerTarti",
          "type": "uint256"
        }
      ],
      "name": "setRoyaltyRate",
      "outputs": [],
      "stateMutability": "nonpayable",
      "type": "function"
    },
    {
      "inputs": [
        {
          "internalType": "uint8",
          "name": "artistId",
          "type": "uint8"
        }
      ],
      "name": "newArt",
      "outputs": [
        {
          "internalType": "uint256",
          "name": "",
          "type": "uint256"
        }
      ],
      "stateMutability": "payable",
      "type": "function",
      "payable": true
    },
    {
      "inputs": [],
      "name": "contractURI",
      "outputs": [
        {
          "internalType": "string",
          "name": "",
          "type": "string"
        }
      ],
      "stateMutability": "pure",
      "type": "function",
      "constant": true
    },
    {
      "inputs": [
        {
          "internalType": "address",
          "name": "tartiAddr",
          "type": "address"
        }
      ],
      "name": "setTartiAddr",
      "outputs": [],
      "stateMutability": "nonpayable",
      "type": "function"
    },
    {
      "inputs": [
        {
          "internalType": "uint256",
          "name": "tokenId",
          "type": "uint256"
        },
        {
          "internalType": "bool",
          "name": "onTarti",
          "type": "bool"
        }
      ],
      "name": "setCreationStarted",
      "outputs": [],
      "stateMutability": "nonpayable",
      "type": "function"
    },
    {
      "inputs": [
        {
          "internalType": "uint256",
          "name": "tokenId",
          "type": "uint256"
        },
        {
          "internalType": "bytes",
          "name": "cid",
          "type": "bytes"
        },
        {
          "internalType": "bool",
          "name": "onTarti",
          "type": "bool"
        }
      ],
      "name": "setCreated",
      "outputs": [],
      "stateMutability": "nonpayable",
      "type": "function"
    },
    {
      "inputs": [
        {
          "internalType": "uint256",
          "name": "tokenId",
          "type": "uint256"
        }
      ],
      "name": "getTraits",
      "outputs": [
        {
          "internalType": "uint256[]",
          "name": "",
          "type": "uint256[]"
        }
      ],
      "stateMutability": "view",
      "type": "function",
      "constant": true
    },
    {
      "inputs": [
        {
          "internalType": "uint256",
          "name": "tokenId",
          "type": "uint256"
        }
      ],
      "name": "getTraitValues",
      "outputs": [
        {
          "internalType": "string[]",
          "name": "",
          "type": "string[]"
        }
      ],
      "stateMutability": "view",
      "type": "function",
      "constant": true
    },
    {
      "inputs": [
        {
          "internalType": "uint256",
          "name": "tokenId",
          "type": "uint256"
        }
      ],
      "name": "getTraitDominances",
      "outputs": [
        {
          "internalType": "uint256[]",
          "name": "",
          "type": "uint256[]"
        }
      ],
      "stateMutability": "view",
      "type": "function",
      "constant": true
    },
    {
      "inputs": [
        {
          "internalType": "address payable",
          "name": "payee",
          "type": "address"
        }
      ],
      "name": "withdrawPayments",
      "outputs": [],
      "stateMutability": "nonpayable",
      "type": "function"
    },
    {
      "inputs": [
        {
          "internalType": "bytes4",
          "name": "interfaceId",
          "type": "bytes4"
        }
      ],
      "name": "supportsInterface",
      "outputs": [
        {
          "internalType": "bool",
          "name": "",
          "type": "bool"
        }
      ],
      "stateMutability": "view",
      "type": "function",
      "constant": true
    },
    {
      "inputs": [
        {
          "internalType": "uint256",
          "name": "tokenId",
          "type": "uint256"
        }
      ],
      "name": "tokenURI",
      "outputs": [
        {
          "internalType": "string",
          "name": "",
          "type": "string"
        }
      ],
      "stateMutability": "view",
      "type": "function",
      "constant": true
    }
  ],
  "bytecode": "0x60a06040523480156200001157600080fd5b506040518060400160405280600c81526020016b15185c9d1a48105c9d1a5cdd60a21b81525060405180604001604052806007815260200166151054951254d560ca1b8152508160009081620000689190620001c8565b506001620000778282620001c8565b505050604051620000889062000115565b604051809103906000f080158015620000a5573d6000803e3d6000fd5b506001600160a01b0316608052620000bd33620000c3565b62000294565b600b80546001600160a01b038381166001600160a01b0319831681179093556040519116919082907f8be0079c531659141344cd1fd0a4f28419497f9722a3daafe3b4186f6b6457e090600090a35050565b6105a98062003d2d83390190565b634e487b7160e01b600052604160045260246000fd5b600181811c908216806200014e57607f821691505b6020821081036200016f57634e487b7160e01b600052602260045260246000fd5b50919050565b601f821115620001c357600081815260208120601f850160051c810160208610156200019e5750805b601f850160051c820191505b81811015620001bf57828155600101620001aa565b5050505b505050565b81516001600160401b03811115620001e457620001e462000123565b620001fc81620001f5845462000139565b8462000175565b602080601f8311600181146200023457600084156200021b5750858301515b600019600386901b1c1916600185901b178555620001bf565b600085815260208120601f198616915b82811015620002655788860151825594840194600190910190840162000244565b5085821015620002845787850151600019600388901b60f8161c191681555b5050505050600190811b01905550565b608051613a6f620002be60003960008181611bd20152818161215101526122210152613a6f6000f3fe6080604052600436106102715760003560e01c8063751ee47311610149578063c87b56dd116100c6578063e1dc07611161008a578063e985e9c511610064578063e985e9c514610767578063ee14918c146107b0578063f2fde38b146107c557600080fd5b8063e1dc076114610712578063e2982c2114610732578063e8a3d4851461075257600080fd5b8063c87b56dd14610658578063dc5effe714610678578063de2d02b014610698578063ded865b7146106c5578063e0b64371146106e557600080fd5b80639b848ea91161010d5780639b848ea9146105c5578063a22cb465146105e5578063adaa00e514610605578063b543842e14610625578063b88d4fde1461063857600080fd5b8063751ee4731461053f5780638da5cb5b1461055f57806395204a961461057d57806395d89b411461059d5780639ab5dc47146105b257600080fd5b806340eb171a116101f2578063639eac2e116101b657806370a082311161019057806370a08231146104ea578063715018a61461050a578063750f681c1461051f57600080fd5b8063639eac2e146104825780636bf1c36a146104a25780636ce75ea2146104bd57600080fd5b806340eb171a146103e657806342842e0e146104065780634f6ccce714610426578063580a294b146104465780636352211e1461046257600080fd5b806323b872dd1161023957806323b872dd146103465780632f745c591461036657806330b640901461038657806331806368146103a657806331b3eb94146103c657600080fd5b806301ffc9a71461027657806306fdde03146102ab578063081812fc146102cd578063095ea7b31461030557806318160ddd14610327575b600080fd5b34801561028257600080fd5b50610296610291366004612df4565b6107e5565b60405190151581526020015b60405180910390f35b3480156102b757600080fd5b506102c06107f6565b6040516102a29190612e61565b3480156102d957600080fd5b506102ed6102e8366004612e74565b610888565b6040516001600160a01b0390911681526020016102a2565b34801561031157600080fd5b50610325610320366004612ea2565b6108af565b005b34801561033357600080fd5b506009545b6040519081526020016102a2565b34801561035257600080fd5b50610325610361366004612ece565b6109c9565b34801561037257600080fd5b50610338610381366004612ea2565b6109fa565b34801561039257600080fd5b506102c06103a1366004612f0f565b610a90565b3480156103b257600080fd5b506103256103c1366004612f46565b610b49565b3480156103d257600080fd5b506103256103e1366004612fd3565b610d19565b3480156103f257600080fd5b50610325610401366004612fd3565b610d84565b34801561041257600080fd5b50610325610421366004612ece565b610dae565b34801561043257600080fd5b50610338610441366004612e74565b610dc9565b34801561045257600080fd5b5061033867027f7d0bdb92000081565b34801561046e57600080fd5b506102ed61047d366004612e74565b610e5c565b34801561048e57600080fd5b5061032561049d366004612e74565b610ebc565b3480156104ae57600080fd5b5061033866aa87bee538000081565b3480156104c957600080fd5b506104dd6104d8366004612e74565b610f19565b6040516102a29190612ff0565b3480156104f657600080fd5b50610338610505366004612fd3565b610f7b565b34801561051657600080fd5b50610325611001565b34801561052b57600080fd5b5061033861053a366004612e74565b611015565b34801561054b57600080fd5b5061033861055a366004612f0f565b611036565b34801561056b57600080fd5b50600b546001600160a01b03166102ed565b34801561058957600080fd5b50610325610598366004613045565b611067565b3480156105a957600080fd5b506102c06110d4565b6103386105c0366004613061565b6110e3565b3480156105d157600080fd5b506103256105e036600461307c565b611346565b3480156105f157600080fd5b506103256106003660046130a8565b6114d9565b34801561061157600080fd5b50610338610620366004612f0f565b6114e4565b6103386106333660046132a9565b611500565b34801561064457600080fd5b5061032561065336600461339b565b6118e8565b34801561066457600080fd5b506102c0610673366004612e74565b61191a565b34801561068457600080fd5b506102c0610693366004612e74565b611925565b3480156106a457600080fd5b506103386106b3366004612e74565b60136020526000908152604090205481565b3480156106d157600080fd5b506103256106e036600461340f565b61193e565b3480156106f157600080fd5b50610705610700366004612e74565b611a64565b6040516102a29190613456565b34801561071e57600080fd5b506104dd61072d366004612e74565b611b50565b34801561073e57600080fd5b5061033861074d366004612fd3565b611bb0565b34801561075e57600080fd5b506102c0611c3f565b34801561077357600080fd5b506102966107823660046134b8565b6001600160a01b03918216600090815260056020908152604080832093909416825291909152205460ff1690565b3480156107bc57600080fd5b506104dd611c5f565b3480156107d157600080fd5b506103256107e0366004612fd3565b611cb6565b60006107f082611d2c565b92915050565b606060008054610805906134f1565b80601f0160208091040260200160405190810160405280929190818152602001828054610831906134f1565b801561087e5780601f106108535761010080835404028352916020019161087e565b820191906000526020600020905b81548152906001019060200180831161086157829003601f168201915b5050505050905090565b600061089382611d51565b506000908152600460205260409020546001600160a01b031690565b60006108ba82610e5c565b9050806001600160a01b0316836001600160a01b03160361092c5760405162461bcd60e51b815260206004820152602160248201527f4552433732313a20617070726f76616c20746f2063757272656e74206f776e656044820152603960f91b60648201526084015b60405180910390fd5b336001600160a01b038216148061094857506109488133610782565b6109ba5760405162461bcd60e51b815260206004820152603d60248201527f4552433732313a20617070726f76652063616c6c6572206973206e6f7420746f60448201527f6b656e206f776e6572206f7220617070726f76656420666f7220616c6c0000006064820152608401610923565b6109c48383611db0565b505050565b6109d33382611e1e565b6109ef5760405162461bcd60e51b81526004016109239061352b565b6109c4838383611e9c565b6000610a0583610f7b565b8210610a675760405162461bcd60e51b815260206004820152602b60248201527f455243373231456e756d657261626c653a206f776e657220696e646578206f7560448201526a74206f6620626f756e647360a81b6064820152608401610923565b506001600160a01b03919091166000908152600760209081526040808320938352929052205490565b60126020528160005260406000208181548110610aac57600080fd5b90600052602060002001600091509150508054610ac8906134f1565b80601f0160208091040260200160405190810160405280929190818152602001828054610af4906134f1565b8015610b415780601f10610b1657610100808354040283529160200191610b41565b820191906000526020600020905b815481529060010190602001808311610b2457829003601f168201915b505050505081565b610b5161200d565b8015610c13576015546001600160a01b0316610ba55760405162461bcd60e51b81526020600482015260136024820152721d185c9d1a58dbdb9d1c9858dd1b9bdd1cd95d606a1b6044820152606401610923565b601554604051636a71167960e11b81526001600160a01b0390911690819063d4e22cf290610bdb90889088908890600401613578565b600060405180830381600087803b158015610bf557600080fd5b505af1158015610c09573d6000803e3d6000fd5b5050505050610d13565b6000610c1e8561191a565b8051906020012090506040518060600160405280603581526020016139d760359139604051602001610c5091906135ae565b604051602081830303815290604052805190602001208114610ca85760405162461bcd60e51b81526020600482015260116024820152701d185c9d1a5cdd1b9bdd1cdd185c9d1959607a1b6044820152606401610923565b60008484604051602001610cbd9291906135ca565b6040516020818303038152906040529050610cd88682612067565b857fa109ba539900bf1b633f956d63c96fc89b814c7287f7aa50a9216d0b5565720782604051610d089190612e61565b60405180910390a250505b50505050565b336001600160a01b0382161480610d3a5750600b546001600160a01b031633145b610d785760405162461bcd60e51b815260206004820152600f60248201526e1d5b985d5d1a1dda5d1a191c985ddb608a1b6044820152606401610923565b610d8181612132565b50565b610d8c61200d565b601580546001600160a01b0319166001600160a01b0392909216919091179055565b6109c4838383604051806020016040528060008152506118e8565b6000610dd460095490565b8210610e375760405162461bcd60e51b815260206004820152602c60248201527f455243373231456e756d657261626c653a20676c6f62616c20696e646578206f60448201526b7574206f6620626f756e647360a01b6064820152608401610923565b60098281548110610e4a57610e4a6135da565b90600052602060002001549050919050565b6000818152600260205260408120546001600160a01b0316806107f05760405162461bcd60e51b8152602060048201526018602482015277115490cdcc8c4e881a5b9d985b1a59081d1bdad95b88125160421b6044820152606401610923565b610ec461200d565b6000818152601160205260408082209051600e91610ee1916135f0565b908152604080516020928190038301812093909355818301815260008084528481526011909252902090610f1590826136b4565b5050565b600081815260106020908152604091829020805483518184028101840190945280845260609392830182828015610f6f57602002820191906000526020600020905b815481526020019060010190808311610f5b575b50505050509050919050565b60006001600160a01b038216610fe55760405162461bcd60e51b815260206004820152602960248201527f4552433732313a2061646472657373207a65726f206973206e6f7420612076616044820152683634b21037bbb732b960b91b6064820152608401610923565b506001600160a01b031660009081526003602052604090205490565b61100961200d565b61101360006121b0565b565b600d818154811061102557600080fd5b600091825260209091200154905081565b600f602052816000526040600020818154811061105257600080fd5b90600052602060002001600091509150505481565b6110738260ff16610e5c565b6001600160a01b0316336001600160a01b0316146110be5760405162461bcd60e51b81526020600482015260086024820152676e6f72696768747360c01b6044820152606401610923565b60ff909116600090815260136020526040902055565b606060018054610805906134f1565b6015546000906001600160a01b03166111345760405162461bcd60e51b81526020600482015260136024820152721d185c9d1a58dbdb9d1c9858dd1b9bdd1cd95d606a1b6044820152606401610923565b60ff821660009081526013602052604081205490036111ee576111598260ff16610e5c565b6001600160a01b0316336001600160a01b0316146111a45760405162461bcd60e51b81526020600482015260086024820152676e6f72696768747360c01b6044820152606401610923565b66aa87bee538000034146111ee5760405162461bcd60e51b815260206004820152601160248201527036b4b9b9b4b733b1b7b6b6b4b9b9b4b7b760791b6044820152606401610923565b60ff82166000908152601360205260409020541561129f5760ff821660009081526013602052604090205461122a9066aa87bee538000061378a565b34146112785760405162461bcd60e51b815260206004820152601760248201527f6d697373696e67636f6d6d697373696f6e726f79616c730000000000000000006044820152606401610923565b61129f6112878360ff16610e5c565b60ff8416600090815260136020526040902054612202565b601554604051639e31203160e01b815233600482015260ff841660248201526001600160a01b03909116906000908290639e312031906044016020604051808303816000875af11580156112f7573d6000803e3d6000fd5b505050506040513d601f19601f8201168201806040525081019061131b919061379d565b905061133f611332600b546001600160a01b031690565b66aa87bee5380000612202565b9392505050565b61134e61200d565b8015611407576015546001600160a01b03166113a25760405162461bcd60e51b81526020600482015260136024820152721d185c9d1a58dbdb9d1c9858dd1b9bdd1cd95d606a1b6044820152606401610923565b601554604051632d0de82160e01b8152600481018490526001600160a01b03909116908190632d0de82190602401600060405180830381600087803b1580156113ea57600080fd5b505af11580156113fe573d6000803e3d6000fd5b50505050505050565b60006114128361191a565b8051906020012090506040518060600160405280603581526020016139a26035913960405160200161144491906135ae565b6040516020818303038152906040528051906020012081146114985760405162461bcd60e51b815260206004820152600d60248201526c746172746973746e6f746e657760981b6044820152606401610923565b6109c4836040518060600160405280602e8152602001613974602e91396040516020016114c591906135ae565b604051602081830303815290604052612067565b610f15338383612266565b6010602052816000526040600020818154811061105257600080fd5b600067027f7d0bdb920000341461154d5760405162461bcd60e51b815260206004820152601160248201527036b4b9b9b4b733b1b7b6b6b4b9b9b4b7b760791b6044820152606401610923565b606484511061158e5760405162461bcd60e51b815260206004820152600d60248201526c746f6f6d616e7974726169747360981b6044820152606401610923565b60648351106115d25760405162461bcd60e51b815260206004820152601060248201526f746f6f6d616e79747261697476616c7360801b6044820152606401610923565b60648251106116165760405162461bcd60e51b815260206004820152601060248201526f746f6f6d616e797472616974646f6d7360801b6044820152606401610923565b60005b84518110156116ab5760006011600087848151811061163a5761163a6135da565b60200260200101518152602001908152602001600020805461165b906134f1565b9050116116995760405162461bcd60e51b815260206004820152600c60248201526b1a5b9d985b1a591d1c985a5d60a21b6044820152606401610923565b806116a3816137b6565b915050611619565b50606060005b855181101561170a57818682815181106116cd576116cd6135da565b60200260200101516040516020016116e69291906137cf565b60405160208183030381529060405291508080611702906137b6565b9150506116b1565b50606060005b8551811015611769578186828151811061172c5761172c6135da565b60200260200101516040516020016117459291906137f1565b60405160208183030381529060405291508080611761906137b6565b915050611710565b506000828260405160200161177f9291906137f1565b60408051601f1981840301815291815281516020928301206000818152600c90935291205490915060ff1615156001036117e95760405162461bcd60e51b815260206004820152600b60248201526a67656e65746963636f707960a81b6044820152606401610923565b6000818152600c60205260409020805460ff19166001179055611810601480546001019055565b600061181b60145490565b6000818152600f602090815260409091208a5192935061183f9290918b0190612c95565b506000818152601260209081526040909120885161185f928a0190612ce0565b506000818152601060209081526040909120875161187f92890190612d32565b5061188a8982612334565b6118b7816040518060600160405280602e8152602001613a0c602e91396040516020016114c591906135ae565b6118da6118cc600b546001600160a01b031690565b67027f7d0bdb920000612202565b93505050505b949350505050565b6118f23383611e1e565b61190e5760405162461bcd60e51b81526004016109239061352b565b610d138484848461234e565b60606107f082612381565b60116020526000908152604090208054610ac8906134f1565b61194661200d565b6000828152601160205260409020805461195f906134f1565b15905061199b5760405162461bcd60e51b815260206004820152600a6024820152690747261697469646475760b41b6044820152606401610923565b600e816040516119ab91906135ae565b9081526020016040518091039020546000146119f45760405162461bcd60e51b8152602060048201526008602482015267074726169746475760c41b6044820152606401610923565b6000828152601160205260409020611a0c82826136b4565b5081600e82604051611a1e91906135ae565b9081526040519081900360200190205550600d80546001810182556000919091527fd7b6990105719101dabeb77144f2a3385c8033acd3af97e9423a695e81ad1eb50155565b606060126000838152602001908152602001600020805480602002602001604051908101604052809291908181526020016000905b82821015611b45578382906000526020600020018054611ab8906134f1565b80601f0160208091040260200160405190810160405280929190818152602001828054611ae4906134f1565b8015611b315780601f10611b0657610100808354040283529160200191611b31565b820191906000526020600020905b815481529060010190602001808311611b1457829003601f168201915b505050505081526020019060010190611a99565b505050509050919050565b6000818152600f6020908152604091829020805483518184028101840190945280845260609392830182828015610f6f5760200282019190600052602060002090815481526020019060010190808311610f5b5750505050509050919050565b6040516371d4ed8d60e11b81526001600160a01b0382811660048301526000917f00000000000000000000000000000000000000000000000000000000000000009091169063e3a9db1a90602401602060405180830381865afa158015611c1b573d6000803e3d6000fd5b505050506040513d601f19601f820116820180604052508101906107f0919061379d565b60606040518060600160405280603a815260200161393a603a9139905090565b6060600d80548060200260200160405190810160405280929190818152602001828054801561087e57602002820191906000526020600020905b815481526020019060010190808311611c99575050505050905090565b611cbe61200d565b6001600160a01b038116611d235760405162461bcd60e51b815260206004820152602660248201527f4f776e61626c653a206e6577206f776e657220697320746865207a65726f206160448201526564647265737360d01b6064820152608401610923565b610d81816121b0565b60006001600160e01b0319821663780e9d6360e01b14806107f057506107f082612498565b6000818152600260205260409020546001600160a01b0316610d815760405162461bcd60e51b8152602060048201526018602482015277115490cdcc8c4e881a5b9d985b1a59081d1bdad95b88125160421b6044820152606401610923565b600081815260046020526040902080546001600160a01b0319166001600160a01b0384169081179091558190611de582610e5c565b6001600160a01b03167f8c5be1e5ebec7d5bd14f71427d1e84f3dd0314c0f7b2291e5b200ac8c7c3b92560405160405180910390a45050565b600080611e2a83610e5c565b9050806001600160a01b0316846001600160a01b03161480611e7157506001600160a01b0380821660009081526005602090815260408083209388168352929052205460ff165b806118e05750836001600160a01b0316611e8a84610888565b6001600160a01b031614949350505050565b826001600160a01b0316611eaf82610e5c565b6001600160a01b031614611ed55760405162461bcd60e51b815260040161092390613820565b6001600160a01b038216611f375760405162461bcd60e51b8152602060048201526024808201527f4552433732313a207472616e7366657220746f20746865207a65726f206164646044820152637265737360e01b6064820152608401610923565b611f4483838360016124bd565b826001600160a01b0316611f5782610e5c565b6001600160a01b031614611f7d5760405162461bcd60e51b815260040161092390613820565b600081815260046020908152604080832080546001600160a01b03199081169091556001600160a01b0387811680865260038552838620805460001901905590871680865283862080546001019055868652600290945282852080549092168417909155905184937fddf252ad1be2c89b69c2b068fc378daa952ba7f163c4a11628f55a4df523b3ef91a4505050565b600b546001600160a01b031633146110135760405162461bcd60e51b815260206004820181905260248201527f4f776e61626c653a2063616c6c6572206973206e6f7420746865206f776e65726044820152606401610923565b6000828152600260205260409020546001600160a01b03166120e25760405162461bcd60e51b815260206004820152602e60248201527f45524337323155524953746f726167653a2055524920736574206f66206e6f6e60448201526d32bc34b9ba32b73a103a37b5b2b760911b6064820152608401610923565b60008281526006602052604090206120fa82826136b4565b506040518281527ff8e1a15aba9398e019f0b49df1a4fde98ee17ae345cb5f6b5e2c27f5033e8ce79060200160405180910390a15050565b6040516351cff8d960e01b81526001600160a01b0382811660048301527f000000000000000000000000000000000000000000000000000000000000000016906351cff8d990602401600060405180830381600087803b15801561219557600080fd5b505af11580156121a9573d6000803e3d6000fd5b5050505050565b600b80546001600160a01b038381166001600160a01b0319831681179093556040519116919082907f8be0079c531659141344cd1fd0a4f28419497f9722a3daafe3b4186f6b6457e090600090a35050565b60405163f340fa0160e01b81526001600160a01b0383811660048301527f0000000000000000000000000000000000000000000000000000000000000000169063f340fa019083906024016000604051808303818588803b1580156113ea57600080fd5b816001600160a01b0316836001600160a01b0316036122c75760405162461bcd60e51b815260206004820152601960248201527f4552433732313a20617070726f766520746f2063616c6c6572000000000000006044820152606401610923565b6001600160a01b03838116600081815260056020908152604080832094871680845294825291829020805460ff191686151590811790915591519182527f17307eab39ab6107e8899845ad3d59bd9653f200f220920489ca2b5937696c31910160405180910390a3505050565b610f158282604051806020016040528060008152506124c9565b612359848484611e9c565b612365848484846124fc565b610d135760405162461bcd60e51b815260040161092390613865565b606061238c82611d51565b600082815260066020526040812080546123a5906134f1565b80601f01602080910402602001604051908101604052809291908181526020018280546123d1906134f1565b801561241e5780601f106123f35761010080835404028352916020019161241e565b820191906000526020600020905b81548152906001019060200180831161240157829003601f168201915b50505050509050600061244b604080518082019091526007815266697066733a2f2f60c81b602082015290565b9050805160000361245d575092915050565b81511561248f5780826040516020016124779291906137f1565b60405160208183030381529060405292505050919050565b6118e0846125fa565b60006001600160e01b03198216632483248360e11b14806107f057506107f08261267c565b610d13848484846126cc565b6124d38383612801565b6124e060008484846124fc565b6109c45760405162461bcd60e51b815260040161092390613865565b60006001600160a01b0384163b156125f257604051630a85bd0160e11b81526001600160a01b0385169063150b7a02906125409033908990889088906004016138b7565b6020604051808303816000875af192505050801561257b575060408051601f3d908101601f19168201909252612578918101906138f3565b60015b6125d8573d8080156125a9576040519150601f19603f3d011682016040523d82523d6000602084013e6125ae565b606091505b5080516000036125d05760405162461bcd60e51b815260040161092390613865565b805181602001fd5b6001600160e01b031916630a85bd0160e11b1490506118e0565b5060016118e0565b606061260582611d51565b600061262b604080518082019091526007815266697066733a2f2f60c81b602082015290565b9050600081511161264b576040518060200160405280600081525061133f565b806126558461299a565b6040516020016126669291906137f1565b6040516020818303038152906040529392505050565b60006001600160e01b031982166380ac58cd60e01b14806126ad57506001600160e01b03198216635b5e139f60e01b145b806107f057506301ffc9a760e01b6001600160e01b03198316146107f0565b60018111156127435760405162461bcd60e51b815260206004820152603560248201527f455243373231456e756d657261626c653a20636f6e736563757469766520747260448201527f616e7366657273206e6f7420737570706f7274656400000000000000000000006064820152608401610923565b816001600160a01b03851661279f5761279a81600980546000838152600a60205260408120829055600182018355919091527f6e1540171b6c0c960b71a7020d9f60077f6af931a8bbf590da0223dacf75c7af0155565b6127c2565b836001600160a01b0316856001600160a01b0316146127c2576127c28582612a2d565b6001600160a01b0384166127de576127d981612aca565b6121a9565b846001600160a01b0316846001600160a01b0316146121a9576121a98482612b79565b6001600160a01b0382166128575760405162461bcd60e51b815260206004820181905260248201527f4552433732313a206d696e7420746f20746865207a65726f20616464726573736044820152606401610923565b6000818152600260205260409020546001600160a01b0316156128bc5760405162461bcd60e51b815260206004820152601c60248201527f4552433732313a20746f6b656e20616c7265616479206d696e746564000000006044820152606401610923565b6128ca6000838360016124bd565b6000818152600260205260409020546001600160a01b03161561292f5760405162461bcd60e51b815260206004820152601c60248201527f4552433732313a20746f6b656e20616c7265616479206d696e746564000000006044820152606401610923565b6001600160a01b038216600081815260036020908152604080832080546001019055848352600290915280822080546001600160a01b0319168417905551839291907fddf252ad1be2c89b69c2b068fc378daa952ba7f163c4a11628f55a4df523b3ef908290a45050565b606060006129a783612bbd565b600101905060008167ffffffffffffffff8111156129c7576129c76130d4565b6040519080825280601f01601f1916602001820160405280156129f1576020820181803683370190505b5090508181016020015b600019016f181899199a1a9b1b9c1cb0b131b232b360811b600a86061a8153600a85049450846129fb57509392505050565b60006001612a3a84610f7b565b612a449190613910565b600083815260086020526040902054909150808214612a97576001600160a01b03841660009081526007602090815260408083208584528252808320548484528184208190558352600890915290208190555b5060009182526008602090815260408084208490556001600160a01b039094168352600781528383209183525290812055565b600954600090612adc90600190613910565b6000838152600a602052604081205460098054939450909284908110612b0457612b046135da565b906000526020600020015490508060098381548110612b2557612b256135da565b6000918252602080832090910192909255828152600a90915260408082208490558582528120556009805480612b5d57612b5d613923565b6001900381819060005260206000200160009055905550505050565b6000612b8483610f7b565b6001600160a01b039093166000908152600760209081526040808320868452825280832085905593825260089052919091209190915550565b60008072184f03e93ff9f4daa797ed6e38ed64bf6a1f0160401b8310612bfc5772184f03e93ff9f4daa797ed6e38ed64bf6a1f0160401b830492506040015b6d04ee2d6d415b85acef81000000008310612c28576d04ee2d6d415b85acef8100000000830492506020015b662386f26fc100008310612c4657662386f26fc10000830492506010015b6305f5e1008310612c5e576305f5e100830492506008015b6127108310612c7257612710830492506004015b60648310612c84576064830492506002015b600a83106107f05760010192915050565b828054828255906000526020600020908101928215612cd0579160200282015b82811115612cd0578251825591602001919060010190612cb5565b50612cdc929150612d72565b5090565b828054828255906000526020600020908101928215612d26579160200282015b82811115612d265782518290612d1690826136b4565b5091602001919060010190612d00565b50612cdc929150612d87565b828054828255906000526020600020908101928215612cd0579160200282015b82811115612cd0578251829060ff16905591602001919060010190612d52565b5b80821115612cdc5760008155600101612d73565b80821115612cdc576000612d9b8282612da4565b50600101612d87565b508054612db0906134f1565b6000825580601f10612dc0575050565b601f016020900490600052602060002090810190610d819190612d72565b6001600160e01b031981168114610d8157600080fd5b600060208284031215612e0657600080fd5b813561133f81612dde565b60005b83811015612e2c578181015183820152602001612e14565b50506000910152565b60008151808452612e4d816020860160208601612e11565b601f01601f19169290920160200192915050565b60208152600061133f6020830184612e35565b600060208284031215612e8657600080fd5b5035919050565b6001600160a01b0381168114610d8157600080fd5b60008060408385031215612eb557600080fd5b8235612ec081612e8d565b946020939093013593505050565b600080600060608486031215612ee357600080fd5b8335612eee81612e8d565b92506020840135612efe81612e8d565b929592945050506040919091013590565b60008060408385031215612f2257600080fd5b50508035926020909101359150565b80358015158114612f4157600080fd5b919050565b60008060008060608587031215612f5c57600080fd5b84359350602085013567ffffffffffffffff80821115612f7b57600080fd5b818701915087601f830112612f8f57600080fd5b813581811115612f9e57600080fd5b886020828501011115612fb057600080fd5b602083019550809450505050612fc860408601612f31565b905092959194509250565b600060208284031215612fe557600080fd5b813561133f81612e8d565b6020808252825182820181905260009190848201906040850190845b818110156130285783518352928401929184019160010161300c565b50909695505050505050565b803560ff81168114612f4157600080fd5b6000806040838503121561305857600080fd5b612ec083613034565b60006020828403121561307357600080fd5b61133f82613034565b6000806040838503121561308f57600080fd5b8235915061309f60208401612f31565b90509250929050565b600080604083850312156130bb57600080fd5b82356130c681612e8d565b915061309f60208401612f31565b634e487b7160e01b600052604160045260246000fd5b604051601f8201601f1916810167ffffffffffffffff81118282101715613113576131136130d4565b604052919050565b600067ffffffffffffffff821115613135576131356130d4565b5060051b60200190565b600067ffffffffffffffff831115613159576131596130d4565b61316c601f8401601f19166020016130ea565b905082815283838301111561318057600080fd5b828260208301376000602084830101529392505050565b600082601f8301126131a857600080fd5b61133f8383356020850161313f565b600082601f8301126131c857600080fd5b813560206131dd6131d88361311b565b6130ea565b82815260059290921b840181019181810190868411156131fc57600080fd5b8286015b8481101561323c57803567ffffffffffffffff8111156132205760008081fd5b61322e8986838b0101613197565b845250918301918301613200565b509695505050505050565b600082601f83011261325857600080fd5b813560206132686131d88361311b565b82815260059290921b8401810191818101908684111561328757600080fd5b8286015b8481101561323c5761329c81613034565b835291830191830161328b565b600080600080608085870312156132bf57600080fd5b84356132ca81612e8d565b935060208581013567ffffffffffffffff808211156132e857600080fd5b818801915088601f8301126132fc57600080fd5b813561330a6131d88261311b565b81815260059190911b8301840190848101908b83111561332957600080fd5b938501935b828510156133475784358252938501939085019061332e565b97505050604088013592508083111561335f57600080fd5b61336b89848a016131b7565b9450606088013592508083111561338157600080fd5b505061338f87828801613247565b91505092959194509250565b600080600080608085870312156133b157600080fd5b84356133bc81612e8d565b935060208501356133cc81612e8d565b925060408501359150606085013567ffffffffffffffff8111156133ef57600080fd5b8501601f8101871361340057600080fd5b61338f8782356020840161313f565b6000806040838503121561342257600080fd5b82359150602083013567ffffffffffffffff81111561344057600080fd5b61344c85828601613197565b9150509250929050565b6000602080830181845280855180835260408601915060408160051b870101925083870160005b828110156134ab57603f19888603018452613499858351612e35565b9450928501929085019060010161347d565b5092979650505050505050565b600080604083850312156134cb57600080fd5b82356134d681612e8d565b915060208301356134e681612e8d565b809150509250929050565b600181811c9082168061350557607f821691505b60208210810361352557634e487b7160e01b600052602260045260246000fd5b50919050565b6020808252602d908201527f4552433732313a2063616c6c6572206973206e6f7420746f6b656e206f776e6560408201526c1c881bdc88185c1c1c9bdd9959609a1b606082015260800190565b83815260406020820152816040820152818360608301376000818301606090810191909152601f909201601f1916010192915050565b600082516135c0818460208701612e11565b9190910192915050565b8183823760009101908152919050565b634e487b7160e01b600052603260045260246000fd5b60008083546135fe816134f1565b60018281168015613616576001811461362b5761365a565b60ff198416875282151583028701945061365a565b8760005260208060002060005b858110156136515781548a820152908401908201613638565b50505082870194505b50929695505050505050565b601f8211156109c457600081815260208120601f850160051c8101602086101561368d5750805b601f850160051c820191505b818110156136ac57828155600101613699565b505050505050565b815167ffffffffffffffff8111156136ce576136ce6130d4565b6136e2816136dc84546134f1565b84613666565b602080601f83116001811461371757600084156136ff5750858301515b600019600386901b1c1916600185901b1785556136ac565b600085815260208120601f198616915b8281101561374657888601518255948401946001909101908401613727565b50858210156137645787850151600019600388901b60f8161c191681555b5050505050600190811b01905550565b634e487b7160e01b600052601160045260246000fd5b808201808211156107f0576107f0613774565b6000602082840312156137af57600080fd5b5051919050565b6000600182016137c8576137c8613774565b5060010190565b600083516137e1818460208801612e11565b9190910191825250602001919050565b60008351613803818460208801612e11565b835190830190613817818360208801612e11565b01949350505050565b60208082526025908201527f4552433732313a207472616e736665722066726f6d20696e636f72726563742060408201526437bbb732b960d91b606082015260800190565b60208082526032908201527f4552433732313a207472616e7366657220746f206e6f6e20455243373231526560408201527131b2b4bb32b91034b6b83632b6b2b73a32b960711b606082015260800190565b60006001600160a01b038087168352808616602084015250836040830152608060608301526138e96080830184612e35565b9695505050505050565b60006020828403121561390557600080fd5b815161133f81612dde565b818103818111156107f0576107f0613774565b634e487b7160e01b600052603160045260246000fdfe687474703a2f2f74617274697075626c696366696c65732e74617274696172742e636f6d2f546172746973742e6d657461646174612e6a736f6e516d58554876447666466b6b36663447656958357470454e6832614179485977703542757a456843546f37396b46697066733a2f2f516d594b587270466d41425448375677664d5776585852744d4a57446354546d42337651585353643272456b5952697066733a2f2f516d58554876447666466b6b36663447656958357470454e6832614179485977703542757a456843546f37396b46516d594b587270466d41425448375677664d5776585852744d4a57446354546d42337651585353643272456b5952a26469706673582212204065ef178c259028de4e6d3730d9ab5ce21adf1c8c71999fb0b81c850d81be9264736f6c63430008120033608060405234801561001057600080fd5b5061001a3361001f565b61006f565b600080546001600160a01b038381166001600160a01b0319831681178455604051919092169283917f8be0079c531659141344cd1fd0a4f28419497f9722a3daafe3b4186f6b6457e09190a35050565b61052b8061007e6000396000f3fe6080604052600436106100655760003560e01c8063e3a9db1a11610043578063e3a9db1a146100ce578063f2fde38b14610112578063f340fa011461013257600080fd5b806351cff8d91461006a578063715018a61461008c5780638da5cb5b146100a1575b600080fd5b34801561007657600080fd5b5061008a6100853660046104aa565b610145565b005b34801561009857600080fd5b5061008a6101bc565b3480156100ad57600080fd5b506000546040516001600160a01b0390911681526020015b60405180910390f35b3480156100da57600080fd5b506101046100e93660046104aa565b6001600160a01b031660009081526001602052604090205490565b6040519081526020016100c5565b34801561011e57600080fd5b5061008a61012d3660046104aa565b6101d0565b61008a6101403660046104aa565b61024e565b61014d6102c0565b6001600160a01b0381166000818152600160205260408120805491905590610175908261031a565b816001600160a01b03167f7084f5476618d8e60b11ef0d7d3f06914655adb8793e28ff7f018d4c76d505d5826040516101b091815260200190565b60405180910390a25050565b6101c46102c0565b6101ce6000610438565b565b6101d86102c0565b6001600160a01b0381166102425760405162461bcd60e51b815260206004820152602660248201527f4f776e61626c653a206e6577206f776e657220697320746865207a65726f206160448201526564647265737360d01b60648201526084015b60405180910390fd5b61024b81610438565b50565b6102566102c0565b6001600160a01b0381166000908152600160205260408120805434928392916102809084906104ce565b90915550506040518181526001600160a01b038316907f2da466a7b24304f47e87fa2e1e5a81b9831ce54fec19055ce277ca2f39ba42c4906020016101b0565b6000546001600160a01b031633146101ce5760405162461bcd60e51b815260206004820181905260248201527f4f776e61626c653a2063616c6c6572206973206e6f7420746865206f776e65726044820152606401610239565b8047101561036a5760405162461bcd60e51b815260206004820152601d60248201527f416464726573733a20696e73756666696369656e742062616c616e63650000006044820152606401610239565b6000826001600160a01b03168260405160006040518083038185875af1925050503d80600081146103b7576040519150601f19603f3d011682016040523d82523d6000602084013e6103bc565b606091505b50509050806104335760405162461bcd60e51b815260206004820152603a60248201527f416464726573733a20756e61626c6520746f2073656e642076616c75652c207260448201527f6563697069656e74206d617920686176652072657665727465640000000000006064820152608401610239565b505050565b600080546001600160a01b0383811673ffffffffffffffffffffffffffffffffffffffff19831681178455604051919092169283917f8be0079c531659141344cd1fd0a4f28419497f9722a3daafe3b4186f6b6457e09190a35050565b6001600160a01b038116811461024b57600080fd5b6000602082840312156104bc57600080fd5b81356104c781610495565b9392505050565b808201808211156104ef57634e487b7160e01b600052601160045260246000fd5b9291505056fea26469706673582212207630c956a833d396a6df8046df377a7513c6968c9f1862c2b44873c4fe356e9564736f6c63430008120033",
  "immutableReferences": {
    "147": [
      {
        "length": 32,
        "start": 7122
      },
      {
        "length": 32,
        "start": 8529
      },
      {
        "length": 32,
        "start": 8737
      }
    ]
  },
  "source": "// SPDX-License-Identifier: MIT\npragma solidity ^0.8.18;\n\nimport \"@openzeppelin/contracts/token/ERC721/extensions/ERC721URIStorage.sol\";\nimport \"@openzeppelin/contracts/utils/Counters.sol\";\nimport \"@openzeppelin/contracts/security/PullPayment.sol\";\nimport \"@openzeppelin/contracts/access/Ownable.sol\";\nimport \"./Tarti.sol\";\n\ncontract Tartist is ERC721URIStorage, ERC721Enumerable, PullPayment, Ownable {\n    using Counters for Counters.Counter;\n\n    uint256 public constant MINT_TARTIST_PRICE = 0.18 ether;\n    uint256 public constant MINT_TARTI_PRICE = 0.048 ether;\n    bytes private constant _newMetadataCid =\n        \"QmYKXrpFmABTH7VwfMWvXXRtMJWDcTTmB3vQXSSd2rEkYR\";\n    bytes private constant _newMetadataUri =\n        \"ipfs://QmYKXrpFmABTH7VwfMWvXXRtMJWDcTTmB3vQXSSd2rEkYR\";\n    bytes private constant _inProcessMetadataCid =\n        \"QmXUHvDvfFkk6f4GeiX5tpENh2aAyHYwp5BuzEhCTo79kF\";\n    bytes private constant _inProcessMetadataUri =\n        \"ipfs://QmXUHvDvfFkk6f4GeiX5tpENh2aAyHYwp5BuzEhCTo79kF\";\n    mapping(bytes32 => bool) private _usedTraitComboHashes;\n\n    uint256[] public allTraits;\n    mapping(string => uint256) private _allTraitsByName;\n    mapping(uint256 => uint256[]) public botTraits;\n    mapping(uint256 => uint256[]) public botTraitDominances;\n    mapping(uint256 => string) public availableTraits;\n    mapping(uint256 => string[]) public botTraitValues;\n\n    //Tartist owner can set to greater than zero, allowing other to use their Tartist to make art\n    mapping(uint256 => uint256) public tartiRoyaltyRate;\n\n    Counters.Counter private _currentTokenId;\n    address private _tartiAddr;\n\n    event PermanentURI(string _value, uint256 indexed _id);\n\n    constructor() ERC721(\"Tarti Artist\", \"TARTIST\") {}\n\n    /**\n    @dev\n    `traitName` will either be:\n    - The name of the Trait class (ie MusicProducer)\n    - The name of the Trait with dot then the name of the trait prop appended (ie DynMusicProductionStyle.FavoriteKeys)\n    -- In this case the TraitAI trait being added to the bot is DynMusicProductionStyle, \n    -- and the prop the value wll map to is FavoriteKeys.\n    -- This flat structure will be nice for the NFT metadata to be standard and easy.\n    -- When it gets sent into the TraitHttpIO we will need to pull out the props and put them all beneath the same single trait.\n     */\n    function addTrait(\n        uint256 traitCode,\n        string memory traitName\n    ) public onlyOwner {\n        require(bytes(availableTraits[traitCode]).length == 0, \"traitiddup\");\n        require(_allTraitsByName[traitName] == 0, \"traitdup\");\n        availableTraits[traitCode] = traitName;\n        _allTraitsByName[traitName] = traitCode;\n        allTraits.push(traitCode);\n    }\n\n    function cancelTrait(uint256 traitCode) public onlyOwner {\n        _allTraitsByName[availableTraits[traitCode]] = 0;\n        availableTraits[traitCode] = \"\";\n    }\n\n    function getAllTraits() external view returns (uint256[] memory) {\n        return allTraits;\n    }\n\n    /**\n    Mint a TARTIST token\n    This function `giveBrith` should be used in place of the traditional `mintTo`. \n    */\n    function giveBirth(\n        address recipient,\n        uint256[] memory traits,\n        string[] memory dynamicTraitValues,\n        uint8[] memory traitDominance\n    ) public payable returns (uint256) {\n        require(msg.value == MINT_TARTIST_PRICE, \"missingcommission\");\n        require(traits.length < 100, \"toomanytraits\");\n        require(dynamicTraitValues.length < 100, \"toomanytraitvals\");\n        require(traitDominance.length < 100, \"toomanytraitdoms\");\n\n        for (uint256 i = 0; i < traits.length; i++) {\n            require(\n                bytes(availableTraits[traits[i]]).length > 0,\n                \"invalidtrait\"\n            );\n        }\n\n        bytes memory traitBytes;\n        for (uint256 i = 0; i < traits.length; i++) {\n            traitBytes = abi.encodePacked(traitBytes, traits[i]);\n        }\n\n        bytes memory dynTraitValuesBytes;\n        for (uint256 i = 0; i < dynamicTraitValues.length; i++) {\n            dynTraitValuesBytes = abi.encodePacked(\n                dynTraitValuesBytes,\n                dynamicTraitValues[i]\n            );\n        }\n        bytes32 botTraitsHash = keccak256(\n            bytes.concat(traitBytes, dynTraitValuesBytes)\n        );\n        require(_usedTraitComboHashes[botTraitsHash] != true, \"geneticcopy\");\n\n        _usedTraitComboHashes[botTraitsHash] = true;\n        _currentTokenId.increment();\n        uint256 newItemId = _currentTokenId.current();\n        botTraits[newItemId] = traits;\n        botTraitValues[newItemId] = dynamicTraitValues;\n        botTraitDominances[newItemId] = traitDominance;\n        _safeMint(recipient, newItemId);\n        _setTokenURI(newItemId, string(abi.encodePacked(_newMetadataCid)));\n\n        _asyncTransfer(owner(), MINT_TARTIST_PRICE);\n        return newItemId;\n    }\n\n    function setRoyaltyRate(uint8 artistId, uint256 ratePerTarti) public {\n        require(msg.sender == ownerOf(artistId), \"norights\");\n        tartiRoyaltyRate[artistId] = ratePerTarti;\n    }\n\n    /**\n    Mint a TARTI token.\n    You cannot mint a TARTI token directly on the TARTI contract.\n    You must do it through this (TARTIST) contract using the `newArt` function.\n    Minter must send MINT_TARTI_PRICE + whatever royalty the TARTIST owner has set.\n    */\n    function newArt(uint8 artistId) public payable returns (uint256) {\n        //address canot be blank\n        require(_tartiAddr != address(0), \"tarticontractnotset\");\n\n        //call newArt on the Tarti contract\n        //Tarti only allows this contract to call that method\n        //First check that the caller is allowed to use this tartist, either by owning it or paying royalties\n\n        //norights = specified artist is not contractually obligated, nor even allowed, to make any art for you.\n        if (tartiRoyaltyRate[artistId] == 0) {\n            //if royalty rate is not set, then only the owner can make art with this Tartist\n            require(msg.sender == ownerOf(artistId), \"norights\");\n            require(msg.value == MINT_TARTI_PRICE, \"missingcommission\"); //.018 eth\n        }\n        if (tartiRoyaltyRate[artistId] > 0) {\n            //if royalty rate is not set, then anyone can make art with this Tartist but they must pay the royalty.\n            require(\n                msg.value == MINT_TARTI_PRICE + tartiRoyaltyRate[artistId],\n                \"missingcommissionroyals\"\n            ); //.018 eth + royalty\n\n            //mark the royalty as payable to Tartist owner (can be withdrawn using pull payment)\n            _asyncTransfer(ownerOf(artistId), tartiRoyaltyRate[artistId]);\n        }\n\n        //use the Tarti contract to create a new Tarti token\n        //Trait engine will see the new Tarti on the blockchain and create the art/music\n\n        Tarti tarti = Tarti(_tartiAddr);\n\n        //mint the tarti token\n        uint256 newTartiToken = tarti.newArt(msg.sender, artistId);\n\n        //mark payment payable to contract owner\n        _asyncTransfer(owner(), MINT_TARTI_PRICE);\n        return newTartiToken;\n    }\n\n    /// @dev Returns an URI for a given token ID\n    function _baseURI() internal pure override returns (string memory) {\n        return \"ipfs://\";\n    }\n\n    function contractURI() public pure returns (string memory) {\n        return \"http://tartipublicfiles.tartiart.com/Tartist.metadata.json\";\n    }\n\n    function setTartiAddr(address tartiAddr) public onlyOwner {\n        _tartiAddr = tartiAddr;\n    }\n\n    function setCreationStarted(\n        uint256 tokenId,\n        bool onTarti\n    ) public onlyOwner {\n        if (onTarti) {\n            require(_tartiAddr != address(0), \"tarticontractnotset\");\n            Tarti tarti = Tarti(_tartiAddr);\n            return tarti.setCreationStarted(tokenId);\n        }\n\n        bytes32 tokenUriBytesHash = keccak256(bytes(tokenURI(tokenId)));\n        require(\n            tokenUriBytesHash == keccak256(abi.encodePacked(_newMetadataUri)),\n            \"tartistnotnew\"\n        );\n\n        _setTokenURI(tokenId, string(abi.encodePacked(_inProcessMetadataCid)));\n    }\n\n    function setCreated(\n        uint256 tokenId,\n        bytes calldata cid,\n        bool onTarti\n    ) public onlyOwner {\n        if (onTarti) {\n            require(_tartiAddr != address(0), \"tarticontractnotset\");\n            Tarti tarti = Tarti(_tartiAddr);\n            return tarti.setCreated(tokenId, cid);\n        }\n\n        bytes32 tokenUriBytesHash = keccak256(bytes(tokenURI(tokenId)));\n        require(\n            tokenUriBytesHash ==\n                keccak256(abi.encodePacked(_inProcessMetadataUri)),\n            \"tartistnotstarted\"\n        );\n\n        string memory newUri = string(abi.encodePacked(cid));\n        _setTokenURI(tokenId, newUri);\n        emit PermanentURI(newUri, tokenId);\n    }\n\n    function getTraits(\n        uint256 tokenId\n    ) external view returns (uint256[] memory) {\n        return botTraits[tokenId];\n    }\n\n    function getTraitValues(\n        uint256 tokenId\n    ) external view returns (string[] memory) {\n        return botTraitValues[tokenId];\n    }\n\n    function getTraitDominances(\n        uint256 tokenId\n    ) external view returns (uint256[] memory) {\n        return botTraitDominances[tokenId];\n    }\n\n    /// @dev Overridden in order to retrict caller to payee or owner\n    function withdrawPayments(address payable payee) public virtual override {\n        //Only allow payee to request withdrawl.\n        //Help protect against gas forwarding attack.\n        require(\n            msg.sender == payee || msg.sender == owner(),\n            \"unauthwithdrawl\"\n        );\n        super.withdrawPayments(payee);\n    }\n\n    function _burn(\n        uint256 tokenId\n    ) internal override(ERC721, ERC721URIStorage) {\n        super._burn(tokenId);\n    }\n\n    function _beforeTokenTransfer(\n        address from,\n        address to,\n        uint256 firstTokenId,\n        uint256 batchSize\n    ) internal override(ERC721, ERC721Enumerable) {\n        super._beforeTokenTransfer(from, to, firstTokenId, batchSize);\n    }\n\n    function supportsInterface(\n        bytes4 interfaceId\n    ) public view override(ERC721Enumerable, ERC721URIStorage) returns (bool) {\n        return super.supportsInterface(interfaceId);\n    }\n\n    function tokenURI(\n        uint256 tokenId\n    ) public view override(ERC721, ERC721URIStorage) returns (string memory) {\n        return ERC721URIStorage.tokenURI(tokenId);\n    }\n}\n",
  "sourcePath": "/home/evan/tartst/contracts/Tartist.sol",
  "compiler": {
    "name": "solc",
    "version": "0.8.18+commit.87f61d96.Emscripten.clang"
  },
  "schemaVersion": "3.4.14",
  "updatedAt": "2023-08-03T23:35:02.035Z",
  "networkType": "ethereum",
  "devdoc": {
    "events": {
      "Approval(address,address,uint256)": {
        "details": "Emitted when `owner` enables `approved` to manage the `tokenId` token."
      },
      "ApprovalForAll(address,address,bool)": {
        "details": "Emitted when `owner` enables or disables (`approved`) `operator` to manage all of its assets."
      },
      "BatchMetadataUpdate(uint256,uint256)": {
        "details": "This event emits when the metadata of a range of tokens is changed. So that the third-party platforms such as NFT market could timely update the images and related attributes of the NFTs."
      },
      "MetadataUpdate(uint256)": {
        "details": "This event emits when the metadata of a token is changed. So that the third-party platforms such as NFT market could timely update the images and related attributes of the NFT."
      },
      "Transfer(address,address,uint256)": {
        "details": "Emitted when `tokenId` token is transferred from `from` to `to`."
      }
    },
    "kind": "dev",
    "methods": {
      "addTrait(uint256,string)": {
        "details": "`traitName` will either be: - The name of the Trait class (ie MusicProducer) - The name of the Trait with dot then the name of the trait prop appended (ie DynMusicProductionStyle.FavoriteKeys) -- In this case the TraitAI trait being added to the bot is DynMusicProductionStyle,  -- and the prop the value wll map to is FavoriteKeys. -- This flat structure will be nice for the NFT metadata to be standard and easy. -- When it gets sent into the TraitHttpIO we will need to pull out the props and put them all beneath the same single trait."
      },
      "approve(address,uint256)": {
        "details": "See {IERC721-approve}."
      },
      "balanceOf(address)": {
        "details": "See {IERC721-balanceOf}."
      },
      "getApproved(uint256)": {
        "details": "See {IERC721-getApproved}."
      },
      "isApprovedForAll(address,address)": {
        "details": "See {IERC721-isApprovedForAll}."
      },
      "name()": {
        "details": "See {IERC721Metadata-name}."
      },
      "owner()": {
        "details": "Returns the address of the current owner."
      },
      "ownerOf(uint256)": {
        "details": "See {IERC721-ownerOf}."
      },
      "payments(address)": {
        "details": "Returns the payments owed to an address.",
        "params": {
          "dest": "The creditor's address."
        }
      },
      "renounceOwnership()": {
        "details": "Leaves the contract without owner. It will not be possible to call `onlyOwner` functions. Can only be called by the current owner. NOTE: Renouncing ownership will leave the contract without an owner, thereby disabling any functionality that is only available to the owner."
      },
      "safeTransferFrom(address,address,uint256)": {
        "details": "See {IERC721-safeTransferFrom}."
      },
      "safeTransferFrom(address,address,uint256,bytes)": {
        "details": "See {IERC721-safeTransferFrom}."
      },
      "setApprovalForAll(address,bool)": {
        "details": "See {IERC721-setApprovalForAll}."
      },
      "symbol()": {
        "details": "See {IERC721Metadata-symbol}."
      },
      "tokenByIndex(uint256)": {
        "details": "See {IERC721Enumerable-tokenByIndex}."
      },
      "tokenOfOwnerByIndex(address,uint256)": {
        "details": "See {IERC721Enumerable-tokenOfOwnerByIndex}."
      },
      "totalSupply()": {
        "details": "See {IERC721Enumerable-totalSupply}."
      },
      "transferFrom(address,address,uint256)": {
        "details": "See {IERC721-transferFrom}."
      },
      "transferOwnership(address)": {
        "details": "Transfers ownership of the contract to a new account (`newOwner`). Can only be called by the current owner."
      },
      "withdrawPayments(address)": {
        "details": "Overridden in order to retrict caller to payee or owner"
      }
    },
    "version": 1
  },
  "userdoc": {
    "kind": "user",
    "methods": {
      "giveBirth(address,uint256[],string[],uint8[])": {
        "notice": "Mint a TARTIST token This function `giveBrith` should be used in place of the traditional `mintTo`. "
      },
      "newArt(uint8)": {
        "notice": "Mint a TARTI token. You cannot mint a TARTI token directly on the TARTI contract. You must do it through this (TARTIST) contract using the `newArt` function. Minter must send MINT_TARTI_PRICE + whatever royalty the TARTIST owner has set."
      }
    },
    "version": 1
  }
}