{
    "contractName": "Tarti",
    "abi": [
        {
            "inputs": [],
            "stateMutability": "nonpayable",
            "type": "constructor"
        },
        {
            "anonymous": false,
            "inputs": [
                {
                    "indexed": true,
                    "internalType": "address",
                    "name": "owner",
                    "type": "address"
                },
                {
                    "indexed": true,
                    "internalType": "address",
                    "name": "approved",
                    "type": "address"
                },
                {
                    "indexed": true,
                    "internalType": "uint256",
                    "name": "tokenId",
                    "type": "uint256"
                }
            ],
            "name": "Approval",
            "type": "event"
        },
        {
            "anonymous": false,
            "inputs": [
                {
                    "indexed": true,
                    "internalType": "address",
                    "name": "owner",
                    "type": "address"
                },
                {
                    "indexed": true,
                    "internalType": "address",
                    "name": "operator",
                    "type": "address"
                },
                {
                    "indexed": false,
                    "internalType": "bool",
                    "name": "approved",
                    "type": "bool"
                }
            ],
            "name": "ApprovalForAll",
            "type": "event"
        },
        {
            "anonymous": false,
            "inputs": [
                {
                    "indexed": false,
                    "internalType": "uint256",
                    "name": "_fromTokenId",
                    "type": "uint256"
                },
                {
                    "indexed": false,
                    "internalType": "uint256",
                    "name": "_toTokenId",
                    "type": "uint256"
                }
            ],
            "name": "BatchMetadataUpdate",
            "type": "event"
        },
        {
            "anonymous": false,
            "inputs": [
                {
                    "indexed": false,
                    "internalType": "uint256",
                    "name": "_tokenId",
                    "type": "uint256"
                }
            ],
            "name": "MetadataUpdate",
            "type": "event"
        },
        {
            "anonymous": false,
            "inputs": [
                {
                    "indexed": true,
                    "internalType": "address",
                    "name": "previousOwner",
                    "type": "address"
                },
                {
                    "indexed": true,
                    "internalType": "address",
                    "name": "newOwner",
                    "type": "address"
                }
            ],
            "name": "OwnershipTransferred",
            "type": "event"
        },
        {
            "anonymous": false,
            "inputs": [
                {
                    "indexed": true,
                    "internalType": "address",
                    "name": "from",
                    "type": "address"
                },
                {
                    "indexed": true,
                    "internalType": "address",
                    "name": "to",
                    "type": "address"
                },
                {
                    "indexed": true,
                    "internalType": "uint256",
                    "name": "tokenId",
                    "type": "uint256"
                }
            ],
            "name": "Transfer",
            "type": "event"
        },
        {
            "inputs": [
                {
                    "internalType": "address",
                    "name": "to",
                    "type": "address"
                },
                {
                    "internalType": "uint256",
                    "name": "tokenId",
                    "type": "uint256"
                }
            ],
            "name": "approve",
            "outputs": [],
            "stateMutability": "nonpayable",
            "type": "function"
        },
        {
            "inputs": [
                {
                    "internalType": "uint256",
                    "name": "",
                    "type": "uint256"
                }
            ],
            "name": "artCreators",
            "outputs": [
                {
                    "internalType": "uint8",
                    "name": "",
                    "type": "uint8"
                }
            ],
            "stateMutability": "view",
            "type": "function",
            "constant": true
        },
        {
            "inputs": [
                {
                    "internalType": "uint8",
                    "name": "",
                    "type": "uint8"
                }
            ],
            "name": "artistNextArtId",
            "outputs": [
                {
                    "internalType": "uint256",
                    "name": "",
                    "type": "uint256"
                }
            ],
            "stateMutability": "view",
            "type": "function",
            "constant": true
        },
        {
            "inputs": [
                {
                    "internalType": "address",
                    "name": "owner",
                    "type": "address"
                }
            ],
            "name": "balanceOf",
            "outputs": [
                {
                    "internalType": "uint256",
                    "name": "",
                    "type": "uint256"
                }
            ],
            "stateMutability": "view",
            "type": "function",
            "constant": true
        },
        {
            "inputs": [
                {
                    "internalType": "uint256",
                    "name": "tokenId",
                    "type": "uint256"
                }
            ],
            "name": "getApproved",
            "outputs": [
                {
                    "internalType": "address",
                    "name": "",
                    "type": "address"
                }
            ],
            "stateMutability": "view",
            "type": "function",
            "constant": true
        },
        {
            "inputs": [
                {
                    "internalType": "address",
                    "name": "owner",
                    "type": "address"
                },
                {
                    "internalType": "address",
                    "name": "operator",
                    "type": "address"
                }
            ],
            "name": "isApprovedForAll",
            "outputs": [
                {
                    "internalType": "bool",
                    "name": "",
                    "type": "bool"
                }
            ],
            "stateMutability": "view",
            "type": "function",
            "constant": true
        },
        {
            "inputs": [],
            "name": "name",
            "outputs": [
                {
                    "internalType": "string",
                    "name": "",
                    "type": "string"
                }
            ],
            "stateMutability": "view",
            "type": "function",
            "constant": true
        },
        {
            "inputs": [],
            "name": "owner",
            "outputs": [
                {
                    "internalType": "address",
                    "name": "",
                    "type": "address"
                }
            ],
            "stateMutability": "view",
            "type": "function",
            "constant": true
        },
        {
            "inputs": [
                {
                    "internalType": "uint256",
                    "name": "tokenId",
                    "type": "uint256"
                }
            ],
            "name": "ownerOf",
            "outputs": [
                {
                    "internalType": "address",
                    "name": "",
                    "type": "address"
                }
            ],
            "stateMutability": "view",
            "type": "function",
            "constant": true
        },
        {
            "inputs": [],
            "name": "renounceOwnership",
            "outputs": [],
            "stateMutability": "nonpayable",
            "type": "function"
        },
        {
            "inputs": [
                {
                    "internalType": "address",
                    "name": "from",
                    "type": "address"
                },
                {
                    "internalType": "address",
                    "name": "to",
                    "type": "address"
                },
                {
                    "internalType": "uint256",
                    "name": "tokenId",
                    "type": "uint256"
                }
            ],
            "name": "safeTransferFrom",
            "outputs": [],
            "stateMutability": "nonpayable",
            "type": "function"
        },
        {
            "inputs": [
                {
                    "internalType": "address",
                    "name": "from",
                    "type": "address"
                },
                {
                    "internalType": "address",
                    "name": "to",
                    "type": "address"
                },
                {
                    "internalType": "uint256",
                    "name": "tokenId",
                    "type": "uint256"
                },
                {
                    "internalType": "bytes",
                    "name": "data",
                    "type": "bytes"
                }
            ],
            "name": "safeTransferFrom",
            "outputs": [],
            "stateMutability": "nonpayable",
            "type": "function"
        },
        {
            "inputs": [
                {
                    "internalType": "address",
                    "name": "operator",
                    "type": "address"
                },
                {
                    "internalType": "bool",
                    "name": "approved",
                    "type": "bool"
                }
            ],
            "name": "setApprovalForAll",
            "outputs": [],
            "stateMutability": "nonpayable",
            "type": "function"
        },
        {
            "inputs": [],
            "name": "symbol",
            "outputs": [
                {
                    "internalType": "string",
                    "name": "",
                    "type": "string"
                }
            ],
            "stateMutability": "view",
            "type": "function",
            "constant": true
        },
        {
            "inputs": [
                {
                    "internalType": "uint256",
                    "name": "index",
                    "type": "uint256"
                }
            ],
            "name": "tokenByIndex",
            "outputs": [
                {
                    "internalType": "uint256",
                    "name": "",
                    "type": "uint256"
                }
            ],
            "stateMutability": "view",
            "type": "function",
            "constant": true
        },
        {
            "inputs": [
                {
                    "internalType": "address",
                    "name": "owner",
                    "type": "address"
                },
                {
                    "internalType": "uint256",
                    "name": "index",
                    "type": "uint256"
                }
            ],
            "name": "tokenOfOwnerByIndex",
            "outputs": [
                {
                    "internalType": "uint256",
                    "name": "",
                    "type": "uint256"
                }
            ],
            "stateMutability": "view",
            "type": "function",
            "constant": true
        },
        {
            "inputs": [],
            "name": "totalSupply",
            "outputs": [
                {
                    "internalType": "uint256",
                    "name": "",
                    "type": "uint256"
                }
            ],
            "stateMutability": "view",
            "type": "function",
            "constant": true
        },
        {
            "inputs": [
                {
                    "internalType": "address",
                    "name": "from",
                    "type": "address"
                },
                {
                    "internalType": "address",
                    "name": "to",
                    "type": "address"
                },
                {
                    "internalType": "uint256",
                    "name": "tokenId",
                    "type": "uint256"
                }
            ],
            "name": "transferFrom",
            "outputs": [],
            "stateMutability": "nonpayable",
            "type": "function"
        },
        {
            "inputs": [
                {
                    "internalType": "address",
                    "name": "newOwner",
                    "type": "address"
                }
            ],
            "name": "transferOwnership",
            "outputs": [],
            "stateMutability": "nonpayable",
            "type": "function"
        },
        {
            "inputs": [
                {
                    "internalType": "address",
                    "name": "crHolder",
                    "type": "address"
                },
                {
                    "internalType": "uint8",
                    "name": "artistId",
                    "type": "uint8"
                }
            ],
            "name": "newArt",
            "outputs": [
                {
                    "internalType": "uint256",
                    "name": "",
                    "type": "uint256"
                }
            ],
            "stateMutability": "nonpayable",
            "type": "function"
        },
        {
            "inputs": [
                {
                    "internalType": "uint8",
                    "name": "artistId",
                    "type": "uint8"
                },
                {
                    "internalType": "uint256",
                    "name": "artOrdinal",
                    "type": "uint256"
                }
            ],
            "name": "artByArtist",
            "outputs": [
                {
                    "internalType": "uint256",
                    "name": "",
                    "type": "uint256"
                }
            ],
            "stateMutability": "view",
            "type": "function",
            "constant": true
        },
        {
            "inputs": [
                {
                    "internalType": "uint256",
                    "name": "tokenId",
                    "type": "uint256"
                }
            ],
            "name": "setCreationStarted",
            "outputs": [],
            "stateMutability": "nonpayable",
            "type": "function"
        },
        {
            "inputs": [
                {
                    "internalType": "uint256",
                    "name": "tokenId",
                    "type": "uint256"
                },
                {
                    "internalType": "bytes",
                    "name": "cid",
                    "type": "bytes"
                }
            ],
            "name": "setCreated",
            "outputs": [],
            "stateMutability": "nonpayable",
            "type": "function"
        },
        {
            "inputs": [
                {
                    "internalType": "uint256",
                    "name": "tokenId",
                    "type": "uint256"
                }
            ],
            "name": "tokenURI",
            "outputs": [
                {
                    "internalType": "string",
                    "name": "",
                    "type": "string"
                }
            ],
            "stateMutability": "view",
            "type": "function",
            "constant": true
        },
        {
            "inputs": [
                {
                    "internalType": "bytes4",
                    "name": "interfaceId",
                    "type": "bytes4"
                }
            ],
            "name": "supportsInterface",
            "outputs": [
                {
                    "internalType": "bool",
                    "name": "",
                    "type": "bool"
                }
            ],
            "stateMutability": "view",
            "type": "function",
            "constant": true
        }
    ],
    "bytecode": "0x60806040523480156200001157600080fd5b506040518060400160405280600981526020016815185c9d1a48105c9d60ba1b81525060405180604001604052806005815260200164544152544960d81b815250816000908162000063919062000190565b50600162000072828262000190565b5050506200008f620000896200009560201b60201c565b62000099565b6200025c565b3390565b600b80546001600160a01b038381166001600160a01b0319831681179093556040519116919082907f8be0079c531659141344cd1fd0a4f28419497f9722a3daafe3b4186f6b6457e090600090a35050565b634e487b7160e01b600052604160045260246000fd5b600181811c908216806200011657607f821691505b6020821081036200013757634e487b7160e01b600052602260045260246000fd5b50919050565b601f8211156200018b57600081815260208120601f850160051c81016020861015620001665750805b601f850160051c820191505b81811015620001875782815560010162000172565b5050505b505050565b81516001600160401b03811115620001ac57620001ac620000eb565b620001c481620001bd845462000101565b846200013d565b602080601f831160018114620001fc5760008415620001e35750858301515b600019600386901b1c1916600185901b17855562000187565b600085815260208120601f198616915b828110156200022d578886015182559484019460019091019084016200020c565b50858210156200024c5787850151600019600388901b60f8161c191681555b5050505050600190811b01905550565b611f7b806200026c6000396000f3fe608060405234801561001057600080fd5b50600436106101335760003560e01c806301ffc9a71461013857806306fdde0314610160578063081812fc14610175578063095ea7b3146101a057806318160ddd146101b557806323b872dd146101c75780632d0de821146101da5780632f745c59146101ed57806341287fea1461020057806342842e0e146102355780634f6ccce7146102485780636352211e1461025b57806370a082311461026e578063715018a6146102815780638da5cb5b1461028957806395d89b41146102915780639e31203114610299578063a22cb465146102ac578063b88d4fde146102bf578063c87b56dd146102d2578063d4e22cf2146102e5578063e45382ed146102f8578063e985e9c51461030b578063f2fde38b1461031e578063fdf38c8914610331575b600080fd5b61014b610146366004611790565b610351565b60405190151581526020015b60405180910390f35b610168610362565b60405161015791906117fd565b610188610183366004611810565b6103f4565b6040516001600160a01b039091168152602001610157565b6101b36101ae366004611845565b61041b565b005b6009545b604051908152602001610157565b6101b36101d536600461186f565b610535565b6101b36101e8366004611810565b610566565b6101b96101fb366004611845565b6105b2565b61022361020e366004611810565b600f6020526000908152604090205460ff1681565b60405160ff9091168152602001610157565b6101b361024336600461186f565b610648565b6101b9610256366004611810565b610663565b610188610269366004611810565b6106f6565b6101b961027c3660046118ab565b61072a565b6101b36107b0565b6101886107c4565b6101686107d3565b6101b96102a73660046118d7565b6107e2565b6101b36102ba36600461190a565b6108a0565b6101b36102cd36600461195c565b6108af565b6101686102e0366004611810565b6108e7565b6101b36102f3366004611a37565b6108f2565b6101b9610306366004611ab2565b610911565b61014b610319366004611ace565b610938565b6101b361032c3660046118ab565b610966565b6101b961033f366004611af8565b600d6020526000908152604090205481565b600061035c826109dc565b92915050565b60606000805461037190611b13565b80601f016020809104026020016040519081016040528092919081815260200182805461039d90611b13565b80156103ea5780601f106103bf576101008083540402835291602001916103ea565b820191906000526020600020905b8154815290600101906020018083116103cd57829003601f168201915b5050505050905090565b60006103ff82610a01565b506000908152600460205260409020546001600160a01b031690565b6000610426826106f6565b9050806001600160a01b0316836001600160a01b0316036104985760405162461bcd60e51b815260206004820152602160248201527f4552433732313a20617070726f76616c20746f2063757272656e74206f776e656044820152603960f91b60648201526084015b60405180910390fd5b336001600160a01b03821614806104b457506104b48133610938565b6105265760405162461bcd60e51b815260206004820152603d60248201527f4552433732313a20617070726f76652063616c6c6572206973206e6f7420746f60448201527f6b656e206f776e6572206f7220617070726f76656420666f7220616c6c000000606482015260840161048f565b6105308383610a26565b505050565b61053f3382610a94565b61055b5760405162461bcd60e51b815260040161048f90611b4d565b610530838383610af3565b61056e610c52565b6105af816040518060600160405280602e8152602001611f18602e913960405160200161059b9190611b9a565b604051602081830303815290604052610cb1565b50565b60006105bd8361072a565b821061061f5760405162461bcd60e51b815260206004820152602b60248201527f455243373231456e756d657261626c653a206f776e657220696e646578206f7560448201526a74206f6620626f756e647360a81b606482015260840161048f565b506001600160a01b03919091166000908152600760209081526040808320938352929052205490565b610530838383604051806020016040528060008152506108af565b600061066e60095490565b82106106d15760405162461bcd60e51b815260206004820152602c60248201527f455243373231456e756d657261626c653a20676c6f62616c20696e646578206f60448201526b7574206f6620626f756e647360a01b606482015260840161048f565b600982815481106106e4576106e4611bb6565b90600052602060002001549050919050565b60008061070283610d6d565b90506001600160a01b03811661035c5760405162461bcd60e51b815260040161048f90611bcc565b60006001600160a01b0382166107945760405162461bcd60e51b815260206004820152602960248201527f4552433732313a2061646472657373207a65726f206973206e6f7420612076616044820152683634b21037bbb732b960b91b606482015260840161048f565b506001600160a01b031660009081526003602052604090205490565b6107b8610c52565b6107c26000610d88565b565b600b546001600160a01b031690565b60606001805461037190611b13565b60006107ec610c52565b6107fa600c80546001019055565b6000610805600c5490565b60ff84166000818152600e60209081526040808320600d808452828520805486529184529184208690559383529052815492935061084283611c14565b90915550506000818152600f60205260409020805460ff191660ff851617905561086c8482610dda565b610899816040518060600160405280602e8152602001611eea602e913960405160200161059b9190611b9a565b9392505050565b6108ab338383610df4565b5050565b6108b93383610a94565b6108d55760405162461bcd60e51b815260040161048f90611b4d565b6108e184848484610ebe565b50505050565b606061035c82610ef1565b6108fa610c52565b61053083838360405160200161059b929190611c2d565b60ff82166000908152600e6020908152604080832084845290915281205461089990610663565b6001600160a01b03918216600090815260056020908152604080832093909416825291909152205460ff1690565b61096e610c52565b6001600160a01b0381166109d35760405162461bcd60e51b815260206004820152602660248201527f4f776e61626c653a206e6577206f776e657220697320746865207a65726f206160448201526564647265737360d01b606482015260840161048f565b6105af81610d88565b60006001600160e01b0319821663780e9d6360e01b148061035c575061035c82610fec565b610a0a81611011565b6105af5760405162461bcd60e51b815260040161048f90611bcc565b600081815260046020526040902080546001600160a01b0319166001600160a01b0384169081179091558190610a5b826106f6565b6001600160a01b03167f8c5be1e5ebec7d5bd14f71427d1e84f3dd0314c0f7b2291e5b200ac8c7c3b92560405160405180910390a45050565b600080610aa0836106f6565b9050806001600160a01b0316846001600160a01b03161480610ac75750610ac78185610938565b80610aeb5750836001600160a01b0316610ae0846103f4565b6001600160a01b0316145b949350505050565b826001600160a01b0316610b06826106f6565b6001600160a01b031614610b2c5760405162461bcd60e51b815260040161048f90611c3d565b6001600160a01b038216610b8e5760405162461bcd60e51b8152602060048201526024808201527f4552433732313a207472616e7366657220746f20746865207a65726f206164646044820152637265737360e01b606482015260840161048f565b610b9b838383600161102e565b826001600160a01b0316610bae826106f6565b6001600160a01b031614610bd45760405162461bcd60e51b815260040161048f90611c3d565b600081815260046020908152604080832080546001600160a01b03199081169091556001600160a01b038781168086526003855283862080546000190190559087168086528386208054600101905586865260029094528285208054909216841790915590518493600080516020611eca83398151915291a4505050565b33610c5b6107c4565b6001600160a01b0316146107c25760405162461bcd60e51b815260206004820181905260248201527f4f776e61626c653a2063616c6c6572206973206e6f7420746865206f776e6572604482015260640161048f565b610cba82611011565b610d1d5760405162461bcd60e51b815260206004820152602e60248201527f45524337323155524953746f726167653a2055524920736574206f66206e6f6e60448201526d32bc34b9ba32b73a103a37b5b2b760911b606482015260840161048f565b6000828152600660205260409020610d358282611cd0565b506040518281527ff8e1a15aba9398e019f0b49df1a4fde98ee17ae345cb5f6b5e2c27f5033e8ce79060200160405180910390a15050565b6000908152600260205260409020546001600160a01b031690565b600b80546001600160a01b038381166001600160a01b0319831681179093556040519116919082907f8be0079c531659141344cd1fd0a4f28419497f9722a3daafe3b4186f6b6457e090600090a35050565b6108ab82826040518060200160405280600081525061103a565b816001600160a01b0316836001600160a01b031603610e515760405162461bcd60e51b815260206004820152601960248201527822a9219b99189d1030b8383937bb32903a379031b0b63632b960391b604482015260640161048f565b6001600160a01b03838116600081815260056020908152604080832094871680845294825291829020805460ff191686151590811790915591519182527f17307eab39ab6107e8899845ad3d59bd9653f200f220920489ca2b5937696c31910160405180910390a3505050565b610ec9848484610af3565b610ed58484848461106d565b6108e15760405162461bcd60e51b815260040161048f90611d8f565b6060610efc82610a01565b60008281526006602052604081208054610f1590611b13565b80601f0160208091040260200160405190810160405280929190818152602001828054610f4190611b13565b8015610f8e5780601f10610f6357610100808354040283529160200191610f8e565b820191906000526020600020905b815481529060010190602001808311610f7157829003601f168201915b505050505090506000610f9f61116e565b90508051600003610fb1575092915050565b815115610fe3578082604051602001610fcb929190611de1565b60405160208183030381529060405292505050919050565b610aeb8461118f565b60006001600160e01b03198216632483248360e11b148061035c575061035c826111f5565b60008061101d83610d6d565b6001600160a01b0316141592915050565b6108e184848484611245565b6110448383611379565b611051600084848461106d565b6105305760405162461bcd60e51b815260040161048f90611d8f565b60006001600160a01b0384163b1561116357604051630a85bd0160e11b81526001600160a01b0385169063150b7a02906110b1903390899088908890600401611e10565b6020604051808303816000875af19250505080156110ec575060408051601f3d908101601f191682019092526110e991810190611e4d565b60015b611149573d80801561111a576040519150601f19603f3d011682016040523d82523d6000602084013e61111f565b606091505b5080516000036111415760405162461bcd60e51b815260040161048f90611d8f565b805181602001fd5b6001600160e01b031916630a85bd0160e11b149050610aeb565b506001949350505050565b604080518082019091526007815266697066733a2f2f60c81b602082015290565b606061119a82610a01565b60006111a461116e565b905060008151116111c45760405180602001604052806000815250610899565b806111ce84611482565b6040516020016111df929190611de1565b6040516020818303038152906040529392505050565b60006001600160e01b031982166380ac58cd60e01b148061122657506001600160e01b03198216635b5e139f60e01b145b8061035c57506301ffc9a760e01b6001600160e01b031983161461035c565b60018111156112b45760405162461bcd60e51b815260206004820152603560248201527f455243373231456e756d657261626c653a20636f6e7365637574697665207472604482015274185b9cd9995c9cc81b9bdd081cdd5c1c1bdc9d1959605a1b606482015260840161048f565b816001600160a01b0385166113105761130b81600980546000838152600a60205260408120829055600182018355919091527f6e1540171b6c0c960b71a7020d9f60077f6af931a8bbf590da0223dacf75c7af0155565b611333565b836001600160a01b0316856001600160a01b031614611333576113338582611514565b6001600160a01b03841661134f5761134a816115b1565b611372565b846001600160a01b0316846001600160a01b031614611372576113728482611660565b5050505050565b6001600160a01b0382166113cf5760405162461bcd60e51b815260206004820181905260248201527f4552433732313a206d696e7420746f20746865207a65726f2061646472657373604482015260640161048f565b6113d881611011565b156113f55760405162461bcd60e51b815260040161048f90611e6a565b61140360008383600161102e565b61140c81611011565b156114295760405162461bcd60e51b815260040161048f90611e6a565b6001600160a01b038216600081815260036020908152604080832080546001019055848352600290915280822080546001600160a01b031916841790555183929190600080516020611eca833981519152908290a45050565b6060600061148f836116a4565b60010190506000816001600160401b038111156114ae576114ae611946565b6040519080825280601f01601f1916602001820160405280156114d8576020820181803683370190505b5090508181016020015b600019016f181899199a1a9b1b9c1cb0b131b232b360811b600a86061a8153600a85049450846114e257509392505050565b600060016115218461072a565b61152b9190611ea0565b60008381526008602052604090205490915080821461157e576001600160a01b03841660009081526007602090815260408083208584528252808320548484528184208190558352600890915290208190555b5060009182526008602090815260408084208490556001600160a01b039094168352600781528383209183525290812055565b6009546000906115c390600190611ea0565b6000838152600a6020526040812054600980549394509092849081106115eb576115eb611bb6565b90600052602060002001549050806009838154811061160c5761160c611bb6565b6000918252602080832090910192909255828152600a9091526040808220849055858252812055600980548061164457611644611eb3565b6001900381819060005260206000200160009055905550505050565b600061166b8361072a565b6001600160a01b039093166000908152600760209081526040808320868452825280832085905593825260089052919091209190915550565b60008072184f03e93ff9f4daa797ed6e38ed64bf6a1f0160401b83106116e35772184f03e93ff9f4daa797ed6e38ed64bf6a1f0160401b830492506040015b6904ee2d6d415b85acef8160201b831061170d576904ee2d6d415b85acef8160201b830492506020015b662386f26fc10000831061172b57662386f26fc10000830492506010015b6305f5e1008310611743576305f5e100830492506008015b612710831061175757612710830492506004015b60648310611769576064830492506002015b600a831061035c5760010192915050565b6001600160e01b0319811681146105af57600080fd5b6000602082840312156117a257600080fd5b81356108998161177a565b60005b838110156117c85781810151838201526020016117b0565b50506000910152565b600081518084526117e98160208601602086016117ad565b601f01601f19169290920160200192915050565b60208152600061089960208301846117d1565b60006020828403121561182257600080fd5b5035919050565b80356001600160a01b038116811461184057600080fd5b919050565b6000806040838503121561185857600080fd5b61186183611829565b946020939093013593505050565b60008060006060848603121561188457600080fd5b61188d84611829565b925061189b60208501611829565b9150604084013590509250925092565b6000602082840312156118bd57600080fd5b61089982611829565b803560ff8116811461184057600080fd5b600080604083850312156118ea57600080fd5b6118f383611829565b9150611901602084016118c6565b90509250929050565b6000806040838503121561191d57600080fd5b61192683611829565b91506020830135801515811461193b57600080fd5b809150509250929050565b634e487b7160e01b600052604160045260246000fd5b6000806000806080858703121561197257600080fd5b61197b85611829565b935061198960208601611829565b92506040850135915060608501356001600160401b03808211156119ac57600080fd5b818701915087601f8301126119c057600080fd5b8135818111156119d2576119d2611946565b604051601f8201601f19908116603f011681019083821181831017156119fa576119fa611946565b816040528281528a6020848701011115611a1357600080fd5b82602086016020830137600060208483010152809550505050505092959194509250565b600080600060408486031215611a4c57600080fd5b8335925060208401356001600160401b0380821115611a6a57600080fd5b818601915086601f830112611a7e57600080fd5b813581811115611a8d57600080fd5b876020828501011115611a9f57600080fd5b6020830194508093505050509250925092565b60008060408385031215611ac557600080fd5b611861836118c6565b60008060408385031215611ae157600080fd5b611aea83611829565b915061190160208401611829565b600060208284031215611b0a57600080fd5b610899826118c6565b600181811c90821680611b2757607f821691505b602082108103611b4757634e487b7160e01b600052602260045260246000fd5b50919050565b6020808252602d908201527f4552433732313a2063616c6c6572206973206e6f7420746f6b656e206f776e6560408201526c1c881bdc88185c1c1c9bdd9959609a1b606082015260800190565b60008251611bac8184602087016117ad565b9190910192915050565b634e487b7160e01b600052603260045260246000fd5b602080825260189082015277115490cdcc8c4e881a5b9d985b1a59081d1bdad95b88125160421b604082015260600190565b634e487b7160e01b600052601160045260246000fd5b600060018201611c2657611c26611bfe565b5060010190565b8183823760009101908152919050565b60208082526025908201527f4552433732313a207472616e736665722066726f6d20696e636f72726563742060408201526437bbb732b960d91b606082015260800190565b601f82111561053057600081815260208120601f850160051c81016020861015611ca95750805b601f850160051c820191505b81811015611cc857828155600101611cb5565b505050505050565b81516001600160401b03811115611ce957611ce9611946565b611cfd81611cf78454611b13565b84611c82565b602080601f831160018114611d325760008415611d1a5750858301515b600019600386901b1c1916600185901b178555611cc8565b600085815260208120601f198616915b82811015611d6157888601518255948401946001909101908401611d42565b5085821015611d7f5787850151600019600388901b60f8161c191681555b5050505050600190811b01905550565b60208082526032908201527f4552433732313a207472616e7366657220746f206e6f6e20455243373231526560408201527131b2b4bb32b91034b6b83632b6b2b73a32b960711b606082015260800190565b60008351611df38184602088016117ad565b835190830190611e078183602088016117ad565b01949350505050565b6001600160a01b0385811682528416602082015260408101839052608060608201819052600090611e43908301846117d1565b9695505050505050565b600060208284031215611e5f57600080fd5b81516108998161177a565b6020808252601c908201527b115490cdcc8c4e881d1bdad95b88185b1c9958591e481b5a5b9d195960221b604082015260600190565b8181038181111561035c5761035c611bfe565b634e487b7160e01b600052603160045260246000fdfeddf252ad1be2c89b69c2b068fc378daa952ba7f163c4a11628f55a4df523b3ef516d53704678637672747854783435314b3257776267456839534d70585043415a73316273716a42534d56716470516d53385a6f5639594679784b6763527864345553575078565045327a72763367436e3246634a58647031773752a26469706673582212203b86daba9758094ce08393652ecca960de2cb184fe29a211ad04a75f574f747964736f6c63430008120033",
    "immutableReferences": {},
    "source": "// SPDX-License-Identifier: MIT\npragma solidity ^0.8.18;\n\nimport \"@openzeppelin/contracts/token/ERC721/extensions/ERC721URIStorage.sol\";\nimport \"@openzeppelin/contracts/token/ERC721/extensions/ERC721Enumerable.sol\";\nimport \"@openzeppelin/contracts/utils/Counters.sol\";\nimport \"@openzeppelin/contracts/access/Ownable.sol\";\nimport \"./Tarti.sol\";\n\ncontract Tarti is ERC721URIStorage, ERC721Enumerable, Ownable {\n    using Counters for Counters.Counter;\n\n    Counters.Counter private _currentTokenId;\n    mapping(uint8 => uint256) public artistNextArtId;\n\n    mapping(uint8 => mapping(uint256 => uint256)) private _artByArtist;\n    mapping(uint256 => uint8) public artCreators;\n\n    bytes private constant _newMetadataCid = \"QmSpFxcvrtxTx451K2WwbgEh9SMpXPCAZs1bsqjBSMVqdp\";\n    bytes private constant _inProcessMetadataCid =\n        \"QmS8ZoV9YFyxKgcRxd4USWPxVPE2zrv3gCn2FcJXdp1w7R\";\n\n    constructor() ERC721(\"Tarti Art\", \"TARTI\") {}\n\n    function newArt(\n        address crHolder,\n        uint8 artistId\n    ) public onlyOwner returns (uint256) {\n        _currentTokenId.increment();\n        uint256 newArtId = _currentTokenId.current();\n        _artByArtist[artistId][artistNextArtId[artistId]] = newArtId;\n        artistNextArtId[artistId]++;\n        artCreators[newArtId] = artistId;\n        _safeMint(crHolder, newArtId);\n        _setTokenURI(newArtId, string(abi.encodePacked(_newMetadataCid)));\n\n        return newArtId;\n    }\n\n    //this can be used to iterate through the art of a specific artist\n    function artByArtist(\n        uint8 artistId,\n        uint256 artOrdinal\n    ) public view returns (uint256) {\n        return tokenByIndex(_artByArtist[artistId][artOrdinal]);\n    }\n\n    function setCreationStarted(uint256 tokenId) public onlyOwner {\n        _setTokenURI(tokenId, string(abi.encodePacked(_inProcessMetadataCid)));\n    }\n\n    function setCreated(uint256 tokenId, bytes calldata cid) public onlyOwner {\n        //Don't allow the URI to ever change once it is set!\n        // bytes32 tokenUriBytesHash = keccak256(bytes(tokenURI(tokenId))); //cant copare strings so lets compare hashes of strings\n        // if (\n        //     tokenUriBytesHash == keccak256(abi.encodePacked(_newMetadataCid)) ||\n        //     tokenUriBytesHash ==\n        //     keccak256(abi.encodePacked(_inProcessMetadataCid))\n        // ) {\n            _setTokenURI(tokenId, string(abi.encodePacked(cid)));\n        // }\n    }\n\n    function _baseURI() internal pure override returns (string memory) {\n        return \"ipfs://\";\n    }    \n\n    function _burn(\n        uint256 tokenId\n    ) internal override(ERC721, ERC721URIStorage) {\n        super._burn(tokenId);\n    }\n\n    function tokenURI(\n        uint256 tokenId\n    ) public view override(ERC721, ERC721URIStorage) returns (string memory) {\n        return ERC721URIStorage.tokenURI(tokenId);\n    }\n\n    function _beforeTokenTransfer(\n        address from,\n        address to,\n        uint256 firstTokenId,\n        uint256 batchSize\n    ) internal override(ERC721, ERC721Enumerable) {\n        super._beforeTokenTransfer(from, to, firstTokenId, batchSize);\n    }\n\n    function supportsInterface(\n        bytes4 interfaceId\n    ) public view override(ERC721Enumerable, ERC721URIStorage) returns (bool) {\n        return super.supportsInterface(interfaceId);\n    }\n}\n",
    "sourcePath": "/home/evan/tartst/contracts/Tarti.sol",
    "compiler": {
        "name": "solc",
        "version": "0.8.18+commit.87f61d96.Emscripten.clang"
    },
    "schemaVersion": "3.4.14",
    "updatedAt": "2023-07-19T06:39:48.758Z",
    "networkType": "ethereum",
    "devdoc": {
        "events": {
            "Approval(address,address,uint256)": {
                "details": "Emitted when `owner` enables `approved` to manage the `tokenId` token."
            },
            "ApprovalForAll(address,address,bool)": {
                "details": "Emitted when `owner` enables or disables (`approved`) `operator` to manage all of its assets."
            },
            "BatchMetadataUpdate(uint256,uint256)": {
                "details": "This event emits when the metadata of a range of tokens is changed. So that the third-party platforms such as NFT market could timely update the images and related attributes of the NFTs."
            },
            "MetadataUpdate(uint256)": {
                "details": "This event emits when the metadata of a token is changed. So that the third-party platforms such as NFT market could timely update the images and related attributes of the NFT."
            },
            "Transfer(address,address,uint256)": {
                "details": "Emitted when `tokenId` token is transferred from `from` to `to`."
            }
        },
        "kind": "dev",
        "methods": {
            "approve(address,uint256)": {
                "details": "See {IERC721-approve}."
            },
            "balanceOf(address)": {
                "details": "See {IERC721-balanceOf}."
            },
            "getApproved(uint256)": {
                "details": "See {IERC721-getApproved}."
            },
            "isApprovedForAll(address,address)": {
                "details": "See {IERC721-isApprovedForAll}."
            },
            "name()": {
                "details": "See {IERC721Metadata-name}."
            },
            "owner()": {
                "details": "Returns the address of the current owner."
            },
            "ownerOf(uint256)": {
                "details": "See {IERC721-ownerOf}."
            },
            "renounceOwnership()": {
                "details": "Leaves the contract without owner. It will not be possible to call `onlyOwner` functions. Can only be called by the current owner. NOTE: Renouncing ownership will leave the contract without an owner, thereby disabling any functionality that is only available to the owner."
            },
            "safeTransferFrom(address,address,uint256)": {
                "details": "See {IERC721-safeTransferFrom}."
            },
            "safeTransferFrom(address,address,uint256,bytes)": {
                "details": "See {IERC721-safeTransferFrom}."
            },
            "setApprovalForAll(address,bool)": {
                "details": "See {IERC721-setApprovalForAll}."
            },
            "symbol()": {
                "details": "See {IERC721Metadata-symbol}."
            },
            "tokenByIndex(uint256)": {
                "details": "See {IERC721Enumerable-tokenByIndex}."
            },
            "tokenOfOwnerByIndex(address,uint256)": {
                "details": "See {IERC721Enumerable-tokenOfOwnerByIndex}."
            },
            "totalSupply()": {
                "details": "See {IERC721Enumerable-totalSupply}."
            },
            "transferFrom(address,address,uint256)": {
                "details": "See {IERC721-transferFrom}."
            },
            "transferOwnership(address)": {
                "details": "Transfers ownership of the contract to a new account (`newOwner`). Can only be called by the current owner."
            }
        },
        "version": 1
    },
    "userdoc": {
        "kind": "user",
        "methods": {},
        "version": 1
    }
}