{
  "contractName": "Tartist",
  "abi": [
    {
      "inputs": [],
      "stateMutability": "nonpayable",
      "type": "constructor"
    },
    {
      "anonymous": false,
      "inputs": [
        {
          "indexed": true,
          "internalType": "address",
          "name": "owner",
          "type": "address"
        },
        {
          "indexed": true,
          "internalType": "address",
          "name": "approved",
          "type": "address"
        },
        {
          "indexed": true,
          "internalType": "uint256",
          "name": "tokenId",
          "type": "uint256"
        }
      ],
      "name": "Approval",
      "type": "event"
    },
    {
      "anonymous": false,
      "inputs": [
        {
          "indexed": true,
          "internalType": "address",
          "name": "owner",
          "type": "address"
        },
        {
          "indexed": true,
          "internalType": "address",
          "name": "operator",
          "type": "address"
        },
        {
          "indexed": false,
          "internalType": "bool",
          "name": "approved",
          "type": "bool"
        }
      ],
      "name": "ApprovalForAll",
      "type": "event"
    },
    {
      "anonymous": false,
      "inputs": [
        {
          "indexed": false,
          "internalType": "uint256",
          "name": "_fromTokenId",
          "type": "uint256"
        },
        {
          "indexed": false,
          "internalType": "uint256",
          "name": "_toTokenId",
          "type": "uint256"
        }
      ],
      "name": "BatchMetadataUpdate",
      "type": "event"
    },
    {
      "anonymous": false,
      "inputs": [
        {
          "indexed": false,
          "internalType": "uint256",
          "name": "_tokenId",
          "type": "uint256"
        }
      ],
      "name": "MetadataUpdate",
      "type": "event"
    },
    {
      "anonymous": false,
      "inputs": [
        {
          "indexed": true,
          "internalType": "address",
          "name": "previousOwner",
          "type": "address"
        },
        {
          "indexed": true,
          "internalType": "address",
          "name": "newOwner",
          "type": "address"
        }
      ],
      "name": "OwnershipTransferred",
      "type": "event"
    },
    {
      "anonymous": false,
      "inputs": [
        {
          "indexed": false,
          "internalType": "string",
          "name": "_value",
          "type": "string"
        },
        {
          "indexed": true,
          "internalType": "uint256",
          "name": "_id",
          "type": "uint256"
        }
      ],
      "name": "PermanentURI",
      "type": "event"
    },
    {
      "anonymous": false,
      "inputs": [
        {
          "indexed": true,
          "internalType": "address",
          "name": "from",
          "type": "address"
        },
        {
          "indexed": true,
          "internalType": "address",
          "name": "to",
          "type": "address"
        },
        {
          "indexed": true,
          "internalType": "uint256",
          "name": "tokenId",
          "type": "uint256"
        }
      ],
      "name": "Transfer",
      "type": "event"
    },
    {
      "inputs": [],
      "name": "MINT_TARTIST_PRICE",
      "outputs": [
        {
          "internalType": "uint256",
          "name": "",
          "type": "uint256"
        }
      ],
      "stateMutability": "view",
      "type": "function",
      "constant": true
    },
    {
      "inputs": [],
      "name": "MINT_TARTI_PRICE",
      "outputs": [
        {
          "internalType": "uint256",
          "name": "",
          "type": "uint256"
        }
      ],
      "stateMutability": "view",
      "type": "function",
      "constant": true
    },
    {
      "inputs": [
        {
          "internalType": "uint256",
          "name": "",
          "type": "uint256"
        }
      ],
      "name": "allTraits",
      "outputs": [
        {
          "internalType": "uint256",
          "name": "",
          "type": "uint256"
        }
      ],
      "stateMutability": "view",
      "type": "function",
      "constant": true
    },
    {
      "inputs": [
        {
          "internalType": "address",
          "name": "to",
          "type": "address"
        },
        {
          "internalType": "uint256",
          "name": "tokenId",
          "type": "uint256"
        }
      ],
      "name": "approve",
      "outputs": [],
      "stateMutability": "nonpayable",
      "type": "function"
    },
    {
      "inputs": [
        {
          "internalType": "uint256",
          "name": "",
          "type": "uint256"
        }
      ],
      "name": "availableTraits",
      "outputs": [
        {
          "internalType": "string",
          "name": "",
          "type": "string"
        }
      ],
      "stateMutability": "view",
      "type": "function",
      "constant": true
    },
    {
      "inputs": [
        {
          "internalType": "address",
          "name": "owner",
          "type": "address"
        }
      ],
      "name": "balanceOf",
      "outputs": [
        {
          "internalType": "uint256",
          "name": "",
          "type": "uint256"
        }
      ],
      "stateMutability": "view",
      "type": "function",
      "constant": true
    },
    {
      "inputs": [
        {
          "internalType": "uint256",
          "name": "",
          "type": "uint256"
        },
        {
          "internalType": "uint256",
          "name": "",
          "type": "uint256"
        }
      ],
      "name": "botTraitDominances",
      "outputs": [
        {
          "internalType": "uint256",
          "name": "",
          "type": "uint256"
        }
      ],
      "stateMutability": "view",
      "type": "function",
      "constant": true
    },
    {
      "inputs": [
        {
          "internalType": "uint256",
          "name": "",
          "type": "uint256"
        },
        {
          "internalType": "uint256",
          "name": "",
          "type": "uint256"
        }
      ],
      "name": "botTraitValues",
      "outputs": [
        {
          "internalType": "string",
          "name": "",
          "type": "string"
        }
      ],
      "stateMutability": "view",
      "type": "function",
      "constant": true
    },
    {
      "inputs": [
        {
          "internalType": "uint256",
          "name": "",
          "type": "uint256"
        },
        {
          "internalType": "uint256",
          "name": "",
          "type": "uint256"
        }
      ],
      "name": "botTraits",
      "outputs": [
        {
          "internalType": "uint256",
          "name": "",
          "type": "uint256"
        }
      ],
      "stateMutability": "view",
      "type": "function",
      "constant": true
    },
    {
      "inputs": [
        {
          "internalType": "uint256",
          "name": "tokenId",
          "type": "uint256"
        }
      ],
      "name": "getApproved",
      "outputs": [
        {
          "internalType": "address",
          "name": "",
          "type": "address"
        }
      ],
      "stateMutability": "view",
      "type": "function",
      "constant": true
    },
    {
      "inputs": [
        {
          "internalType": "address",
          "name": "owner",
          "type": "address"
        },
        {
          "internalType": "address",
          "name": "operator",
          "type": "address"
        }
      ],
      "name": "isApprovedForAll",
      "outputs": [
        {
          "internalType": "bool",
          "name": "",
          "type": "bool"
        }
      ],
      "stateMutability": "view",
      "type": "function",
      "constant": true
    },
    {
      "inputs": [],
      "name": "name",
      "outputs": [
        {
          "internalType": "string",
          "name": "",
          "type": "string"
        }
      ],
      "stateMutability": "view",
      "type": "function",
      "constant": true
    },
    {
      "inputs": [],
      "name": "owner",
      "outputs": [
        {
          "internalType": "address",
          "name": "",
          "type": "address"
        }
      ],
      "stateMutability": "view",
      "type": "function",
      "constant": true
    },
    {
      "inputs": [
        {
          "internalType": "uint256",
          "name": "tokenId",
          "type": "uint256"
        }
      ],
      "name": "ownerOf",
      "outputs": [
        {
          "internalType": "address",
          "name": "",
          "type": "address"
        }
      ],
      "stateMutability": "view",
      "type": "function",
      "constant": true
    },
    {
      "inputs": [
        {
          "internalType": "address",
          "name": "dest",
          "type": "address"
        }
      ],
      "name": "payments",
      "outputs": [
        {
          "internalType": "uint256",
          "name": "",
          "type": "uint256"
        }
      ],
      "stateMutability": "view",
      "type": "function",
      "constant": true
    },
    {
      "inputs": [],
      "name": "renounceOwnership",
      "outputs": [],
      "stateMutability": "nonpayable",
      "type": "function"
    },
    {
      "inputs": [
        {
          "internalType": "address",
          "name": "from",
          "type": "address"
        },
        {
          "internalType": "address",
          "name": "to",
          "type": "address"
        },
        {
          "internalType": "uint256",
          "name": "tokenId",
          "type": "uint256"
        }
      ],
      "name": "safeTransferFrom",
      "outputs": [],
      "stateMutability": "nonpayable",
      "type": "function"
    },
    {
      "inputs": [
        {
          "internalType": "address",
          "name": "from",
          "type": "address"
        },
        {
          "internalType": "address",
          "name": "to",
          "type": "address"
        },
        {
          "internalType": "uint256",
          "name": "tokenId",
          "type": "uint256"
        },
        {
          "internalType": "bytes",
          "name": "data",
          "type": "bytes"
        }
      ],
      "name": "safeTransferFrom",
      "outputs": [],
      "stateMutability": "nonpayable",
      "type": "function"
    },
    {
      "inputs": [
        {
          "internalType": "address",
          "name": "operator",
          "type": "address"
        },
        {
          "internalType": "bool",
          "name": "approved",
          "type": "bool"
        }
      ],
      "name": "setApprovalForAll",
      "outputs": [],
      "stateMutability": "nonpayable",
      "type": "function"
    },
    {
      "inputs": [],
      "name": "symbol",
      "outputs": [
        {
          "internalType": "string",
          "name": "",
          "type": "string"
        }
      ],
      "stateMutability": "view",
      "type": "function",
      "constant": true
    },
    {
      "inputs": [
        {
          "internalType": "uint256",
          "name": "",
          "type": "uint256"
        }
      ],
      "name": "tartiRoyaltyRate",
      "outputs": [
        {
          "internalType": "uint256",
          "name": "",
          "type": "uint256"
        }
      ],
      "stateMutability": "view",
      "type": "function",
      "constant": true
    },
    {
      "inputs": [
        {
          "internalType": "uint256",
          "name": "index",
          "type": "uint256"
        }
      ],
      "name": "tokenByIndex",
      "outputs": [
        {
          "internalType": "uint256",
          "name": "",
          "type": "uint256"
        }
      ],
      "stateMutability": "view",
      "type": "function",
      "constant": true
    },
    {
      "inputs": [
        {
          "internalType": "address",
          "name": "owner",
          "type": "address"
        },
        {
          "internalType": "uint256",
          "name": "index",
          "type": "uint256"
        }
      ],
      "name": "tokenOfOwnerByIndex",
      "outputs": [
        {
          "internalType": "uint256",
          "name": "",
          "type": "uint256"
        }
      ],
      "stateMutability": "view",
      "type": "function",
      "constant": true
    },
    {
      "inputs": [],
      "name": "totalSupply",
      "outputs": [
        {
          "internalType": "uint256",
          "name": "",
          "type": "uint256"
        }
      ],
      "stateMutability": "view",
      "type": "function",
      "constant": true
    },
    {
      "inputs": [
        {
          "internalType": "address",
          "name": "from",
          "type": "address"
        },
        {
          "internalType": "address",
          "name": "to",
          "type": "address"
        },
        {
          "internalType": "uint256",
          "name": "tokenId",
          "type": "uint256"
        }
      ],
      "name": "transferFrom",
      "outputs": [],
      "stateMutability": "nonpayable",
      "type": "function"
    },
    {
      "inputs": [
        {
          "internalType": "address",
          "name": "newOwner",
          "type": "address"
        }
      ],
      "name": "transferOwnership",
      "outputs": [],
      "stateMutability": "nonpayable",
      "type": "function"
    },
    {
      "inputs": [
        {
          "internalType": "uint256",
          "name": "traitCode",
          "type": "uint256"
        },
        {
          "internalType": "string",
          "name": "traitName",
          "type": "string"
        }
      ],
      "name": "addTrait",
      "outputs": [],
      "stateMutability": "nonpayable",
      "type": "function"
    },
    {
      "inputs": [
        {
          "internalType": "uint256",
          "name": "traitCode",
          "type": "uint256"
        }
      ],
      "name": "cancelTrait",
      "outputs": [],
      "stateMutability": "nonpayable",
      "type": "function"
    },
    {
      "inputs": [],
      "name": "getAllTraits",
      "outputs": [
        {
          "internalType": "uint256[]",
          "name": "",
          "type": "uint256[]"
        }
      ],
      "stateMutability": "view",
      "type": "function",
      "constant": true
    },
    {
      "inputs": [
        {
          "internalType": "address",
          "name": "recipient",
          "type": "address"
        },
        {
          "internalType": "uint256[]",
          "name": "traits",
          "type": "uint256[]"
        },
        {
          "internalType": "string[]",
          "name": "dynamicTraitValues",
          "type": "string[]"
        },
        {
          "internalType": "uint8[]",
          "name": "traitDominance",
          "type": "uint8[]"
        }
      ],
      "name": "giveBirth",
      "outputs": [
        {
          "internalType": "uint256",
          "name": "",
          "type": "uint256"
        }
      ],
      "stateMutability": "payable",
      "type": "function",
      "payable": true
    },
    {
      "inputs": [
        {
          "internalType": "uint8",
          "name": "artistId",
          "type": "uint8"
        },
        {
          "internalType": "uint256",
          "name": "ratePerTarti",
          "type": "uint256"
        }
      ],
      "name": "setRoyaltyRate",
      "outputs": [],
      "stateMutability": "nonpayable",
      "type": "function"
    },
    {
      "inputs": [
        {
          "internalType": "uint8",
          "name": "artistId",
          "type": "uint8"
        }
      ],
      "name": "newArt",
      "outputs": [
        {
          "internalType": "uint256",
          "name": "",
          "type": "uint256"
        }
      ],
      "stateMutability": "payable",
      "type": "function",
      "payable": true
    },
    {
      "inputs": [],
      "name": "contractURI",
      "outputs": [
        {
          "internalType": "string",
          "name": "",
          "type": "string"
        }
      ],
      "stateMutability": "pure",
      "type": "function",
      "constant": true
    },
    {
      "inputs": [
        {
          "internalType": "address",
          "name": "tartiAddr",
          "type": "address"
        }
      ],
      "name": "setTartiAddr",
      "outputs": [],
      "stateMutability": "nonpayable",
      "type": "function"
    },
    {
      "inputs": [
        {
          "internalType": "uint256",
          "name": "tokenId",
          "type": "uint256"
        },
        {
          "internalType": "bool",
          "name": "onTarti",
          "type": "bool"
        }
      ],
      "name": "setCreationStarted",
      "outputs": [],
      "stateMutability": "nonpayable",
      "type": "function"
    },
    {
      "inputs": [
        {
          "internalType": "uint256",
          "name": "tokenId",
          "type": "uint256"
        },
        {
          "internalType": "bytes",
          "name": "cid",
          "type": "bytes"
        },
        {
          "internalType": "bool",
          "name": "onTarti",
          "type": "bool"
        }
      ],
      "name": "setCreated",
      "outputs": [],
      "stateMutability": "nonpayable",
      "type": "function"
    },
    {
      "inputs": [
        {
          "internalType": "uint256",
          "name": "tokenId",
          "type": "uint256"
        }
      ],
      "name": "getTraits",
      "outputs": [
        {
          "internalType": "uint256[]",
          "name": "",
          "type": "uint256[]"
        }
      ],
      "stateMutability": "view",
      "type": "function",
      "constant": true
    },
    {
      "inputs": [
        {
          "internalType": "uint256",
          "name": "tokenId",
          "type": "uint256"
        }
      ],
      "name": "getTraitValues",
      "outputs": [
        {
          "internalType": "string[]",
          "name": "",
          "type": "string[]"
        }
      ],
      "stateMutability": "view",
      "type": "function",
      "constant": true
    },
    {
      "inputs": [
        {
          "internalType": "uint256",
          "name": "tokenId",
          "type": "uint256"
        }
      ],
      "name": "getTraitDominances",
      "outputs": [
        {
          "internalType": "uint256[]",
          "name": "",
          "type": "uint256[]"
        }
      ],
      "stateMutability": "view",
      "type": "function",
      "constant": true
    },
    {
      "inputs": [
        {
          "internalType": "address payable",
          "name": "payee",
          "type": "address"
        }
      ],
      "name": "withdrawPayments",
      "outputs": [],
      "stateMutability": "nonpayable",
      "type": "function"
    },
    {
      "inputs": [
        {
          "internalType": "bytes4",
          "name": "interfaceId",
          "type": "bytes4"
        }
      ],
      "name": "supportsInterface",
      "outputs": [
        {
          "internalType": "bool",
          "name": "",
          "type": "bool"
        }
      ],
      "stateMutability": "view",
      "type": "function",
      "constant": true
    },
    {
      "inputs": [
        {
          "internalType": "uint256",
          "name": "tokenId",
          "type": "uint256"
        }
      ],
      "name": "tokenURI",
      "outputs": [
        {
          "internalType": "string",
          "name": "",
          "type": "string"
        }
      ],
      "stateMutability": "view",
      "type": "function",
      "constant": true
    }
  ],
  "bytecode": "0x60a06040523480156200001157600080fd5b506040518060400160405280600c81526020016b15185c9d1a48105c9d1a5cdd60a21b81525060405180604001604052806007815260200166151054951254d560ca1b8152508160009081620000689190620001c8565b506001620000778282620001c8565b505050604051620000889062000115565b604051809103906000f080158015620000a5573d6000803e3d6000fd5b506001600160a01b0316608052620000bd33620000c3565b62000294565b600b80546001600160a01b038381166001600160a01b0319831681179093556040519116919082907f8be0079c531659141344cd1fd0a4f28419497f9722a3daafe3b4186f6b6457e090600090a35050565b6105a28062003c4083390190565b634e487b7160e01b600052604160045260246000fd5b600181811c908216806200014e57607f821691505b6020821081036200016f57634e487b7160e01b600052602260045260246000fd5b50919050565b601f821115620001c357600081815260208120601f850160051c810160208610156200019e5750805b601f850160051c820191505b81811015620001bf57828155600101620001aa565b5050505b505050565b81516001600160401b03811115620001e457620001e462000123565b620001fc81620001f5845462000139565b8462000175565b602080601f8311600181146200023457600084156200021b5750858301515b600019600386901b1c1916600185901b178555620001bf565b600085815260208120601f198616915b82811015620002655788860151825594840194600190910190840162000244565b5085821015620002845787850151600019600388901b60f8161c191681555b5050505050600190811b01905550565b608051613982620002be60003960008181611ab901528181611ff101526120df01526139826000f3fe6080604052600436106101e15760003560e01c806301ffc9a7146101e657806306fdde031461021b578063081812fc1461023d578063095ea7b31461026a57806318160ddd1461028c57806323b872dd146102ab5780632f745c59146102cb57806330b64090146102eb578063318063681461030b57806331b3eb941461032b57806340eb171a1461034b57806342842e0e1461036b5780634f6ccce71461038b578063580a294b146103ab5780636352211e146103c7578063639eac2e146103e75780636bf1c36a146104075780636ce75ea21461042257806370a082311461044f578063715018a61461046f578063750f681c14610484578063751ee473146104a45780638da5cb5b146104c457806395204a96146104d957806395d89b41146104f95780639ab5dc471461050e5780639b848ea914610521578063a22cb46514610541578063adaa00e514610561578063b543842e14610581578063b88d4fde14610594578063c87b56dd146105b4578063dc5effe7146105d4578063de2d02b0146105f4578063ded865b714610621578063e0b6437114610641578063e1dc07611461066e578063e2982c211461068e578063e8a3d485146106ae578063e985e9c5146106c3578063ee14918c146106e3578063f2fde38b146106f8575b600080fd5b3480156101f257600080fd5b50610206610201366004612c24565b610718565b60405190151581526020015b60405180910390f35b34801561022757600080fd5b50610230610729565b6040516102129190612c91565b34801561024957600080fd5b5061025d610258366004612ca4565b6107bb565b6040516102129190612cbd565b34801561027657600080fd5b5061028a610285366004612ce6565b6107e2565b005b34801561029857600080fd5b506009545b604051908152602001610212565b3480156102b757600080fd5b5061028a6102c6366004612d12565b6108fc565b3480156102d757600080fd5b5061029d6102e6366004612ce6565b61092d565b3480156102f757600080fd5b50610230610306366004612d53565b6109c3565b34801561031757600080fd5b5061028a610326366004612d8a565b610a7c565b34801561033757600080fd5b5061028a610346366004612e16565b610c26565b34801561035757600080fd5b5061028a610366366004612e16565b610ca0565b34801561037757600080fd5b5061028a610386366004612d12565b610cca565b34801561039757600080fd5b5061029d6103a6366004612ca4565b610ce5565b3480156103b757600080fd5b5061029d67027f7d0bdb92000081565b3480156103d357600080fd5b5061025d6103e2366004612ca4565b610d78565b3480156103f357600080fd5b5061028a610402366004612ca4565b610dac565b34801561041357600080fd5b5061029d66aa87bee538000081565b34801561042e57600080fd5b5061044261043d366004612ca4565b610e09565b6040516102129190612e33565b34801561045b57600080fd5b5061029d61046a366004612e16565b610e6b565b34801561047b57600080fd5b5061028a610ef1565b34801561049057600080fd5b5061029d61049f366004612ca4565b610f05565b3480156104b057600080fd5b5061029d6104bf366004612d53565b610f26565b3480156104d057600080fd5b5061025d610f57565b3480156104e557600080fd5b5061028a6104f4366004612e88565b610f66565b34801561050557600080fd5b50610230610fb8565b61029d61051c366004612ea4565b610fc7565b34801561052d57600080fd5b5061028a61053c366004612ebf565b6111ed565b34801561054d57600080fd5b5061028a61055c366004612eeb565b61135a565b34801561056d57600080fd5b5061029d61057c366004612d53565b611365565b61029d61058f3660046130e8565b611381565b3480156105a057600080fd5b5061028a6105af3660046131d9565b6117b9565b3480156105c057600080fd5b506102306105cf366004612ca4565b6117eb565b3480156105e057600080fd5b506102306105ef366004612ca4565b6117f6565b34801561060057600080fd5b5061029d61060f366004612ca4565b60136020526000908152604090205481565b34801561062d57600080fd5b5061028a61063c36600461324c565b61180f565b34801561064d57600080fd5b5061066161065c366004612ca4565b611953565b6040516102129190613292565b34801561067a57600080fd5b50610442610689366004612ca4565b611a3f565b34801561069a57600080fd5b5061029d6106a9366004612e16565b611a9f565b3480156106ba57600080fd5b50610230611b2f565b3480156106cf57600080fd5b506102066106de3660046132f4565b611b4f565b3480156106ef57600080fd5b50610442611b7d565b34801561070457600080fd5b5061028a610713366004612e16565b611bd4565b600061072382611c4a565b92915050565b6060600080546107389061332d565b80601f01602080910402602001604051908101604052809291908181526020018280546107649061332d565b80156107b15780601f10610786576101008083540402835291602001916107b1565b820191906000526020600020905b81548152906001019060200180831161079457829003601f168201915b5050505050905090565b60006107c682611c6f565b506000908152600460205260409020546001600160a01b031690565b60006107ed82610d78565b9050806001600160a01b0316836001600160a01b03160361085f5760405162461bcd60e51b815260206004820152602160248201527f4552433732313a20617070726f76616c20746f2063757272656e74206f776e656044820152603960f91b60648201526084015b60405180910390fd5b336001600160a01b038216148061087b575061087b8133611b4f565b6108ed5760405162461bcd60e51b815260206004820152603d60248201527f4552433732313a20617070726f76652063616c6c6572206973206e6f7420746f60448201527f6b656e206f776e6572206f7220617070726f76656420666f7220616c6c0000006064820152608401610856565b6108f78383611c94565b505050565b6109063382611d02565b6109225760405162461bcd60e51b815260040161085690613367565b6108f7838383611d60565b600061093883610e6b565b821061099a5760405162461bcd60e51b815260206004820152602b60248201527f455243373231456e756d657261626c653a206f776e657220696e646578206f7560448201526a74206f6620626f756e647360a81b6064820152608401610856565b506001600160a01b03919091166000908152600760209081526040808320938352929052205490565b601260205281600052604060002081815481106109df57600080fd5b906000526020600020016000915091505080546109fb9061332d565b80601f0160208091040260200160405190810160405280929190818152602001828054610a279061332d565b8015610a745780601f10610a4957610100808354040283529160200191610a74565b820191906000526020600020905b815481529060010190602001808311610a5757829003601f168201915b505050505081565b610a84611ebf565b8015610b20576015546001600160a01b0316610ab25760405162461bcd60e51b8152600401610856906133b4565b601554604051636a71167960e11b81526001600160a01b0390911690819063d4e22cf290610ae8908890889088906004016133e1565b600060405180830381600087803b158015610b0257600080fd5b505af1158015610b16573d6000803e3d6000fd5b5050505050610c20565b6000610b2b856117eb565b8051906020012090506040518060600160405280603581526020016138bc60359139604051602001610b5d9190613417565b604051602081830303815290604052805190602001208114610bb55760405162461bcd60e51b81526020600482015260116024820152701d185c9d1a5cdd1b9bdd1cdd185c9d1959607a1b6044820152606401610856565b60008484604051602001610bca929190613433565b6040516020818303038152906040529050610be58682611f1e565b857fa109ba539900bf1b633f956d63c96fc89b814c7287f7aa50a9216d0b5565720782604051610c159190612c91565b60405180910390a250505b50505050565b336001600160a01b0382161480610c555750610c40610f57565b6001600160a01b0316336001600160a01b0316145b610c945760405162461bcd60e51b815260206004820152601060248201526f1d5b985d5d1a081dda5d1a191c985ddb60821b6044820152606401610856565b610c9d81611fda565b50565b610ca8611ebf565b601580546001600160a01b0319166001600160a01b0392909216919091179055565b6108f7838383604051806020016040528060008152506117b9565b6000610cf060095490565b8210610d535760405162461bcd60e51b815260206004820152602c60248201527f455243373231456e756d657261626c653a20676c6f62616c20696e646578206f60448201526b7574206f6620626f756e647360a01b6064820152608401610856565b60098281548110610d6657610d66613443565b90600052602060002001549050919050565b600080610d848361205b565b90506001600160a01b0381166107235760405162461bcd60e51b815260040161085690613459565b610db4611ebf565b6000818152601160205260408082209051600e91610dd19161348b565b908152604080516020928190038301812093909355818301815260008084528481526011909252902090610e05908261354f565b5050565b600081815260106020908152604091829020805483518184028101840190945280845260609392830182828015610e5f57602002820191906000526020600020905b815481526020019060010190808311610e4b575b50505050509050919050565b60006001600160a01b038216610ed55760405162461bcd60e51b815260206004820152602960248201527f4552433732313a2061646472657373207a65726f206973206e6f7420612076616044820152683634b21037bbb732b960b91b6064820152608401610856565b506001600160a01b031660009081526003602052604090205490565b610ef9611ebf565b610f036000612076565b565b600d8181548110610f1557600080fd5b600091825260209091200154905081565b600f6020528160005260406000208181548110610f4257600080fd5b90600052602060002001600091509150505481565b600b546001600160a01b031690565b610f728260ff16610d78565b6001600160a01b0316336001600160a01b031614610fa25760405162461bcd60e51b81526004016108569061360e565b60ff909116600090815260136020526040902055565b6060600180546107389061332d565b6015546000906001600160a01b0316610ff25760405162461bcd60e51b8152600401610856906133b4565b60ff82166000908152601360205260408120549003611094576110178260ff16610d78565b6001600160a01b0316336001600160a01b0316146110475760405162461bcd60e51b81526004016108569061360e565b66aa87bee538000034146110945760405162461bcd60e51b815260206004820152601460248201527336bab9ba1039b2b7321031b7b6b6b4b9b9b4b7b760611b6044820152606401610856565b60ff8216600090815260136020526040902054156111505760ff82166000908152601360205260409020546110d09066aa87bee5380000613646565b34146111295760405162461bcd60e51b815260206004820152602260248201527f6d7573742073656e6420636f6d6d697373696f6e20616e6420726f79616c7469604482015261657360f01b6064820152608401610856565b6111506111388360ff16610d78565b60ff84166000908152601360205260409020546120c8565b601554604051639e31203160e01b815233600482015260ff841660248201526001600160a01b03909116906000908290639e312031906044016020604051808303816000875af11580156111a8573d6000803e3d6000fd5b505050506040513d601f19601f820116820180604052508101906111cc9190613659565b90506111e66111d9610f57565b66aa87bee53800006120c8565b9392505050565b6111f5611ebf565b8015611288576015546001600160a01b03166112235760405162461bcd60e51b8152600401610856906133b4565b601554604051632d0de82160e01b8152600481018490526001600160a01b03909116908190632d0de82190602401600060405180830381600087803b15801561126b57600080fd5b505af115801561127f573d6000803e3d6000fd5b50505050505050565b6000611293836117eb565b80519060200120905060405180606001604052806035815260200161382d603591396040516020016112c59190613417565b6040516020818303038152906040528051906020012081146113195760405162461bcd60e51b815260206004820152600d60248201526c746172746973746e6f746e657760981b6044820152606401610856565b6108f7836040518060600160405280602e81526020016138f1602e91396040516020016113469190613417565b604051602081830303815290604052611f1e565b610e0533838361212f565b60106020528160005260406000208181548110610f4257600080fd5b600067027f7d0bdb92000034146113f15760405162461bcd60e51b815260206004820152602e60248201527f5472616e73616374696f6e2076616c756520646964206e6f7420657175616c2060448201526d746865206d696e7420707269636560901b6064820152608401610856565b60648451106114345760405162461bcd60e51b815260206004820152600f60248201526e546f6f206d616e792074726169747360881b6044820152606401610856565b606483511061147d5760405162461bcd60e51b8152602060048201526015602482015274546f6f206d616e792074726169742076616c75657360581b6044820152606401610856565b60648251106114c95760405162461bcd60e51b8152602060048201526018602482015277546f6f206d616e7920747261697420646f6d696e616e636560401b6044820152606401610856565b60005b8451811015611569576000601160008784815181106114ed576114ed613443565b60200260200101518152602001908152602001600020805461150e9061332d565b9050116115575760405162461bcd60e51b8152602060048201526017602482015276125b9d985b1a59081d1c985a5d081cdc1958da599a5959604a1b6044820152606401610856565b8061156181613672565b9150506114cc565b50606060005b85518110156115c8578186828151811061158b5761158b613443565b60200260200101516040516020016115a492919061368b565b604051602081830303815290604052915080806115c090613672565b91505061156f565b50606060005b855181101561162757818682815181106115ea576115ea613443565b60200260200101516040516020016116039291906136ad565b6040516020818303038152906040529150808061161f90613672565b9150506115ce565b506000828260405160200161163d9291906136ad565b60408051601f1981840301815291815281516020928301206000818152600c90935291205490915060ff1615156001036116c45760405162461bcd60e51b815260206004820152602260248201527f426f742067656e657469637320617265206e6f7420756e6971756520656e6f756044820152610ced60f31b6064820152608401610856565b6000818152600c60205260409020805460ff191660011790556116eb601480546001019055565b60006116f660145490565b6000818152600f602090815260409091208a5192935061171a9290918b0190612ac5565b506000818152601260209081526040909120885161173a928a0190612b10565b506000818152601060209081526040909120875161175a92890190612b62565b5061176589826121f9565b611792816040518060600160405280602e815260200161391f602e91396040516020016113469190613417565b6117ab61179d610f57565b67027f7d0bdb9200006120c8565b93505050505b949350505050565b6117c33383611d02565b6117df5760405162461bcd60e51b815260040161085690613367565b610c2084848484612213565b606061072382612246565b601160205260009081526040902080546109fb9061332d565b611817611ebf565b600082815260116020526040902080546118309061332d565b1590506118795760405162461bcd60e51b8152602060048201526017602482015276547261697420696420616c72656164792065786973747360481b6044820152606401610856565b600e816040516118899190613417565b9081526020016040518091039020546000146118e35760405162461bcd60e51b81526020600482015260196024820152785472616974206e616d6520616c72656164792065786973747360381b6044820152606401610856565b60008281526011602052604090206118fb828261354f565b5081600e8260405161190d9190613417565b9081526040519081900360200190205550600d80546001810182556000919091527fd7b6990105719101dabeb77144f2a3385c8033acd3af97e9423a695e81ad1eb50155565b606060126000838152602001908152602001600020805480602002602001604051908101604052809291908181526020016000905b82821015611a345783829060005260206000200180546119a79061332d565b80601f01602080910402602001604051908101604052809291908181526020018280546119d39061332d565b8015611a205780601f106119f557610100808354040283529160200191611a20565b820191906000526020600020905b815481529060010190602001808311611a0357829003601f168201915b505050505081526020019060010190611988565b505050509050919050565b6000818152600f6020908152604091829020805483518184028101840190945280845260609392830182828015610e5f5760200282019190600052602060002090815481526020019060010190808311610e4b5750505050509050919050565b6040516371d4ed8d60e11b81526000906001600160a01b037f0000000000000000000000000000000000000000000000000000000000000000169063e3a9db1a90611aee908590600401612cbd565b602060405180830381865afa158015611b0b573d6000803e3d6000fd5b505050506040513d601f19601f820116820180604052508101906107239190613659565b60606040518060600160405280603a8152602001613862603a9139905090565b6001600160a01b03918216600090815260056020908152604080832093909416825291909152205460ff1690565b6060600d8054806020026020016040519081016040528092919081815260200182805480156107b157602002820191906000526020600020905b815481526020019060010190808311611bb7575050505050905090565b611bdc611ebf565b6001600160a01b038116611c415760405162461bcd60e51b815260206004820152602660248201527f4f776e61626c653a206e6577206f776e657220697320746865207a65726f206160448201526564647265737360d01b6064820152608401610856565b610c9d81612076565b60006001600160e01b0319821663780e9d6360e01b1480610723575061072382612341565b611c7881612366565b610c9d5760405162461bcd60e51b815260040161085690613459565b600081815260046020526040902080546001600160a01b0319166001600160a01b0384169081179091558190611cc982610d78565b6001600160a01b03167f8c5be1e5ebec7d5bd14f71427d1e84f3dd0314c0f7b2291e5b200ac8c7c3b92560405160405180910390a45050565b600080611d0e83610d78565b9050806001600160a01b0316846001600160a01b03161480611d355750611d358185611b4f565b806117b15750836001600160a01b0316611d4e846107bb565b6001600160a01b031614949350505050565b826001600160a01b0316611d7382610d78565b6001600160a01b031614611d995760405162461bcd60e51b8152600401610856906136dc565b6001600160a01b038216611dfb5760405162461bcd60e51b8152602060048201526024808201527f4552433732313a207472616e7366657220746f20746865207a65726f206164646044820152637265737360e01b6064820152608401610856565b611e088383836001612383565b826001600160a01b0316611e1b82610d78565b6001600160a01b031614611e415760405162461bcd60e51b8152600401610856906136dc565b600081815260046020908152604080832080546001600160a01b03199081169091556001600160a01b03878116808652600385528386208054600019019055908716808652838620805460010190558686526002909452828520805490921684179091559051849360008051602061389c83398151915291a4505050565b33611ec8610f57565b6001600160a01b031614610f035760405162461bcd60e51b815260206004820181905260248201527f4f776e61626c653a2063616c6c6572206973206e6f7420746865206f776e65726044820152606401610856565b611f2782612366565b611f8a5760405162461bcd60e51b815260206004820152602e60248201527f45524337323155524953746f726167653a2055524920736574206f66206e6f6e60448201526d32bc34b9ba32b73a103a37b5b2b760911b6064820152608401610856565b6000828152600660205260409020611fa2828261354f565b506040518281527ff8e1a15aba9398e019f0b49df1a4fde98ee17ae345cb5f6b5e2c27f5033e8ce79060200160405180910390a15050565b6040516351cff8d960e01b81526001600160a01b037f000000000000000000000000000000000000000000000000000000000000000016906351cff8d990612026908490600401612cbd565b600060405180830381600087803b15801561204057600080fd5b505af1158015612054573d6000803e3d6000fd5b5050505050565b6000908152600260205260409020546001600160a01b031690565b600b80546001600160a01b038381166001600160a01b0319831681179093556040519116919082907f8be0079c531659141344cd1fd0a4f28419497f9722a3daafe3b4186f6b6457e090600090a35050565b60405163f340fa0160e01b81526001600160a01b037f0000000000000000000000000000000000000000000000000000000000000000169063f340fa01908390612116908690600401612cbd565b6000604051808303818588803b15801561126b57600080fd5b816001600160a01b0316836001600160a01b03160361218c5760405162461bcd60e51b815260206004820152601960248201527822a9219b99189d1030b8383937bb32903a379031b0b63632b960391b6044820152606401610856565b6001600160a01b03838116600081815260056020908152604080832094871680845294825291829020805460ff191686151590811790915591519182527f17307eab39ab6107e8899845ad3d59bd9653f200f220920489ca2b5937696c31910160405180910390a3505050565b610e0582826040518060200160405280600081525061238f565b61221e848484611d60565b61222a848484846123c2565b610c205760405162461bcd60e51b815260040161085690613721565b606061225182611c6f565b6000828152600660205260408120805461226a9061332d565b80601f01602080910402602001604051908101604052809291908181526020018280546122969061332d565b80156122e35780601f106122b8576101008083540402835291602001916122e3565b820191906000526020600020905b8154815290600101906020018083116122c657829003601f168201915b5050505050905060006122f46124c0565b90508051600003612306575092915050565b8151156123385780826040516020016123209291906136ad565b60405160208183030381529060405292505050919050565b6117b1846124e1565b60006001600160e01b03198216632483248360e11b1480610723575061072382612547565b6000806123728361205b565b6001600160a01b0316141592915050565b610c2084848484612597565b61239983836126c4565b6123a660008484846123c2565b6108f75760405162461bcd60e51b815260040161085690613721565b60006001600160a01b0384163b156124b857604051630a85bd0160e11b81526001600160a01b0385169063150b7a0290612406903390899088908890600401613773565b6020604051808303816000875af1925050508015612441575060408051601f3d908101601f1916820190925261243e918101906137b0565b60015b61249e573d80801561246f576040519150601f19603f3d011682016040523d82523d6000602084013e612474565b606091505b5080516000036124965760405162461bcd60e51b815260040161085690613721565b805181602001fd5b6001600160e01b031916630a85bd0160e11b1490506117b1565b5060016117b1565b604080518082019091526007815266697066733a2f2f60c81b602082015290565b60606124ec82611c6f565b60006124f66124c0565b9050600081511161251657604051806020016040528060008152506111e6565b80612520846127cd565b6040516020016125319291906136ad565b6040516020818303038152906040529392505050565b60006001600160e01b031982166380ac58cd60e01b148061257857506001600160e01b03198216635b5e139f60e01b145b8061072357506301ffc9a760e01b6001600160e01b0319831614610723565b60018111156126065760405162461bcd60e51b815260206004820152603560248201527f455243373231456e756d657261626c653a20636f6e7365637574697665207472604482015274185b9cd9995c9cc81b9bdd081cdd5c1c1bdc9d1959605a1b6064820152608401610856565b816001600160a01b0385166126625761265d81600980546000838152600a60205260408120829055600182018355919091527f6e1540171b6c0c960b71a7020d9f60077f6af931a8bbf590da0223dacf75c7af0155565b612685565b836001600160a01b0316856001600160a01b03161461268557612685858261285f565b6001600160a01b0384166126a15761269c816128fc565b612054565b846001600160a01b0316846001600160a01b0316146120545761205484826129ab565b6001600160a01b03821661271a5760405162461bcd60e51b815260206004820181905260248201527f4552433732313a206d696e7420746f20746865207a65726f20616464726573736044820152606401610856565b61272381612366565b156127405760405162461bcd60e51b8152600401610856906137cd565b61274e600083836001612383565b61275781612366565b156127745760405162461bcd60e51b8152600401610856906137cd565b6001600160a01b038216600081815260036020908152604080832080546001019055848352600290915280822080546001600160a01b03191684179055518392919060008051602061389c833981519152908290a45050565b606060006127da836129ef565b60010190506000816001600160401b038111156127f9576127f9612f17565b6040519080825280601f01601f191660200182016040528015612823576020820181803683370190505b5090508181016020015b600019016f181899199a1a9b1b9c1cb0b131b232b360811b600a86061a8153600a850494508461282d57509392505050565b6000600161286c84610e6b565b6128769190613803565b6000838152600860205260409020549091508082146128c9576001600160a01b03841660009081526007602090815260408083208584528252808320548484528184208190558352600890915290208190555b5060009182526008602090815260408084208490556001600160a01b039094168352600781528383209183525290812055565b60095460009061290e90600190613803565b6000838152600a60205260408120546009805493945090928490811061293657612936613443565b90600052602060002001549050806009838154811061295757612957613443565b6000918252602080832090910192909255828152600a9091526040808220849055858252812055600980548061298f5761298f613816565b6001900381819060005260206000200160009055905550505050565b60006129b683610e6b565b6001600160a01b039093166000908152600760209081526040808320868452825280832085905593825260089052919091209190915550565b60008072184f03e93ff9f4daa797ed6e38ed64bf6a1f0160401b8310612a2e5772184f03e93ff9f4daa797ed6e38ed64bf6a1f0160401b830492506040015b6904ee2d6d415b85acef8160201b8310612a58576904ee2d6d415b85acef8160201b830492506020015b662386f26fc100008310612a7657662386f26fc10000830492506010015b6305f5e1008310612a8e576305f5e100830492506008015b6127108310612aa257612710830492506004015b60648310612ab4576064830492506002015b600a83106107235760010192915050565b828054828255906000526020600020908101928215612b00579160200282015b82811115612b00578251825591602001919060010190612ae5565b50612b0c929150612ba2565b5090565b828054828255906000526020600020908101928215612b56579160200282015b82811115612b565782518290612b46908261354f565b5091602001919060010190612b30565b50612b0c929150612bb7565b828054828255906000526020600020908101928215612b00579160200282015b82811115612b00578251829060ff16905591602001919060010190612b82565b5b80821115612b0c5760008155600101612ba3565b80821115612b0c576000612bcb8282612bd4565b50600101612bb7565b508054612be09061332d565b6000825580601f10612bf0575050565b601f016020900490600052602060002090810190610c9d9190612ba2565b6001600160e01b031981168114610c9d57600080fd5b600060208284031215612c3657600080fd5b81356111e681612c0e565b60005b83811015612c5c578181015183820152602001612c44565b50506000910152565b60008151808452612c7d816020860160208601612c41565b601f01601f19169290920160200192915050565b6020815260006111e66020830184612c65565b600060208284031215612cb657600080fd5b5035919050565b6001600160a01b0391909116815260200190565b6001600160a01b0381168114610c9d57600080fd5b60008060408385031215612cf957600080fd5b8235612d0481612cd1565b946020939093013593505050565b600080600060608486031215612d2757600080fd5b8335612d3281612cd1565b92506020840135612d4281612cd1565b929592945050506040919091013590565b60008060408385031215612d6657600080fd5b50508035926020909101359150565b80358015158114612d8557600080fd5b919050565b60008060008060608587031215612da057600080fd5b8435935060208501356001600160401b0380821115612dbe57600080fd5b818701915087601f830112612dd257600080fd5b813581811115612de157600080fd5b886020828501011115612df357600080fd5b602083019550809450505050612e0b60408601612d75565b905092959194509250565b600060208284031215612e2857600080fd5b81356111e681612cd1565b6020808252825182820181905260009190848201906040850190845b81811015612e6b57835183529284019291840191600101612e4f565b50909695505050505050565b803560ff81168114612d8557600080fd5b60008060408385031215612e9b57600080fd5b612d0483612e77565b600060208284031215612eb657600080fd5b6111e682612e77565b60008060408385031215612ed257600080fd5b82359150612ee260208401612d75565b90509250929050565b60008060408385031215612efe57600080fd5b8235612f0981612cd1565b9150612ee260208401612d75565b634e487b7160e01b600052604160045260246000fd5b604051601f8201601f191681016001600160401b0381118282101715612f5557612f55612f17565b604052919050565b60006001600160401b03821115612f7657612f76612f17565b5060051b60200190565b60006001600160401b03831115612f9957612f99612f17565b612fac601f8401601f1916602001612f2d565b9050828152838383011115612fc057600080fd5b828260208301376000602084830101529392505050565b600082601f830112612fe857600080fd5b6111e683833560208501612f80565b600082601f83011261300857600080fd5b8135602061301d61301883612f5d565b612f2d565b82815260059290921b8401810191818101908684111561303c57600080fd5b8286015b8481101561307b5780356001600160401b0381111561305f5760008081fd5b61306d8986838b0101612fd7565b845250918301918301613040565b509695505050505050565b600082601f83011261309757600080fd5b813560206130a761301883612f5d565b82815260059290921b840181019181810190868411156130c657600080fd5b8286015b8481101561307b576130db81612e77565b83529183019183016130ca565b600080600080608085870312156130fe57600080fd5b843561310981612cd1565b93506020858101356001600160401b038082111561312657600080fd5b818801915088601f83011261313a57600080fd5b813561314861301882612f5d565b81815260059190911b8301840190848101908b83111561316757600080fd5b938501935b828510156131855784358252938501939085019061316c565b97505050604088013592508083111561319d57600080fd5b6131a989848a01612ff7565b945060608801359250808311156131bf57600080fd5b50506131cd87828801613086565b91505092959194509250565b600080600080608085870312156131ef57600080fd5b84356131fa81612cd1565b9350602085013561320a81612cd1565b92506040850135915060608501356001600160401b0381111561322c57600080fd5b8501601f8101871361323d57600080fd5b6131cd87823560208401612f80565b6000806040838503121561325f57600080fd5b8235915060208301356001600160401b0381111561327c57600080fd5b61328885828601612fd7565b9150509250929050565b6000602080830181845280855180835260408601915060408160051b870101925083870160005b828110156132e757603f198886030184526132d5858351612c65565b945092850192908501906001016132b9565b5092979650505050505050565b6000806040838503121561330757600080fd5b823561331281612cd1565b9150602083013561332281612cd1565b809150509250929050565b600181811c9082168061334157607f821691505b60208210810361336157634e487b7160e01b600052602260045260246000fd5b50919050565b6020808252602d908201527f4552433732313a2063616c6c6572206973206e6f7420746f6b656e206f776e6560408201526c1c881bdc88185c1c1c9bdd9959609a1b606082015260800190565b6020808252601390820152721d185c9d1a58dbdb9d1c9858dd1b9bdd1cd95d606a1b604082015260600190565b83815260406020820152816040820152818360608301376000818301606090810191909152601f909201601f1916010192915050565b60008251613429818460208701612c41565b9190910192915050565b8183823760009101908152919050565b634e487b7160e01b600052603260045260246000fd5b602080825260189082015277115490cdcc8c4e881a5b9d985b1a59081d1bdad95b88125160421b604082015260600190565b60008083546134998161332d565b600182811680156134b157600181146134c6576134f5565b60ff19841687528215158302870194506134f5565b8760005260208060002060005b858110156134ec5781548a8201529084019082016134d3565b50505082870194505b50929695505050505050565b601f8211156108f757600081815260208120601f850160051c810160208610156135285750805b601f850160051c820191505b8181101561354757828155600101613534565b505050505050565b81516001600160401b0381111561356857613568612f17565b61357c81613576845461332d565b84613501565b602080601f8311600181146135b157600084156135995750858301515b600019600386901b1c1916600185901b178555613547565b600085815260208120601f198616915b828110156135e0578886015182559484019460019091019084016135c1565b50858210156135fe5787850151600019600388901b60f8161c191681555b5050505050600190811b01905550565b6020808252600890820152676e6f72696768747360c01b604082015260600190565b634e487b7160e01b600052601160045260246000fd5b8082018082111561072357610723613630565b60006020828403121561366b57600080fd5b5051919050565b60006001820161368457613684613630565b5060010190565b6000835161369d818460208801612c41565b9190910191825250602001919050565b600083516136bf818460208801612c41565b8351908301906136d3818360208801612c41565b01949350505050565b60208082526025908201527f4552433732313a207472616e736665722066726f6d20696e636f72726563742060408201526437bbb732b960d91b606082015260800190565b60208082526032908201527f4552433732313a207472616e7366657220746f206e6f6e20455243373231526560408201527131b2b4bb32b91034b6b83632b6b2b73a32b960711b606082015260800190565b6001600160a01b03858116825284166020820152604081018390526080606082018190526000906137a690830184612c65565b9695505050505050565b6000602082840312156137c257600080fd5b81516111e681612c0e565b6020808252601c908201527b115490cdcc8c4e881d1bdad95b88185b1c9958591e481b5a5b9d195960221b604082015260600190565b8181038181111561072357610723613630565b634e487b7160e01b600052603160045260246000fdfe697066733a2f2f516d646e3956444d63665872503956455942356735715345415a7355364a5a733639643971796e45545070433643687474703a2f2f74617274697075626c696366696c65732e74617274696172742e636f6d2f546172746973742e6d657461646174612e6a736f6eddf252ad1be2c89b69c2b068fc378daa952ba7f163c4a11628f55a4df523b3ef697066733a2f2f516d52756a6f3736396f7643787a6f4247656973516b55576e3238787631576a315a38366a57706d4b44665a424d516d52756a6f3736396f7643787a6f4247656973516b55576e3238787631576a315a38366a57706d4b44665a424d516d646e3956444d63665872503956455942356735715345415a7355364a5a733639643971796e45545070433643a2646970667358221220dd09d5727931f0c098a191a968d5d6b7ef7adc80f86bc0267faa18ef7be0705264736f6c63430008120033608060405234801561001057600080fd5b5061001a3361001f565b61006f565b600080546001600160a01b038381166001600160a01b0319831681178455604051919092169283917f8be0079c531659141344cd1fd0a4f28419497f9722a3daafe3b4186f6b6457e09190a35050565b6105248061007e6000396000f3fe6080604052600436106100555760003560e01c806351cff8d91461005a578063715018a61461007c5780638da5cb5b14610091578063e3a9db1a146100c3578063f2fde38b14610107578063f340fa0114610127575b600080fd5b34801561006657600080fd5b5061007a6100753660046104a3565b61013a565b005b34801561008857600080fd5b5061007a6101b1565b34801561009d57600080fd5b506100a66101c5565b6040516001600160a01b0390911681526020015b60405180910390f35b3480156100cf57600080fd5b506100f96100de3660046104a3565b6001600160a01b031660009081526001602052604090205490565b6040519081526020016100ba565b34801561011357600080fd5b5061007a6101223660046104a3565b6101d4565b61007a6101353660046104a3565b610252565b6101426102c4565b6001600160a01b038116600081815260016020526040812080549190559061016a9082610323565b816001600160a01b03167f7084f5476618d8e60b11ef0d7d3f06914655adb8793e28ff7f018d4c76d505d5826040516101a591815260200190565b60405180910390a25050565b6101b96102c4565b6101c3600061043e565b565b6000546001600160a01b031690565b6101dc6102c4565b6001600160a01b0381166102465760405162461bcd60e51b815260206004820152602660248201527f4f776e61626c653a206e6577206f776e657220697320746865207a65726f206160448201526564647265737360d01b60648201526084015b60405180910390fd5b61024f8161043e565b50565b61025a6102c4565b6001600160a01b0381166000908152600160205260408120805434928392916102849084906104c7565b90915550506040518181526001600160a01b038316907f2da466a7b24304f47e87fa2e1e5a81b9831ce54fec19055ce277ca2f39ba42c4906020016101a5565b336102cd6101c5565b6001600160a01b0316146101c35760405162461bcd60e51b815260206004820181905260248201527f4f776e61626c653a2063616c6c6572206973206e6f7420746865206f776e6572604482015260640161023d565b804710156103735760405162461bcd60e51b815260206004820152601d60248201527f416464726573733a20696e73756666696369656e742062616c616e6365000000604482015260640161023d565b6000826001600160a01b03168260405160006040518083038185875af1925050503d80600081146103c0576040519150601f19603f3d011682016040523d82523d6000602084013e6103c5565b606091505b50509050806104395760405162461bcd60e51b815260206004820152603a60248201527f416464726573733a20756e61626c6520746f2073656e642076616c75652c20726044820152791958da5c1a595b9d081b585e481a185d99481c995d995c9d195960321b606482015260840161023d565b505050565b600080546001600160a01b038381166001600160a01b0319831681178455604051919092169283917f8be0079c531659141344cd1fd0a4f28419497f9722a3daafe3b4186f6b6457e09190a35050565b6001600160a01b038116811461024f57600080fd5b6000602082840312156104b557600080fd5b81356104c08161048e565b9392505050565b808201808211156104e857634e487b7160e01b600052601160045260246000fd5b9291505056fea26469706673582212201db7b560f8a587875f655b0c70bd5a1c071d3efcf05cc3ab888bc5b1b66396ef64736f6c63430008120033",
  "immutableReferences": {
    "147": [
      {
        "length": 32,
        "start": 6841
      },
      {
        "length": 32,
        "start": 8177
      },
      {
        "length": 32,
        "start": 8415
      }
    ]
  },
  "source": "// SPDX-License-Identifier: MIT\npragma solidity ^0.8.18;\n\nimport \"@openzeppelin/contracts/token/ERC721/extensions/ERC721URIStorage.sol\";\nimport \"@openzeppelin/contracts/utils/Counters.sol\";\nimport \"@openzeppelin/contracts/security/PullPayment.sol\";\nimport \"@openzeppelin/contracts/access/Ownable.sol\";\nimport \"./Tarti.sol\";\n\ncontract Tartist is ERC721URIStorage, ERC721Enumerable, PullPayment, Ownable {\n    using Counters for Counters.Counter;\n\n    uint256 public constant MINT_TARTIST_PRICE = 0.18 ether;\n    uint256 public constant MINT_TARTI_PRICE = 0.048 ether;\n    bytes private constant _newMetadataCid =\n        \"Qmdn9VDMcfXrP9VEYB5g5qSEAZsU6JZs69d9qynETPpC6C\";\n    bytes private constant _newMetadataUri =\n        \"ipfs://Qmdn9VDMcfXrP9VEYB5g5qSEAZsU6JZs69d9qynETPpC6C\";\n    bytes private constant _inProcessMetadataCid =\n        \"QmRujo769ovCxzoBGeisQkUWn28xv1Wj1Z86jWpmKDfZBM\";\n    bytes private constant _inProcessMetadataUri =\n        \"ipfs://QmRujo769ovCxzoBGeisQkUWn28xv1Wj1Z86jWpmKDfZBM\";\n    mapping(bytes32 => bool) private _usedTraitComboHashes;\n\n    uint256[] public allTraits;\n    mapping(string => uint256) private _allTraitsByName;\n    mapping(uint256 => uint256[]) public botTraits;\n    mapping(uint256 => uint256[]) public botTraitDominances;\n    mapping(uint256 => string) public availableTraits;\n    mapping(uint256 => string[]) public botTraitValues;\n\n    //Tartist owner can set to greater than zero, allowing other to use their Tartist to make art\n    mapping(uint256 => uint256) public tartiRoyaltyRate;\n\n    Counters.Counter private _currentTokenId;\n    address private _tartiAddr;\n\n    event PermanentURI(string _value, uint256 indexed _id);\n\n    constructor() ERC721(\"Tarti Artist\", \"TARTIST\") {}\n\n    /**\n        `traitName` will either be:\n        - The name of the Trait class (ie MusicProducer)\n        - The name of the Trait with dot then the name of the trait prop appended (ie DynMusicProductionStyle.FavoriteKeys)\n        -- In this case the TraitAI trait being added to the bot is DynMusicProductionStyle, \n        -- and the prop the value wll map to is FavoriteKeys.\n        -- This flat structure will be nice for the NFT metadata to be standard and easy.\n        -- When it gets sent into the TraitHttpIO we will need to pull out the props and put them all beneath the same single trait.\n     */\n    function addTrait(\n        uint256 traitCode,\n        string memory traitName\n    ) public onlyOwner {\n        require(\n            bytes(availableTraits[traitCode]).length == 0,\n            \"Trait id already exists\"\n        );\n        require(\n            _allTraitsByName[traitName] == 0,\n            \"Trait name already exists\"\n        );\n        availableTraits[traitCode] = traitName;\n        _allTraitsByName[traitName] = traitCode;\n        allTraits.push(traitCode);\n    }\n\n    function cancelTrait(uint256 traitCode) public onlyOwner {\n        _allTraitsByName[availableTraits[traitCode]] = 0;\n        availableTraits[traitCode] = \"\";\n\n        //Doesnt provide any use to remove it from allTraits, \n        //and it is kinda expensive cuz will need to \n        //shift entire array.\n        //waste of gas. So we will just leave it.\n    }\n\n    function getAllTraits() external view returns (uint256[] memory) {\n        return allTraits;\n    }\n\n    function giveBirth(\n        address recipient,\n        uint256[] memory traits,\n        string[] memory dynamicTraitValues,\n        uint8[] memory traitDominance\n    ) public payable returns (uint256) {\n        require(\n            msg.value == MINT_TARTIST_PRICE,\n            \"Transaction value did not equal the mint price\"\n        );\n        require(traits.length < 100, \"Too many traits\");\n        require(dynamicTraitValues.length < 100, \"Too many trait values\");\n        require(traitDominance.length < 100, \"Too many trait dominance\");\n\n        //check that the passed traits are valid\n        for (uint256 i = 0; i < traits.length; i++) {\n            require(\n                bytes(availableTraits[traits[i]]).length > 0,\n                \"Invalid trait specified\"\n            );\n        }\n\n        //can optimize the heck out of this stuff but resisting for now.\n        //Dont set storage vars in loops!\n        bytes memory traitBytes;\n        for (uint256 i = 0; i < traits.length; i++) {\n            traitBytes = abi.encodePacked(traitBytes, traits[i]);\n        }\n\n        bytes memory dynTraitValuesBytes;\n        for (uint256 i = 0; i < dynamicTraitValues.length; i++) {\n            dynTraitValuesBytes = abi.encodePacked(\n                dynTraitValuesBytes,\n                dynamicTraitValues[i]\n            );\n        }\n        bytes32 botTraitsHash = keccak256(\n            bytes.concat(traitBytes, dynTraitValuesBytes)\n        );\n        require(\n            _usedTraitComboHashes[botTraitsHash] != true,\n            \"Bot genetics are not unique enough\"\n        );\n\n        _usedTraitComboHashes[botTraitsHash] = true;\n        _currentTokenId.increment();\n        uint256 newItemId = _currentTokenId.current();\n        botTraits[newItemId] = traits;\n        botTraitValues[newItemId] = dynamicTraitValues;\n        botTraitDominances[newItemId] = traitDominance;\n        _safeMint(recipient, newItemId);\n        _setTokenURI(newItemId, string(abi.encodePacked(_newMetadataCid)));\n\n        _asyncTransfer(owner(), MINT_TARTIST_PRICE);\n        return newItemId;\n    }\n\n    function setRoyaltyRate(uint8 artistId, uint256 ratePerTarti) public {\n        require(msg.sender == ownerOf(artistId), \"norights\");\n        tartiRoyaltyRate[artistId] = ratePerTarti;\n    }\n\n    function newArt(uint8 artistId) public payable returns (uint256) {\n        //address canot be blank\n        require(_tartiAddr != address(0), \"tarticontractnotset\");\n\n        //call newArt on the Tarti contract\n        //Tarti only allows this contract to call that method\n        //First check that the caller is allowed to use this tartist, either by owning it or paying royalties\n\n        //norights = specified artist is not contractually obligated, nor even allowed, to make any art for you.\n        if (tartiRoyaltyRate[artistId] == 0) {\n            //if royalty rate is not set, then only the owner can make art with this Tartist\n            require(msg.sender == ownerOf(artistId), \"norights\");\n            require(msg.value == MINT_TARTI_PRICE, \"must send commission\"); //.018 eth\n        }\n        if (tartiRoyaltyRate[artistId] > 0) {\n            //if royalty rate is not set, then anyone can make art with this Tartist but they must pay the royalty.\n            require(msg.value == MINT_TARTI_PRICE + tartiRoyaltyRate[artistId], \"must send commission and royalties\"); //.018 eth + royalty\n\n            //mark the royalty as payable to Tartist owner (can be withdrawn using pull payment)\n            _asyncTransfer(ownerOf(artistId), tartiRoyaltyRate[artistId]);\n        }\n\n        //use the Tarti contract to create a new Tarti token\n        //Trait engine will see the new Tarti on the blockchain and create the art/music\n\n        Tarti tarti = Tarti(_tartiAddr);\n\n        //mint the tarti token\n        uint256 newTartiToken = tarti.newArt(msg.sender, artistId);\n\n        //mark payment payable to contract owner\n        _asyncTransfer(owner(), MINT_TARTI_PRICE);\n        return newTartiToken;\n    }\n\n    /// @dev Returns an URI for a given token ID\n    function _baseURI() internal pure override returns (string memory) {\n        return \"ipfs://\";\n    }\n\n    function contractURI() public pure returns (string memory) {\n        return \"http://tartipublicfiles.tartiart.com/Tartist.metadata.json\";\n    }\n\n    function setTartiAddr(address tartiAddr) public onlyOwner {\n        _tartiAddr = tartiAddr;\n    }\n\n    function setCreationStarted(\n        uint256 tokenId,\n        bool onTarti\n    ) public onlyOwner {\n        if (onTarti) {\n            require(_tartiAddr != address(0), \"tarticontractnotset\");\n            Tarti tarti = Tarti(_tartiAddr);\n            return tarti.setCreationStarted(tokenId);\n        }\n\n        bytes32 tokenUriBytesHash = keccak256(bytes(tokenURI(tokenId)));\n        require(tokenUriBytesHash == keccak256(abi.encodePacked(_newMetadataUri)), \"tartistnotnew\");\n\n        _setTokenURI(tokenId, string(abi.encodePacked(_inProcessMetadataCid)));\n    }\n\n    function setCreated(\n        uint256 tokenId,\n        bytes calldata cid,\n        bool onTarti\n    ) public onlyOwner {\n        if (onTarti) {\n            require(_tartiAddr != address(0), \"tarticontractnotset\");\n            Tarti tarti = Tarti(_tartiAddr);\n            return tarti.setCreated(tokenId, cid);\n        }\n\n        bytes32 tokenUriBytesHash = keccak256(bytes(tokenURI(tokenId)));\n        require(tokenUriBytesHash == keccak256(abi.encodePacked(_inProcessMetadataUri)), \"tartistnotstarted\");\n\n        string memory newUri = string(abi.encodePacked(cid));\n        _setTokenURI(tokenId, newUri);\n        emit PermanentURI(newUri, tokenId);\n    }\n\n    function getTraits(\n        uint256 tokenId\n    ) external view returns (uint256[] memory) {\n        return botTraits[tokenId];\n    }\n\n    function getTraitValues(\n        uint256 tokenId\n    ) external view returns (string[] memory) {\n        return botTraitValues[tokenId];\n    }\n\n    function getTraitDominances(\n        uint256 tokenId\n    ) external view returns (uint256[] memory) {\n        return botTraitDominances[tokenId];\n    }\n\n    /// @dev Overridden in order to retrict caller to payee or owner\n    function withdrawPayments(\n        address payable payee\n    ) public virtual override {\n        //Only allow payee to request withdrawl.\n        //Help protect against gas forwarding attack.\n        require(msg.sender == payee || msg.sender == owner(), \"unauth withdrawl\");\n        super.withdrawPayments(payee);\n    }\n\n    function _burn(\n        uint256 tokenId\n    ) internal override(ERC721, ERC721URIStorage) {\n        super._burn(tokenId);\n    }\n\n    function _beforeTokenTransfer(\n        address from,\n        address to,\n        uint256 firstTokenId,\n        uint256 batchSize\n    ) internal override(ERC721, ERC721Enumerable) {\n        super._beforeTokenTransfer(from, to, firstTokenId, batchSize);\n    }\n\n    function supportsInterface(\n        bytes4 interfaceId\n    ) public view override(ERC721Enumerable, ERC721URIStorage) returns (bool) {\n        return super.supportsInterface(interfaceId);\n    }\n\n    function tokenURI(\n        uint256 tokenId\n    ) public view override(ERC721, ERC721URIStorage) returns (string memory) {\n        return ERC721URIStorage.tokenURI(tokenId);\n    }\n}\n",
  "sourcePath": "/home/evan/tartst/contracts/Tartist.sol",
  "compiler": {
    "name": "solc",
    "version": "0.8.18+commit.87f61d96.Emscripten.clang"
  },
  "schemaVersion": "3.4.14",
  "updatedAt": "2023-07-31T04:53:01.341Z",
  "networkType": "ethereum",
  "devdoc": {
    "events": {
      "Approval(address,address,uint256)": {
        "details": "Emitted when `owner` enables `approved` to manage the `tokenId` token."
      },
      "ApprovalForAll(address,address,bool)": {
        "details": "Emitted when `owner` enables or disables (`approved`) `operator` to manage all of its assets."
      },
      "BatchMetadataUpdate(uint256,uint256)": {
        "details": "This event emits when the metadata of a range of tokens is changed. So that the third-party platforms such as NFT market could timely update the images and related attributes of the NFTs."
      },
      "MetadataUpdate(uint256)": {
        "details": "This event emits when the metadata of a token is changed. So that the third-party platforms such as NFT market could timely update the images and related attributes of the NFT."
      },
      "Transfer(address,address,uint256)": {
        "details": "Emitted when `tokenId` token is transferred from `from` to `to`."
      }
    },
    "kind": "dev",
    "methods": {
      "approve(address,uint256)": {
        "details": "See {IERC721-approve}."
      },
      "balanceOf(address)": {
        "details": "See {IERC721-balanceOf}."
      },
      "getApproved(uint256)": {
        "details": "See {IERC721-getApproved}."
      },
      "isApprovedForAll(address,address)": {
        "details": "See {IERC721-isApprovedForAll}."
      },
      "name()": {
        "details": "See {IERC721Metadata-name}."
      },
      "owner()": {
        "details": "Returns the address of the current owner."
      },
      "ownerOf(uint256)": {
        "details": "See {IERC721-ownerOf}."
      },
      "payments(address)": {
        "details": "Returns the payments owed to an address.",
        "params": {
          "dest": "The creditor's address."
        }
      },
      "renounceOwnership()": {
        "details": "Leaves the contract without owner. It will not be possible to call `onlyOwner` functions. Can only be called by the current owner. NOTE: Renouncing ownership will leave the contract without an owner, thereby disabling any functionality that is only available to the owner."
      },
      "safeTransferFrom(address,address,uint256)": {
        "details": "See {IERC721-safeTransferFrom}."
      },
      "safeTransferFrom(address,address,uint256,bytes)": {
        "details": "See {IERC721-safeTransferFrom}."
      },
      "setApprovalForAll(address,bool)": {
        "details": "See {IERC721-setApprovalForAll}."
      },
      "symbol()": {
        "details": "See {IERC721Metadata-symbol}."
      },
      "tokenByIndex(uint256)": {
        "details": "See {IERC721Enumerable-tokenByIndex}."
      },
      "tokenOfOwnerByIndex(address,uint256)": {
        "details": "See {IERC721Enumerable-tokenOfOwnerByIndex}."
      },
      "totalSupply()": {
        "details": "See {IERC721Enumerable-totalSupply}."
      },
      "transferFrom(address,address,uint256)": {
        "details": "See {IERC721-transferFrom}."
      },
      "transferOwnership(address)": {
        "details": "Transfers ownership of the contract to a new account (`newOwner`). Can only be called by the current owner."
      },
      "withdrawPayments(address)": {
        "details": "Overridden in order to retrict caller to payee or owner"
      }
    },
    "version": 1
  },
  "userdoc": {
    "kind": "user",
    "methods": {
      "addTrait(uint256,string)": {
        "notice": "`traitName` will either be: - The name of the Trait class (ie MusicProducer) - The name of the Trait with dot then the name of the trait prop appended (ie DynMusicProductionStyle.FavoriteKeys) -- In this case the TraitAI trait being added to the bot is DynMusicProductionStyle,  -- and the prop the value wll map to is FavoriteKeys. -- This flat structure will be nice for the NFT metadata to be standard and easy. -- When it gets sent into the TraitHttpIO we will need to pull out the props and put them all beneath the same single trait."
      }
    },
    "version": 1
  }
}