{
    "contractName": "Tarti",
    "abi": [
        {
            "inputs": [],
            "stateMutability": "nonpayable",
            "type": "constructor"
        },
        {
            "anonymous": false,
            "inputs": [
                {
                    "indexed": true,
                    "internalType": "address",
                    "name": "owner",
                    "type": "address"
                },
                {
                    "indexed": true,
                    "internalType": "address",
                    "name": "approved",
                    "type": "address"
                },
                {
                    "indexed": true,
                    "internalType": "uint256",
                    "name": "tokenId",
                    "type": "uint256"
                }
            ],
            "name": "Approval",
            "type": "event"
        },
        {
            "anonymous": false,
            "inputs": [
                {
                    "indexed": true,
                    "internalType": "address",
                    "name": "owner",
                    "type": "address"
                },
                {
                    "indexed": true,
                    "internalType": "address",
                    "name": "operator",
                    "type": "address"
                },
                {
                    "indexed": false,
                    "internalType": "bool",
                    "name": "approved",
                    "type": "bool"
                }
            ],
            "name": "ApprovalForAll",
            "type": "event"
        },
        {
            "anonymous": false,
            "inputs": [
                {
                    "indexed": false,
                    "internalType": "uint256",
                    "name": "_fromTokenId",
                    "type": "uint256"
                },
                {
                    "indexed": false,
                    "internalType": "uint256",
                    "name": "_toTokenId",
                    "type": "uint256"
                }
            ],
            "name": "BatchMetadataUpdate",
            "type": "event"
        },
        {
            "anonymous": false,
            "inputs": [
                {
                    "indexed": false,
                    "internalType": "uint256",
                    "name": "_tokenId",
                    "type": "uint256"
                }
            ],
            "name": "MetadataUpdate",
            "type": "event"
        },
        {
            "anonymous": false,
            "inputs": [
                {
                    "indexed": true,
                    "internalType": "address",
                    "name": "previousOwner",
                    "type": "address"
                },
                {
                    "indexed": true,
                    "internalType": "address",
                    "name": "newOwner",
                    "type": "address"
                }
            ],
            "name": "OwnershipTransferred",
            "type": "event"
        },
        {
            "anonymous": false,
            "inputs": [
                {
                    "indexed": false,
                    "internalType": "string",
                    "name": "_value",
                    "type": "string"
                },
                {
                    "indexed": true,
                    "internalType": "uint256",
                    "name": "_id",
                    "type": "uint256"
                }
            ],
            "name": "PermanentURI",
            "type": "event"
        },
        {
            "anonymous": false,
            "inputs": [
                {
                    "indexed": true,
                    "internalType": "address",
                    "name": "from",
                    "type": "address"
                },
                {
                    "indexed": true,
                    "internalType": "address",
                    "name": "to",
                    "type": "address"
                },
                {
                    "indexed": true,
                    "internalType": "uint256",
                    "name": "tokenId",
                    "type": "uint256"
                }
            ],
            "name": "Transfer",
            "type": "event"
        },
        {
            "inputs": [
                {
                    "internalType": "address",
                    "name": "to",
                    "type": "address"
                },
                {
                    "internalType": "uint256",
                    "name": "tokenId",
                    "type": "uint256"
                }
            ],
            "name": "approve",
            "outputs": [],
            "stateMutability": "nonpayable",
            "type": "function"
        },
        {
            "inputs": [
                {
                    "internalType": "uint256",
                    "name": "",
                    "type": "uint256"
                }
            ],
            "name": "artCreators",
            "outputs": [
                {
                    "internalType": "uint8",
                    "name": "",
                    "type": "uint8"
                }
            ],
            "stateMutability": "view",
            "type": "function",
            "constant": true
        },
        {
            "inputs": [
                {
                    "internalType": "uint8",
                    "name": "",
                    "type": "uint8"
                }
            ],
            "name": "artistNextArtId",
            "outputs": [
                {
                    "internalType": "uint256",
                    "name": "",
                    "type": "uint256"
                }
            ],
            "stateMutability": "view",
            "type": "function",
            "constant": true
        },
        {
            "inputs": [
                {
                    "internalType": "address",
                    "name": "owner",
                    "type": "address"
                }
            ],
            "name": "balanceOf",
            "outputs": [
                {
                    "internalType": "uint256",
                    "name": "",
                    "type": "uint256"
                }
            ],
            "stateMutability": "view",
            "type": "function",
            "constant": true
        },
        {
            "inputs": [
                {
                    "internalType": "uint256",
                    "name": "tokenId",
                    "type": "uint256"
                }
            ],
            "name": "getApproved",
            "outputs": [
                {
                    "internalType": "address",
                    "name": "",
                    "type": "address"
                }
            ],
            "stateMutability": "view",
            "type": "function",
            "constant": true
        },
        {
            "inputs": [
                {
                    "internalType": "address",
                    "name": "owner",
                    "type": "address"
                },
                {
                    "internalType": "address",
                    "name": "operator",
                    "type": "address"
                }
            ],
            "name": "isApprovedForAll",
            "outputs": [
                {
                    "internalType": "bool",
                    "name": "",
                    "type": "bool"
                }
            ],
            "stateMutability": "view",
            "type": "function",
            "constant": true
        },
        {
            "inputs": [],
            "name": "name",
            "outputs": [
                {
                    "internalType": "string",
                    "name": "",
                    "type": "string"
                }
            ],
            "stateMutability": "view",
            "type": "function",
            "constant": true
        },
        {
            "inputs": [],
            "name": "owner",
            "outputs": [
                {
                    "internalType": "address",
                    "name": "",
                    "type": "address"
                }
            ],
            "stateMutability": "view",
            "type": "function",
            "constant": true
        },
        {
            "inputs": [
                {
                    "internalType": "uint256",
                    "name": "tokenId",
                    "type": "uint256"
                }
            ],
            "name": "ownerOf",
            "outputs": [
                {
                    "internalType": "address",
                    "name": "",
                    "type": "address"
                }
            ],
            "stateMutability": "view",
            "type": "function",
            "constant": true
        },
        {
            "inputs": [],
            "name": "renounceOwnership",
            "outputs": [],
            "stateMutability": "nonpayable",
            "type": "function"
        },
        {
            "inputs": [
                {
                    "internalType": "address",
                    "name": "from",
                    "type": "address"
                },
                {
                    "internalType": "address",
                    "name": "to",
                    "type": "address"
                },
                {
                    "internalType": "uint256",
                    "name": "tokenId",
                    "type": "uint256"
                }
            ],
            "name": "safeTransferFrom",
            "outputs": [],
            "stateMutability": "nonpayable",
            "type": "function"
        },
        {
            "inputs": [
                {
                    "internalType": "address",
                    "name": "from",
                    "type": "address"
                },
                {
                    "internalType": "address",
                    "name": "to",
                    "type": "address"
                },
                {
                    "internalType": "uint256",
                    "name": "tokenId",
                    "type": "uint256"
                },
                {
                    "internalType": "bytes",
                    "name": "data",
                    "type": "bytes"
                }
            ],
            "name": "safeTransferFrom",
            "outputs": [],
            "stateMutability": "nonpayable",
            "type": "function"
        },
        {
            "inputs": [
                {
                    "internalType": "address",
                    "name": "operator",
                    "type": "address"
                },
                {
                    "internalType": "bool",
                    "name": "approved",
                    "type": "bool"
                }
            ],
            "name": "setApprovalForAll",
            "outputs": [],
            "stateMutability": "nonpayable",
            "type": "function"
        },
        {
            "inputs": [],
            "name": "symbol",
            "outputs": [
                {
                    "internalType": "string",
                    "name": "",
                    "type": "string"
                }
            ],
            "stateMutability": "view",
            "type": "function",
            "constant": true
        },
        {
            "inputs": [
                {
                    "internalType": "uint256",
                    "name": "index",
                    "type": "uint256"
                }
            ],
            "name": "tokenByIndex",
            "outputs": [
                {
                    "internalType": "uint256",
                    "name": "",
                    "type": "uint256"
                }
            ],
            "stateMutability": "view",
            "type": "function",
            "constant": true
        },
        {
            "inputs": [
                {
                    "internalType": "address",
                    "name": "owner",
                    "type": "address"
                },
                {
                    "internalType": "uint256",
                    "name": "index",
                    "type": "uint256"
                }
            ],
            "name": "tokenOfOwnerByIndex",
            "outputs": [
                {
                    "internalType": "uint256",
                    "name": "",
                    "type": "uint256"
                }
            ],
            "stateMutability": "view",
            "type": "function",
            "constant": true
        },
        {
            "inputs": [],
            "name": "totalSupply",
            "outputs": [
                {
                    "internalType": "uint256",
                    "name": "",
                    "type": "uint256"
                }
            ],
            "stateMutability": "view",
            "type": "function",
            "constant": true
        },
        {
            "inputs": [
                {
                    "internalType": "address",
                    "name": "from",
                    "type": "address"
                },
                {
                    "internalType": "address",
                    "name": "to",
                    "type": "address"
                },
                {
                    "internalType": "uint256",
                    "name": "tokenId",
                    "type": "uint256"
                }
            ],
            "name": "transferFrom",
            "outputs": [],
            "stateMutability": "nonpayable",
            "type": "function"
        },
        {
            "inputs": [
                {
                    "internalType": "address",
                    "name": "newOwner",
                    "type": "address"
                }
            ],
            "name": "transferOwnership",
            "outputs": [],
            "stateMutability": "nonpayable",
            "type": "function"
        },
        {
            "inputs": [
                {
                    "internalType": "address",
                    "name": "crHolder",
                    "type": "address"
                },
                {
                    "internalType": "uint8",
                    "name": "artistId",
                    "type": "uint8"
                }
            ],
            "name": "newArt",
            "outputs": [
                {
                    "internalType": "uint256",
                    "name": "",
                    "type": "uint256"
                }
            ],
            "stateMutability": "nonpayable",
            "type": "function"
        },
        {
            "inputs": [
                {
                    "internalType": "uint8",
                    "name": "artistId",
                    "type": "uint8"
                },
                {
                    "internalType": "uint256",
                    "name": "artOrdinal",
                    "type": "uint256"
                }
            ],
            "name": "artByArtist",
            "outputs": [
                {
                    "internalType": "uint256",
                    "name": "",
                    "type": "uint256"
                }
            ],
            "stateMutability": "view",
            "type": "function",
            "constant": true
        },
        {
            "inputs": [
                {
                    "internalType": "uint256",
                    "name": "tokenId",
                    "type": "uint256"
                }
            ],
            "name": "setCreationStarted",
            "outputs": [],
            "stateMutability": "nonpayable",
            "type": "function"
        },
        {
            "inputs": [
                {
                    "internalType": "uint256",
                    "name": "tokenId",
                    "type": "uint256"
                },
                {
                    "internalType": "bytes",
                    "name": "cid",
                    "type": "bytes"
                }
            ],
            "name": "setCreated",
            "outputs": [],
            "stateMutability": "nonpayable",
            "type": "function"
        },
        {
            "inputs": [
                {
                    "internalType": "uint256",
                    "name": "tokenId",
                    "type": "uint256"
                }
            ],
            "name": "tokenURI",
            "outputs": [
                {
                    "internalType": "string",
                    "name": "",
                    "type": "string"
                }
            ],
            "stateMutability": "view",
            "type": "function",
            "constant": true
        },
        {
            "inputs": [
                {
                    "internalType": "bytes4",
                    "name": "interfaceId",
                    "type": "bytes4"
                }
            ],
            "name": "supportsInterface",
            "outputs": [
                {
                    "internalType": "bool",
                    "name": "",
                    "type": "bool"
                }
            ],
            "stateMutability": "view",
            "type": "function",
            "constant": true
        }
    ],
    "bytecode": "0x60806040523480156200001157600080fd5b506040518060400160405280600981526020016815185c9d1a48105c9d60ba1b81525060405180604001604052806005815260200164544152544960d81b815250816000908162000063919062000190565b50600162000072828262000190565b5050506200008f620000896200009560201b60201c565b62000099565b6200025c565b3390565b600b80546001600160a01b038381166001600160a01b0319831681179093556040519116919082907f8be0079c531659141344cd1fd0a4f28419497f9722a3daafe3b4186f6b6457e090600090a35050565b634e487b7160e01b600052604160045260246000fd5b600181811c908216806200011657607f821691505b6020821081036200013757634e487b7160e01b600052602260045260246000fd5b50919050565b601f8211156200018b57600081815260208120601f850160051c81016020861015620001665750805b601f850160051c820191505b81811015620001875782815560010162000172565b5050505b505050565b81516001600160401b03811115620001ac57620001ac620000eb565b620001c481620001bd845462000101565b846200013d565b602080601f831160018114620001fc5760008415620001e35750858301515b600019600386901b1c1916600185901b17855562000187565b600085815260208120601f198616915b828110156200022d578886015182559484019460019091019084016200020c565b50858210156200024c5787850151600019600388901b60f8161c191681555b5050505050600190811b01905550565b612254806200026c6000396000f3fe608060405234801561001057600080fd5b50600436106101a35760003560e01c806370a08231116100ee578063b88d4fde11610097578063e45382ed11610071578063e45382ed14610371578063e985e9c5146103a1578063f2fde38b146103dd578063fdf38c89146103f057600080fd5b8063b88d4fde14610338578063c87b56dd1461034b578063d4e22cf21461035e57600080fd5b806395d89b41116100c857806395d89b411461030a5780639e31203114610312578063a22cb4651461032557600080fd5b806370a08231146102de578063715018a6146102f15780638da5cb5b146102f957600080fd5b80632d0de8211161015057806342842e0e1161012a57806342842e0e146102a55780634f6ccce7146102b85780636352211e146102cb57600080fd5b80632d0de8211461024a5780632f745c591461025d57806341287fea1461027057600080fd5b8063095ea7b311610181578063095ea7b31461021057806318160ddd1461022557806323b872dd1461023757600080fd5b806301ffc9a7146101a857806306fdde03146101d0578063081812fc146101e5575b600080fd5b6101bb6101b6366004611a85565b610410565b60405190151581526020015b60405180910390f35b6101d8610421565b6040516101c79190611af2565b6101f86101f3366004611b05565b6104b3565b6040516001600160a01b0390911681526020016101c7565b61022361021e366004611b3a565b6104da565b005b6009545b6040519081526020016101c7565b610223610245366004611b64565b6105f4565b610223610258366004611b05565b610625565b61022961026b366004611b3a565b610701565b61029361027e366004611b05565b600f6020526000908152604090205460ff1681565b60405160ff90911681526020016101c7565b6102236102b3366004611b64565b610797565b6102296102c6366004611b05565b6107b2565b6101f86102d9366004611b05565b610845565b6102296102ec366004611ba0565b6108a5565b61022361092b565b600b546001600160a01b03166101f8565b6101d861093f565b610229610320366004611bcc565b61094e565b610223610333366004611bff565b610a0c565b610223610346366004611c51565b610a17565b6101d8610359366004611b05565b610a4f565b61022361036c366004611d2d565b610a5a565b61022961037f366004611da9565b60ff919091166000908152600e60209081526040808320938352929052205490565b6101bb6103af366004611dc5565b6001600160a01b03918216600090815260056020908152604080832093909416825291909152205460ff1690565b6102236103eb366004611ba0565b610b64565b6102296103fe366004611def565b600d6020526000908152604090205481565b600061041b82610bdd565b92915050565b60606000805461043090611e0a565b80601f016020809104026020016040519081016040528092919081815260200182805461045c90611e0a565b80156104a95780601f1061047e576101008083540402835291602001916104a9565b820191906000526020600020905b81548152906001019060200180831161048c57829003601f168201915b5050505050905090565b60006104be82610c02565b506000908152600460205260409020546001600160a01b031690565b60006104e582610845565b9050806001600160a01b0316836001600160a01b0316036105575760405162461bcd60e51b815260206004820152602160248201527f4552433732313a20617070726f76616c20746f2063757272656e74206f776e656044820152603960f91b60648201526084015b60405180910390fd5b336001600160a01b0382161480610573575061057381336103af565b6105e55760405162461bcd60e51b815260206004820152603d60248201527f4552433732313a20617070726f76652063616c6c6572206973206e6f7420746f60448201527f6b656e206f776e6572206f7220617070726f76656420666f7220616c6c000000606482015260840161054e565b6105ef8383610c61565b505050565b6105fe3382610ccf565b61061a5760405162461bcd60e51b815260040161054e90611e44565b6105ef838383610d4e565b61062d610ebf565b600061063882610a4f565b8051906020012090506040518060600160405280603581526020016121876035913960405160200161066a9190611e91565b6040516020818303038152906040528051906020012081146106bc5760405162461bcd60e51b815260206004820152600b60248201526a74617274696e6f746e657760a81b604482015260640161054e565b6106fd826040518060600160405280602e81526020016121bc602e91396040516020016106e99190611e91565b604051602081830303815290604052610f19565b5050565b600061070c836108a5565b821061076e5760405162461bcd60e51b815260206004820152602b60248201527f455243373231456e756d657261626c653a206f776e657220696e646578206f7560448201526a74206f6620626f756e647360a81b606482015260840161054e565b506001600160a01b03919091166000908152600760209081526040808320938352929052205490565b6105ef83838360405180602001604052806000815250610a17565b60006107bd60095490565b82106108205760405162461bcd60e51b815260206004820152602c60248201527f455243373231456e756d657261626c653a20676c6f62616c20696e646578206f60448201526b7574206f6620626f756e647360a01b606482015260840161054e565b6009828154811061083357610833611ead565b90600052602060002001549050919050565b6000818152600260205260408120546001600160a01b03168061041b5760405162461bcd60e51b8152602060048201526018602482015277115490cdcc8c4e881a5b9d985b1a59081d1bdad95b88125160421b604482015260640161054e565b60006001600160a01b03821661090f5760405162461bcd60e51b815260206004820152602960248201527f4552433732313a2061646472657373207a65726f206973206e6f7420612076616044820152683634b21037bbb732b960b91b606482015260840161054e565b506001600160a01b031660009081526003602052604090205490565b610933610ebf565b61093d6000610fe4565b565b60606001805461043090611e0a565b6000610958610ebf565b610966600c80546001019055565b6000610971600c5490565b60ff84166000818152600e60209081526040808320600d80845282852080548652918452918420869055938352905281549293506109ae83611ed9565b90915550506000818152600f60205260409020805460ff191660ff85161790556109d88482611036565b610a05816040518060600160405280602e8152602001612159602e91396040516020016106e99190611e91565b9392505050565b6106fd338383611050565b610a213383610ccf565b610a3d5760405162461bcd60e51b815260040161054e90611e44565b610a498484848461111e565b50505050565b606061041b82611151565b610a62610ebf565b6000610a6d84610a4f565b8051906020012090506040518060600160405280603581526020016121ea60359139604051602001610a9f9190611e91565b604051602081830303815290604052805190602001208114610af55760405162461bcd60e51b815260206004820152600f60248201526e1d185c9d1a5b9bdd1cdd185c9d1959608a1b604482015260640161054e565b60008383604051602001610b0a929190611ef2565b6040516020818303038152906040529050610b258582610f19565b847fa109ba539900bf1b633f956d63c96fc89b814c7287f7aa50a9216d0b5565720782604051610b559190611af2565b60405180910390a25050505050565b610b6c610ebf565b6001600160a01b038116610bd15760405162461bcd60e51b815260206004820152602660248201527f4f776e61626c653a206e6577206f776e657220697320746865207a65726f206160448201526564647265737360d01b606482015260840161054e565b610bda81610fe4565b50565b60006001600160e01b0319821663780e9d6360e01b148061041b575061041b82611268565b6000818152600260205260409020546001600160a01b0316610bda5760405162461bcd60e51b8152602060048201526018602482015277115490cdcc8c4e881a5b9d985b1a59081d1bdad95b88125160421b604482015260640161054e565b600081815260046020526040902080546001600160a01b0319166001600160a01b0384169081179091558190610c9682610845565b6001600160a01b03167f8c5be1e5ebec7d5bd14f71427d1e84f3dd0314c0f7b2291e5b200ac8c7c3b92560405160405180910390a45050565b600080610cdb83610845565b9050806001600160a01b0316846001600160a01b03161480610d2257506001600160a01b0380821660009081526005602090815260408083209388168352929052205460ff165b80610d465750836001600160a01b0316610d3b846104b3565b6001600160a01b0316145b949350505050565b826001600160a01b0316610d6182610845565b6001600160a01b031614610d875760405162461bcd60e51b815260040161054e90611f02565b6001600160a01b038216610de95760405162461bcd60e51b8152602060048201526024808201527f4552433732313a207472616e7366657220746f20746865207a65726f206164646044820152637265737360e01b606482015260840161054e565b610df6838383600161128d565b826001600160a01b0316610e0982610845565b6001600160a01b031614610e2f5760405162461bcd60e51b815260040161054e90611f02565b600081815260046020908152604080832080546001600160a01b03199081169091556001600160a01b0387811680865260038552838620805460001901905590871680865283862080546001019055868652600290945282852080549092168417909155905184937fddf252ad1be2c89b69c2b068fc378daa952ba7f163c4a11628f55a4df523b3ef91a4505050565b600b546001600160a01b0316331461093d5760405162461bcd60e51b815260206004820181905260248201527f4f776e61626c653a2063616c6c6572206973206e6f7420746865206f776e6572604482015260640161054e565b6000828152600260205260409020546001600160a01b0316610f945760405162461bcd60e51b815260206004820152602e60248201527f45524337323155524953746f726167653a2055524920736574206f66206e6f6e60448201526d32bc34b9ba32b73a103a37b5b2b760911b606482015260840161054e565b6000828152600660205260409020610fac8282611f95565b506040518281527ff8e1a15aba9398e019f0b49df1a4fde98ee17ae345cb5f6b5e2c27f5033e8ce79060200160405180910390a15050565b600b80546001600160a01b038381166001600160a01b0319831681179093556040519116919082907f8be0079c531659141344cd1fd0a4f28419497f9722a3daafe3b4186f6b6457e090600090a35050565b6106fd828260405180602001604052806000815250611299565b816001600160a01b0316836001600160a01b0316036110b15760405162461bcd60e51b815260206004820152601960248201527f4552433732313a20617070726f766520746f2063616c6c657200000000000000604482015260640161054e565b6001600160a01b03838116600081815260056020908152604080832094871680845294825291829020805460ff191686151590811790915591519182527f17307eab39ab6107e8899845ad3d59bd9653f200f220920489ca2b5937696c31910160405180910390a3505050565b611129848484610d4e565b611135848484846112cc565b610a495760405162461bcd60e51b815260040161054e90612055565b606061115c82610c02565b6000828152600660205260408120805461117590611e0a565b80601f01602080910402602001604051908101604052809291908181526020018280546111a190611e0a565b80156111ee5780601f106111c3576101008083540402835291602001916111ee565b820191906000526020600020905b8154815290600101906020018083116111d157829003601f168201915b50505050509050600061121b604080518082019091526007815266697066733a2f2f60c81b602082015290565b9050805160000361122d575092915050565b81511561125f5780826040516020016112479291906120a7565b60405160208183030381529060405292505050919050565b610d46846113cd565b60006001600160e01b03198216632483248360e11b148061041b575061041b8261144f565b610a498484848461149f565b6112a383836115db565b6112b060008484846112cc565b6105ef5760405162461bcd60e51b815260040161054e90612055565b60006001600160a01b0384163b156113c257604051630a85bd0160e11b81526001600160a01b0385169063150b7a02906113109033908990889088906004016120d6565b6020604051808303816000875af192505050801561134b575060408051601f3d908101601f1916820190925261134891810190612112565b60015b6113a8573d808015611379576040519150601f19603f3d011682016040523d82523d6000602084013e61137e565b606091505b5080516000036113a05760405162461bcd60e51b815260040161054e90612055565b805181602001fd5b6001600160e01b031916630a85bd0160e11b149050610d46565b506001949350505050565b60606113d882610c02565b60006113fe604080518082019091526007815266697066733a2f2f60c81b602082015290565b9050600081511161141e5760405180602001604052806000815250610a05565b8061142884611774565b6040516020016114399291906120a7565b6040516020818303038152906040529392505050565b60006001600160e01b031982166380ac58cd60e01b148061148057506001600160e01b03198216635b5e139f60e01b145b8061041b57506301ffc9a760e01b6001600160e01b031983161461041b565b60018111156115165760405162461bcd60e51b815260206004820152603560248201527f455243373231456e756d657261626c653a20636f6e736563757469766520747260448201527f616e7366657273206e6f7420737570706f727465640000000000000000000000606482015260840161054e565b816001600160a01b0385166115725761156d81600980546000838152600a60205260408120829055600182018355919091527f6e1540171b6c0c960b71a7020d9f60077f6af931a8bbf590da0223dacf75c7af0155565b611595565b836001600160a01b0316856001600160a01b031614611595576115958582611807565b6001600160a01b0384166115b1576115ac816118a4565b6115d4565b846001600160a01b0316846001600160a01b0316146115d4576115d48482611953565b5050505050565b6001600160a01b0382166116315760405162461bcd60e51b815260206004820181905260248201527f4552433732313a206d696e7420746f20746865207a65726f2061646472657373604482015260640161054e565b6000818152600260205260409020546001600160a01b0316156116965760405162461bcd60e51b815260206004820152601c60248201527f4552433732313a20746f6b656e20616c7265616479206d696e74656400000000604482015260640161054e565b6116a460008383600161128d565b6000818152600260205260409020546001600160a01b0316156117095760405162461bcd60e51b815260206004820152601c60248201527f4552433732313a20746f6b656e20616c7265616479206d696e74656400000000604482015260640161054e565b6001600160a01b038216600081815260036020908152604080832080546001019055848352600290915280822080546001600160a01b0319168417905551839291907fddf252ad1be2c89b69c2b068fc378daa952ba7f163c4a11628f55a4df523b3ef908290a45050565b6060600061178183611997565b600101905060008167ffffffffffffffff8111156117a1576117a1611c3b565b6040519080825280601f01601f1916602001820160405280156117cb576020820181803683370190505b5090508181016020015b600019016f181899199a1a9b1b9c1cb0b131b232b360811b600a86061a8153600a85049450846117d557509392505050565b60006001611814846108a5565b61181e919061212f565b600083815260086020526040902054909150808214611871576001600160a01b03841660009081526007602090815260408083208584528252808320548484528184208190558352600890915290208190555b5060009182526008602090815260408084208490556001600160a01b039094168352600781528383209183525290812055565b6009546000906118b69060019061212f565b6000838152600a6020526040812054600980549394509092849081106118de576118de611ead565b9060005260206000200154905080600983815481106118ff576118ff611ead565b6000918252602080832090910192909255828152600a9091526040808220849055858252812055600980548061193757611937612142565b6001900381819060005260206000200160009055905550505050565b600061195e836108a5565b6001600160a01b039093166000908152600760209081526040808320868452825280832085905593825260089052919091209190915550565b60008072184f03e93ff9f4daa797ed6e38ed64bf6a1f0160401b83106119d65772184f03e93ff9f4daa797ed6e38ed64bf6a1f0160401b830492506040015b6d04ee2d6d415b85acef81000000008310611a02576d04ee2d6d415b85acef8100000000830492506020015b662386f26fc100008310611a2057662386f26fc10000830492506010015b6305f5e1008310611a38576305f5e100830492506008015b6127108310611a4c57612710830492506004015b60648310611a5e576064830492506002015b600a831061041b5760010192915050565b6001600160e01b031981168114610bda57600080fd5b600060208284031215611a9757600080fd5b8135610a0581611a6f565b60005b83811015611abd578181015183820152602001611aa5565b50506000910152565b60008151808452611ade816020860160208601611aa2565b601f01601f19169290920160200192915050565b602081526000610a056020830184611ac6565b600060208284031215611b1757600080fd5b5035919050565b80356001600160a01b0381168114611b3557600080fd5b919050565b60008060408385031215611b4d57600080fd5b611b5683611b1e565b946020939093013593505050565b600080600060608486031215611b7957600080fd5b611b8284611b1e565b9250611b9060208501611b1e565b9150604084013590509250925092565b600060208284031215611bb257600080fd5b610a0582611b1e565b803560ff81168114611b3557600080fd5b60008060408385031215611bdf57600080fd5b611be883611b1e565b9150611bf660208401611bbb565b90509250929050565b60008060408385031215611c1257600080fd5b611c1b83611b1e565b915060208301358015158114611c3057600080fd5b809150509250929050565b634e487b7160e01b600052604160045260246000fd5b60008060008060808587031215611c6757600080fd5b611c7085611b1e565b9350611c7e60208601611b1e565b925060408501359150606085013567ffffffffffffffff80821115611ca257600080fd5b818701915087601f830112611cb657600080fd5b813581811115611cc857611cc8611c3b565b604051601f8201601f19908116603f01168101908382118183101715611cf057611cf0611c3b565b816040528281528a6020848701011115611d0957600080fd5b82602086016020830137600060208483010152809550505050505092959194509250565b600080600060408486031215611d4257600080fd5b83359250602084013567ffffffffffffffff80821115611d6157600080fd5b818601915086601f830112611d7557600080fd5b813581811115611d8457600080fd5b876020828501011115611d9657600080fd5b6020830194508093505050509250925092565b60008060408385031215611dbc57600080fd5b611b5683611bbb565b60008060408385031215611dd857600080fd5b611de183611b1e565b9150611bf660208401611b1e565b600060208284031215611e0157600080fd5b610a0582611bbb565b600181811c90821680611e1e57607f821691505b602082108103611e3e57634e487b7160e01b600052602260045260246000fd5b50919050565b6020808252602d908201527f4552433732313a2063616c6c6572206973206e6f7420746f6b656e206f776e6560408201526c1c881bdc88185c1c1c9bdd9959609a1b606082015260800190565b60008251611ea3818460208701611aa2565b9190910192915050565b634e487b7160e01b600052603260045260246000fd5b634e487b7160e01b600052601160045260246000fd5b600060018201611eeb57611eeb611ec3565b5060010190565b8183823760009101908152919050565b60208082526025908201527f4552433732313a207472616e736665722066726f6d20696e636f72726563742060408201526437bbb732b960d91b606082015260800190565b601f8211156105ef57600081815260208120601f850160051c81016020861015611f6e5750805b601f850160051c820191505b81811015611f8d57828155600101611f7a565b505050505050565b815167ffffffffffffffff811115611faf57611faf611c3b565b611fc381611fbd8454611e0a565b84611f47565b602080601f831160018114611ff85760008415611fe05750858301515b600019600386901b1c1916600185901b178555611f8d565b600085815260208120601f198616915b8281101561202757888601518255948401946001909101908401612008565b50858210156120455787850151600019600388901b60f8161c191681555b5050505050600190811b01905550565b60208082526032908201527f4552433732313a207472616e7366657220746f206e6f6e20455243373231526560408201527131b2b4bb32b91034b6b83632b6b2b73a32b960711b606082015260800190565b600083516120b9818460208801611aa2565b8351908301906120cd818360208801611aa2565b01949350505050565b60006001600160a01b038087168352808616602084015250836040830152608060608301526121086080830184611ac6565b9695505050505050565b60006020828403121561212457600080fd5b8151610a0581611a6f565b8181038181111561041b5761041b611ec3565b634e487b7160e01b600052603160045260246000fdfe516d5676376e7a54415938675a4556584757627845654752486877587a634c324331584e615956426f5768765541697066733a2f2f516d5676376e7a54415938675a4556584757627845654752486877587a634c324331584e615956426f5768765541516d625047474e5559387a6679456a72317257546e454666704e6f797070577275744e5743675a597533574d3446697066733a2f2f516d625047474e5559387a6679456a72317257546e454666704e6f797070577275744e5743675a597533574d3446a26469706673582212200c5f2f86903ebbd5b6a5ab90f9c797ed462a393d9b0bd2a79a7aed092f30f4ba64736f6c63430008120033",
    "immutableReferences": {},
    "source": "// SPDX-License-Identifier: MIT\npragma solidity ^0.8.18;\n\nimport \"@openzeppelin/contracts/token/ERC721/extensions/ERC721URIStorage.sol\";\nimport \"@openzeppelin/contracts/token/ERC721/extensions/ERC721Enumerable.sol\";\nimport \"@openzeppelin/contracts/utils/Counters.sol\";\nimport \"@openzeppelin/contracts/access/Ownable.sol\";\n\ncontract Tarti is ERC721URIStorage, ERC721Enumerable, Ownable {\n    using Counters for Counters.Counter;\n\n    Counters.Counter private _currentTokenId;\n    mapping(uint8 => uint256) public artistNextArtId;\n\n    mapping(uint8 => mapping(uint256 => uint256)) private _artByArtist;\n    mapping(uint256 => uint8) public artCreators;\n\n    bytes private constant _newMetadataCid =\n        \"QmVv7nzTAY8gZEVXGWbxEeGRHhwXzcL2C1XNaYVBoWhvUA\";\n\n    bytes private constant _newMetadataUri =\n        \"ipfs://QmVv7nzTAY8gZEVXGWbxEeGRHhwXzcL2C1XNaYVBoWhvUA\";\n\n    bytes private constant _inProcessMetadataCid =\n        \"QmbPGGNUY8zfyEjr1rWTnEFfpNoyppWrutNWCgZYu3WM4F\";\n\n    bytes private constant _inProcessMetadataUri =\n        \"ipfs://QmbPGGNUY8zfyEjr1rWTnEFfpNoyppWrutNWCgZYu3WM4F\";\n\n    constructor() ERC721(\"Tarti Art\", \"TARTI\") {}\n\n    event PermanentURI(string _value, uint256 indexed _id);\n\n    function newArt(\n        address crHolder,\n        uint8 artistId\n    ) public onlyOwner returns (uint256) {\n        _currentTokenId.increment();\n        uint256 newArtId = _currentTokenId.current();\n        _artByArtist[artistId][artistNextArtId[artistId]] = newArtId;\n        artistNextArtId[artistId]++;\n        artCreators[newArtId] = artistId;\n        _safeMint(crHolder, newArtId);\n        _setTokenURI(newArtId, string(abi.encodePacked(_newMetadataCid)));\n\n        return newArtId;\n    }\n\n    //this can be used to iterate through the art of a specific artist\n    function artByArtist(\n        uint8 artistId,\n        uint256 artOrdinal\n    ) public view returns (uint256) {\n        return _artByArtist[artistId][artOrdinal];\n    }\n\n    function setCreationStarted(uint256 tokenId) public onlyOwner {\n        //Don't allow the URI to ever change once it is set!\n        //Can't compare strings, so lets compare their hashes\n        bytes32 tokenUriBytesHash = keccak256(bytes(tokenURI(tokenId)));\n        require(\n            tokenUriBytesHash == keccak256(abi.encodePacked(_newMetadataUri)),\n            \"tartinotnew\"\n        );\n\n        _setTokenURI(tokenId, string(abi.encodePacked(_inProcessMetadataCid)));\n    }\n\n    function setCreated(uint256 tokenId, bytes calldata cid) public onlyOwner {\n        //Don't allow the URI to ever change once it is set!\n        //Can't compare strings, so lets compare their hashes\n        bytes32 tokenUriBytesHash = keccak256(bytes(tokenURI(tokenId)));\n        require(\n            tokenUriBytesHash ==\n                keccak256(abi.encodePacked(_inProcessMetadataUri)),\n            \"tartinotstarted\"\n        );\n\n        //@todo would it be cheaper to calc twice instead of storing?\n        string memory newUri = string(abi.encodePacked(cid));\n        _setTokenURI(tokenId, newUri);\n        emit PermanentURI(newUri, tokenId);\n    }\n\n    function _baseURI() internal pure override returns (string memory) {\n        return \"ipfs://\";\n    }\n\n    function _burn(\n        uint256 tokenId\n    ) internal override(ERC721, ERC721URIStorage) {\n        super._burn(tokenId);\n    }\n\n    function tokenURI(\n        uint256 tokenId\n    ) public view override(ERC721, ERC721URIStorage) returns (string memory) {\n        return ERC721URIStorage.tokenURI(tokenId);\n    }\n\n    function _beforeTokenTransfer(\n        address from,\n        address to,\n        uint256 firstTokenId,\n        uint256 batchSize\n    ) internal override(ERC721, ERC721Enumerable) {\n        super._beforeTokenTransfer(from, to, firstTokenId, batchSize);\n    }\n\n    function supportsInterface(\n        bytes4 interfaceId\n    ) public view override(ERC721Enumerable, ERC721URIStorage) returns (bool) {\n        return super.supportsInterface(interfaceId);\n    }\n}\n",
    "sourcePath": "/home/evan/tartst/contracts/Tarti.sol",
    "compiler": {
        "name": "solc",
        "version": "0.8.18+commit.87f61d96.Emscripten.clang"
    },
    "schemaVersion": "3.4.14",
    "updatedAt": "2023-08-04T20:40:33.922Z",
    "networkType": "ethereum",
    "devdoc": {
        "events": {
            "Approval(address,address,uint256)": {
                "details": "Emitted when `owner` enables `approved` to manage the `tokenId` token."
            },
            "ApprovalForAll(address,address,bool)": {
                "details": "Emitted when `owner` enables or disables (`approved`) `operator` to manage all of its assets."
            },
            "BatchMetadataUpdate(uint256,uint256)": {
                "details": "This event emits when the metadata of a range of tokens is changed. So that the third-party platforms such as NFT market could timely update the images and related attributes of the NFTs."
            },
            "MetadataUpdate(uint256)": {
                "details": "This event emits when the metadata of a token is changed. So that the third-party platforms such as NFT market could timely update the images and related attributes of the NFT."
            },
            "Transfer(address,address,uint256)": {
                "details": "Emitted when `tokenId` token is transferred from `from` to `to`."
            }
        },
        "kind": "dev",
        "methods": {
            "approve(address,uint256)": {
                "details": "See {IERC721-approve}."
            },
            "balanceOf(address)": {
                "details": "See {IERC721-balanceOf}."
            },
            "getApproved(uint256)": {
                "details": "See {IERC721-getApproved}."
            },
            "isApprovedForAll(address,address)": {
                "details": "See {IERC721-isApprovedForAll}."
            },
            "name()": {
                "details": "See {IERC721Metadata-name}."
            },
            "owner()": {
                "details": "Returns the address of the current owner."
            },
            "ownerOf(uint256)": {
                "details": "See {IERC721-ownerOf}."
            },
            "renounceOwnership()": {
                "details": "Leaves the contract without owner. It will not be possible to call `onlyOwner` functions. Can only be called by the current owner. NOTE: Renouncing ownership will leave the contract without an owner, thereby disabling any functionality that is only available to the owner."
            },
            "safeTransferFrom(address,address,uint256)": {
                "details": "See {IERC721-safeTransferFrom}."
            },
            "safeTransferFrom(address,address,uint256,bytes)": {
                "details": "See {IERC721-safeTransferFrom}."
            },
            "setApprovalForAll(address,bool)": {
                "details": "See {IERC721-setApprovalForAll}."
            },
            "symbol()": {
                "details": "See {IERC721Metadata-symbol}."
            },
            "tokenByIndex(uint256)": {
                "details": "See {IERC721Enumerable-tokenByIndex}."
            },
            "tokenOfOwnerByIndex(address,uint256)": {
                "details": "See {IERC721Enumerable-tokenOfOwnerByIndex}."
            },
            "totalSupply()": {
                "details": "See {IERC721Enumerable-totalSupply}."
            },
            "transferFrom(address,address,uint256)": {
                "details": "See {IERC721-transferFrom}."
            },
            "transferOwnership(address)": {
                "details": "Transfers ownership of the contract to a new account (`newOwner`). Can only be called by the current owner."
            }
        },
        "version": 1
    },
    "userdoc": {
        "kind": "user",
        "methods": {},
        "version": 1
    }
}