{
    "contractName": "Tarti",
    "abi": [
        {
            "inputs": [],
            "stateMutability": "nonpayable",
            "type": "constructor"
        },
        {
            "anonymous": false,
            "inputs": [
                {
                    "indexed": true,
                    "internalType": "address",
                    "name": "owner",
                    "type": "address"
                },
                {
                    "indexed": true,
                    "internalType": "address",
                    "name": "approved",
                    "type": "address"
                },
                {
                    "indexed": true,
                    "internalType": "uint256",
                    "name": "tokenId",
                    "type": "uint256"
                }
            ],
            "name": "Approval",
            "type": "event"
        },
        {
            "anonymous": false,
            "inputs": [
                {
                    "indexed": true,
                    "internalType": "address",
                    "name": "owner",
                    "type": "address"
                },
                {
                    "indexed": true,
                    "internalType": "address",
                    "name": "operator",
                    "type": "address"
                },
                {
                    "indexed": false,
                    "internalType": "bool",
                    "name": "approved",
                    "type": "bool"
                }
            ],
            "name": "ApprovalForAll",
            "type": "event"
        },
        {
            "anonymous": false,
            "inputs": [
                {
                    "indexed": false,
                    "internalType": "uint256",
                    "name": "_fromTokenId",
                    "type": "uint256"
                },
                {
                    "indexed": false,
                    "internalType": "uint256",
                    "name": "_toTokenId",
                    "type": "uint256"
                }
            ],
            "name": "BatchMetadataUpdate",
            "type": "event"
        },
        {
            "anonymous": false,
            "inputs": [
                {
                    "indexed": false,
                    "internalType": "uint256",
                    "name": "_tokenId",
                    "type": "uint256"
                }
            ],
            "name": "MetadataUpdate",
            "type": "event"
        },
        {
            "anonymous": false,
            "inputs": [
                {
                    "indexed": true,
                    "internalType": "address",
                    "name": "previousOwner",
                    "type": "address"
                },
                {
                    "indexed": true,
                    "internalType": "address",
                    "name": "newOwner",
                    "type": "address"
                }
            ],
            "name": "OwnershipTransferred",
            "type": "event"
        },
        {
            "anonymous": false,
            "inputs": [
                {
                    "indexed": true,
                    "internalType": "address",
                    "name": "from",
                    "type": "address"
                },
                {
                    "indexed": true,
                    "internalType": "address",
                    "name": "to",
                    "type": "address"
                },
                {
                    "indexed": true,
                    "internalType": "uint256",
                    "name": "tokenId",
                    "type": "uint256"
                }
            ],
            "name": "Transfer",
            "type": "event"
        },
        {
            "inputs": [
                {
                    "internalType": "address",
                    "name": "to",
                    "type": "address"
                },
                {
                    "internalType": "uint256",
                    "name": "tokenId",
                    "type": "uint256"
                }
            ],
            "name": "approve",
            "outputs": [],
            "stateMutability": "nonpayable",
            "type": "function"
        },
        {
            "inputs": [
                {
                    "internalType": "uint256",
                    "name": "",
                    "type": "uint256"
                }
            ],
            "name": "artCreators",
            "outputs": [
                {
                    "internalType": "uint8",
                    "name": "",
                    "type": "uint8"
                }
            ],
            "stateMutability": "view",
            "type": "function",
            "constant": true
        },
        {
            "inputs": [
                {
                    "internalType": "address",
                    "name": "owner",
                    "type": "address"
                }
            ],
            "name": "balanceOf",
            "outputs": [
                {
                    "internalType": "uint256",
                    "name": "",
                    "type": "uint256"
                }
            ],
            "stateMutability": "view",
            "type": "function",
            "constant": true
        },
        {
            "inputs": [
                {
                    "internalType": "uint256",
                    "name": "tokenId",
                    "type": "uint256"
                }
            ],
            "name": "getApproved",
            "outputs": [
                {
                    "internalType": "address",
                    "name": "",
                    "type": "address"
                }
            ],
            "stateMutability": "view",
            "type": "function",
            "constant": true
        },
        {
            "inputs": [
                {
                    "internalType": "address",
                    "name": "owner",
                    "type": "address"
                },
                {
                    "internalType": "address",
                    "name": "operator",
                    "type": "address"
                }
            ],
            "name": "isApprovedForAll",
            "outputs": [
                {
                    "internalType": "bool",
                    "name": "",
                    "type": "bool"
                }
            ],
            "stateMutability": "view",
            "type": "function",
            "constant": true
        },
        {
            "inputs": [],
            "name": "name",
            "outputs": [
                {
                    "internalType": "string",
                    "name": "",
                    "type": "string"
                }
            ],
            "stateMutability": "view",
            "type": "function",
            "constant": true
        },
        {
            "inputs": [],
            "name": "owner",
            "outputs": [
                {
                    "internalType": "address",
                    "name": "",
                    "type": "address"
                }
            ],
            "stateMutability": "view",
            "type": "function",
            "constant": true
        },
        {
            "inputs": [
                {
                    "internalType": "uint256",
                    "name": "tokenId",
                    "type": "uint256"
                }
            ],
            "name": "ownerOf",
            "outputs": [
                {
                    "internalType": "address",
                    "name": "",
                    "type": "address"
                }
            ],
            "stateMutability": "view",
            "type": "function",
            "constant": true
        },
        {
            "inputs": [],
            "name": "renounceOwnership",
            "outputs": [],
            "stateMutability": "nonpayable",
            "type": "function"
        },
        {
            "inputs": [
                {
                    "internalType": "address",
                    "name": "from",
                    "type": "address"
                },
                {
                    "internalType": "address",
                    "name": "to",
                    "type": "address"
                },
                {
                    "internalType": "uint256",
                    "name": "tokenId",
                    "type": "uint256"
                }
            ],
            "name": "safeTransferFrom",
            "outputs": [],
            "stateMutability": "nonpayable",
            "type": "function"
        },
        {
            "inputs": [
                {
                    "internalType": "address",
                    "name": "from",
                    "type": "address"
                },
                {
                    "internalType": "address",
                    "name": "to",
                    "type": "address"
                },
                {
                    "internalType": "uint256",
                    "name": "tokenId",
                    "type": "uint256"
                },
                {
                    "internalType": "bytes",
                    "name": "data",
                    "type": "bytes"
                }
            ],
            "name": "safeTransferFrom",
            "outputs": [],
            "stateMutability": "nonpayable",
            "type": "function"
        },
        {
            "inputs": [
                {
                    "internalType": "address",
                    "name": "operator",
                    "type": "address"
                },
                {
                    "internalType": "bool",
                    "name": "approved",
                    "type": "bool"
                }
            ],
            "name": "setApprovalForAll",
            "outputs": [],
            "stateMutability": "nonpayable",
            "type": "function"
        },
        {
            "inputs": [],
            "name": "symbol",
            "outputs": [
                {
                    "internalType": "string",
                    "name": "",
                    "type": "string"
                }
            ],
            "stateMutability": "view",
            "type": "function",
            "constant": true
        },
        {
            "inputs": [
                {
                    "internalType": "uint256",
                    "name": "index",
                    "type": "uint256"
                }
            ],
            "name": "tokenByIndex",
            "outputs": [
                {
                    "internalType": "uint256",
                    "name": "",
                    "type": "uint256"
                }
            ],
            "stateMutability": "view",
            "type": "function",
            "constant": true
        },
        {
            "inputs": [
                {
                    "internalType": "address",
                    "name": "owner",
                    "type": "address"
                },
                {
                    "internalType": "uint256",
                    "name": "index",
                    "type": "uint256"
                }
            ],
            "name": "tokenOfOwnerByIndex",
            "outputs": [
                {
                    "internalType": "uint256",
                    "name": "",
                    "type": "uint256"
                }
            ],
            "stateMutability": "view",
            "type": "function",
            "constant": true
        },
        {
            "inputs": [],
            "name": "totalSupply",
            "outputs": [
                {
                    "internalType": "uint256",
                    "name": "",
                    "type": "uint256"
                }
            ],
            "stateMutability": "view",
            "type": "function",
            "constant": true
        },
        {
            "inputs": [
                {
                    "internalType": "address",
                    "name": "from",
                    "type": "address"
                },
                {
                    "internalType": "address",
                    "name": "to",
                    "type": "address"
                },
                {
                    "internalType": "uint256",
                    "name": "tokenId",
                    "type": "uint256"
                }
            ],
            "name": "transferFrom",
            "outputs": [],
            "stateMutability": "nonpayable",
            "type": "function"
        },
        {
            "inputs": [
                {
                    "internalType": "address",
                    "name": "newOwner",
                    "type": "address"
                }
            ],
            "name": "transferOwnership",
            "outputs": [],
            "stateMutability": "nonpayable",
            "type": "function"
        },
        {
            "inputs": [
                {
                    "internalType": "address",
                    "name": "crHolder",
                    "type": "address"
                },
                {
                    "internalType": "uint8",
                    "name": "artistId",
                    "type": "uint8"
                }
            ],
            "name": "newArt",
            "outputs": [
                {
                    "internalType": "uint256",
                    "name": "",
                    "type": "uint256"
                }
            ],
            "stateMutability": "nonpayable",
            "type": "function"
        },
        {
            "inputs": [
                {
                    "internalType": "uint8",
                    "name": "artistId",
                    "type": "uint8"
                },
                {
                    "internalType": "uint256",
                    "name": "artOrdinal",
                    "type": "uint256"
                }
            ],
            "name": "artByArtist",
            "outputs": [
                {
                    "internalType": "uint256",
                    "name": "",
                    "type": "uint256"
                }
            ],
            "stateMutability": "view",
            "type": "function",
            "constant": true
        },
        {
            "inputs": [
                {
                    "internalType": "uint256",
                    "name": "tokenId",
                    "type": "uint256"
                }
            ],
            "name": "setCreationStarted",
            "outputs": [],
            "stateMutability": "nonpayable",
            "type": "function"
        },
        {
            "inputs": [
                {
                    "internalType": "uint256",
                    "name": "tokenId",
                    "type": "uint256"
                },
                {
                    "internalType": "bytes",
                    "name": "cid",
                    "type": "bytes"
                }
            ],
            "name": "setCreated",
            "outputs": [],
            "stateMutability": "nonpayable",
            "type": "function"
        },
        {
            "inputs": [
                {
                    "internalType": "uint256",
                    "name": "tokenId",
                    "type": "uint256"
                }
            ],
            "name": "tokenURI",
            "outputs": [
                {
                    "internalType": "string",
                    "name": "",
                    "type": "string"
                }
            ],
            "stateMutability": "view",
            "type": "function",
            "constant": true
        },
        {
            "inputs": [
                {
                    "internalType": "bytes4",
                    "name": "interfaceId",
                    "type": "bytes4"
                }
            ],
            "name": "supportsInterface",
            "outputs": [
                {
                    "internalType": "bool",
                    "name": "",
                    "type": "bool"
                }
            ],
            "stateMutability": "view",
            "type": "function",
            "constant": true
        }
    ],
    "bytecode": "0x60806040523480156200001157600080fd5b506040518060400160405280600981526020016815185c9d1a48105c9d60ba1b81525060405180604001604052806005815260200164544152544960d81b815250816000908162000063919062000190565b50600162000072828262000190565b5050506200008f620000896200009560201b60201c565b62000099565b6200025c565b3390565b600b80546001600160a01b038381166001600160a01b0319831681179093556040519116919082907f8be0079c531659141344cd1fd0a4f28419497f9722a3daafe3b4186f6b6457e090600090a35050565b634e487b7160e01b600052604160045260246000fd5b600181811c908216806200011657607f821691505b6020821081036200013757634e487b7160e01b600052602260045260246000fd5b50919050565b601f8211156200018b57600081815260208120601f850160051c81016020861015620001665750805b601f850160051c820191505b81811015620001875782815560010162000172565b5050505b505050565b81516001600160401b03811115620001ac57620001ac620000eb565b620001c481620001bd845462000101565b846200013d565b602080601f831160018114620001fc5760008415620001e35750858301515b600019600386901b1c1916600185901b17855562000187565b600085815260208120601f198616915b828110156200022d578886015182559484019460019091019084016200020c565b50858210156200024c5787850151600019600388901b60f8161c191681555b5050505050600190811b01905550565b611f0c806200026c6000396000f3fe608060405234801561001057600080fd5b50600436106101285760003560e01c806301ffc9a71461012d57806306fdde0314610155578063081812fc1461016a578063095ea7b31461019557806318160ddd146101aa57806323b872dd146101bc5780632d0de821146101cf5780632f745c59146101e257806341287fea146101f557806342842e0e1461022a5780634f6ccce71461023d5780636352211e1461025057806370a0823114610263578063715018a6146102765780638da5cb5b1461027e57806395d89b41146102865780639e3120311461028e578063a22cb465146102a1578063b88d4fde146102b4578063c87b56dd146102c7578063d4e22cf2146102da578063e45382ed146102ed578063e985e9c514610300578063f2fde38b14610313575b600080fd5b61014061013b366004611798565b610326565b60405190151581526020015b60405180910390f35b61015d610337565b60405161014c9190611805565b61017d610178366004611818565b6103c9565b6040516001600160a01b03909116815260200161014c565b6101a86101a336600461184d565b6103f0565b005b6009545b60405190815260200161014c565b6101a86101ca366004611877565b61050a565b6101a86101dd366004611818565b61053b565b6101ae6101f036600461184d565b6105a3565b610218610203366004611818565b600f6020526000908152604090205460ff1681565b60405160ff909116815260200161014c565b6101a8610238366004611877565b610639565b6101ae61024b366004611818565b610654565b61017d61025e366004611818565b6106e7565b6101ae6102713660046118b3565b61071b565b6101a86107a1565b61017d6107b5565b61015d6107c4565b6101ae61029c3660046118df565b6107d3565b6101a86102af366004611912565b6108a8565b6101a86102c2366004611964565b6108b7565b61015d6102d5366004611818565b6108ef565b6101a86102e8366004611a3f565b6108fa565b6101ae6102fb366004611aba565b610919565b61014061030e366004611ad6565b610940565b6101a86103213660046118b3565b61096e565b6000610331826109e4565b92915050565b60606000805461034690611b00565b80601f016020809104026020016040519081016040528092919081815260200182805461037290611b00565b80156103bf5780601f10610394576101008083540402835291602001916103bf565b820191906000526020600020905b8154815290600101906020018083116103a257829003601f168201915b5050505050905090565b60006103d482610a09565b506000908152600460205260409020546001600160a01b031690565b60006103fb826106e7565b9050806001600160a01b0316836001600160a01b03160361046d5760405162461bcd60e51b815260206004820152602160248201527f4552433732313a20617070726f76616c20746f2063757272656e74206f776e656044820152603960f91b60648201526084015b60405180910390fd5b336001600160a01b038216148061048957506104898133610940565b6104fb5760405162461bcd60e51b815260206004820152603d60248201527f4552433732313a20617070726f76652063616c6c6572206973206e6f7420746f60448201527f6b656e206f776e6572206f7220617070726f76656420666f7220616c6c0000006064820152608401610464565b6105058383610a2e565b505050565b6105143382610a9c565b6105305760405162461bcd60e51b815260040161046490611b3a565b610505838383610afb565b610543610c5a565b6105a0816040518060400160405280601c81526020017b51686173684f664372656174696e6754617274694d6574616461746160201b81525060405160200161058c9190611b87565b604051602081830303815290604052610cb9565b50565b60006105ae8361071b565b82106106105760405162461bcd60e51b815260206004820152602b60248201527f455243373231456e756d657261626c653a206f776e657220696e646578206f7560448201526a74206f6620626f756e647360a81b6064820152608401610464565b506001600160a01b03919091166000908152600760209081526040808320938352929052205490565b610505838383604051806020016040528060008152506108b7565b600061065f60095490565b82106106c25760405162461bcd60e51b815260206004820152602c60248201527f455243373231456e756d657261626c653a20676c6f62616c20696e646578206f60448201526b7574206f6620626f756e647360a01b6064820152608401610464565b600982815481106106d5576106d5611ba3565b90600052602060002001549050919050565b6000806106f383610d75565b90506001600160a01b0381166103315760405162461bcd60e51b815260040161046490611bb9565b60006001600160a01b0382166107855760405162461bcd60e51b815260206004820152602960248201527f4552433732313a2061646472657373207a65726f206973206e6f7420612076616044820152683634b21037bbb732b960b91b6064820152608401610464565b506001600160a01b031660009081526003602052604090205490565b6107a9610c5a565b6107b36000610d90565b565b600b546001600160a01b031690565b60606001805461034690611b00565b60006107dd610c5a565b6107eb600c80546001019055565b60006107f6600c5490565b60ff84166000818152600e60209081526040808320600d808452828520805486529184529184208690559383529052815492935061083383611c01565b90915550506000818152600f60205260409020805460ff191660ff851617905561085d8482610de2565b6108a1816040518060400160405280601781526020017651686173684f664e657754617274694d6574616461746160481b81525060405160200161058c9190611b87565b9392505050565b6108b3338383610dfc565b5050565b6108c13383610a9c565b6108dd5760405162461bcd60e51b815260040161046490611b3a565b6108e984848484610ec6565b50505050565b606061033182610ef9565b610902610c5a565b61050583838360405160200161058c929190611c1a565b60ff82166000908152600e602090815260408083208484529091528120546108a190610654565b6001600160a01b03918216600090815260056020908152604080832093909416825291909152205460ff1690565b610976610c5a565b6001600160a01b0381166109db5760405162461bcd60e51b815260206004820152602660248201527f4f776e61626c653a206e6577206f776e657220697320746865207a65726f206160448201526564647265737360d01b6064820152608401610464565b6105a081610d90565b60006001600160e01b0319821663780e9d6360e01b1480610331575061033182610ff4565b610a1281611019565b6105a05760405162461bcd60e51b815260040161046490611bb9565b600081815260046020526040902080546001600160a01b0319166001600160a01b0384169081179091558190610a63826106e7565b6001600160a01b03167f8c5be1e5ebec7d5bd14f71427d1e84f3dd0314c0f7b2291e5b200ac8c7c3b92560405160405180910390a45050565b600080610aa8836106e7565b9050806001600160a01b0316846001600160a01b03161480610acf5750610acf8185610940565b80610af35750836001600160a01b0316610ae8846103c9565b6001600160a01b0316145b949350505050565b826001600160a01b0316610b0e826106e7565b6001600160a01b031614610b345760405162461bcd60e51b815260040161046490611c2a565b6001600160a01b038216610b965760405162461bcd60e51b8152602060048201526024808201527f4552433732313a207472616e7366657220746f20746865207a65726f206164646044820152637265737360e01b6064820152608401610464565b610ba38383836001611036565b826001600160a01b0316610bb6826106e7565b6001600160a01b031614610bdc5760405162461bcd60e51b815260040161046490611c2a565b600081815260046020908152604080832080546001600160a01b03199081169091556001600160a01b038781168086526003855283862080546000190190559087168086528386208054600101905586865260029094528285208054909216841790915590518493600080516020611eb783398151915291a4505050565b33610c636107b5565b6001600160a01b0316146107b35760405162461bcd60e51b815260206004820181905260248201527f4f776e61626c653a2063616c6c6572206973206e6f7420746865206f776e65726044820152606401610464565b610cc282611019565b610d255760405162461bcd60e51b815260206004820152602e60248201527f45524337323155524953746f726167653a2055524920736574206f66206e6f6e60448201526d32bc34b9ba32b73a103a37b5b2b760911b6064820152608401610464565b6000828152600660205260409020610d3d8282611cbd565b506040518281527ff8e1a15aba9398e019f0b49df1a4fde98ee17ae345cb5f6b5e2c27f5033e8ce79060200160405180910390a15050565b6000908152600260205260409020546001600160a01b031690565b600b80546001600160a01b038381166001600160a01b0319831681179093556040519116919082907f8be0079c531659141344cd1fd0a4f28419497f9722a3daafe3b4186f6b6457e090600090a35050565b6108b3828260405180602001604052806000815250611042565b816001600160a01b0316836001600160a01b031603610e595760405162461bcd60e51b815260206004820152601960248201527822a9219b99189d1030b8383937bb32903a379031b0b63632b960391b6044820152606401610464565b6001600160a01b03838116600081815260056020908152604080832094871680845294825291829020805460ff191686151590811790915591519182527f17307eab39ab6107e8899845ad3d59bd9653f200f220920489ca2b5937696c31910160405180910390a3505050565b610ed1848484610afb565b610edd84848484611075565b6108e95760405162461bcd60e51b815260040161046490611d7c565b6060610f0482610a09565b60008281526006602052604081208054610f1d90611b00565b80601f0160208091040260200160405190810160405280929190818152602001828054610f4990611b00565b8015610f965780601f10610f6b57610100808354040283529160200191610f96565b820191906000526020600020905b815481529060010190602001808311610f7957829003601f168201915b505050505090506000610fa7611176565b90508051600003610fb9575092915050565b815115610feb578082604051602001610fd3929190611dce565b60405160208183030381529060405292505050919050565b610af384611197565b60006001600160e01b03198216632483248360e11b14806103315750610331826111fd565b60008061102583610d75565b6001600160a01b0316141592915050565b6108e98484848461124d565b61104c8383611381565b6110596000848484611075565b6105055760405162461bcd60e51b815260040161046490611d7c565b60006001600160a01b0384163b1561116b57604051630a85bd0160e11b81526001600160a01b0385169063150b7a02906110b9903390899088908890600401611dfd565b6020604051808303816000875af19250505080156110f4575060408051601f3d908101601f191682019092526110f191810190611e3a565b60015b611151573d808015611122576040519150601f19603f3d011682016040523d82523d6000602084013e611127565b606091505b5080516000036111495760405162461bcd60e51b815260040161046490611d7c565b805181602001fd5b6001600160e01b031916630a85bd0160e11b149050610af3565b506001949350505050565b604080518082019091526007815266697066733a2f2f60c81b602082015290565b60606111a282610a09565b60006111ac611176565b905060008151116111cc57604051806020016040528060008152506108a1565b806111d68461148a565b6040516020016111e7929190611dce565b6040516020818303038152906040529392505050565b60006001600160e01b031982166380ac58cd60e01b148061122e57506001600160e01b03198216635b5e139f60e01b145b8061033157506301ffc9a760e01b6001600160e01b0319831614610331565b60018111156112bc5760405162461bcd60e51b815260206004820152603560248201527f455243373231456e756d657261626c653a20636f6e7365637574697665207472604482015274185b9cd9995c9cc81b9bdd081cdd5c1c1bdc9d1959605a1b6064820152608401610464565b816001600160a01b0385166113185761131381600980546000838152600a60205260408120829055600182018355919091527f6e1540171b6c0c960b71a7020d9f60077f6af931a8bbf590da0223dacf75c7af0155565b61133b565b836001600160a01b0316856001600160a01b03161461133b5761133b858261151c565b6001600160a01b03841661135757611352816115b9565b61137a565b846001600160a01b0316846001600160a01b03161461137a5761137a8482611668565b5050505050565b6001600160a01b0382166113d75760405162461bcd60e51b815260206004820181905260248201527f4552433732313a206d696e7420746f20746865207a65726f20616464726573736044820152606401610464565b6113e081611019565b156113fd5760405162461bcd60e51b815260040161046490611e57565b61140b600083836001611036565b61141481611019565b156114315760405162461bcd60e51b815260040161046490611e57565b6001600160a01b038216600081815260036020908152604080832080546001019055848352600290915280822080546001600160a01b031916841790555183929190600080516020611eb7833981519152908290a45050565b60606000611497836116ac565b60010190506000816001600160401b038111156114b6576114b661194e565b6040519080825280601f01601f1916602001820160405280156114e0576020820181803683370190505b5090508181016020015b600019016f181899199a1a9b1b9c1cb0b131b232b360811b600a86061a8153600a85049450846114ea57509392505050565b600060016115298461071b565b6115339190611e8d565b600083815260086020526040902054909150808214611586576001600160a01b03841660009081526007602090815260408083208584528252808320548484528184208190558352600890915290208190555b5060009182526008602090815260408084208490556001600160a01b039094168352600781528383209183525290812055565b6009546000906115cb90600190611e8d565b6000838152600a6020526040812054600980549394509092849081106115f3576115f3611ba3565b90600052602060002001549050806009838154811061161457611614611ba3565b6000918252602080832090910192909255828152600a9091526040808220849055858252812055600980548061164c5761164c611ea0565b6001900381819060005260206000200160009055905550505050565b60006116738361071b565b6001600160a01b039093166000908152600760209081526040808320868452825280832085905593825260089052919091209190915550565b60008072184f03e93ff9f4daa797ed6e38ed64bf6a1f0160401b83106116eb5772184f03e93ff9f4daa797ed6e38ed64bf6a1f0160401b830492506040015b6904ee2d6d415b85acef8160201b8310611715576904ee2d6d415b85acef8160201b830492506020015b662386f26fc10000831061173357662386f26fc10000830492506010015b6305f5e100831061174b576305f5e100830492506008015b612710831061175f57612710830492506004015b60648310611771576064830492506002015b600a83106103315760010192915050565b6001600160e01b0319811681146105a057600080fd5b6000602082840312156117aa57600080fd5b81356108a181611782565b60005b838110156117d05781810151838201526020016117b8565b50506000910152565b600081518084526117f18160208601602086016117b5565b601f01601f19169290920160200192915050565b6020815260006108a160208301846117d9565b60006020828403121561182a57600080fd5b5035919050565b80356001600160a01b038116811461184857600080fd5b919050565b6000806040838503121561186057600080fd5b61186983611831565b946020939093013593505050565b60008060006060848603121561188c57600080fd5b61189584611831565b92506118a360208501611831565b9150604084013590509250925092565b6000602082840312156118c557600080fd5b6108a182611831565b803560ff8116811461184857600080fd5b600080604083850312156118f257600080fd5b6118fb83611831565b9150611909602084016118ce565b90509250929050565b6000806040838503121561192557600080fd5b61192e83611831565b91506020830135801515811461194357600080fd5b809150509250929050565b634e487b7160e01b600052604160045260246000fd5b6000806000806080858703121561197a57600080fd5b61198385611831565b935061199160208601611831565b92506040850135915060608501356001600160401b03808211156119b457600080fd5b818701915087601f8301126119c857600080fd5b8135818111156119da576119da61194e565b604051601f8201601f19908116603f01168101908382118183101715611a0257611a0261194e565b816040528281528a6020848701011115611a1b57600080fd5b82602086016020830137600060208483010152809550505050505092959194509250565b600080600060408486031215611a5457600080fd5b8335925060208401356001600160401b0380821115611a7257600080fd5b818601915086601f830112611a8657600080fd5b813581811115611a9557600080fd5b876020828501011115611aa757600080fd5b6020830194508093505050509250925092565b60008060408385031215611acd57600080fd5b611869836118ce565b60008060408385031215611ae957600080fd5b611af283611831565b915061190960208401611831565b600181811c90821680611b1457607f821691505b602082108103611b3457634e487b7160e01b600052602260045260246000fd5b50919050565b6020808252602d908201527f4552433732313a2063616c6c6572206973206e6f7420746f6b656e206f776e6560408201526c1c881bdc88185c1c1c9bdd9959609a1b606082015260800190565b60008251611b998184602087016117b5565b9190910192915050565b634e487b7160e01b600052603260045260246000fd5b602080825260189082015277115490cdcc8c4e881a5b9d985b1a59081d1bdad95b88125160421b604082015260600190565b634e487b7160e01b600052601160045260246000fd5b600060018201611c1357611c13611beb565b5060010190565b8183823760009101908152919050565b60208082526025908201527f4552433732313a207472616e736665722066726f6d20696e636f72726563742060408201526437bbb732b960d91b606082015260800190565b601f82111561050557600081815260208120601f850160051c81016020861015611c965750805b601f850160051c820191505b81811015611cb557828155600101611ca2565b505050505050565b81516001600160401b03811115611cd657611cd661194e565b611cea81611ce48454611b00565b84611c6f565b602080601f831160018114611d1f5760008415611d075750858301515b600019600386901b1c1916600185901b178555611cb5565b600085815260208120601f198616915b82811015611d4e57888601518255948401946001909101908401611d2f565b5085821015611d6c5787850151600019600388901b60f8161c191681555b5050505050600190811b01905550565b60208082526032908201527f4552433732313a207472616e7366657220746f206e6f6e20455243373231526560408201527131b2b4bb32b91034b6b83632b6b2b73a32b960711b606082015260800190565b60008351611de08184602088016117b5565b835190830190611df48183602088016117b5565b01949350505050565b6001600160a01b0385811682528416602082015260408101839052608060608201819052600090611e30908301846117d9565b9695505050505050565b600060208284031215611e4c57600080fd5b81516108a181611782565b6020808252601c908201527b115490cdcc8c4e881d1bdad95b88185b1c9958591e481b5a5b9d195960221b604082015260600190565b8181038181111561033157610331611beb565b634e487b7160e01b600052603160045260246000fdfeddf252ad1be2c89b69c2b068fc378daa952ba7f163c4a11628f55a4df523b3efa26469706673582212207d257250ce4c1290c64b6925d8c3d404646be43e88224efa21906018c6c4e5c664736f6c63430008120033",
    "immutableReferences": {},
    "source": "// SPDX-License-Identifier: MIT\npragma solidity ^0.8.18;\n\nimport \"@openzeppelin/contracts/token/ERC721/extensions/ERC721URIStorage.sol\";\nimport \"@openzeppelin/contracts/token/ERC721/extensions/ERC721Enumerable.sol\";\nimport \"@openzeppelin/contracts/utils/Counters.sol\";\nimport \"@openzeppelin/contracts/access/Ownable.sol\";\nimport \"./Tarti.sol\";\n\ncontract Tarti is ERC721URIStorage, ERC721Enumerable, Ownable {\n    using Counters for Counters.Counter;\n\n    Counters.Counter private _currentTokenId;\n    mapping(uint8 => uint256) private _artistNextArtId;\n\n    mapping(uint8 => mapping(uint256 => uint256)) private _artByArtist;\n    mapping(uint256 => uint8) public artCreators;\n\n    bytes private constant _newMetadataCid = \"QhashOfNewTartiMetadata\";\n    bytes private constant _inProcessMetadataCid =\n        \"QhashOfCreatingTartiMetadata\";\n\n    constructor() ERC721(\"Tarti Art\", \"TARTI\") {}\n\n    function newArt(\n        address crHolder,\n        uint8 artistId\n    ) public onlyOwner returns (uint256) {\n        _currentTokenId.increment();\n        uint256 newArtId = _currentTokenId.current();\n        _artByArtist[artistId][_artistNextArtId[artistId]] = newArtId;\n        _artistNextArtId[artistId]++;\n        artCreators[newArtId] = artistId;\n        _safeMint(crHolder, newArtId);\n        _setTokenURI(newArtId, string(abi.encodePacked(_newMetadataCid)));\n\n        return newArtId;\n    }\n\n    //this can be used to iterate through the art of a specific artist\n    function artByArtist(\n        uint8 artistId,\n        uint256 artOrdinal\n    ) public view returns (uint256) {\n        return tokenByIndex(_artByArtist[artistId][artOrdinal]);\n    }\n\n    function setCreationStarted(uint256 tokenId) public onlyOwner {\n        _setTokenURI(tokenId, string(abi.encodePacked(_inProcessMetadataCid)));\n    }\n\n    function setCreated(uint256 tokenId, bytes calldata cid) public onlyOwner {\n        //Don't allow the URI to ever change once it is set!\n        // bytes32 tokenUriBytesHash = keccak256(bytes(tokenURI(tokenId))); //cant copare strings so lets compare hashes of strings\n        // if (\n        //     tokenUriBytesHash == keccak256(abi.encodePacked(_newMetadataCid)) ||\n        //     tokenUriBytesHash ==\n        //     keccak256(abi.encodePacked(_inProcessMetadataCid))\n        // ) {\n            _setTokenURI(tokenId, string(abi.encodePacked(cid)));\n        // }\n    }\n\n    function _baseURI() internal pure override returns (string memory) {\n        return \"ipfs://\";\n    }    \n\n    function _burn(\n        uint256 tokenId\n    ) internal override(ERC721, ERC721URIStorage) {\n        super._burn(tokenId);\n    }\n\n    function tokenURI(\n        uint256 tokenId\n    ) public view override(ERC721, ERC721URIStorage) returns (string memory) {\n        return ERC721URIStorage.tokenURI(tokenId);\n    }\n\n    function _beforeTokenTransfer(\n        address from,\n        address to,\n        uint256 firstTokenId,\n        uint256 batchSize\n    ) internal override(ERC721, ERC721Enumerable) {\n        super._beforeTokenTransfer(from, to, firstTokenId, batchSize);\n    }\n\n    function supportsInterface(\n        bytes4 interfaceId\n    ) public view override(ERC721Enumerable, ERC721URIStorage) returns (bool) {\n        return super.supportsInterface(interfaceId);\n    }\n}\n",
    "sourcePath": "/home/evan/tartst/contracts/Tarti.sol",
    "compiler": {
        "name": "solc",
        "version": "0.8.18+commit.87f61d96.Emscripten.clang"
    },
    "schemaVersion": "3.4.14",
    "updatedAt": "2023-07-15T01:47:57.480Z",
    "networkType": "ethereum",
    "devdoc": {
        "events": {
            "Approval(address,address,uint256)": {
                "details": "Emitted when `owner` enables `approved` to manage the `tokenId` token."
            },
            "ApprovalForAll(address,address,bool)": {
                "details": "Emitted when `owner` enables or disables (`approved`) `operator` to manage all of its assets."
            },
            "BatchMetadataUpdate(uint256,uint256)": {
                "details": "This event emits when the metadata of a range of tokens is changed. So that the third-party platforms such as NFT market could timely update the images and related attributes of the NFTs."
            },
            "MetadataUpdate(uint256)": {
                "details": "This event emits when the metadata of a token is changed. So that the third-party platforms such as NFT market could timely update the images and related attributes of the NFT."
            },
            "Transfer(address,address,uint256)": {
                "details": "Emitted when `tokenId` token is transferred from `from` to `to`."
            }
        },
        "kind": "dev",
        "methods": {
            "approve(address,uint256)": {
                "details": "See {IERC721-approve}."
            },
            "balanceOf(address)": {
                "details": "See {IERC721-balanceOf}."
            },
            "getApproved(uint256)": {
                "details": "See {IERC721-getApproved}."
            },
            "isApprovedForAll(address,address)": {
                "details": "See {IERC721-isApprovedForAll}."
            },
            "name()": {
                "details": "See {IERC721Metadata-name}."
            },
            "owner()": {
                "details": "Returns the address of the current owner."
            },
            "ownerOf(uint256)": {
                "details": "See {IERC721-ownerOf}."
            },
            "renounceOwnership()": {
                "details": "Leaves the contract without owner. It will not be possible to call `onlyOwner` functions. Can only be called by the current owner. NOTE: Renouncing ownership will leave the contract without an owner, thereby disabling any functionality that is only available to the owner."
            },
            "safeTransferFrom(address,address,uint256)": {
                "details": "See {IERC721-safeTransferFrom}."
            },
            "safeTransferFrom(address,address,uint256,bytes)": {
                "details": "See {IERC721-safeTransferFrom}."
            },
            "setApprovalForAll(address,bool)": {
                "details": "See {IERC721-setApprovalForAll}."
            },
            "symbol()": {
                "details": "See {IERC721Metadata-symbol}."
            },
            "tokenByIndex(uint256)": {
                "details": "See {IERC721Enumerable-tokenByIndex}."
            },
            "tokenOfOwnerByIndex(address,uint256)": {
                "details": "See {IERC721Enumerable-tokenOfOwnerByIndex}."
            },
            "totalSupply()": {
                "details": "See {IERC721Enumerable-totalSupply}."
            },
            "transferFrom(address,address,uint256)": {
                "details": "See {IERC721-transferFrom}."
            },
            "transferOwnership(address)": {
                "details": "Transfers ownership of the contract to a new account (`newOwner`). Can only be called by the current owner."
            }
        },
        "version": 1
    },
    "userdoc": {
        "kind": "user",
        "methods": {},
        "version": 1
    }
}