{
    "contractName": "Tarti",
    "abi": [
        {
            "inputs": [],
            "stateMutability": "nonpayable",
            "type": "constructor"
        },
        {
            "anonymous": false,
            "inputs": [
                {
                    "indexed": true,
                    "internalType": "address",
                    "name": "owner",
                    "type": "address"
                },
                {
                    "indexed": true,
                    "internalType": "address",
                    "name": "approved",
                    "type": "address"
                },
                {
                    "indexed": true,
                    "internalType": "uint256",
                    "name": "tokenId",
                    "type": "uint256"
                }
            ],
            "name": "Approval",
            "type": "event"
        },
        {
            "anonymous": false,
            "inputs": [
                {
                    "indexed": true,
                    "internalType": "address",
                    "name": "owner",
                    "type": "address"
                },
                {
                    "indexed": true,
                    "internalType": "address",
                    "name": "operator",
                    "type": "address"
                },
                {
                    "indexed": false,
                    "internalType": "bool",
                    "name": "approved",
                    "type": "bool"
                }
            ],
            "name": "ApprovalForAll",
            "type": "event"
        },
        {
            "anonymous": false,
            "inputs": [
                {
                    "indexed": false,
                    "internalType": "uint256",
                    "name": "_fromTokenId",
                    "type": "uint256"
                },
                {
                    "indexed": false,
                    "internalType": "uint256",
                    "name": "_toTokenId",
                    "type": "uint256"
                }
            ],
            "name": "BatchMetadataUpdate",
            "type": "event"
        },
        {
            "anonymous": false,
            "inputs": [
                {
                    "indexed": false,
                    "internalType": "uint256",
                    "name": "_tokenId",
                    "type": "uint256"
                }
            ],
            "name": "MetadataUpdate",
            "type": "event"
        },
        {
            "anonymous": false,
            "inputs": [
                {
                    "indexed": true,
                    "internalType": "address",
                    "name": "previousOwner",
                    "type": "address"
                },
                {
                    "indexed": true,
                    "internalType": "address",
                    "name": "newOwner",
                    "type": "address"
                }
            ],
            "name": "OwnershipTransferred",
            "type": "event"
        },
        {
            "anonymous": false,
            "inputs": [
                {
                    "indexed": true,
                    "internalType": "address",
                    "name": "from",
                    "type": "address"
                },
                {
                    "indexed": true,
                    "internalType": "address",
                    "name": "to",
                    "type": "address"
                },
                {
                    "indexed": true,
                    "internalType": "uint256",
                    "name": "tokenId",
                    "type": "uint256"
                }
            ],
            "name": "Transfer",
            "type": "event"
        },
        {
            "inputs": [
                {
                    "internalType": "uint8",
                    "name": "",
                    "type": "uint8"
                }
            ],
            "name": "_artistNextArtId",
            "outputs": [
                {
                    "internalType": "uint256",
                    "name": "",
                    "type": "uint256"
                }
            ],
            "stateMutability": "view",
            "type": "function"
        },
        {
            "inputs": [
                {
                    "internalType": "address",
                    "name": "to",
                    "type": "address"
                },
                {
                    "internalType": "uint256",
                    "name": "tokenId",
                    "type": "uint256"
                }
            ],
            "name": "approve",
            "outputs": [],
            "stateMutability": "nonpayable",
            "type": "function"
        },
        {
            "inputs": [
                {
                    "internalType": "address",
                    "name": "owner",
                    "type": "address"
                }
            ],
            "name": "balanceOf",
            "outputs": [
                {
                    "internalType": "uint256",
                    "name": "",
                    "type": "uint256"
                }
            ],
            "stateMutability": "view",
            "type": "function"
        },
        {
            "inputs": [],
            "name": "baseTokenURI",
            "outputs": [
                {
                    "internalType": "string",
                    "name": "",
                    "type": "string"
                }
            ],
            "stateMutability": "view",
            "type": "function"
        },
        {
            "inputs": [
                {
                    "internalType": "uint256",
                    "name": "tokenId",
                    "type": "uint256"
                }
            ],
            "name": "getApproved",
            "outputs": [
                {
                    "internalType": "address",
                    "name": "",
                    "type": "address"
                }
            ],
            "stateMutability": "view",
            "type": "function"
        },
        {
            "inputs": [
                {
                    "internalType": "address",
                    "name": "owner",
                    "type": "address"
                },
                {
                    "internalType": "address",
                    "name": "operator",
                    "type": "address"
                }
            ],
            "name": "isApprovedForAll",
            "outputs": [
                {
                    "internalType": "bool",
                    "name": "",
                    "type": "bool"
                }
            ],
            "stateMutability": "view",
            "type": "function"
        },
        {
            "inputs": [],
            "name": "name",
            "outputs": [
                {
                    "internalType": "string",
                    "name": "",
                    "type": "string"
                }
            ],
            "stateMutability": "view",
            "type": "function"
        },
        {
            "inputs": [],
            "name": "owner",
            "outputs": [
                {
                    "internalType": "address",
                    "name": "",
                    "type": "address"
                }
            ],
            "stateMutability": "view",
            "type": "function"
        },
        {
            "inputs": [
                {
                    "internalType": "uint256",
                    "name": "tokenId",
                    "type": "uint256"
                }
            ],
            "name": "ownerOf",
            "outputs": [
                {
                    "internalType": "address",
                    "name": "",
                    "type": "address"
                }
            ],
            "stateMutability": "view",
            "type": "function"
        },
        {
            "inputs": [],
            "name": "renounceOwnership",
            "outputs": [],
            "stateMutability": "nonpayable",
            "type": "function"
        },
        {
            "inputs": [
                {
                    "internalType": "address",
                    "name": "from",
                    "type": "address"
                },
                {
                    "internalType": "address",
                    "name": "to",
                    "type": "address"
                },
                {
                    "internalType": "uint256",
                    "name": "tokenId",
                    "type": "uint256"
                }
            ],
            "name": "safeTransferFrom",
            "outputs": [],
            "stateMutability": "nonpayable",
            "type": "function"
        },
        {
            "inputs": [
                {
                    "internalType": "address",
                    "name": "from",
                    "type": "address"
                },
                {
                    "internalType": "address",
                    "name": "to",
                    "type": "address"
                },
                {
                    "internalType": "uint256",
                    "name": "tokenId",
                    "type": "uint256"
                },
                {
                    "internalType": "bytes",
                    "name": "data",
                    "type": "bytes"
                }
            ],
            "name": "safeTransferFrom",
            "outputs": [],
            "stateMutability": "nonpayable",
            "type": "function"
        },
        {
            "inputs": [
                {
                    "internalType": "address",
                    "name": "operator",
                    "type": "address"
                },
                {
                    "internalType": "bool",
                    "name": "approved",
                    "type": "bool"
                }
            ],
            "name": "setApprovalForAll",
            "outputs": [],
            "stateMutability": "nonpayable",
            "type": "function"
        },
        {
            "inputs": [],
            "name": "symbol",
            "outputs": [
                {
                    "internalType": "string",
                    "name": "",
                    "type": "string"
                }
            ],
            "stateMutability": "view",
            "type": "function"
        },
        {
            "inputs": [
                {
                    "internalType": "uint256",
                    "name": "index",
                    "type": "uint256"
                }
            ],
            "name": "tokenByIndex",
            "outputs": [
                {
                    "internalType": "uint256",
                    "name": "",
                    "type": "uint256"
                }
            ],
            "stateMutability": "view",
            "type": "function"
        },
        {
            "inputs": [
                {
                    "internalType": "address",
                    "name": "owner",
                    "type": "address"
                },
                {
                    "internalType": "uint256",
                    "name": "index",
                    "type": "uint256"
                }
            ],
            "name": "tokenOfOwnerByIndex",
            "outputs": [
                {
                    "internalType": "uint256",
                    "name": "",
                    "type": "uint256"
                }
            ],
            "stateMutability": "view",
            "type": "function"
        },
        {
            "inputs": [],
            "name": "totalSupply",
            "outputs": [
                {
                    "internalType": "uint256",
                    "name": "",
                    "type": "uint256"
                }
            ],
            "stateMutability": "view",
            "type": "function"
        },
        {
            "inputs": [
                {
                    "internalType": "address",
                    "name": "from",
                    "type": "address"
                },
                {
                    "internalType": "address",
                    "name": "to",
                    "type": "address"
                },
                {
                    "internalType": "uint256",
                    "name": "tokenId",
                    "type": "uint256"
                }
            ],
            "name": "transferFrom",
            "outputs": [],
            "stateMutability": "nonpayable",
            "type": "function"
        },
        {
            "inputs": [
                {
                    "internalType": "address",
                    "name": "newOwner",
                    "type": "address"
                }
            ],
            "name": "transferOwnership",
            "outputs": [],
            "stateMutability": "nonpayable",
            "type": "function"
        },
        {
            "inputs": [
                {
                    "internalType": "address",
                    "name": "crHolder",
                    "type": "address"
                },
                {
                    "internalType": "uint8",
                    "name": "artistId",
                    "type": "uint8"
                }
            ],
            "name": "newArt",
            "outputs": [
                {
                    "internalType": "uint256",
                    "name": "",
                    "type": "uint256"
                }
            ],
            "stateMutability": "nonpayable",
            "type": "function"
        },
        {
            "inputs": [
                {
                    "internalType": "uint8",
                    "name": "artistId",
                    "type": "uint8"
                },
                {
                    "internalType": "uint256",
                    "name": "artOrdinal",
                    "type": "uint256"
                }
            ],
            "name": "artByArtist",
            "outputs": [
                {
                    "internalType": "uint256",
                    "name": "",
                    "type": "uint256"
                }
            ],
            "stateMutability": "view",
            "type": "function"
        },
        {
            "inputs": [
                {
                    "internalType": "uint256",
                    "name": "tokenId",
                    "type": "uint256"
                }
            ],
            "name": "setCreationStarted",
            "outputs": [],
            "stateMutability": "nonpayable",
            "type": "function"
        },
        {
            "inputs": [
                {
                    "internalType": "uint256",
                    "name": "tokenId",
                    "type": "uint256"
                },
                {
                    "internalType": "bytes",
                    "name": "cid",
                    "type": "bytes"
                }
            ],
            "name": "setCreated",
            "outputs": [],
            "stateMutability": "nonpayable",
            "type": "function"
        },
        {
            "inputs": [
                {
                    "internalType": "uint256",
                    "name": "tokenId",
                    "type": "uint256"
                }
            ],
            "name": "tokenURI",
            "outputs": [
                {
                    "internalType": "string",
                    "name": "",
                    "type": "string"
                }
            ],
            "stateMutability": "view",
            "type": "function"
        },
        {
            "inputs": [
                {
                    "internalType": "bytes4",
                    "name": "interfaceId",
                    "type": "bytes4"
                }
            ],
            "name": "supportsInterface",
            "outputs": [
                {
                    "internalType": "bool",
                    "name": "",
                    "type": "bool"
                }
            ],
            "stateMutability": "view",
            "type": "function"
        }
    ],
    "bytecode": "0x60806040523480156200001157600080fd5b506040518060400160405280600981526020016815185c9d1a48105c9d60ba1b81525060405180604001604052806005815260200164544152544960d81b8152508160009081620000639190620001be565b506001620000728282620001be565b5050506200008f62000089620000c360201b60201c565b620000c7565b604080518082019091526007815266697066733a2f2f60c81b6020820152600e90620000bc9082620001be565b506200028a565b3390565b600b80546001600160a01b038381166001600160a01b0319831681179093556040519116919082907f8be0079c531659141344cd1fd0a4f28419497f9722a3daafe3b4186f6b6457e090600090a35050565b634e487b7160e01b600052604160045260246000fd5b600181811c908216806200014457607f821691505b6020821081036200016557634e487b7160e01b600052602260045260246000fd5b50919050565b601f821115620001b957600081815260208120601f850160051c81016020861015620001945750805b601f850160051c820191505b81811015620001b557828155600101620001a0565b5050505b505050565b81516001600160401b03811115620001da57620001da62000119565b620001f281620001eb84546200012f565b846200016b565b602080601f8311600181146200022a5760008415620002115750858301515b600019600386901b1c1916600185901b178555620001b5565b600085815260208120601f198616915b828110156200025b578886015182559484019460019091019084016200023a565b50858210156200027a5787850151600019600388901b60f8161c191681555b5050505050600190811b01905550565b611f28806200029a6000396000f3fe608060405234801561001057600080fd5b50600436106101335760003560e01c806301ffc9a71461013857806306fdde0314610160578063081812fc14610175578063095ea7b3146101a057806318160ddd146101b557806323b872dd146101c75780632d0de821146101da5780632f745c59146101ed57806342842e0e146102005780634f6ccce7146102135780636352211e1461022657806370a0823114610239578063715018a61461024c5780638da5cb5b1461025457806395d89b411461025c5780639695f9d4146102645780639e31203114610284578063a22cb46514610297578063b88d4fde146102aa578063c87b56dd146102bd578063d4e22cf2146102d0578063d547cfb7146102e3578063e45382ed146102eb578063e985e9c5146102fe578063f2fde38b14610311575b600080fd5b61014b610146366004611741565b610324565b60405190151581526020015b60405180910390f35b610168610335565b60405161015791906117ae565b6101886101833660046117c1565b6103c7565b6040516001600160a01b039091168152602001610157565b6101b36101ae3660046117f6565b6103ee565b005b6009545b604051908152602001610157565b6101b36101d5366004611820565b610508565b6101b36101e83660046117c1565b610539565b6101b96101fb3660046117f6565b6105a1565b6101b361020e366004611820565b610637565b6101b96102213660046117c1565b610652565b6101886102343660046117c1565b6106e5565b6101b961024736600461185c565b610719565b6101b361079f565b6101886107b3565b6101686107c2565b6101b9610272366004611888565b600d6020526000908152604090205481565b6101b96102923660046118a3565b6107d1565b6101b36102a53660046118d6565b610847565b6101b36102b8366004611928565b610856565b6101686102cb3660046117c1565b61088e565b6101b36102de366004611a03565b6108c2565b6101686109b6565b6101b96102f9366004611a7e565b610a44565b61014b61030c366004611a9a565b610a6b565b6101b361031f36600461185c565b610a99565b600061032f82610b0f565b92915050565b60606000805461034490611ac4565b80601f016020809104026020016040519081016040528092919081815260200182805461037090611ac4565b80156103bd5780601f10610392576101008083540402835291602001916103bd565b820191906000526020600020905b8154815290600101906020018083116103a057829003601f168201915b5050505050905090565b60006103d282610b34565b506000908152600460205260409020546001600160a01b031690565b60006103f9826106e5565b9050806001600160a01b0316836001600160a01b03160361046b5760405162461bcd60e51b815260206004820152602160248201527f4552433732313a20617070726f76616c20746f2063757272656e74206f776e656044820152603960f91b60648201526084015b60405180910390fd5b336001600160a01b038216148061048757506104878133610a6b565b6104f95760405162461bcd60e51b815260206004820152603d60248201527f4552433732313a20617070726f76652063616c6c6572206973206e6f7420746f60448201527f6b656e206f776e6572206f7220617070726f76656420666f7220616c6c0000006064820152608401610462565b6105038383610b59565b505050565b6105123382610bc7565b61052e5760405162461bcd60e51b815260040161046290611afe565b610503838383610c26565b610541610d85565b61059e816040518060400160405280601c81526020017b51686173684f664372656174696e6754617274694d6574616461746160201b81525060405160200161058a9190611b4b565b604051602081830303815290604052610de4565b50565b60006105ac83610719565b821061060e5760405162461bcd60e51b815260206004820152602b60248201527f455243373231456e756d657261626c653a206f776e657220696e646578206f7560448201526a74206f6620626f756e647360a81b6064820152608401610462565b506001600160a01b03919091166000908152600760209081526040808320938352929052205490565b61050383838360405180602001604052806000815250610856565b600061065d60095490565b82106106c05760405162461bcd60e51b815260206004820152602c60248201527f455243373231456e756d657261626c653a20676c6f62616c20696e646578206f60448201526b7574206f6620626f756e647360a01b6064820152608401610462565b600982815481106106d3576106d3611b67565b90600052602060002001549050919050565b6000806106f183610ea0565b90506001600160a01b03811661032f5760405162461bcd60e51b815260040161046290611b7d565b60006001600160a01b0382166107835760405162461bcd60e51b815260206004820152602960248201527f4552433732313a2061646472657373207a65726f206973206e6f7420612076616044820152683634b21037bbb732b960b91b6064820152608401610462565b506001600160a01b031660009081526003602052604090205490565b6107a7610d85565b6107b16000610ebb565b565b600b546001600160a01b031690565b60606001805461034490611ac4565b60006107db610d85565b6107e9600c80546001019055565b60006107f4600c5490565b60ff84166000818152600f60209081526040808320600d808452828520805486529184529184208690559383529052815492935061083183611bc5565b91905055506108408482610f0d565b9392505050565b610852338383610f27565b5050565b6108603383610bc7565b61087c5760405162461bcd60e51b815260040161046290611afe565b61088884848484610ff1565b50505050565b6060600e61089b83611024565b6040516020016108ac929190611bde565b6040516020818303038152906040529050919050565b6108ca610d85565b60006108d58461088e565b8051906020012090506040518060400160405280601781526020017651686173684f664e657754617274694d6574616461746160481b81525060405160200161091e9190611b4b565b6040516020818303038152906040528051906020012081148061099a57506040518060400160405280601c81526020017b51686173684f664372656174696e6754617274694d6574616461746160201b8152506040516020016109819190611b4b565b6040516020818303038152906040528051906020012081145b156108885761088884848460405160200161058a929190611c65565b600e80546109c390611ac4565b80601f01602080910402602001604051908101604052809291908181526020018280546109ef90611ac4565b8015610a3c5780601f10610a1157610100808354040283529160200191610a3c565b820191906000526020600020905b815481529060010190602001808311610a1f57829003601f168201915b505050505081565b60ff82166000908152600f6020908152604080832084845290915281205461084090610652565b6001600160a01b03918216600090815260056020908152604080832093909416825291909152205460ff1690565b610aa1610d85565b6001600160a01b038116610b065760405162461bcd60e51b815260206004820152602660248201527f4f776e61626c653a206e6577206f776e657220697320746865207a65726f206160448201526564647265737360d01b6064820152608401610462565b61059e81610ebb565b60006001600160e01b0319821663780e9d6360e01b148061032f575061032f826110b6565b610b3d816110db565b61059e5760405162461bcd60e51b815260040161046290611b7d565b600081815260046020526040902080546001600160a01b0319166001600160a01b0384169081179091558190610b8e826106e5565b6001600160a01b03167f8c5be1e5ebec7d5bd14f71427d1e84f3dd0314c0f7b2291e5b200ac8c7c3b92560405160405180910390a45050565b600080610bd3836106e5565b9050806001600160a01b0316846001600160a01b03161480610bfa5750610bfa8185610a6b565b80610c1e5750836001600160a01b0316610c13846103c7565b6001600160a01b0316145b949350505050565b826001600160a01b0316610c39826106e5565b6001600160a01b031614610c5f5760405162461bcd60e51b815260040161046290611c75565b6001600160a01b038216610cc15760405162461bcd60e51b8152602060048201526024808201527f4552433732313a207472616e7366657220746f20746865207a65726f206164646044820152637265737360e01b6064820152608401610462565b610cce83838360016110f8565b826001600160a01b0316610ce1826106e5565b6001600160a01b031614610d075760405162461bcd60e51b815260040161046290611c75565b600081815260046020908152604080832080546001600160a01b03199081169091556001600160a01b038781168086526003855283862080546000190190559087168086528386208054600101905586865260029094528285208054909216841790915590518493600080516020611ed383398151915291a4505050565b33610d8e6107b3565b6001600160a01b0316146107b15760405162461bcd60e51b815260206004820181905260248201527f4f776e61626c653a2063616c6c6572206973206e6f7420746865206f776e65726044820152606401610462565b610ded826110db565b610e505760405162461bcd60e51b815260206004820152602e60248201527f45524337323155524953746f726167653a2055524920736574206f66206e6f6e60448201526d32bc34b9ba32b73a103a37b5b2b760911b6064820152608401610462565b6000828152600660205260409020610e688282611d08565b506040518281527ff8e1a15aba9398e019f0b49df1a4fde98ee17ae345cb5f6b5e2c27f5033e8ce79060200160405180910390a15050565b6000908152600260205260409020546001600160a01b031690565b600b80546001600160a01b038381166001600160a01b0319831681179093556040519116919082907f8be0079c531659141344cd1fd0a4f28419497f9722a3daafe3b4186f6b6457e090600090a35050565b610852828260405180602001604052806000815250611104565b816001600160a01b0316836001600160a01b031603610f845760405162461bcd60e51b815260206004820152601960248201527822a9219b99189d1030b8383937bb32903a379031b0b63632b960391b6044820152606401610462565b6001600160a01b03838116600081815260056020908152604080832094871680845294825291829020805460ff191686151590811790915591519182527f17307eab39ab6107e8899845ad3d59bd9653f200f220920489ca2b5937696c31910160405180910390a3505050565b610ffc848484610c26565b61100884848484611137565b6108885760405162461bcd60e51b815260040161046290611dc7565b6060600061103183611238565b60010190506000816001600160401b0381111561105057611050611912565b6040519080825280601f01601f19166020018201604052801561107a576020820181803683370190505b5090508181016020015b600019016f181899199a1a9b1b9c1cb0b131b232b360811b600a86061a8153600a850494508461108457509392505050565b60006001600160e01b03198216632483248360e11b148061032f575061032f8261130e565b6000806110e783610ea0565b6001600160a01b0316141592915050565b6108888484848461135e565b61110e8383611492565b61111b6000848484611137565b6105035760405162461bcd60e51b815260040161046290611dc7565b60006001600160a01b0384163b1561122d57604051630a85bd0160e11b81526001600160a01b0385169063150b7a029061117b903390899088908890600401611e19565b6020604051808303816000875af19250505080156111b6575060408051601f3d908101601f191682019092526111b391810190611e56565b60015b611213573d8080156111e4576040519150601f19603f3d011682016040523d82523d6000602084013e6111e9565b606091505b50805160000361120b5760405162461bcd60e51b815260040161046290611dc7565b805181602001fd5b6001600160e01b031916630a85bd0160e11b149050610c1e565b506001949350505050565b60008072184f03e93ff9f4daa797ed6e38ed64bf6a1f0160401b83106112775772184f03e93ff9f4daa797ed6e38ed64bf6a1f0160401b830492506040015b6904ee2d6d415b85acef8160201b83106112a1576904ee2d6d415b85acef8160201b830492506020015b662386f26fc1000083106112bf57662386f26fc10000830492506010015b6305f5e10083106112d7576305f5e100830492506008015b61271083106112eb57612710830492506004015b606483106112fd576064830492506002015b600a831061032f5760010192915050565b60006001600160e01b031982166380ac58cd60e01b148061133f57506001600160e01b03198216635b5e139f60e01b145b8061032f57506301ffc9a760e01b6001600160e01b031983161461032f565b60018111156113cd5760405162461bcd60e51b815260206004820152603560248201527f455243373231456e756d657261626c653a20636f6e7365637574697665207472604482015274185b9cd9995c9cc81b9bdd081cdd5c1c1bdc9d1959605a1b6064820152608401610462565b816001600160a01b0385166114295761142481600980546000838152600a60205260408120829055600182018355919091527f6e1540171b6c0c960b71a7020d9f60077f6af931a8bbf590da0223dacf75c7af0155565b61144c565b836001600160a01b0316856001600160a01b03161461144c5761144c858261159b565b6001600160a01b0384166114685761146381611638565b61148b565b846001600160a01b0316846001600160a01b03161461148b5761148b84826116e7565b5050505050565b6001600160a01b0382166114e85760405162461bcd60e51b815260206004820181905260248201527f4552433732313a206d696e7420746f20746865207a65726f20616464726573736044820152606401610462565b6114f1816110db565b1561150e5760405162461bcd60e51b815260040161046290611e73565b61151c6000838360016110f8565b611525816110db565b156115425760405162461bcd60e51b815260040161046290611e73565b6001600160a01b038216600081815260036020908152604080832080546001019055848352600290915280822080546001600160a01b031916841790555183929190600080516020611ed3833981519152908290a45050565b600060016115a884610719565b6115b29190611ea9565b600083815260086020526040902054909150808214611605576001600160a01b03841660009081526007602090815260408083208584528252808320548484528184208190558352600890915290208190555b5060009182526008602090815260408084208490556001600160a01b039094168352600781528383209183525290812055565b60095460009061164a90600190611ea9565b6000838152600a60205260408120546009805493945090928490811061167257611672611b67565b90600052602060002001549050806009838154811061169357611693611b67565b6000918252602080832090910192909255828152600a909152604080822084905585825281205560098054806116cb576116cb611ebc565b6001900381819060005260206000200160009055905550505050565b60006116f283610719565b6001600160a01b039093166000908152600760209081526040808320868452825280832085905593825260089052919091209190915550565b6001600160e01b03198116811461059e57600080fd5b60006020828403121561175357600080fd5b81356108408161172b565b60005b83811015611779578181015183820152602001611761565b50506000910152565b6000815180845261179a81602086016020860161175e565b601f01601f19169290920160200192915050565b6020815260006108406020830184611782565b6000602082840312156117d357600080fd5b5035919050565b80356001600160a01b03811681146117f157600080fd5b919050565b6000806040838503121561180957600080fd5b611812836117da565b946020939093013593505050565b60008060006060848603121561183557600080fd5b61183e846117da565b925061184c602085016117da565b9150604084013590509250925092565b60006020828403121561186e57600080fd5b610840826117da565b803560ff811681146117f157600080fd5b60006020828403121561189a57600080fd5b61084082611877565b600080604083850312156118b657600080fd5b6118bf836117da565b91506118cd60208401611877565b90509250929050565b600080604083850312156118e957600080fd5b6118f2836117da565b91506020830135801515811461190757600080fd5b809150509250929050565b634e487b7160e01b600052604160045260246000fd5b6000806000806080858703121561193e57600080fd5b611947856117da565b9350611955602086016117da565b92506040850135915060608501356001600160401b038082111561197857600080fd5b818701915087601f83011261198c57600080fd5b81358181111561199e5761199e611912565b604051601f8201601f19908116603f011681019083821181831017156119c6576119c6611912565b816040528281528a60208487010111156119df57600080fd5b82602086016020830137600060208483010152809550505050505092959194509250565b600080600060408486031215611a1857600080fd5b8335925060208401356001600160401b0380821115611a3657600080fd5b818601915086601f830112611a4a57600080fd5b813581811115611a5957600080fd5b876020828501011115611a6b57600080fd5b6020830194508093505050509250925092565b60008060408385031215611a9157600080fd5b61181283611877565b60008060408385031215611aad57600080fd5b611ab6836117da565b91506118cd602084016117da565b600181811c90821680611ad857607f821691505b602082108103611af857634e487b7160e01b600052602260045260246000fd5b50919050565b6020808252602d908201527f4552433732313a2063616c6c6572206973206e6f7420746f6b656e206f776e6560408201526c1c881bdc88185c1c1c9bdd9959609a1b606082015260800190565b60008251611b5d81846020870161175e565b9190910192915050565b634e487b7160e01b600052603260045260246000fd5b602080825260189082015277115490cdcc8c4e881a5b9d985b1a59081d1bdad95b88125160421b604082015260600190565b634e487b7160e01b600052601160045260246000fd5b600060018201611bd757611bd7611baf565b5060010190565b6000808454611bec81611ac4565b60018281168015611c045760018114611c1957611c48565b60ff1984168752821515830287019450611c48565b8860005260208060002060005b85811015611c3f5781548a820152908401908201611c26565b50505082870194505b505050508351611c5c81836020880161175e565b01949350505050565b8183823760009101908152919050565b60208082526025908201527f4552433732313a207472616e736665722066726f6d20696e636f72726563742060408201526437bbb732b960d91b606082015260800190565b601f82111561050357600081815260208120601f850160051c81016020861015611ce15750805b601f850160051c820191505b81811015611d0057828155600101611ced565b505050505050565b81516001600160401b03811115611d2157611d21611912565b611d3581611d2f8454611ac4565b84611cba565b602080601f831160018114611d6a5760008415611d525750858301515b600019600386901b1c1916600185901b178555611d00565b600085815260208120601f198616915b82811015611d9957888601518255948401946001909101908401611d7a565b5085821015611db75787850151600019600388901b60f8161c191681555b5050505050600190811b01905550565b60208082526032908201527f4552433732313a207472616e7366657220746f206e6f6e20455243373231526560408201527131b2b4bb32b91034b6b83632b6b2b73a32b960711b606082015260800190565b6001600160a01b0385811682528416602082015260408101839052608060608201819052600090611e4c90830184611782565b9695505050505050565b600060208284031215611e6857600080fd5b81516108408161172b565b6020808252601c908201527b115490cdcc8c4e881d1bdad95b88185b1c9958591e481b5a5b9d195960221b604082015260600190565b8181038181111561032f5761032f611baf565b634e487b7160e01b600052603160045260246000fdfeddf252ad1be2c89b69c2b068fc378daa952ba7f163c4a11628f55a4df523b3efa2646970667358221220e8e92a164f1ae2254a23db010fd5583f8fb7df517d51519f09cb36d9fb19274064736f6c63430008120033",
    "immutableReferences": {},
    "source": "// SPDX-License-Identifier: MIT\npragma solidity ^0.8.18;\n\nimport \"@openzeppelin/contracts/token/ERC721/extensions/ERC721URIStorage.sol\";\nimport \"@openzeppelin/contracts/token/ERC721/extensions/ERC721Enumerable.sol\";\nimport \"@openzeppelin/contracts/utils/Counters.sol\";\nimport \"@openzeppelin/contracts/access/Ownable.sol\";\nimport \"./Tarti.sol\";\n\ncontract Tarti is ERC721URIStorage, ERC721Enumerable, Ownable {\n    using Counters for Counters.Counter;\n\n    Counters.Counter private _currentTokenId;\n    mapping(uint8 => uint256) public _artistNextArtId;\n\n    /// @dev Base token URI used as a prefix by tokenURI().\n    string public baseTokenURI;\n    mapping(uint8 => mapping(uint256 => uint256)) private _artByArtist;\n\n    bytes private constant _newMetadataCid = \"QhashOfNewTartiMetadata\";\n    bytes private constant _inProcessMetadataCid =\n        \"QhashOfCreatingTartiMetadata\";\n\n    constructor() ERC721(\"Tarti Art\", \"TARTI\") {\n        //ipfs://ipfs.tarti.eth points to an ipns hash\n        //that points to an ipfs folder that has\n        //the implied structure in the uri below\n        //baseTokenURI = \"ipfs://ipfs.tarti.eth/tarti/art/\";\n\n        //decided not to use ipns or ens and just use the raw hashes\n        baseTokenURI = \"ipfs://\";\n    }\n\n    function newArt(\n        address crHolder,\n        uint8 artistId\n    ) public onlyOwner returns (uint256) {\n        _currentTokenId.increment();\n        uint256 newArtId = _currentTokenId.current();\n        _artByArtist[artistId][_artistNextArtId[artistId]] = newArtId;\n        _artistNextArtId[artistId]++;\n        _safeMint(crHolder, newArtId);\n        return newArtId;\n    }\n\n    //this can be used to iterate through the art of a specific artist\n    function artByArtist(\n        uint8 artistId,\n        uint256 artOrdinal\n    ) public view returns (uint256) {\n        return tokenByIndex(_artByArtist[artistId][artOrdinal]);\n    }\n\n    function setCreationStarted(uint256 tokenId) public onlyOwner {\n        _setTokenURI(tokenId, string(abi.encodePacked(_inProcessMetadataCid)));\n    }\n\n    function setCreated(uint256 tokenId, bytes calldata cid) public onlyOwner {\n        //Don't allow the URI to ever change once it is set!\n        bytes32 tokenUriBytesHash = keccak256(bytes(tokenURI(tokenId))); //cant copare strings so lets compare hashes of strings\n        if (\n            tokenUriBytesHash == keccak256(abi.encodePacked(_newMetadataCid)) ||\n            tokenUriBytesHash ==\n            keccak256(abi.encodePacked(_inProcessMetadataCid))\n        ) {\n            _setTokenURI(tokenId, string(abi.encodePacked(cid)));\n        }\n    }\n\n    function _burn(\n        uint256 tokenId\n    ) internal override(ERC721, ERC721URIStorage) {\n        super._burn(tokenId);\n    }\n\n    function tokenURI(\n        uint256 tokenId\n    ) public view override(ERC721, ERC721URIStorage) returns (string memory) {\n        //I have a hunch the default impleemattn does this exact same thing so maybe we just use it??\n        return string.concat(baseTokenURI, Strings.toString(tokenId));\n    }\n\n    function _beforeTokenTransfer(\n        address from,\n        address to,\n        uint256 firstTokenId,\n        uint256 batchSize\n    ) internal override(ERC721, ERC721Enumerable) {\n        super._beforeTokenTransfer(from, to, firstTokenId, batchSize);\n    }\n\n    function supportsInterface(\n        bytes4 interfaceId\n    ) public view override(ERC721Enumerable, ERC721URIStorage) returns (bool) {\n        return super.supportsInterface(interfaceId);\n    }\n}\n",
    "sourcePath": "/home/evan/tartst/contracts/Tarti.sol",
    "compiler": {
        "name": "solc",
        "version": "0.8.18+commit.87f61d96.Emscripten.clang"
    },
    "schemaVersion": "3.4.14",
    "updatedAt": "2023-07-13T05:31:36.827Z",
    "devdoc": {
        "events": {
            "Approval(address,address,uint256)": {
                "details": "Emitted when `owner` enables `approved` to manage the `tokenId` token."
            },
            "ApprovalForAll(address,address,bool)": {
                "details": "Emitted when `owner` enables or disables (`approved`) `operator` to manage all of its assets."
            },
            "BatchMetadataUpdate(uint256,uint256)": {
                "details": "This event emits when the metadata of a range of tokens is changed. So that the third-party platforms such as NFT market could timely update the images and related attributes of the NFTs."
            },
            "MetadataUpdate(uint256)": {
                "details": "This event emits when the metadata of a token is changed. So that the third-party platforms such as NFT market could timely update the images and related attributes of the NFT."
            },
            "Transfer(address,address,uint256)": {
                "details": "Emitted when `tokenId` token is transferred from `from` to `to`."
            }
        },
        "kind": "dev",
        "methods": {
            "approve(address,uint256)": {
                "details": "See {IERC721-approve}."
            },
            "balanceOf(address)": {
                "details": "See {IERC721-balanceOf}."
            },
            "getApproved(uint256)": {
                "details": "See {IERC721-getApproved}."
            },
            "isApprovedForAll(address,address)": {
                "details": "See {IERC721-isApprovedForAll}."
            },
            "name()": {
                "details": "See {IERC721Metadata-name}."
            },
            "owner()": {
                "details": "Returns the address of the current owner."
            },
            "ownerOf(uint256)": {
                "details": "See {IERC721-ownerOf}."
            },
            "renounceOwnership()": {
                "details": "Leaves the contract without owner. It will not be possible to call `onlyOwner` functions. Can only be called by the current owner. NOTE: Renouncing ownership will leave the contract without an owner, thereby disabling any functionality that is only available to the owner."
            },
            "safeTransferFrom(address,address,uint256)": {
                "details": "See {IERC721-safeTransferFrom}."
            },
            "safeTransferFrom(address,address,uint256,bytes)": {
                "details": "See {IERC721-safeTransferFrom}."
            },
            "setApprovalForAll(address,bool)": {
                "details": "See {IERC721-setApprovalForAll}."
            },
            "symbol()": {
                "details": "See {IERC721Metadata-symbol}."
            },
            "tokenByIndex(uint256)": {
                "details": "See {IERC721Enumerable-tokenByIndex}."
            },
            "tokenOfOwnerByIndex(address,uint256)": {
                "details": "See {IERC721Enumerable-tokenOfOwnerByIndex}."
            },
            "totalSupply()": {
                "details": "See {IERC721Enumerable-totalSupply}."
            },
            "transferFrom(address,address,uint256)": {
                "details": "See {IERC721-transferFrom}."
            },
            "transferOwnership(address)": {
                "details": "Transfers ownership of the contract to a new account (`newOwner`). Can only be called by the current owner."
            }
        },
        "stateVariables": {
            "baseTokenURI": {
                "details": "Base token URI used as a prefix by tokenURI()."
            }
        },
        "version": 1
    },
    "userdoc": {
        "kind": "user",
        "methods": {},
        "version": 1
    }
}