{
  "contractName": "Tartist",
  "abi": [
    {
      "inputs": [],
      "stateMutability": "nonpayable",
      "type": "constructor"
    },
    {
      "anonymous": false,
      "inputs": [
        {
          "indexed": true,
          "internalType": "address",
          "name": "owner",
          "type": "address"
        },
        {
          "indexed": true,
          "internalType": "address",
          "name": "approved",
          "type": "address"
        },
        {
          "indexed": true,
          "internalType": "uint256",
          "name": "tokenId",
          "type": "uint256"
        }
      ],
      "name": "Approval",
      "type": "event"
    },
    {
      "anonymous": false,
      "inputs": [
        {
          "indexed": true,
          "internalType": "address",
          "name": "owner",
          "type": "address"
        },
        {
          "indexed": true,
          "internalType": "address",
          "name": "operator",
          "type": "address"
        },
        {
          "indexed": false,
          "internalType": "bool",
          "name": "approved",
          "type": "bool"
        }
      ],
      "name": "ApprovalForAll",
      "type": "event"
    },
    {
      "anonymous": false,
      "inputs": [
        {
          "indexed": false,
          "internalType": "uint256",
          "name": "_fromTokenId",
          "type": "uint256"
        },
        {
          "indexed": false,
          "internalType": "uint256",
          "name": "_toTokenId",
          "type": "uint256"
        }
      ],
      "name": "BatchMetadataUpdate",
      "type": "event"
    },
    {
      "anonymous": false,
      "inputs": [
        {
          "indexed": false,
          "internalType": "uint256",
          "name": "_tokenId",
          "type": "uint256"
        }
      ],
      "name": "MetadataUpdate",
      "type": "event"
    },
    {
      "anonymous": false,
      "inputs": [
        {
          "indexed": true,
          "internalType": "address",
          "name": "previousOwner",
          "type": "address"
        },
        {
          "indexed": true,
          "internalType": "address",
          "name": "newOwner",
          "type": "address"
        }
      ],
      "name": "OwnershipTransferred",
      "type": "event"
    },
    {
      "anonymous": false,
      "inputs": [
        {
          "indexed": true,
          "internalType": "address",
          "name": "from",
          "type": "address"
        },
        {
          "indexed": true,
          "internalType": "address",
          "name": "to",
          "type": "address"
        },
        {
          "indexed": true,
          "internalType": "uint256",
          "name": "tokenId",
          "type": "uint256"
        }
      ],
      "name": "Transfer",
      "type": "event"
    },
    {
      "inputs": [],
      "name": "MINT_TARTIST_PRICE",
      "outputs": [
        {
          "internalType": "uint256",
          "name": "",
          "type": "uint256"
        }
      ],
      "stateMutability": "view",
      "type": "function",
      "constant": true
    },
    {
      "inputs": [],
      "name": "MINT_TARTI_PRICE",
      "outputs": [
        {
          "internalType": "uint256",
          "name": "",
          "type": "uint256"
        }
      ],
      "stateMutability": "view",
      "type": "function",
      "constant": true
    },
    {
      "inputs": [
        {
          "internalType": "uint256",
          "name": "",
          "type": "uint256"
        }
      ],
      "name": "allTraits",
      "outputs": [
        {
          "internalType": "uint256",
          "name": "",
          "type": "uint256"
        }
      ],
      "stateMutability": "view",
      "type": "function",
      "constant": true
    },
    {
      "inputs": [
        {
          "internalType": "address",
          "name": "to",
          "type": "address"
        },
        {
          "internalType": "uint256",
          "name": "tokenId",
          "type": "uint256"
        }
      ],
      "name": "approve",
      "outputs": [],
      "stateMutability": "nonpayable",
      "type": "function"
    },
    {
      "inputs": [
        {
          "internalType": "uint256",
          "name": "",
          "type": "uint256"
        }
      ],
      "name": "availableTraits",
      "outputs": [
        {
          "internalType": "string",
          "name": "",
          "type": "string"
        }
      ],
      "stateMutability": "view",
      "type": "function",
      "constant": true
    },
    {
      "inputs": [
        {
          "internalType": "address",
          "name": "owner",
          "type": "address"
        }
      ],
      "name": "balanceOf",
      "outputs": [
        {
          "internalType": "uint256",
          "name": "",
          "type": "uint256"
        }
      ],
      "stateMutability": "view",
      "type": "function",
      "constant": true
    },
    {
      "inputs": [
        {
          "internalType": "uint256",
          "name": "",
          "type": "uint256"
        },
        {
          "internalType": "uint256",
          "name": "",
          "type": "uint256"
        }
      ],
      "name": "botTraitDominances",
      "outputs": [
        {
          "internalType": "uint256",
          "name": "",
          "type": "uint256"
        }
      ],
      "stateMutability": "view",
      "type": "function",
      "constant": true
    },
    {
      "inputs": [
        {
          "internalType": "uint256",
          "name": "",
          "type": "uint256"
        },
        {
          "internalType": "uint256",
          "name": "",
          "type": "uint256"
        }
      ],
      "name": "botTraitValues",
      "outputs": [
        {
          "internalType": "string",
          "name": "",
          "type": "string"
        }
      ],
      "stateMutability": "view",
      "type": "function",
      "constant": true
    },
    {
      "inputs": [
        {
          "internalType": "uint256",
          "name": "",
          "type": "uint256"
        },
        {
          "internalType": "uint256",
          "name": "",
          "type": "uint256"
        }
      ],
      "name": "botTraits",
      "outputs": [
        {
          "internalType": "uint256",
          "name": "",
          "type": "uint256"
        }
      ],
      "stateMutability": "view",
      "type": "function",
      "constant": true
    },
    {
      "inputs": [
        {
          "internalType": "uint256",
          "name": "tokenId",
          "type": "uint256"
        }
      ],
      "name": "getApproved",
      "outputs": [
        {
          "internalType": "address",
          "name": "",
          "type": "address"
        }
      ],
      "stateMutability": "view",
      "type": "function",
      "constant": true
    },
    {
      "inputs": [
        {
          "internalType": "address",
          "name": "owner",
          "type": "address"
        },
        {
          "internalType": "address",
          "name": "operator",
          "type": "address"
        }
      ],
      "name": "isApprovedForAll",
      "outputs": [
        {
          "internalType": "bool",
          "name": "",
          "type": "bool"
        }
      ],
      "stateMutability": "view",
      "type": "function",
      "constant": true
    },
    {
      "inputs": [],
      "name": "name",
      "outputs": [
        {
          "internalType": "string",
          "name": "",
          "type": "string"
        }
      ],
      "stateMutability": "view",
      "type": "function",
      "constant": true
    },
    {
      "inputs": [],
      "name": "owner",
      "outputs": [
        {
          "internalType": "address",
          "name": "",
          "type": "address"
        }
      ],
      "stateMutability": "view",
      "type": "function",
      "constant": true
    },
    {
      "inputs": [
        {
          "internalType": "uint256",
          "name": "tokenId",
          "type": "uint256"
        }
      ],
      "name": "ownerOf",
      "outputs": [
        {
          "internalType": "address",
          "name": "",
          "type": "address"
        }
      ],
      "stateMutability": "view",
      "type": "function",
      "constant": true
    },
    {
      "inputs": [
        {
          "internalType": "address",
          "name": "dest",
          "type": "address"
        }
      ],
      "name": "payments",
      "outputs": [
        {
          "internalType": "uint256",
          "name": "",
          "type": "uint256"
        }
      ],
      "stateMutability": "view",
      "type": "function",
      "constant": true
    },
    {
      "inputs": [],
      "name": "renounceOwnership",
      "outputs": [],
      "stateMutability": "nonpayable",
      "type": "function"
    },
    {
      "inputs": [
        {
          "internalType": "address",
          "name": "from",
          "type": "address"
        },
        {
          "internalType": "address",
          "name": "to",
          "type": "address"
        },
        {
          "internalType": "uint256",
          "name": "tokenId",
          "type": "uint256"
        }
      ],
      "name": "safeTransferFrom",
      "outputs": [],
      "stateMutability": "nonpayable",
      "type": "function"
    },
    {
      "inputs": [
        {
          "internalType": "address",
          "name": "from",
          "type": "address"
        },
        {
          "internalType": "address",
          "name": "to",
          "type": "address"
        },
        {
          "internalType": "uint256",
          "name": "tokenId",
          "type": "uint256"
        },
        {
          "internalType": "bytes",
          "name": "data",
          "type": "bytes"
        }
      ],
      "name": "safeTransferFrom",
      "outputs": [],
      "stateMutability": "nonpayable",
      "type": "function"
    },
    {
      "inputs": [
        {
          "internalType": "address",
          "name": "operator",
          "type": "address"
        },
        {
          "internalType": "bool",
          "name": "approved",
          "type": "bool"
        }
      ],
      "name": "setApprovalForAll",
      "outputs": [],
      "stateMutability": "nonpayable",
      "type": "function"
    },
    {
      "inputs": [],
      "name": "symbol",
      "outputs": [
        {
          "internalType": "string",
          "name": "",
          "type": "string"
        }
      ],
      "stateMutability": "view",
      "type": "function",
      "constant": true
    },
    {
      "inputs": [
        {
          "internalType": "uint256",
          "name": "index",
          "type": "uint256"
        }
      ],
      "name": "tokenByIndex",
      "outputs": [
        {
          "internalType": "uint256",
          "name": "",
          "type": "uint256"
        }
      ],
      "stateMutability": "view",
      "type": "function",
      "constant": true
    },
    {
      "inputs": [
        {
          "internalType": "address",
          "name": "owner",
          "type": "address"
        },
        {
          "internalType": "uint256",
          "name": "index",
          "type": "uint256"
        }
      ],
      "name": "tokenOfOwnerByIndex",
      "outputs": [
        {
          "internalType": "uint256",
          "name": "",
          "type": "uint256"
        }
      ],
      "stateMutability": "view",
      "type": "function",
      "constant": true
    },
    {
      "inputs": [],
      "name": "totalSupply",
      "outputs": [
        {
          "internalType": "uint256",
          "name": "",
          "type": "uint256"
        }
      ],
      "stateMutability": "view",
      "type": "function",
      "constant": true
    },
    {
      "inputs": [
        {
          "internalType": "address",
          "name": "from",
          "type": "address"
        },
        {
          "internalType": "address",
          "name": "to",
          "type": "address"
        },
        {
          "internalType": "uint256",
          "name": "tokenId",
          "type": "uint256"
        }
      ],
      "name": "transferFrom",
      "outputs": [],
      "stateMutability": "nonpayable",
      "type": "function"
    },
    {
      "inputs": [
        {
          "internalType": "address",
          "name": "newOwner",
          "type": "address"
        }
      ],
      "name": "transferOwnership",
      "outputs": [],
      "stateMutability": "nonpayable",
      "type": "function"
    },
    {
      "inputs": [
        {
          "internalType": "uint256",
          "name": "traitCode",
          "type": "uint256"
        },
        {
          "internalType": "string",
          "name": "traitName",
          "type": "string"
        }
      ],
      "name": "addTrait",
      "outputs": [],
      "stateMutability": "nonpayable",
      "type": "function"
    },
    {
      "inputs": [
        {
          "internalType": "uint256",
          "name": "traitCode",
          "type": "uint256"
        }
      ],
      "name": "cancelTrait",
      "outputs": [],
      "stateMutability": "nonpayable",
      "type": "function"
    },
    {
      "inputs": [],
      "name": "getAllTraits",
      "outputs": [
        {
          "internalType": "uint256[]",
          "name": "",
          "type": "uint256[]"
        }
      ],
      "stateMutability": "view",
      "type": "function",
      "constant": true
    },
    {
      "inputs": [
        {
          "internalType": "address",
          "name": "recipient",
          "type": "address"
        },
        {
          "internalType": "uint256[]",
          "name": "traits",
          "type": "uint256[]"
        },
        {
          "internalType": "string[]",
          "name": "dynamicTraitValues",
          "type": "string[]"
        },
        {
          "internalType": "uint8[]",
          "name": "traitDominance",
          "type": "uint8[]"
        }
      ],
      "name": "giveBirth",
      "outputs": [
        {
          "internalType": "uint256",
          "name": "",
          "type": "uint256"
        }
      ],
      "stateMutability": "payable",
      "type": "function",
      "payable": true
    },
    {
      "inputs": [
        {
          "internalType": "uint8",
          "name": "artistId",
          "type": "uint8"
        }
      ],
      "name": "newArt",
      "outputs": [
        {
          "internalType": "uint256",
          "name": "",
          "type": "uint256"
        }
      ],
      "stateMutability": "payable",
      "type": "function",
      "payable": true
    },
    {
      "inputs": [],
      "name": "contractURI",
      "outputs": [
        {
          "internalType": "string",
          "name": "",
          "type": "string"
        }
      ],
      "stateMutability": "pure",
      "type": "function",
      "constant": true
    },
    {
      "inputs": [
        {
          "internalType": "address",
          "name": "tartiAddr",
          "type": "address"
        }
      ],
      "name": "setTartiAddr",
      "outputs": [],
      "stateMutability": "nonpayable",
      "type": "function"
    },
    {
      "inputs": [
        {
          "internalType": "uint256",
          "name": "tokenId",
          "type": "uint256"
        },
        {
          "internalType": "bool",
          "name": "onTarti",
          "type": "bool"
        }
      ],
      "name": "setCreationStarted",
      "outputs": [],
      "stateMutability": "nonpayable",
      "type": "function"
    },
    {
      "inputs": [
        {
          "internalType": "uint256",
          "name": "tokenId",
          "type": "uint256"
        },
        {
          "internalType": "bytes",
          "name": "cid",
          "type": "bytes"
        },
        {
          "internalType": "bool",
          "name": "onTarti",
          "type": "bool"
        }
      ],
      "name": "setCreated",
      "outputs": [],
      "stateMutability": "nonpayable",
      "type": "function"
    },
    {
      "inputs": [
        {
          "internalType": "uint256",
          "name": "tokenId",
          "type": "uint256"
        }
      ],
      "name": "getTraits",
      "outputs": [
        {
          "internalType": "uint256[]",
          "name": "",
          "type": "uint256[]"
        }
      ],
      "stateMutability": "view",
      "type": "function",
      "constant": true
    },
    {
      "inputs": [
        {
          "internalType": "uint256",
          "name": "tokenId",
          "type": "uint256"
        }
      ],
      "name": "getTraitValues",
      "outputs": [
        {
          "internalType": "string[]",
          "name": "",
          "type": "string[]"
        }
      ],
      "stateMutability": "view",
      "type": "function",
      "constant": true
    },
    {
      "inputs": [
        {
          "internalType": "uint256",
          "name": "tokenId",
          "type": "uint256"
        }
      ],
      "name": "getTraitDominances",
      "outputs": [
        {
          "internalType": "uint256[]",
          "name": "",
          "type": "uint256[]"
        }
      ],
      "stateMutability": "view",
      "type": "function",
      "constant": true
    },
    {
      "inputs": [
        {
          "internalType": "address payable",
          "name": "payee",
          "type": "address"
        }
      ],
      "name": "withdrawPayments",
      "outputs": [],
      "stateMutability": "nonpayable",
      "type": "function"
    },
    {
      "inputs": [
        {
          "internalType": "bytes4",
          "name": "interfaceId",
          "type": "bytes4"
        }
      ],
      "name": "supportsInterface",
      "outputs": [
        {
          "internalType": "bool",
          "name": "",
          "type": "bool"
        }
      ],
      "stateMutability": "view",
      "type": "function",
      "constant": true
    },
    {
      "inputs": [
        {
          "internalType": "uint256",
          "name": "tokenId",
          "type": "uint256"
        }
      ],
      "name": "tokenURI",
      "outputs": [
        {
          "internalType": "string",
          "name": "",
          "type": "string"
        }
      ],
      "stateMutability": "view",
      "type": "function",
      "constant": true
    }
  ],
  "bytecode": "0x60a06040523480156200001157600080fd5b506040518060400160405280600c81526020016b15185c9d1a48105c9d1a5cdd60a21b81525060405180604001604052806007815260200166151054951254d560ca1b8152508160009081620000689190620001c8565b506001620000778282620001c8565b505050604051620000889062000115565b604051809103906000f080158015620000a5573d6000803e3d6000fd5b506001600160a01b0316608052620000bd33620000c3565b62000294565b600b80546001600160a01b038381166001600160a01b0319831681179093556040519116919082907f8be0079c531659141344cd1fd0a4f28419497f9722a3daafe3b4186f6b6457e090600090a35050565b6105a2806200366483390190565b634e487b7160e01b600052604160045260246000fd5b600181811c908216806200014e57607f821691505b6020821081036200016f57634e487b7160e01b600052602260045260246000fd5b50919050565b601f821115620001c357600081815260208120601f850160051c810160208610156200019e5750805b601f850160051c820191505b81811015620001bf57828155600101620001aa565b5050505b505050565b81516001600160401b03811115620001e457620001e462000123565b620001fc81620001f5845462000139565b8462000175565b602080601f8311600181146200023457600084156200021b5750858301515b600019600386901b1c1916600185901b178555620001bf565b600085815260208120601f198616915b82811015620002655788860151825594840194600190910190840162000244565b5085821015620002845787850151600019600388901b60f8161c191681555b5050505050600190811b01905550565b6080516133ad620002b76000396000818161167c0152611bb401526133ad6000f3fe6080604052600436106101cb5760003560e01c806301ffc9a7146101d057806306fdde0314610205578063081812fc14610227578063095ea7b31461025457806318160ddd1461027657806323b872dd146102955780632f745c59146102b557806330b64090146102d557806331806368146102f557806331b3eb941461031557806340eb171a1461033557806342842e0e146103555780634f6ccce714610375578063580a294b146103955780636352211e146103b1578063639eac2e146103d15780636bf1c36a146103f15780636ce75ea21461040c57806370a0823114610439578063715018a614610459578063750f681c1461046e578063751ee4731461048e5780638da5cb5b146104ae57806395d89b41146104c35780639ab5dc47146104d85780639b848ea9146104eb578063a22cb4651461050b578063adaa00e51461052b578063b543842e1461054b578063b88d4fde1461055e578063c87b56dd1461057e578063dc5effe71461059e578063ded865b7146105be578063e0b64371146105de578063e1dc07611461060b578063e2982c211461062b578063e8a3d4851461064b578063e985e9c514610660578063ee14918c14610680578063f2fde38b14610695575b600080fd5b3480156101dc57600080fd5b506101f06101eb366004612780565b6106b5565b60405190151581526020015b60405180910390f35b34801561021157600080fd5b5061021a6106c6565b6040516101fc91906127ed565b34801561023357600080fd5b50610247610242366004612800565b610758565b6040516101fc9190612819565b34801561026057600080fd5b5061027461026f366004612842565b61077f565b005b34801561028257600080fd5b506009545b6040519081526020016101fc565b3480156102a157600080fd5b506102746102b036600461286e565b610899565b3480156102c157600080fd5b506102876102d0366004612842565b6108ca565b3480156102e157600080fd5b5061021a6102f03660046128af565b610960565b34801561030157600080fd5b506102746103103660046128e6565b610a19565b34801561032157600080fd5b50610274610330366004612972565b610aee565b34801561034157600080fd5b50610274610350366004612972565b610b02565b34801561036157600080fd5b5061027461037036600461286e565b610b2c565b34801561038157600080fd5b50610287610390366004612800565b610b47565b3480156103a157600080fd5b5061028767027f7d0bdb92000081565b3480156103bd57600080fd5b506102476103cc366004612800565b610bda565b3480156103dd57600080fd5b506102746103ec366004612800565b610c0e565b3480156103fd57600080fd5b5061028766aa87bee538000081565b34801561041857600080fd5b5061042c610427366004612800565b610c41565b6040516101fc919061298f565b34801561044557600080fd5b50610287610454366004612972565b610ca3565b34801561046557600080fd5b50610274610d29565b34801561047a57600080fd5b50610287610489366004612800565b610d3d565b34801561049a57600080fd5b506102876104a93660046128af565b610d5e565b3480156104ba57600080fd5b50610247610d8f565b3480156104cf57600080fd5b5061021a610d9e565b6102876104e63660046129e4565b610dad565b3480156104f757600080fd5b506102746105063660046129ff565b610efc565b34801561051757600080fd5b50610274610526366004612a2b565b610fc4565b34801561053757600080fd5b506102876105463660046128af565b610fcf565b610287610559366004612c28565b610feb565b34801561056a57600080fd5b50610274610579366004612d19565b61140a565b34801561058a57600080fd5b5061021a610599366004612800565b61143c565b3480156105aa57600080fd5b5061021a6105b9366004612800565b611447565b3480156105ca57600080fd5b506102746105d9366004612d8c565b611460565b3480156105ea57600080fd5b506105fe6105f9366004612800565b611516565b6040516101fc9190612dd2565b34801561061757600080fd5b5061042c610626366004612800565b611602565b34801561063757600080fd5b50610287610646366004612972565b611662565b34801561065757600080fd5b5061021a6116f2565b34801561066c57600080fd5b506101f061067b366004612e34565b611712565b34801561068c57600080fd5b5061042c611740565b3480156106a157600080fd5b506102746106b0366004612972565b611797565b60006106c08261180d565b92915050565b6060600080546106d590612e6d565b80601f016020809104026020016040519081016040528092919081815260200182805461070190612e6d565b801561074e5780601f106107235761010080835404028352916020019161074e565b820191906000526020600020905b81548152906001019060200180831161073157829003601f168201915b5050505050905090565b600061076382611832565b506000908152600460205260409020546001600160a01b031690565b600061078a82610bda565b9050806001600160a01b0316836001600160a01b0316036107fc5760405162461bcd60e51b815260206004820152602160248201527f4552433732313a20617070726f76616c20746f2063757272656e74206f776e656044820152603960f91b60648201526084015b60405180910390fd5b336001600160a01b038216148061081857506108188133611712565b61088a5760405162461bcd60e51b815260206004820152603d60248201527f4552433732313a20617070726f76652063616c6c6572206973206e6f7420746f60448201527f6b656e206f776e6572206f7220617070726f76656420666f7220616c6c00000060648201526084016107f3565b6108948383611857565b505050565b6108a333826118c5565b6108bf5760405162461bcd60e51b81526004016107f390612ea7565b610894838383611923565b60006108d583610ca3565b82106109375760405162461bcd60e51b815260206004820152602b60248201527f455243373231456e756d657261626c653a206f776e657220696e646578206f7560448201526a74206f6620626f756e647360a81b60648201526084016107f3565b506001600160a01b03919091166000908152600760209081526040808320938352929052205490565b6011602052816000526040600020818154811061097c57600080fd5b9060005260206000200160009150915050805461099890612e6d565b80601f01602080910402602001604051908101604052809291908181526020018280546109c490612e6d565b8015610a115780601f106109e657610100808354040283529160200191610a11565b820191906000526020600020905b8154815290600101906020018083116109f457829003601f168201915b505050505081565b610a21611a82565b8015610abd576013546001600160a01b0316610a4f5760405162461bcd60e51b81526004016107f390612ef4565b601354604051636a71167960e11b81526001600160a01b0390911690819063d4e22cf290610a8590889088908890600401612f21565b600060405180830381600087803b158015610a9f57600080fd5b505af1158015610ab3573d6000803e3d6000fd5b5050505050610ae8565b610ae8848484604051602001610ad4929190612f57565b604051602081830303815290604052611ae1565b50505050565b610af6611a82565b610aff81611b9d565b50565b610b0a611a82565b601380546001600160a01b0319166001600160a01b0392909216919091179055565b6108948383836040518060200160405280600081525061140a565b6000610b5260095490565b8210610bb55760405162461bcd60e51b815260206004820152602c60248201527f455243373231456e756d657261626c653a20676c6f62616c20696e646578206f60448201526b7574206f6620626f756e647360a01b60648201526084016107f3565b60098281548110610bc857610bc8612f67565b90600052602060002001549050919050565b600080610be683611c1e565b90506001600160a01b0381166106c05760405162461bcd60e51b81526004016107f390612f7d565b610c16611a82565b6040805160208082018352600080835284815260109091529190912090610c3d9082612ffd565b5050565b6000818152600f6020908152604091829020805483518184028101840190945280845260609392830182828015610c9757602002820191906000526020600020905b815481526020019060010190808311610c83575b50505050509050919050565b60006001600160a01b038216610d0d5760405162461bcd60e51b815260206004820152602960248201527f4552433732313a2061646472657373207a65726f206973206e6f7420612076616044820152683634b21037bbb732b960b91b60648201526084016107f3565b506001600160a01b031660009081526003602052604090205490565b610d31611a82565b610d3b6000611c39565b565b600d8181548110610d4d57600080fd5b600091825260209091200154905081565b600e6020528160005260406000208181548110610d7a57600080fd5b90600052602060002001600091509150505481565b600b546001600160a01b031690565b6060600180546106d590612e6d565b6013546000906001600160a01b0316610dd85760405162461bcd60e51b81526004016107f390612ef4565b66aa87bee53800003414610e255760405162461bcd60e51b815260206004820152601460248201527336bab9ba1039b2b7321031b7b6b6b4b9b9b4b7b760611b60448201526064016107f3565b610e318260ff16610bda565b6001600160a01b0316336001600160a01b031614610e7c5760405162461bcd60e51b81526020600482015260086024820152676e6f72696768747360c01b60448201526064016107f3565b601354604051639e31203160e01b815233600482015260ff841660248201526001600160a01b03909116908190639e312031906044016020604051808303816000875af1158015610ed1573d6000803e3d6000fd5b505050506040513d601f19601f82011682018060405250810190610ef591906130bc565b9392505050565b610f04611a82565b8015610f97576013546001600160a01b0316610f325760405162461bcd60e51b81526004016107f390612ef4565b601354604051632d0de82160e01b8152600481018490526001600160a01b03909116908190632d0de82190602401600060405180830381600087803b158015610f7a57600080fd5b505af1158015610f8e573d6000803e3d6000fd5b50505050505050565b610c3d826040518060600160405280602e815260200161331c602e9139604051602001610ad491906130d5565b610c3d338383611c8b565b600f6020528160005260406000208181548110610d7a57600080fd5b600067027f7d0bdb920000341461105b5760405162461bcd60e51b815260206004820152602e60248201527f5472616e73616374696f6e2076616c756520646964206e6f7420657175616c2060448201526d746865206d696e7420707269636560901b60648201526084016107f3565b606484511061109e5760405162461bcd60e51b815260206004820152600f60248201526e546f6f206d616e792074726169747360881b60448201526064016107f3565b60648351106110e75760405162461bcd60e51b8152602060048201526015602482015274546f6f206d616e792074726169742076616c75657360581b60448201526064016107f3565b60648251106111335760405162461bcd60e51b8152602060048201526018602482015277546f6f206d616e7920747261697420646f6d696e616e636560401b60448201526064016107f3565b60005b84518110156111d35760006010600087848151811061115757611157612f67565b60200260200101518152602001908152602001600020805461117890612e6d565b9050116111c15760405162461bcd60e51b8152602060048201526017602482015276125b9d985b1a59081d1c985a5d081cdc1958da599a5959604a1b60448201526064016107f3565b806111cb81613107565b915050611136565b50606060005b855181101561123257818682815181106111f5576111f5612f67565b602002602001015160405160200161120e929190613120565b6040516020818303038152906040529150808061122a90613107565b9150506111d9565b50606060005b8551811015611291578186828151811061125457611254612f67565b602002602001015160405160200161126d929190613142565b6040516020818303038152906040529150808061128990613107565b915050611238565b50600082826040516020016112a7929190613142565b60408051601f1981840301815291815281516020928301206000818152600c90935291205490915060ff16151560010361132e5760405162461bcd60e51b815260206004820152602260248201527f426f742067656e657469637320617265206e6f7420756e6971756520656e6f756044820152610ced60f31b60648201526084016107f3565b6000818152600c60205260409020805460ff19166001179055611355601280546001019055565b600061136060125490565b6000818152600e602090815260409091208a519293506113849290918b0190612621565b50600081815260116020908152604090912088516113a4928a019061266c565b506000818152600f6020908152604090912087516113c4928901906126be565b506113cf8982611d55565b6113fc816040518060600160405280602e815260200161334a602e9139604051602001610ad491906130d5565b93505050505b949350505050565b61141433836118c5565b6114305760405162461bcd60e51b81526004016107f390612ea7565b610ae884848484611d6f565b60606106c082611da2565b6010602052600090815260409020805461099890612e6d565b611468611a82565b6000828152601060205260409020805461148190612e6d565b1590506114c75760405162461bcd60e51b8152602060048201526014602482015273547261697420616c72656164792065786973747360601b60448201526064016107f3565b60008281526010602052604090206114df8282612ffd565b5050600d80546001810182556000919091527fd7b6990105719101dabeb77144f2a3385c8033acd3af97e9423a695e81ad1eb50155565b606060116000838152602001908152602001600020805480602002602001604051908101604052809291908181526020016000905b828210156115f757838290600052602060002001805461156a90612e6d565b80601f016020809104026020016040519081016040528092919081815260200182805461159690612e6d565b80156115e35780601f106115b8576101008083540402835291602001916115e3565b820191906000526020600020905b8154815290600101906020018083116115c657829003601f168201915b50505050508152602001906001019061154b565b505050509050919050565b6000818152600e6020908152604091829020805483518184028101840190945280845260609392830182828015610c975760200282019190600052602060002090815481526020019060010190808311610c835750505050509050919050565b6040516371d4ed8d60e11b81526000906001600160a01b037f0000000000000000000000000000000000000000000000000000000000000000169063e3a9db1a906116b1908590600401612819565b602060405180830381865afa1580156116ce573d6000803e3d6000fd5b505050506040513d601f19601f820116820180604052508101906106c091906130bc565b60606040518060600160405280603a81526020016132c2603a9139905090565b6001600160a01b03918216600090815260056020908152604080832093909416825291909152205460ff1690565b6060600d80548060200260200160405190810160405280929190818152602001828054801561074e57602002820191906000526020600020905b81548152602001906001019080831161177a575050505050905090565b61179f611a82565b6001600160a01b0381166118045760405162461bcd60e51b815260206004820152602660248201527f4f776e61626c653a206e6577206f776e657220697320746865207a65726f206160448201526564647265737360d01b60648201526084016107f3565b610aff81611c39565b60006001600160e01b0319821663780e9d6360e01b14806106c057506106c082611e9d565b61183b81611ec2565b610aff5760405162461bcd60e51b81526004016107f390612f7d565b600081815260046020526040902080546001600160a01b0319166001600160a01b038416908117909155819061188c82610bda565b6001600160a01b03167f8c5be1e5ebec7d5bd14f71427d1e84f3dd0314c0f7b2291e5b200ac8c7c3b92560405160405180910390a45050565b6000806118d183610bda565b9050806001600160a01b0316846001600160a01b031614806118f857506118f88185611712565b806114025750836001600160a01b031661191184610758565b6001600160a01b031614949350505050565b826001600160a01b031661193682610bda565b6001600160a01b03161461195c5760405162461bcd60e51b81526004016107f390613171565b6001600160a01b0382166119be5760405162461bcd60e51b8152602060048201526024808201527f4552433732313a207472616e7366657220746f20746865207a65726f206164646044820152637265737360e01b60648201526084016107f3565b6119cb8383836001611edf565b826001600160a01b03166119de82610bda565b6001600160a01b031614611a045760405162461bcd60e51b81526004016107f390613171565b600081815260046020908152604080832080546001600160a01b03199081169091556001600160a01b0387811680865260038552838620805460001901905590871680865283862080546001019055868652600290945282852080549092168417909155905184936000805160206132fc83398151915291a4505050565b33611a8b610d8f565b6001600160a01b031614610d3b5760405162461bcd60e51b815260206004820181905260248201527f4f776e61626c653a2063616c6c6572206973206e6f7420746865206f776e657260448201526064016107f3565b611aea82611ec2565b611b4d5760405162461bcd60e51b815260206004820152602e60248201527f45524337323155524953746f726167653a2055524920736574206f66206e6f6e60448201526d32bc34b9ba32b73a103a37b5b2b760911b60648201526084016107f3565b6000828152600660205260409020611b658282612ffd565b506040518281527ff8e1a15aba9398e019f0b49df1a4fde98ee17ae345cb5f6b5e2c27f5033e8ce79060200160405180910390a15050565b6040516351cff8d960e01b81526001600160a01b037f000000000000000000000000000000000000000000000000000000000000000016906351cff8d990611be9908490600401612819565b600060405180830381600087803b158015611c0357600080fd5b505af1158015611c17573d6000803e3d6000fd5b5050505050565b6000908152600260205260409020546001600160a01b031690565b600b80546001600160a01b038381166001600160a01b0319831681179093556040519116919082907f8be0079c531659141344cd1fd0a4f28419497f9722a3daafe3b4186f6b6457e090600090a35050565b816001600160a01b0316836001600160a01b031603611ce85760405162461bcd60e51b815260206004820152601960248201527822a9219b99189d1030b8383937bb32903a379031b0b63632b960391b60448201526064016107f3565b6001600160a01b03838116600081815260056020908152604080832094871680845294825291829020805460ff191686151590811790915591519182527f17307eab39ab6107e8899845ad3d59bd9653f200f220920489ca2b5937696c31910160405180910390a3505050565b610c3d828260405180602001604052806000815250611eeb565b611d7a848484611923565b611d8684848484611f1e565b610ae85760405162461bcd60e51b81526004016107f3906131b6565b6060611dad82611832565b60008281526006602052604081208054611dc690612e6d565b80601f0160208091040260200160405190810160405280929190818152602001828054611df290612e6d565b8015611e3f5780601f10611e1457610100808354040283529160200191611e3f565b820191906000526020600020905b815481529060010190602001808311611e2257829003601f168201915b505050505090506000611e5061201c565b90508051600003611e62575092915050565b815115611e94578082604051602001611e7c929190613142565b60405160208183030381529060405292505050919050565b6114028461203d565b60006001600160e01b03198216632483248360e11b14806106c057506106c0826120a3565b600080611ece83611c1e565b6001600160a01b0316141592915050565b610ae8848484846120f3565b611ef58383612220565b611f026000848484611f1e565b6108945760405162461bcd60e51b81526004016107f3906131b6565b60006001600160a01b0384163b1561201457604051630a85bd0160e11b81526001600160a01b0385169063150b7a0290611f62903390899088908890600401613208565b6020604051808303816000875af1925050508015611f9d575060408051601f3d908101601f19168201909252611f9a91810190613245565b60015b611ffa573d808015611fcb576040519150601f19603f3d011682016040523d82523d6000602084013e611fd0565b606091505b508051600003611ff25760405162461bcd60e51b81526004016107f3906131b6565b805181602001fd5b6001600160e01b031916630a85bd0160e11b149050611402565b506001611402565b604080518082019091526007815266697066733a2f2f60c81b602082015290565b606061204882611832565b600061205261201c565b905060008151116120725760405180602001604052806000815250610ef5565b8061207c84612329565b60405160200161208d929190613142565b6040516020818303038152906040529392505050565b60006001600160e01b031982166380ac58cd60e01b14806120d457506001600160e01b03198216635b5e139f60e01b145b806106c057506301ffc9a760e01b6001600160e01b03198316146106c0565b60018111156121625760405162461bcd60e51b815260206004820152603560248201527f455243373231456e756d657261626c653a20636f6e7365637574697665207472604482015274185b9cd9995c9cc81b9bdd081cdd5c1c1bdc9d1959605a1b60648201526084016107f3565b816001600160a01b0385166121be576121b981600980546000838152600a60205260408120829055600182018355919091527f6e1540171b6c0c960b71a7020d9f60077f6af931a8bbf590da0223dacf75c7af0155565b6121e1565b836001600160a01b0316856001600160a01b0316146121e1576121e185826123bb565b6001600160a01b0384166121fd576121f881612458565b611c17565b846001600160a01b0316846001600160a01b031614611c1757611c178482612507565b6001600160a01b0382166122765760405162461bcd60e51b815260206004820181905260248201527f4552433732313a206d696e7420746f20746865207a65726f206164647265737360448201526064016107f3565b61227f81611ec2565b1561229c5760405162461bcd60e51b81526004016107f390613262565b6122aa600083836001611edf565b6122b381611ec2565b156122d05760405162461bcd60e51b81526004016107f390613262565b6001600160a01b038216600081815260036020908152604080832080546001019055848352600290915280822080546001600160a01b0319168417905551839291906000805160206132fc833981519152908290a45050565b606060006123368361254b565b60010190506000816001600160401b0381111561235557612355612a57565b6040519080825280601f01601f19166020018201604052801561237f576020820181803683370190505b5090508181016020015b600019016f181899199a1a9b1b9c1cb0b131b232b360811b600a86061a8153600a850494508461238957509392505050565b600060016123c884610ca3565b6123d29190613298565b600083815260086020526040902054909150808214612425576001600160a01b03841660009081526007602090815260408083208584528252808320548484528184208190558352600890915290208190555b5060009182526008602090815260408084208490556001600160a01b039094168352600781528383209183525290812055565b60095460009061246a90600190613298565b6000838152600a60205260408120546009805493945090928490811061249257612492612f67565b9060005260206000200154905080600983815481106124b3576124b3612f67565b6000918252602080832090910192909255828152600a909152604080822084905585825281205560098054806124eb576124eb6132ab565b6001900381819060005260206000200160009055905550505050565b600061251283610ca3565b6001600160a01b039093166000908152600760209081526040808320868452825280832085905593825260089052919091209190915550565b60008072184f03e93ff9f4daa797ed6e38ed64bf6a1f0160401b831061258a5772184f03e93ff9f4daa797ed6e38ed64bf6a1f0160401b830492506040015b6904ee2d6d415b85acef8160201b83106125b4576904ee2d6d415b85acef8160201b830492506020015b662386f26fc1000083106125d257662386f26fc10000830492506010015b6305f5e10083106125ea576305f5e100830492506008015b61271083106125fe57612710830492506004015b60648310612610576064830492506002015b600a83106106c05760010192915050565b82805482825590600052602060002090810192821561265c579160200282015b8281111561265c578251825591602001919060010190612641565b506126689291506126fe565b5090565b8280548282559060005260206000209081019282156126b2579160200282015b828111156126b257825182906126a29082612ffd565b509160200191906001019061268c565b50612668929150612713565b82805482825590600052602060002090810192821561265c579160200282015b8281111561265c578251829060ff169055916020019190600101906126de565b5b8082111561266857600081556001016126ff565b808211156126685760006127278282612730565b50600101612713565b50805461273c90612e6d565b6000825580601f1061274c575050565b601f016020900490600052602060002090810190610aff91906126fe565b6001600160e01b031981168114610aff57600080fd5b60006020828403121561279257600080fd5b8135610ef58161276a565b60005b838110156127b85781810151838201526020016127a0565b50506000910152565b600081518084526127d981602086016020860161279d565b601f01601f19169290920160200192915050565b602081526000610ef560208301846127c1565b60006020828403121561281257600080fd5b5035919050565b6001600160a01b0391909116815260200190565b6001600160a01b0381168114610aff57600080fd5b6000806040838503121561285557600080fd5b82356128608161282d565b946020939093013593505050565b60008060006060848603121561288357600080fd5b833561288e8161282d565b9250602084013561289e8161282d565b929592945050506040919091013590565b600080604083850312156128c257600080fd5b50508035926020909101359150565b803580151581146128e157600080fd5b919050565b600080600080606085870312156128fc57600080fd5b8435935060208501356001600160401b038082111561291a57600080fd5b818701915087601f83011261292e57600080fd5b81358181111561293d57600080fd5b88602082850101111561294f57600080fd5b602083019550809450505050612967604086016128d1565b905092959194509250565b60006020828403121561298457600080fd5b8135610ef58161282d565b6020808252825182820181905260009190848201906040850190845b818110156129c7578351835292840192918401916001016129ab565b50909695505050505050565b803560ff811681146128e157600080fd5b6000602082840312156129f657600080fd5b610ef5826129d3565b60008060408385031215612a1257600080fd5b82359150612a22602084016128d1565b90509250929050565b60008060408385031215612a3e57600080fd5b8235612a498161282d565b9150612a22602084016128d1565b634e487b7160e01b600052604160045260246000fd5b604051601f8201601f191681016001600160401b0381118282101715612a9557612a95612a57565b604052919050565b60006001600160401b03821115612ab657612ab6612a57565b5060051b60200190565b60006001600160401b03831115612ad957612ad9612a57565b612aec601f8401601f1916602001612a6d565b9050828152838383011115612b0057600080fd5b828260208301376000602084830101529392505050565b600082601f830112612b2857600080fd5b610ef583833560208501612ac0565b600082601f830112612b4857600080fd5b81356020612b5d612b5883612a9d565b612a6d565b82815260059290921b84018101918181019086841115612b7c57600080fd5b8286015b84811015612bbb5780356001600160401b03811115612b9f5760008081fd5b612bad8986838b0101612b17565b845250918301918301612b80565b509695505050505050565b600082601f830112612bd757600080fd5b81356020612be7612b5883612a9d565b82815260059290921b84018101918181019086841115612c0657600080fd5b8286015b84811015612bbb57612c1b816129d3565b8352918301918301612c0a565b60008060008060808587031215612c3e57600080fd5b8435612c498161282d565b93506020858101356001600160401b0380821115612c6657600080fd5b818801915088601f830112612c7a57600080fd5b8135612c88612b5882612a9d565b81815260059190911b8301840190848101908b831115612ca757600080fd5b938501935b82851015612cc557843582529385019390850190612cac565b975050506040880135925080831115612cdd57600080fd5b612ce989848a01612b37565b94506060880135925080831115612cff57600080fd5b5050612d0d87828801612bc6565b91505092959194509250565b60008060008060808587031215612d2f57600080fd5b8435612d3a8161282d565b93506020850135612d4a8161282d565b92506040850135915060608501356001600160401b03811115612d6c57600080fd5b8501601f81018713612d7d57600080fd5b612d0d87823560208401612ac0565b60008060408385031215612d9f57600080fd5b8235915060208301356001600160401b03811115612dbc57600080fd5b612dc885828601612b17565b9150509250929050565b6000602080830181845280855180835260408601915060408160051b870101925083870160005b82811015612e2757603f19888603018452612e158583516127c1565b94509285019290850190600101612df9565b5092979650505050505050565b60008060408385031215612e4757600080fd5b8235612e528161282d565b91506020830135612e628161282d565b809150509250929050565b600181811c90821680612e8157607f821691505b602082108103612ea157634e487b7160e01b600052602260045260246000fd5b50919050565b6020808252602d908201527f4552433732313a2063616c6c6572206973206e6f7420746f6b656e206f776e6560408201526c1c881bdc88185c1c1c9bdd9959609a1b606082015260800190565b6020808252601390820152721d185c9d1a58dbdb9d1c9858dd1b9bdd1cd95d606a1b604082015260600190565b83815260406020820152816040820152818360608301376000818301606090810191909152601f909201601f1916010192915050565b8183823760009101908152919050565b634e487b7160e01b600052603260045260246000fd5b602080825260189082015277115490cdcc8c4e881a5b9d985b1a59081d1bdad95b88125160421b604082015260600190565b601f82111561089457600081815260208120601f850160051c81016020861015612fd65750805b601f850160051c820191505b81811015612ff557828155600101612fe2565b505050505050565b81516001600160401b0381111561301657613016612a57565b61302a816130248454612e6d565b84612faf565b602080601f83116001811461305f57600084156130475750858301515b600019600386901b1c1916600185901b178555612ff5565b600085815260208120601f198616915b8281101561308e5788860151825594840194600190910190840161306f565b50858210156130ac5787850151600019600388901b60f8161c191681555b5050505050600190811b01905550565b6000602082840312156130ce57600080fd5b5051919050565b600082516130e781846020870161279d565b9190910192915050565b634e487b7160e01b600052601160045260246000fd5b600060018201613119576131196130f1565b5060010190565b6000835161313281846020880161279d565b9190910191825250602001919050565b6000835161315481846020880161279d565b83519083019061316881836020880161279d565b01949350505050565b60208082526025908201527f4552433732313a207472616e736665722066726f6d20696e636f72726563742060408201526437bbb732b960d91b606082015260800190565b60208082526032908201527f4552433732313a207472616e7366657220746f206e6f6e20455243373231526560408201527131b2b4bb32b91034b6b83632b6b2b73a32b960711b606082015260800190565b6001600160a01b038581168252841660208201526040810183905260806060820181905260009061323b908301846127c1565b9695505050505050565b60006020828403121561325757600080fd5b8151610ef58161276a565b6020808252601c908201527b115490cdcc8c4e881d1bdad95b88185b1c9958591e481b5a5b9d195960221b604082015260600190565b818103818111156106c0576106c06130f1565b634e487b7160e01b600052603160045260246000fdfe687474703a2f2f74617274697075626c696366696c65732e74617274696172742e636f6d2f546172746973742e6d657461646174612e6a736f6eddf252ad1be2c89b69c2b068fc378daa952ba7f163c4a11628f55a4df523b3ef516d52756a6f3736396f7643787a6f4247656973516b55576e3238787631576a315a38366a57706d4b44665a424d516d646e3956444d63665872503956455942356735715345415a7355364a5a733639643971796e45545070433643a2646970667358221220aa75bdc315a964f258f0e67fd168e638caedcee2c080d203e74d1ce2215963d964736f6c63430008120033608060405234801561001057600080fd5b5061001a3361001f565b61006f565b600080546001600160a01b038381166001600160a01b0319831681178455604051919092169283917f8be0079c531659141344cd1fd0a4f28419497f9722a3daafe3b4186f6b6457e09190a35050565b6105248061007e6000396000f3fe6080604052600436106100555760003560e01c806351cff8d91461005a578063715018a61461007c5780638da5cb5b14610091578063e3a9db1a146100c3578063f2fde38b14610107578063f340fa0114610127575b600080fd5b34801561006657600080fd5b5061007a6100753660046104a3565b61013a565b005b34801561008857600080fd5b5061007a6101b1565b34801561009d57600080fd5b506100a66101c5565b6040516001600160a01b0390911681526020015b60405180910390f35b3480156100cf57600080fd5b506100f96100de3660046104a3565b6001600160a01b031660009081526001602052604090205490565b6040519081526020016100ba565b34801561011357600080fd5b5061007a6101223660046104a3565b6101d4565b61007a6101353660046104a3565b610252565b6101426102c4565b6001600160a01b038116600081815260016020526040812080549190559061016a9082610323565b816001600160a01b03167f7084f5476618d8e60b11ef0d7d3f06914655adb8793e28ff7f018d4c76d505d5826040516101a591815260200190565b60405180910390a25050565b6101b96102c4565b6101c3600061043e565b565b6000546001600160a01b031690565b6101dc6102c4565b6001600160a01b0381166102465760405162461bcd60e51b815260206004820152602660248201527f4f776e61626c653a206e6577206f776e657220697320746865207a65726f206160448201526564647265737360d01b60648201526084015b60405180910390fd5b61024f8161043e565b50565b61025a6102c4565b6001600160a01b0381166000908152600160205260408120805434928392916102849084906104c7565b90915550506040518181526001600160a01b038316907f2da466a7b24304f47e87fa2e1e5a81b9831ce54fec19055ce277ca2f39ba42c4906020016101a5565b336102cd6101c5565b6001600160a01b0316146101c35760405162461bcd60e51b815260206004820181905260248201527f4f776e61626c653a2063616c6c6572206973206e6f7420746865206f776e6572604482015260640161023d565b804710156103735760405162461bcd60e51b815260206004820152601d60248201527f416464726573733a20696e73756666696369656e742062616c616e6365000000604482015260640161023d565b6000826001600160a01b03168260405160006040518083038185875af1925050503d80600081146103c0576040519150601f19603f3d011682016040523d82523d6000602084013e6103c5565b606091505b50509050806104395760405162461bcd60e51b815260206004820152603a60248201527f416464726573733a20756e61626c6520746f2073656e642076616c75652c20726044820152791958da5c1a595b9d081b585e481a185d99481c995d995c9d195960321b606482015260840161023d565b505050565b600080546001600160a01b038381166001600160a01b0319831681178455604051919092169283917f8be0079c531659141344cd1fd0a4f28419497f9722a3daafe3b4186f6b6457e09190a35050565b6001600160a01b038116811461024f57600080fd5b6000602082840312156104b557600080fd5b81356104c08161048e565b9392505050565b808201808211156104e857634e487b7160e01b600052601160045260246000fd5b9291505056fea26469706673582212201db7b560f8a587875f655b0c70bd5a1c071d3efcf05cc3ab888bc5b1b66396ef64736f6c63430008120033",
  "immutableReferences": {
    "147": [
      {
        "length": 32,
        "start": 5756
      },
      {
        "length": 32,
        "start": 7092
      }
    ]
  },
  "source": "// SPDX-License-Identifier: MIT\npragma solidity ^0.8.18;\n\nimport \"@openzeppelin/contracts/token/ERC721/extensions/ERC721URIStorage.sol\";\nimport \"@openzeppelin/contracts/utils/Counters.sol\";\nimport \"@openzeppelin/contracts/security/PullPayment.sol\";\nimport \"@openzeppelin/contracts/access/Ownable.sol\";\nimport \"./Tarti.sol\";\n\ncontract Tartist is ERC721URIStorage, ERC721Enumerable, PullPayment, Ownable {\n    using Counters for Counters.Counter;\n\n    uint256 public constant MINT_TARTIST_PRICE = 0.18 ether;\n    uint256 public constant MINT_TARTI_PRICE = 0.048 ether;\n    bytes private constant _newMetadataCid =\n        \"Qmdn9VDMcfXrP9VEYB5g5qSEAZsU6JZs69d9qynETPpC6C\";\n    bytes private constant _inProcessMetadataCid =\n        \"QmRujo769ovCxzoBGeisQkUWn28xv1Wj1Z86jWpmKDfZBM\";\n    mapping(bytes32 => bool) private _usedTraitComboHashes;\n\n    uint256[] public allTraits;\n    mapping(uint256 => uint256[]) public botTraits;\n    mapping(uint256 => uint256[]) public botTraitDominances;\n    mapping(uint256 => string) public availableTraits;\n    mapping(uint256 => string[]) public botTraitValues;\n\n    Counters.Counter private _currentTokenId;\n    address private _tartiAddr;\n\n    constructor() ERC721(\"Tarti Artist\", \"TARTIST\") {}\n\n    /**\n        `traitName` will either be:\n        - The name of the Trait class (ie MusicProducer)\n        - The name of the Trait with dot then the name of the trait prop appended (ie DynMusicProductionStyle.FavoriteKeys)\n        -- In this case the TraitAI trait being added to the bot is DynMusicProductionStyle, \n        -- and the prop the value wll map to is FavoriteKeys.\n        -- This flat structure will be nice for the NFT metadata to be standard and easy.\n        -- When it gets sent into the TraitHttpIO we will need to pull out the props and put them all beneath the same single trait.\n     */\n    function addTrait(\n        uint256 traitCode,\n        string memory traitName\n    ) public onlyOwner {\n        require(\n            bytes(availableTraits[traitCode]).length == 0,\n            \"Trait already exists\"\n        );\n        availableTraits[traitCode] = traitName;\n        allTraits.push(traitCode);\n    }\n\n    function cancelTrait(uint256 traitCode) public onlyOwner {\n        availableTraits[traitCode] = \"\";\n\n        //doesnt provide any use to remove it from allTraits, waste of gas. So we will just leave it.\n    }\n\n    function getAllTraits() external view returns (uint256[] memory) {\n        return allTraits;\n    }\n\n    function giveBirth(\n        address recipient,\n        uint256[] memory traits,\n        string[] memory dynamicTraitValues,\n        uint8[] memory traitDominance\n    ) public payable returns (uint256) {\n        require(\n            msg.value == MINT_TARTIST_PRICE,\n            \"Transaction value did not equal the mint price\"\n        );\n        require(traits.length < 100, \"Too many traits\");\n        require(dynamicTraitValues.length < 100, \"Too many trait values\");\n        require(traitDominance.length < 100, \"Too many trait dominance\");\n\n        //check that the passed traits are valid\n        for (uint256 i = 0; i < traits.length; i++) {\n            require(\n                bytes(availableTraits[traits[i]]).length > 0,\n                \"Invalid trait specified\"\n            );\n        }\n\n        //can optimize the heck out of this stuff but resisting for now.\n        //Dont set storage vars in loops!\n        bytes memory traitBytes;\n        for (uint256 i = 0; i < traits.length; i++) {\n            traitBytes = abi.encodePacked(traitBytes, traits[i]);\n        }\n\n        bytes memory dynTraitValuesBytes;\n        for (uint256 i = 0; i < dynamicTraitValues.length; i++) {\n            dynTraitValuesBytes = abi.encodePacked(\n                dynTraitValuesBytes,\n                dynamicTraitValues[i]\n            );\n        }\n        bytes32 botTraitsHash = keccak256(\n            bytes.concat(traitBytes, dynTraitValuesBytes)\n        );\n        require(\n            _usedTraitComboHashes[botTraitsHash] != true,\n            \"Bot genetics are not unique enough\"\n        );\n\n        _usedTraitComboHashes[botTraitsHash] = true;\n        _currentTokenId.increment();\n        uint256 newItemId = _currentTokenId.current();\n        botTraits[newItemId] = traits;\n        botTraitValues[newItemId] = dynamicTraitValues;\n        botTraitDominances[newItemId] = traitDominance;\n        _safeMint(recipient, newItemId);\n        _setTokenURI(newItemId, string(abi.encodePacked(_newMetadataCid)));\n        return newItemId;\n    }\n\n    function newArt(uint8 artistId) public payable returns (uint256) {\n        //address canot be blank\n        require(_tartiAddr != address(0), \"tarticontractnotset\");\n        require(msg.value == MINT_TARTI_PRICE, \"must send commission\"); //.01 eth\n\n        //call newArt on the Tarti contract\n        //Tarti only allows this contract to call that method\n        //Tell the new art method who the artist is\n\n        //First check that the caller is the owner of the artist\n        //if an artist has no owner, I forget who is allowed to use it? (maybe anyone but only if I get commissions)\n        //thats a good idea. For ownerless i get commissions. for owned I dont\n\n        //norights = specified artist is not contractually obligated, nor even allowed, to make any art for you.\n        require(msg.sender == ownerOf(artistId), \"norights\");\n\n        //use the art contract to create a new Tart token\n        //Trait engine will see the new Art on the blockchain and create the art\n        //the art package url will be based on the Tart tokenId\n        //we will own the dns of whatever we use for IPFS so we can pre generate here and guarantee to have it\n\n        Tarti tarti = Tarti(_tartiAddr);\n\n        return tarti.newArt(msg.sender, artistId);\n    }\n\n    /// @dev Returns an URI for a given token ID\n    function _baseURI() internal pure override returns (string memory) {\n        return \"ipfs://\";\n    }\n\n    function contractURI() public pure returns (string memory) {\n        return \"http://tartipublicfiles.tartiart.com/Tartist.metadata.json\";\n    }\n\n    function setTartiAddr(address tartiAddr) public onlyOwner {\n        _tartiAddr = tartiAddr;\n    }\n\n    function setCreationStarted(\n        uint256 tokenId,\n        bool onTarti\n    ) public onlyOwner {\n        if (onTarti) {\n            require(_tartiAddr != address(0), \"tarticontractnotset\");\n            Tarti tarti = Tarti(_tartiAddr);\n            return tarti.setCreationStarted(tokenId);\n        }\n        _setTokenURI(tokenId, string(abi.encodePacked(_inProcessMetadataCid)));\n    }\n\n    function setCreated(\n        uint256 tokenId,\n        bytes calldata cid,\n        bool onTarti\n    ) public onlyOwner {\n        if (onTarti) {\n            require(_tartiAddr != address(0), \"tarticontractnotset\");\n            Tarti tarti = Tarti(_tartiAddr);\n            return tarti.setCreated(tokenId, cid);\n        }\n        //Don't allow the URI to ever change once it is set!\n        //We ensure that the current URL is one of the default hashes.\n        //If its not, that means its already been set, so we will not reset it in that case.\n        //bytes32 tokenUriBytesHash = keccak256(bytes(tokenURI(tokenId))); //cant compare strings so lets compare hashes of strings\n        // if (\n        //     tokenUriBytesHash == keccak256(abi.encodePacked('ipfs://', _newMetadataCid)) ||\n        //     tokenUriBytesHash == keccak256(abi.encodePacked('ipfs://', _inProcessMetadataCid))\n        // ) {\n        _setTokenURI(tokenId, string(abi.encodePacked(cid)));\n        // }\n    }\n\n    function getTraits(\n        uint256 tokenId\n    ) external view returns (uint256[] memory) {\n        return botTraits[tokenId];\n    }\n\n    function getTraitValues(\n        uint256 tokenId\n    ) external view returns (string[] memory) {\n        return botTraitValues[tokenId];\n    }\n\n    function getTraitDominances(\n        uint256 tokenId\n    ) external view returns (uint256[] memory) {\n        return botTraitDominances[tokenId];\n    }\n\n    /// @dev Overridden in order to make it an onlyOwner function\n    function withdrawPayments(\n        address payable payee\n    ) public virtual override onlyOwner {\n        super.withdrawPayments(payee);\n    }\n\n    function _burn(\n        uint256 tokenId\n    ) internal override(ERC721, ERC721URIStorage) {\n        super._burn(tokenId);\n    }\n\n    function _beforeTokenTransfer(\n        address from,\n        address to,\n        uint256 firstTokenId,\n        uint256 batchSize\n    ) internal override(ERC721, ERC721Enumerable) {\n        super._beforeTokenTransfer(from, to, firstTokenId, batchSize);\n    }\n\n    function supportsInterface(\n        bytes4 interfaceId\n    ) public view override(ERC721Enumerable, ERC721URIStorage) returns (bool) {\n        return super.supportsInterface(interfaceId);\n    }\n\n    function tokenURI(\n        uint256 tokenId\n    ) public view override(ERC721, ERC721URIStorage) returns (string memory) {\n        return ERC721URIStorage.tokenURI(tokenId);\n    }\n}\n",
  "sourcePath": "/home/evan/tartst/contracts/Tartist.sol",
  "compiler": {
    "name": "solc",
    "version": "0.8.18+commit.87f61d96.Emscripten.clang"
  },
  "schemaVersion": "3.4.14",
  "updatedAt": "2023-07-15T01:47:57.452Z",
  "networkType": "ethereum",
  "devdoc": {
    "events": {
      "Approval(address,address,uint256)": {
        "details": "Emitted when `owner` enables `approved` to manage the `tokenId` token."
      },
      "ApprovalForAll(address,address,bool)": {
        "details": "Emitted when `owner` enables or disables (`approved`) `operator` to manage all of its assets."
      },
      "BatchMetadataUpdate(uint256,uint256)": {
        "details": "This event emits when the metadata of a range of tokens is changed. So that the third-party platforms such as NFT market could timely update the images and related attributes of the NFTs."
      },
      "MetadataUpdate(uint256)": {
        "details": "This event emits when the metadata of a token is changed. So that the third-party platforms such as NFT market could timely update the images and related attributes of the NFT."
      },
      "Transfer(address,address,uint256)": {
        "details": "Emitted when `tokenId` token is transferred from `from` to `to`."
      }
    },
    "kind": "dev",
    "methods": {
      "approve(address,uint256)": {
        "details": "See {IERC721-approve}."
      },
      "balanceOf(address)": {
        "details": "See {IERC721-balanceOf}."
      },
      "getApproved(uint256)": {
        "details": "See {IERC721-getApproved}."
      },
      "isApprovedForAll(address,address)": {
        "details": "See {IERC721-isApprovedForAll}."
      },
      "name()": {
        "details": "See {IERC721Metadata-name}."
      },
      "owner()": {
        "details": "Returns the address of the current owner."
      },
      "ownerOf(uint256)": {
        "details": "See {IERC721-ownerOf}."
      },
      "payments(address)": {
        "details": "Returns the payments owed to an address.",
        "params": {
          "dest": "The creditor's address."
        }
      },
      "renounceOwnership()": {
        "details": "Leaves the contract without owner. It will not be possible to call `onlyOwner` functions. Can only be called by the current owner. NOTE: Renouncing ownership will leave the contract without an owner, thereby disabling any functionality that is only available to the owner."
      },
      "safeTransferFrom(address,address,uint256)": {
        "details": "See {IERC721-safeTransferFrom}."
      },
      "safeTransferFrom(address,address,uint256,bytes)": {
        "details": "See {IERC721-safeTransferFrom}."
      },
      "setApprovalForAll(address,bool)": {
        "details": "See {IERC721-setApprovalForAll}."
      },
      "symbol()": {
        "details": "See {IERC721Metadata-symbol}."
      },
      "tokenByIndex(uint256)": {
        "details": "See {IERC721Enumerable-tokenByIndex}."
      },
      "tokenOfOwnerByIndex(address,uint256)": {
        "details": "See {IERC721Enumerable-tokenOfOwnerByIndex}."
      },
      "totalSupply()": {
        "details": "See {IERC721Enumerable-totalSupply}."
      },
      "transferFrom(address,address,uint256)": {
        "details": "See {IERC721-transferFrom}."
      },
      "transferOwnership(address)": {
        "details": "Transfers ownership of the contract to a new account (`newOwner`). Can only be called by the current owner."
      },
      "withdrawPayments(address)": {
        "details": "Overridden in order to make it an onlyOwner function"
      }
    },
    "version": 1
  },
  "userdoc": {
    "kind": "user",
    "methods": {
      "addTrait(uint256,string)": {
        "notice": "`traitName` will either be: - The name of the Trait class (ie MusicProducer) - The name of the Trait with dot then the name of the trait prop appended (ie DynMusicProductionStyle.FavoriteKeys) -- In this case the TraitAI trait being added to the bot is DynMusicProductionStyle,  -- and the prop the value wll map to is FavoriteKeys. -- This flat structure will be nice for the NFT metadata to be standard and easy. -- When it gets sent into the TraitHttpIO we will need to pull out the props and put them all beneath the same single trait."
      }
    },
    "version": 1
  }
}