{
  "contractName": "Tartist",
  "abi": [
    {
      "inputs": [],
      "stateMutability": "nonpayable",
      "type": "constructor"
    },
    {
      "anonymous": false,
      "inputs": [
        {
          "indexed": true,
          "internalType": "address",
          "name": "owner",
          "type": "address"
        },
        {
          "indexed": true,
          "internalType": "address",
          "name": "approved",
          "type": "address"
        },
        {
          "indexed": true,
          "internalType": "uint256",
          "name": "tokenId",
          "type": "uint256"
        }
      ],
      "name": "Approval",
      "type": "event"
    },
    {
      "anonymous": false,
      "inputs": [
        {
          "indexed": true,
          "internalType": "address",
          "name": "owner",
          "type": "address"
        },
        {
          "indexed": true,
          "internalType": "address",
          "name": "operator",
          "type": "address"
        },
        {
          "indexed": false,
          "internalType": "bool",
          "name": "approved",
          "type": "bool"
        }
      ],
      "name": "ApprovalForAll",
      "type": "event"
    },
    {
      "anonymous": false,
      "inputs": [
        {
          "indexed": false,
          "internalType": "uint256",
          "name": "_fromTokenId",
          "type": "uint256"
        },
        {
          "indexed": false,
          "internalType": "uint256",
          "name": "_toTokenId",
          "type": "uint256"
        }
      ],
      "name": "BatchMetadataUpdate",
      "type": "event"
    },
    {
      "anonymous": false,
      "inputs": [
        {
          "indexed": false,
          "internalType": "uint256",
          "name": "_tokenId",
          "type": "uint256"
        }
      ],
      "name": "MetadataUpdate",
      "type": "event"
    },
    {
      "anonymous": false,
      "inputs": [
        {
          "indexed": true,
          "internalType": "address",
          "name": "previousOwner",
          "type": "address"
        },
        {
          "indexed": true,
          "internalType": "address",
          "name": "newOwner",
          "type": "address"
        }
      ],
      "name": "OwnershipTransferred",
      "type": "event"
    },
    {
      "anonymous": false,
      "inputs": [
        {
          "indexed": true,
          "internalType": "address",
          "name": "from",
          "type": "address"
        },
        {
          "indexed": true,
          "internalType": "address",
          "name": "to",
          "type": "address"
        },
        {
          "indexed": true,
          "internalType": "uint256",
          "name": "tokenId",
          "type": "uint256"
        }
      ],
      "name": "Transfer",
      "type": "event"
    },
    {
      "inputs": [],
      "name": "MINT_TARTIST_PRICE",
      "outputs": [
        {
          "internalType": "uint256",
          "name": "",
          "type": "uint256"
        }
      ],
      "stateMutability": "view",
      "type": "function",
      "constant": true
    },
    {
      "inputs": [],
      "name": "MINT_TARTI_PRICE",
      "outputs": [
        {
          "internalType": "uint256",
          "name": "",
          "type": "uint256"
        }
      ],
      "stateMutability": "view",
      "type": "function",
      "constant": true
    },
    {
      "inputs": [
        {
          "internalType": "uint256",
          "name": "",
          "type": "uint256"
        }
      ],
      "name": "allTraits",
      "outputs": [
        {
          "internalType": "uint256",
          "name": "",
          "type": "uint256"
        }
      ],
      "stateMutability": "view",
      "type": "function",
      "constant": true
    },
    {
      "inputs": [
        {
          "internalType": "address",
          "name": "to",
          "type": "address"
        },
        {
          "internalType": "uint256",
          "name": "tokenId",
          "type": "uint256"
        }
      ],
      "name": "approve",
      "outputs": [],
      "stateMutability": "nonpayable",
      "type": "function"
    },
    {
      "inputs": [
        {
          "internalType": "uint256",
          "name": "",
          "type": "uint256"
        }
      ],
      "name": "availableTraits",
      "outputs": [
        {
          "internalType": "string",
          "name": "",
          "type": "string"
        }
      ],
      "stateMutability": "view",
      "type": "function",
      "constant": true
    },
    {
      "inputs": [
        {
          "internalType": "address",
          "name": "owner",
          "type": "address"
        }
      ],
      "name": "balanceOf",
      "outputs": [
        {
          "internalType": "uint256",
          "name": "",
          "type": "uint256"
        }
      ],
      "stateMutability": "view",
      "type": "function",
      "constant": true
    },
    {
      "inputs": [],
      "name": "baseTokenURI",
      "outputs": [
        {
          "internalType": "string",
          "name": "",
          "type": "string"
        }
      ],
      "stateMutability": "view",
      "type": "function",
      "constant": true
    },
    {
      "inputs": [
        {
          "internalType": "uint256",
          "name": "",
          "type": "uint256"
        },
        {
          "internalType": "uint256",
          "name": "",
          "type": "uint256"
        }
      ],
      "name": "botTraitDominances",
      "outputs": [
        {
          "internalType": "uint256",
          "name": "",
          "type": "uint256"
        }
      ],
      "stateMutability": "view",
      "type": "function",
      "constant": true
    },
    {
      "inputs": [
        {
          "internalType": "uint256",
          "name": "",
          "type": "uint256"
        },
        {
          "internalType": "uint256",
          "name": "",
          "type": "uint256"
        }
      ],
      "name": "botTraitValues",
      "outputs": [
        {
          "internalType": "string",
          "name": "",
          "type": "string"
        }
      ],
      "stateMutability": "view",
      "type": "function",
      "constant": true
    },
    {
      "inputs": [
        {
          "internalType": "uint256",
          "name": "",
          "type": "uint256"
        },
        {
          "internalType": "uint256",
          "name": "",
          "type": "uint256"
        }
      ],
      "name": "botTraits",
      "outputs": [
        {
          "internalType": "uint256",
          "name": "",
          "type": "uint256"
        }
      ],
      "stateMutability": "view",
      "type": "function",
      "constant": true
    },
    {
      "inputs": [
        {
          "internalType": "uint256",
          "name": "tokenId",
          "type": "uint256"
        }
      ],
      "name": "getApproved",
      "outputs": [
        {
          "internalType": "address",
          "name": "",
          "type": "address"
        }
      ],
      "stateMutability": "view",
      "type": "function",
      "constant": true
    },
    {
      "inputs": [
        {
          "internalType": "address",
          "name": "owner",
          "type": "address"
        },
        {
          "internalType": "address",
          "name": "operator",
          "type": "address"
        }
      ],
      "name": "isApprovedForAll",
      "outputs": [
        {
          "internalType": "bool",
          "name": "",
          "type": "bool"
        }
      ],
      "stateMutability": "view",
      "type": "function",
      "constant": true
    },
    {
      "inputs": [],
      "name": "name",
      "outputs": [
        {
          "internalType": "string",
          "name": "",
          "type": "string"
        }
      ],
      "stateMutability": "view",
      "type": "function",
      "constant": true
    },
    {
      "inputs": [],
      "name": "owner",
      "outputs": [
        {
          "internalType": "address",
          "name": "",
          "type": "address"
        }
      ],
      "stateMutability": "view",
      "type": "function",
      "constant": true
    },
    {
      "inputs": [
        {
          "internalType": "uint256",
          "name": "tokenId",
          "type": "uint256"
        }
      ],
      "name": "ownerOf",
      "outputs": [
        {
          "internalType": "address",
          "name": "",
          "type": "address"
        }
      ],
      "stateMutability": "view",
      "type": "function",
      "constant": true
    },
    {
      "inputs": [
        {
          "internalType": "address",
          "name": "dest",
          "type": "address"
        }
      ],
      "name": "payments",
      "outputs": [
        {
          "internalType": "uint256",
          "name": "",
          "type": "uint256"
        }
      ],
      "stateMutability": "view",
      "type": "function",
      "constant": true
    },
    {
      "inputs": [],
      "name": "renounceOwnership",
      "outputs": [],
      "stateMutability": "nonpayable",
      "type": "function"
    },
    {
      "inputs": [
        {
          "internalType": "address",
          "name": "from",
          "type": "address"
        },
        {
          "internalType": "address",
          "name": "to",
          "type": "address"
        },
        {
          "internalType": "uint256",
          "name": "tokenId",
          "type": "uint256"
        }
      ],
      "name": "safeTransferFrom",
      "outputs": [],
      "stateMutability": "nonpayable",
      "type": "function"
    },
    {
      "inputs": [
        {
          "internalType": "address",
          "name": "from",
          "type": "address"
        },
        {
          "internalType": "address",
          "name": "to",
          "type": "address"
        },
        {
          "internalType": "uint256",
          "name": "tokenId",
          "type": "uint256"
        },
        {
          "internalType": "bytes",
          "name": "data",
          "type": "bytes"
        }
      ],
      "name": "safeTransferFrom",
      "outputs": [],
      "stateMutability": "nonpayable",
      "type": "function"
    },
    {
      "inputs": [
        {
          "internalType": "address",
          "name": "operator",
          "type": "address"
        },
        {
          "internalType": "bool",
          "name": "approved",
          "type": "bool"
        }
      ],
      "name": "setApprovalForAll",
      "outputs": [],
      "stateMutability": "nonpayable",
      "type": "function"
    },
    {
      "inputs": [],
      "name": "symbol",
      "outputs": [
        {
          "internalType": "string",
          "name": "",
          "type": "string"
        }
      ],
      "stateMutability": "view",
      "type": "function",
      "constant": true
    },
    {
      "inputs": [
        {
          "internalType": "uint256",
          "name": "index",
          "type": "uint256"
        }
      ],
      "name": "tokenByIndex",
      "outputs": [
        {
          "internalType": "uint256",
          "name": "",
          "type": "uint256"
        }
      ],
      "stateMutability": "view",
      "type": "function",
      "constant": true
    },
    {
      "inputs": [
        {
          "internalType": "address",
          "name": "owner",
          "type": "address"
        },
        {
          "internalType": "uint256",
          "name": "index",
          "type": "uint256"
        }
      ],
      "name": "tokenOfOwnerByIndex",
      "outputs": [
        {
          "internalType": "uint256",
          "name": "",
          "type": "uint256"
        }
      ],
      "stateMutability": "view",
      "type": "function",
      "constant": true
    },
    {
      "inputs": [],
      "name": "totalSupply",
      "outputs": [
        {
          "internalType": "uint256",
          "name": "",
          "type": "uint256"
        }
      ],
      "stateMutability": "view",
      "type": "function",
      "constant": true
    },
    {
      "inputs": [
        {
          "internalType": "address",
          "name": "from",
          "type": "address"
        },
        {
          "internalType": "address",
          "name": "to",
          "type": "address"
        },
        {
          "internalType": "uint256",
          "name": "tokenId",
          "type": "uint256"
        }
      ],
      "name": "transferFrom",
      "outputs": [],
      "stateMutability": "nonpayable",
      "type": "function"
    },
    {
      "inputs": [
        {
          "internalType": "address",
          "name": "newOwner",
          "type": "address"
        }
      ],
      "name": "transferOwnership",
      "outputs": [],
      "stateMutability": "nonpayable",
      "type": "function"
    },
    {
      "inputs": [
        {
          "internalType": "uint256",
          "name": "traitCode",
          "type": "uint256"
        },
        {
          "internalType": "string",
          "name": "traitName",
          "type": "string"
        }
      ],
      "name": "addTrait",
      "outputs": [],
      "stateMutability": "nonpayable",
      "type": "function"
    },
    {
      "inputs": [
        {
          "internalType": "uint256",
          "name": "traitCode",
          "type": "uint256"
        }
      ],
      "name": "cancelTrait",
      "outputs": [],
      "stateMutability": "nonpayable",
      "type": "function"
    },
    {
      "inputs": [
        {
          "internalType": "address",
          "name": "recipient",
          "type": "address"
        },
        {
          "internalType": "uint256[]",
          "name": "traits",
          "type": "uint256[]"
        },
        {
          "internalType": "string[]",
          "name": "dynamicTraitValues",
          "type": "string[]"
        },
        {
          "internalType": "uint8[]",
          "name": "traitDominance",
          "type": "uint8[]"
        }
      ],
      "name": "giveBirth",
      "outputs": [
        {
          "internalType": "uint256",
          "name": "",
          "type": "uint256"
        }
      ],
      "stateMutability": "payable",
      "type": "function",
      "payable": true
    },
    {
      "inputs": [
        {
          "internalType": "uint8",
          "name": "artistId",
          "type": "uint8"
        }
      ],
      "name": "newArt",
      "outputs": [
        {
          "internalType": "uint256",
          "name": "",
          "type": "uint256"
        }
      ],
      "stateMutability": "payable",
      "type": "function",
      "payable": true
    },
    {
      "inputs": [
        {
          "internalType": "address",
          "name": "tartiAddr",
          "type": "address"
        }
      ],
      "name": "setTartiAddr",
      "outputs": [],
      "stateMutability": "nonpayable",
      "type": "function"
    },
    {
      "inputs": [
        {
          "internalType": "string",
          "name": "newBaseTokenURI",
          "type": "string"
        }
      ],
      "name": "setBaseTokenURI",
      "outputs": [],
      "stateMutability": "nonpayable",
      "type": "function"
    },
    {
      "inputs": [
        {
          "internalType": "uint256",
          "name": "tokenId",
          "type": "uint256"
        },
        {
          "internalType": "bool",
          "name": "onTarti",
          "type": "bool"
        }
      ],
      "name": "setCreationStarted",
      "outputs": [],
      "stateMutability": "nonpayable",
      "type": "function"
    },
    {
      "inputs": [
        {
          "internalType": "uint256",
          "name": "tokenId",
          "type": "uint256"
        },
        {
          "internalType": "bytes",
          "name": "cid",
          "type": "bytes"
        },
        {
          "internalType": "bool",
          "name": "onTarti",
          "type": "bool"
        }
      ],
      "name": "setCreated",
      "outputs": [],
      "stateMutability": "nonpayable",
      "type": "function"
    },
    {
      "inputs": [
        {
          "internalType": "uint256",
          "name": "tokenId",
          "type": "uint256"
        }
      ],
      "name": "getTraits",
      "outputs": [
        {
          "internalType": "uint256[]",
          "name": "",
          "type": "uint256[]"
        }
      ],
      "stateMutability": "view",
      "type": "function",
      "constant": true
    },
    {
      "inputs": [
        {
          "internalType": "uint256",
          "name": "tokenId",
          "type": "uint256"
        }
      ],
      "name": "getTraitValues",
      "outputs": [
        {
          "internalType": "string[]",
          "name": "",
          "type": "string[]"
        }
      ],
      "stateMutability": "view",
      "type": "function",
      "constant": true
    },
    {
      "inputs": [
        {
          "internalType": "uint256",
          "name": "tokenId",
          "type": "uint256"
        }
      ],
      "name": "getTraitDominances",
      "outputs": [
        {
          "internalType": "uint256[]",
          "name": "",
          "type": "uint256[]"
        }
      ],
      "stateMutability": "view",
      "type": "function",
      "constant": true
    },
    {
      "inputs": [
        {
          "internalType": "address payable",
          "name": "payee",
          "type": "address"
        }
      ],
      "name": "withdrawPayments",
      "outputs": [],
      "stateMutability": "nonpayable",
      "type": "function"
    },
    {
      "inputs": [
        {
          "internalType": "bytes4",
          "name": "interfaceId",
          "type": "bytes4"
        }
      ],
      "name": "supportsInterface",
      "outputs": [
        {
          "internalType": "bool",
          "name": "",
          "type": "bool"
        }
      ],
      "stateMutability": "view",
      "type": "function",
      "constant": true
    },
    {
      "inputs": [
        {
          "internalType": "uint256",
          "name": "tokenId",
          "type": "uint256"
        }
      ],
      "name": "tokenURI",
      "outputs": [
        {
          "internalType": "string",
          "name": "",
          "type": "string"
        }
      ],
      "stateMutability": "view",
      "type": "function",
      "constant": true
    }
  ],
  "bytecode": "0x60a06040523480156200001157600080fd5b506040518060400160405280600c81526020016b15185c9d1a48105c9d1a5cdd60a21b81525060405180604001604052806007815260200166151054951254d560ca1b8152508160009081620000689190620001f6565b506001620000778282620001f6565b505050604051620000889062000143565b604051809103906000f080158015620000a5573d6000803e3d6000fd5b506001600160a01b0316608052620000bd33620000f1565b604080518082019091526007815266697066733a2f2f60c81b6020820152601290620000ea9082620001f6565b50620002c2565b600b80546001600160a01b038381166001600160a01b0319831681179093556040519116919082907f8be0079c531659141344cd1fd0a4f28419497f9722a3daafe3b4186f6b6457e090600090a35050565b6105a2806200361883390190565b634e487b7160e01b600052604160045260246000fd5b600181811c908216806200017c57607f821691505b6020821081036200019d57634e487b7160e01b600052602260045260246000fd5b50919050565b601f821115620001f157600081815260208120601f850160051c81016020861015620001cc5750805b601f850160051c820191505b81811015620001ed57828155600101620001d8565b5050505b505050565b81516001600160401b0381111562000212576200021262000151565b6200022a8162000223845462000167565b84620001a3565b602080601f831160018114620002625760008415620002495750858301515b600019600386901b1c1916600185901b178555620001ed565b600085815260208120601f198616915b82811015620002935788860151825594840194600190910190840162000272565b5085821015620002b25787850151600019600388901b60f8161c191681555b5050505050600190811b01905550565b608051613333620002e5600039600081816116f40152611bb501526133336000f3fe6080604052600436106101cb5760003560e01c806301ffc9a7146101d057806306fdde0314610205578063081812fc14610227578063095ea7b31461025457806318160ddd1461027657806323b872dd146102955780632f745c59146102b557806330176e13146102d557806330b64090146102f5578063318063681461031557806331b3eb941461033557806340eb171a1461035557806342842e0e146103755780634f6ccce714610395578063580a294b146103b55780636352211e146103d1578063639eac2e146103f15780636bf1c36a146104115780636ce75ea21461042c57806370a0823114610459578063715018a614610479578063750f681c1461048e578063751ee473146104ae5780638da5cb5b146104ce57806395d89b41146104e35780639ab5dc47146104f85780639b848ea91461050b578063a22cb4651461052b578063adaa00e51461054b578063b543842e1461056b578063b88d4fde1461057e578063c87b56dd1461059e578063d547cfb7146105be578063dc5effe7146105d3578063ded865b7146105f3578063e0b6437114610613578063e1dc076114610640578063e2982c2114610660578063e985e9c514610680578063f2fde38b146106a0575b600080fd5b3480156101dc57600080fd5b506101f06101eb366004612768565b6106c0565b60405190151581526020015b60405180910390f35b34801561021157600080fd5b5061021a6106d1565b6040516101fc91906127d5565b34801561023357600080fd5b506102476102423660046127e8565b610763565b6040516101fc9190612801565b34801561026057600080fd5b5061027461026f36600461282a565b61078a565b005b34801561028257600080fd5b506009545b6040519081526020016101fc565b3480156102a157600080fd5b506102746102b0366004612856565b6108a4565b3480156102c157600080fd5b506102876102d036600461282a565b6108d5565b3480156102e157600080fd5b506102746102f0366004612954565b61096b565b34801561030157600080fd5b5061021a610310366004612988565b610983565b34801561032157600080fd5b506102746103303660046129bf565b610a3c565b34801561034157600080fd5b50610274610350366004612a4b565b610b27565b34801561036157600080fd5b50610274610370366004612a4b565b610b3b565b34801561038157600080fd5b50610274610390366004612856565b610b65565b3480156103a157600080fd5b506102876103b03660046127e8565b610b80565b3480156103c157600080fd5b5061028767027f7d0bdb92000081565b3480156103dd57600080fd5b506102476103ec3660046127e8565b610c13565b3480156103fd57600080fd5b5061027461040c3660046127e8565b610c47565b34801561041d57600080fd5b5061028766aa87bee538000081565b34801561043857600080fd5b5061044c6104473660046127e8565b610c76565b6040516101fc9190612a68565b34801561046557600080fd5b50610287610474366004612a4b565b610cd8565b34801561048557600080fd5b50610274610d5e565b34801561049a57600080fd5b506102876104a93660046127e8565b610d72565b3480156104ba57600080fd5b506102876104c9366004612988565b610d93565b3480156104da57600080fd5b50610247610dc4565b3480156104ef57600080fd5b5061021a610dd3565b610287610506366004612abd565b610de2565b34801561051757600080fd5b50610274610526366004612ad8565b610f31565b34801561053757600080fd5b50610274610546366004612b04565b611016565b34801561055757600080fd5b50610287610566366004612988565b611021565b610287610579366004612c44565b61103d565b34801561058a57600080fd5b50610274610599366004612d35565b611475565b3480156105aa57600080fd5b5061021a6105b93660046127e8565b6114a7565b3480156105ca57600080fd5b5061021a6114b2565b3480156105df57600080fd5b5061021a6105ee3660046127e8565b6114bf565b3480156105ff57600080fd5b5061027461060e366004612da8565b6114d8565b34801561061f57600080fd5b5061063361062e3660046127e8565b61158e565b6040516101fc9190612dee565b34801561064c57600080fd5b5061044c61065b3660046127e8565b61167a565b34801561066c57600080fd5b5061028761067b366004612a4b565b6116da565b34801561068c57600080fd5b506101f061069b366004612e50565b61176a565b3480156106ac57600080fd5b506102746106bb366004612a4b565b611798565b60006106cb8261180e565b92915050565b6060600080546106e090612e89565b80601f016020809104026020016040519081016040528092919081815260200182805461070c90612e89565b80156107595780601f1061072e57610100808354040283529160200191610759565b820191906000526020600020905b81548152906001019060200180831161073c57829003601f168201915b5050505050905090565b600061076e82611833565b506000908152600460205260409020546001600160a01b031690565b600061079582610c13565b9050806001600160a01b0316836001600160a01b0316036108075760405162461bcd60e51b815260206004820152602160248201527f4552433732313a20617070726f76616c20746f2063757272656e74206f776e656044820152603960f91b60648201526084015b60405180910390fd5b336001600160a01b03821614806108235750610823813361176a565b6108955760405162461bcd60e51b815260206004820152603d60248201527f4552433732313a20617070726f76652063616c6c6572206973206e6f7420746f60448201527f6b656e206f776e6572206f7220617070726f76656420666f7220616c6c00000060648201526084016107fe565b61089f8383611858565b505050565b6108ae33826118c6565b6108ca5760405162461bcd60e51b81526004016107fe90612ec3565b61089f838383611924565b60006108e083610cd8565b82106109425760405162461bcd60e51b815260206004820152602b60248201527f455243373231456e756d657261626c653a206f776e657220696e646578206f7560448201526a74206f6620626f756e647360a81b60648201526084016107fe565b506001600160a01b03919091166000908152600760209081526040808320938352929052205490565b610973611a83565b601261097f8282612f5e565b5050565b6011602052816000526040600020818154811061099f57600080fd5b906000526020600020016000915091505080546109bb90612e89565b80601f01602080910402602001604051908101604052809291908181526020018280546109e790612e89565b8015610a345780601f10610a0957610100808354040283529160200191610a34565b820191906000526020600020905b815481529060010190602001808311610a1757829003601f168201915b505050505081565b610a44611a83565b8015610ae0576014546001600160a01b0316610a725760405162461bcd60e51b81526004016107fe9061301d565b601454604051636a71167960e11b81526001600160a01b0390911690819063d4e22cf290610aa89088908890889060040161304a565b600060405180830381600087803b158015610ac257600080fd5b505af1158015610ad6573d6000803e3d6000fd5b5050505050610b21565b6000610aeb856114a7565b805190602001209050610b1f858585604051602001610b0b929190613080565b604051602081830303815290604052611ae2565b505b50505050565b610b2f611a83565b610b3881611b9e565b50565b610b43611a83565b601480546001600160a01b0319166001600160a01b0392909216919091179055565b61089f83838360405180602001604052806000815250611475565b6000610b8b60095490565b8210610bee5760405162461bcd60e51b815260206004820152602c60248201527f455243373231456e756d657261626c653a20676c6f62616c20696e646578206f60448201526b7574206f6620626f756e647360a01b60648201526084016107fe565b60098281548110610c0157610c01613090565b90600052602060002001549050919050565b600080610c1f83611c18565b90506001600160a01b0381166106cb5760405162461bcd60e51b81526004016107fe906130a6565b610c4f611a83565b604080516020808201835260008083528481526010909152919091209061097f9082612f5e565b6000818152600f6020908152604091829020805483518184028101840190945280845260609392830182828015610ccc57602002820191906000526020600020905b815481526020019060010190808311610cb8575b50505050509050919050565b60006001600160a01b038216610d425760405162461bcd60e51b815260206004820152602960248201527f4552433732313a2061646472657373207a65726f206973206e6f7420612076616044820152683634b21037bbb732b960b91b60648201526084016107fe565b506001600160a01b031660009081526003602052604090205490565b610d66611a83565b610d706000611c33565b565b600d8181548110610d8257600080fd5b600091825260209091200154905081565b600e6020528160005260406000208181548110610daf57600080fd5b90600052602060002001600091509150505481565b600b546001600160a01b031690565b6060600180546106e090612e89565b6014546000906001600160a01b0316610e0d5760405162461bcd60e51b81526004016107fe9061301d565b66aa87bee53800003414610e5a5760405162461bcd60e51b815260206004820152601460248201527336bab9ba1039b2b7321031b7b6b6b4b9b9b4b7b760611b60448201526064016107fe565b610e668260ff16610c13565b6001600160a01b0316336001600160a01b031614610eb15760405162461bcd60e51b81526020600482015260086024820152676e6f72696768747360c01b60448201526064016107fe565b601454604051639e31203160e01b815233600482015260ff841660248201526001600160a01b03909116908190639e312031906044016020604051808303816000875af1158015610f06573d6000803e3d6000fd5b505050506040513d601f19601f82011682018060405250810190610f2a91906130d8565b9392505050565b610f39611a83565b8015610fcc576014546001600160a01b0316610f675760405162461bcd60e51b81526004016107fe9061301d565b601454604051632d0de82160e01b8152600481018490526001600160a01b03909116908190632d0de82190602401600060405180830381600087803b158015610faf57600080fd5b505af1158015610fc3573d6000803e3d6000fd5b50505050505050565b61097f826040518060400160405280601e81526020017f51686173684f664372656174696e67546172746973744d657461646174610000815250604051602001610b0b91906130f1565b61097f338383611c85565b600f6020528160005260406000208181548110610daf57600080fd5b600067027f7d0bdb92000034146110ad5760405162461bcd60e51b815260206004820152602e60248201527f5472616e73616374696f6e2076616c756520646964206e6f7420657175616c2060448201526d746865206d696e7420707269636560901b60648201526084016107fe565b60648451106110f05760405162461bcd60e51b815260206004820152600f60248201526e546f6f206d616e792074726169747360881b60448201526064016107fe565b60648351106111395760405162461bcd60e51b8152602060048201526015602482015274546f6f206d616e792074726169742076616c75657360581b60448201526064016107fe565b60648251106111855760405162461bcd60e51b8152602060048201526018602482015277546f6f206d616e7920747261697420646f6d696e616e636560401b60448201526064016107fe565b60005b8451811015611225576000601060008784815181106111a9576111a9613090565b6020026020010151815260200190815260200160002080546111ca90612e89565b9050116112135760405162461bcd60e51b8152602060048201526017602482015276125b9d985b1a59081d1c985a5d081cdc1958da599a5959604a1b60448201526064016107fe565b8061121d81613123565b915050611188565b50606060005b8551811015611284578186828151811061124757611247613090565b602002602001015160405160200161126092919061313c565b6040516020818303038152906040529150808061127c90613123565b91505061122b565b50606060005b85518110156112e357818682815181106112a6576112a6613090565b60200260200101516040516020016112bf92919061315e565b604051602081830303815290604052915080806112db90613123565b91505061128a565b50600082826040516020016112f992919061315e565b60408051601f1981840301815291815281516020928301206000818152600c90935291205490915060ff1615156001036113805760405162461bcd60e51b815260206004820152602260248201527f426f742067656e657469637320617265206e6f7420756e6971756520656e6f756044820152610ced60f31b60648201526084016107fe565b6000818152600c60205260409020805460ff191660011790556113a7601380546001019055565b60006113b260135490565b6000818152600e602090815260409091208a519293506113d69290918b0190612609565b50600081815260116020908152604090912088516113f6928a0190612654565b506000818152600f602090815260409091208751611416928901906126a6565b506114218982611d4f565b611467816040518060400160405280601981526020017851686173684f664e6577546172746973744d6574616461746160381b815250604051602001610b0b91906130f1565b93505050505b949350505050565b61147f33836118c6565b61149b5760405162461bcd60e51b81526004016107fe90612ec3565b610b2184848484611d69565b60606106cb82611d9c565b601280546109bb90612e89565b601060205260009081526040902080546109bb90612e89565b6114e0611a83565b600082815260106020526040812080546114f990612e89565b90501161153f5760405162461bcd60e51b8152602060048201526014602482015273547261697420616c72656164792065786973747360601b60448201526064016107fe565b60008281526010602052604090206115578282612f5e565b5050600d80546001810182556000919091527fd7b6990105719101dabeb77144f2a3385c8033acd3af97e9423a695e81ad1eb50155565b606060116000838152602001908152602001600020805480602002602001604051908101604052809291908181526020016000905b8282101561166f5783829060005260206000200180546115e290612e89565b80601f016020809104026020016040519081016040528092919081815260200182805461160e90612e89565b801561165b5780601f106116305761010080835404028352916020019161165b565b820191906000526020600020905b81548152906001019060200180831161163e57829003601f168201915b5050505050815260200190600101906115c3565b505050509050919050565b6000818152600e6020908152604091829020805483518184028101840190945280845260609392830182828015610ccc5760200282019190600052602060002090815481526020019060010190808311610cb85750505050509050919050565b6040516371d4ed8d60e11b81526000906001600160a01b037f0000000000000000000000000000000000000000000000000000000000000000169063e3a9db1a90611729908590600401612801565b602060405180830381865afa158015611746573d6000803e3d6000fd5b505050506040513d601f19601f820116820180604052508101906106cb91906130d8565b6001600160a01b03918216600090815260056020908152604080832093909416825291909152205460ff1690565b6117a0611a83565b6001600160a01b0381166118055760405162461bcd60e51b815260206004820152602660248201527f4f776e61626c653a206e6577206f776e657220697320746865207a65726f206160448201526564647265737360d01b60648201526084016107fe565b610b3881611c33565b60006001600160e01b0319821663780e9d6360e01b14806106cb57506106cb82611e97565b61183c81611ebc565b610b385760405162461bcd60e51b81526004016107fe906130a6565b600081815260046020526040902080546001600160a01b0319166001600160a01b038416908117909155819061188d82610c13565b6001600160a01b03167f8c5be1e5ebec7d5bd14f71427d1e84f3dd0314c0f7b2291e5b200ac8c7c3b92560405160405180910390a45050565b6000806118d283610c13565b9050806001600160a01b0316846001600160a01b031614806118f957506118f9818561176a565b8061146d5750836001600160a01b031661191284610763565b6001600160a01b031614949350505050565b826001600160a01b031661193782610c13565b6001600160a01b03161461195d5760405162461bcd60e51b81526004016107fe9061318d565b6001600160a01b0382166119bf5760405162461bcd60e51b8152602060048201526024808201527f4552433732313a207472616e7366657220746f20746865207a65726f206164646044820152637265737360e01b60648201526084016107fe565b6119cc8383836001611ed9565b826001600160a01b03166119df82610c13565b6001600160a01b031614611a055760405162461bcd60e51b81526004016107fe9061318d565b600081815260046020908152604080832080546001600160a01b03199081169091556001600160a01b0387811680865260038552838620805460001901905590871680865283862080546001019055868652600290945282852080549092168417909155905184936000805160206132de83398151915291a4505050565b33611a8c610dc4565b6001600160a01b031614610d705760405162461bcd60e51b815260206004820181905260248201527f4f776e61626c653a2063616c6c6572206973206e6f7420746865206f776e657260448201526064016107fe565b611aeb82611ebc565b611b4e5760405162461bcd60e51b815260206004820152602e60248201527f45524337323155524953746f726167653a2055524920736574206f66206e6f6e60448201526d32bc34b9ba32b73a103a37b5b2b760911b60648201526084016107fe565b6000828152600660205260409020611b668282612f5e565b506040518281527ff8e1a15aba9398e019f0b49df1a4fde98ee17ae345cb5f6b5e2c27f5033e8ce79060200160405180910390a15050565b6040516351cff8d960e01b81526001600160a01b037f000000000000000000000000000000000000000000000000000000000000000016906351cff8d990611bea908490600401612801565b600060405180830381600087803b158015611c0457600080fd5b505af1158015610b1f573d6000803e3d6000fd5b6000908152600260205260409020546001600160a01b031690565b600b80546001600160a01b038381166001600160a01b0319831681179093556040519116919082907f8be0079c531659141344cd1fd0a4f28419497f9722a3daafe3b4186f6b6457e090600090a35050565b816001600160a01b0316836001600160a01b031603611ce25760405162461bcd60e51b815260206004820152601960248201527822a9219b99189d1030b8383937bb32903a379031b0b63632b960391b60448201526064016107fe565b6001600160a01b03838116600081815260056020908152604080832094871680845294825291829020805460ff191686151590811790915591519182527f17307eab39ab6107e8899845ad3d59bd9653f200f220920489ca2b5937696c31910160405180910390a3505050565b61097f828260405180602001604052806000815250611ee5565b611d74848484611924565b611d8084848484611f18565b610b215760405162461bcd60e51b81526004016107fe906131d2565b6060611da782611833565b60008281526006602052604081208054611dc090612e89565b80601f0160208091040260200160405190810160405280929190818152602001828054611dec90612e89565b8015611e395780601f10611e0e57610100808354040283529160200191611e39565b820191906000526020600020905b815481529060010190602001808311611e1c57829003601f168201915b505050505090506000611e4a612016565b90508051600003611e5c575092915050565b815115611e8e578082604051602001611e7692919061315e565b60405160208183030381529060405292505050919050565b61146d84612025565b60006001600160e01b03198216632483248360e11b14806106cb57506106cb8261208b565b600080611ec883611c18565b6001600160a01b0316141592915050565b610b21848484846120db565b611eef8383612208565b611efc6000848484611f18565b61089f5760405162461bcd60e51b81526004016107fe906131d2565b60006001600160a01b0384163b1561200e57604051630a85bd0160e11b81526001600160a01b0385169063150b7a0290611f5c903390899088908890600401613224565b6020604051808303816000875af1925050508015611f97575060408051601f3d908101601f19168201909252611f9491810190613261565b60015b611ff4573d808015611fc5576040519150601f19603f3d011682016040523d82523d6000602084013e611fca565b606091505b508051600003611fec5760405162461bcd60e51b81526004016107fe906131d2565b805181602001fd5b6001600160e01b031916630a85bd0160e11b14905061146d565b50600161146d565b6060601280546106e090612e89565b606061203082611833565b600061203a612016565b9050600081511161205a5760405180602001604052806000815250610f2a565b8061206484612311565b60405160200161207592919061315e565b6040516020818303038152906040529392505050565b60006001600160e01b031982166380ac58cd60e01b14806120bc57506001600160e01b03198216635b5e139f60e01b145b806106cb57506301ffc9a760e01b6001600160e01b03198316146106cb565b600181111561214a5760405162461bcd60e51b815260206004820152603560248201527f455243373231456e756d657261626c653a20636f6e7365637574697665207472604482015274185b9cd9995c9cc81b9bdd081cdd5c1c1bdc9d1959605a1b60648201526084016107fe565b816001600160a01b0385166121a6576121a181600980546000838152600a60205260408120829055600182018355919091527f6e1540171b6c0c960b71a7020d9f60077f6af931a8bbf590da0223dacf75c7af0155565b6121c9565b836001600160a01b0316856001600160a01b0316146121c9576121c985826123a3565b6001600160a01b0384166121e5576121e081612440565b610b1f565b846001600160a01b0316846001600160a01b031614610b1f57610b1f84826124ef565b6001600160a01b03821661225e5760405162461bcd60e51b815260206004820181905260248201527f4552433732313a206d696e7420746f20746865207a65726f206164647265737360448201526064016107fe565b61226781611ebc565b156122845760405162461bcd60e51b81526004016107fe9061327e565b612292600083836001611ed9565b61229b81611ebc565b156122b85760405162461bcd60e51b81526004016107fe9061327e565b6001600160a01b038216600081815260036020908152604080832080546001019055848352600290915280822080546001600160a01b0319168417905551839291906000805160206132de833981519152908290a45050565b6060600061231e83612533565b60010190506000816001600160401b0381111561233d5761233d612897565b6040519080825280601f01601f191660200182016040528015612367576020820181803683370190505b5090508181016020015b600019016f181899199a1a9b1b9c1cb0b131b232b360811b600a86061a8153600a850494508461237157509392505050565b600060016123b084610cd8565b6123ba91906132b4565b60008381526008602052604090205490915080821461240d576001600160a01b03841660009081526007602090815260408083208584528252808320548484528184208190558352600890915290208190555b5060009182526008602090815260408084208490556001600160a01b039094168352600781528383209183525290812055565b600954600090612452906001906132b4565b6000838152600a60205260408120546009805493945090928490811061247a5761247a613090565b90600052602060002001549050806009838154811061249b5761249b613090565b6000918252602080832090910192909255828152600a909152604080822084905585825281205560098054806124d3576124d36132c7565b6001900381819060005260206000200160009055905550505050565b60006124fa83610cd8565b6001600160a01b039093166000908152600760209081526040808320868452825280832085905593825260089052919091209190915550565b60008072184f03e93ff9f4daa797ed6e38ed64bf6a1f0160401b83106125725772184f03e93ff9f4daa797ed6e38ed64bf6a1f0160401b830492506040015b6904ee2d6d415b85acef8160201b831061259c576904ee2d6d415b85acef8160201b830492506020015b662386f26fc1000083106125ba57662386f26fc10000830492506010015b6305f5e10083106125d2576305f5e100830492506008015b61271083106125e657612710830492506004015b606483106125f8576064830492506002015b600a83106106cb5760010192915050565b828054828255906000526020600020908101928215612644579160200282015b82811115612644578251825591602001919060010190612629565b506126509291506126e6565b5090565b82805482825590600052602060002090810192821561269a579160200282015b8281111561269a578251829061268a9082612f5e565b5091602001919060010190612674565b506126509291506126fb565b828054828255906000526020600020908101928215612644579160200282015b82811115612644578251829060ff169055916020019190600101906126c6565b5b8082111561265057600081556001016126e7565b8082111561265057600061270f8282612718565b506001016126fb565b50805461272490612e89565b6000825580601f10612734575050565b601f016020900490600052602060002090810190610b3891906126e6565b6001600160e01b031981168114610b3857600080fd5b60006020828403121561277a57600080fd5b8135610f2a81612752565b60005b838110156127a0578181015183820152602001612788565b50506000910152565b600081518084526127c1816020860160208601612785565b601f01601f19169290920160200192915050565b602081526000610f2a60208301846127a9565b6000602082840312156127fa57600080fd5b5035919050565b6001600160a01b0391909116815260200190565b6001600160a01b0381168114610b3857600080fd5b6000806040838503121561283d57600080fd5b823561284881612815565b946020939093013593505050565b60008060006060848603121561286b57600080fd5b833561287681612815565b9250602084013561288681612815565b929592945050506040919091013590565b634e487b7160e01b600052604160045260246000fd5b604051601f8201601f191681016001600160401b03811182821017156128d5576128d5612897565b604052919050565b60006001600160401b038311156128f6576128f6612897565b612909601f8401601f19166020016128ad565b905082815283838301111561291d57600080fd5b828260208301376000602084830101529392505050565b600082601f83011261294557600080fd5b610f2a838335602085016128dd565b60006020828403121561296657600080fd5b81356001600160401b0381111561297c57600080fd5b61146d84828501612934565b6000806040838503121561299b57600080fd5b50508035926020909101359150565b803580151581146129ba57600080fd5b919050565b600080600080606085870312156129d557600080fd5b8435935060208501356001600160401b03808211156129f357600080fd5b818701915087601f830112612a0757600080fd5b813581811115612a1657600080fd5b886020828501011115612a2857600080fd5b602083019550809450505050612a40604086016129aa565b905092959194509250565b600060208284031215612a5d57600080fd5b8135610f2a81612815565b6020808252825182820181905260009190848201906040850190845b81811015612aa057835183529284019291840191600101612a84565b50909695505050505050565b803560ff811681146129ba57600080fd5b600060208284031215612acf57600080fd5b610f2a82612aac565b60008060408385031215612aeb57600080fd5b82359150612afb602084016129aa565b90509250929050565b60008060408385031215612b1757600080fd5b8235612b2281612815565b9150612afb602084016129aa565b60006001600160401b03821115612b4957612b49612897565b5060051b60200190565b600082601f830112612b6457600080fd5b81356020612b79612b7483612b30565b6128ad565b82815260059290921b84018101918181019086841115612b9857600080fd5b8286015b84811015612bd75780356001600160401b03811115612bbb5760008081fd5b612bc98986838b0101612934565b845250918301918301612b9c565b509695505050505050565b600082601f830112612bf357600080fd5b81356020612c03612b7483612b30565b82815260059290921b84018101918181019086841115612c2257600080fd5b8286015b84811015612bd757612c3781612aac565b8352918301918301612c26565b60008060008060808587031215612c5a57600080fd5b8435612c6581612815565b93506020858101356001600160401b0380821115612c8257600080fd5b818801915088601f830112612c9657600080fd5b8135612ca4612b7482612b30565b81815260059190911b8301840190848101908b831115612cc357600080fd5b938501935b82851015612ce157843582529385019390850190612cc8565b975050506040880135925080831115612cf957600080fd5b612d0589848a01612b53565b94506060880135925080831115612d1b57600080fd5b5050612d2987828801612be2565b91505092959194509250565b60008060008060808587031215612d4b57600080fd5b8435612d5681612815565b93506020850135612d6681612815565b92506040850135915060608501356001600160401b03811115612d8857600080fd5b8501601f81018713612d9957600080fd5b612d29878235602084016128dd565b60008060408385031215612dbb57600080fd5b8235915060208301356001600160401b03811115612dd857600080fd5b612de485828601612934565b9150509250929050565b6000602080830181845280855180835260408601915060408160051b870101925083870160005b82811015612e4357603f19888603018452612e318583516127a9565b94509285019290850190600101612e15565b5092979650505050505050565b60008060408385031215612e6357600080fd5b8235612e6e81612815565b91506020830135612e7e81612815565b809150509250929050565b600181811c90821680612e9d57607f821691505b602082108103612ebd57634e487b7160e01b600052602260045260246000fd5b50919050565b6020808252602d908201527f4552433732313a2063616c6c6572206973206e6f7420746f6b656e206f776e6560408201526c1c881bdc88185c1c1c9bdd9959609a1b606082015260800190565b601f82111561089f57600081815260208120601f850160051c81016020861015612f375750805b601f850160051c820191505b81811015612f5657828155600101612f43565b505050505050565b81516001600160401b03811115612f7757612f77612897565b612f8b81612f858454612e89565b84612f10565b602080601f831160018114612fc05760008415612fa85750858301515b600019600386901b1c1916600185901b178555612f56565b600085815260208120601f198616915b82811015612fef57888601518255948401946001909101908401612fd0565b508582101561300d5787850151600019600388901b60f8161c191681555b5050505050600190811b01905550565b6020808252601390820152721d185c9d1a58dbdb9d1c9858dd1b9bdd1cd95d606a1b604082015260600190565b83815260406020820152816040820152818360608301376000818301606090810191909152601f909201601f1916010192915050565b8183823760009101908152919050565b634e487b7160e01b600052603260045260246000fd5b602080825260189082015277115490cdcc8c4e881a5b9d985b1a59081d1bdad95b88125160421b604082015260600190565b6000602082840312156130ea57600080fd5b5051919050565b60008251613103818460208701612785565b9190910192915050565b634e487b7160e01b600052601160045260246000fd5b6000600182016131355761313561310d565b5060010190565b6000835161314e818460208801612785565b9190910191825250602001919050565b60008351613170818460208801612785565b835190830190613184818360208801612785565b01949350505050565b60208082526025908201527f4552433732313a207472616e736665722066726f6d20696e636f72726563742060408201526437bbb732b960d91b606082015260800190565b60208082526032908201527f4552433732313a207472616e7366657220746f206e6f6e20455243373231526560408201527131b2b4bb32b91034b6b83632b6b2b73a32b960711b606082015260800190565b6001600160a01b0385811682528416602082015260408101839052608060608201819052600090613257908301846127a9565b9695505050505050565b60006020828403121561327357600080fd5b8151610f2a81612752565b6020808252601c908201527b115490cdcc8c4e881d1bdad95b88185b1c9958591e481b5a5b9d195960221b604082015260600190565b818103818111156106cb576106cb61310d565b634e487b7160e01b600052603160045260246000fdfeddf252ad1be2c89b69c2b068fc378daa952ba7f163c4a11628f55a4df523b3efa264697066735822122012bd121145bfd763cfcad6490a30c2b6b54ef0ac5266cc0b38154f5c8487b44764736f6c63430008120033608060405234801561001057600080fd5b5061001a3361001f565b61006f565b600080546001600160a01b038381166001600160a01b0319831681178455604051919092169283917f8be0079c531659141344cd1fd0a4f28419497f9722a3daafe3b4186f6b6457e09190a35050565b6105248061007e6000396000f3fe6080604052600436106100555760003560e01c806351cff8d91461005a578063715018a61461007c5780638da5cb5b14610091578063e3a9db1a146100c3578063f2fde38b14610107578063f340fa0114610127575b600080fd5b34801561006657600080fd5b5061007a6100753660046104a3565b61013a565b005b34801561008857600080fd5b5061007a6101b1565b34801561009d57600080fd5b506100a66101c5565b6040516001600160a01b0390911681526020015b60405180910390f35b3480156100cf57600080fd5b506100f96100de3660046104a3565b6001600160a01b031660009081526001602052604090205490565b6040519081526020016100ba565b34801561011357600080fd5b5061007a6101223660046104a3565b6101d4565b61007a6101353660046104a3565b610252565b6101426102c4565b6001600160a01b038116600081815260016020526040812080549190559061016a9082610323565b816001600160a01b03167f7084f5476618d8e60b11ef0d7d3f06914655adb8793e28ff7f018d4c76d505d5826040516101a591815260200190565b60405180910390a25050565b6101b96102c4565b6101c3600061043e565b565b6000546001600160a01b031690565b6101dc6102c4565b6001600160a01b0381166102465760405162461bcd60e51b815260206004820152602660248201527f4f776e61626c653a206e6577206f776e657220697320746865207a65726f206160448201526564647265737360d01b60648201526084015b60405180910390fd5b61024f8161043e565b50565b61025a6102c4565b6001600160a01b0381166000908152600160205260408120805434928392916102849084906104c7565b90915550506040518181526001600160a01b038316907f2da466a7b24304f47e87fa2e1e5a81b9831ce54fec19055ce277ca2f39ba42c4906020016101a5565b336102cd6101c5565b6001600160a01b0316146101c35760405162461bcd60e51b815260206004820181905260248201527f4f776e61626c653a2063616c6c6572206973206e6f7420746865206f776e6572604482015260640161023d565b804710156103735760405162461bcd60e51b815260206004820152601d60248201527f416464726573733a20696e73756666696369656e742062616c616e6365000000604482015260640161023d565b6000826001600160a01b03168260405160006040518083038185875af1925050503d80600081146103c0576040519150601f19603f3d011682016040523d82523d6000602084013e6103c5565b606091505b50509050806104395760405162461bcd60e51b815260206004820152603a60248201527f416464726573733a20756e61626c6520746f2073656e642076616c75652c20726044820152791958da5c1a595b9d081b585e481a185d99481c995d995c9d195960321b606482015260840161023d565b505050565b600080546001600160a01b038381166001600160a01b0319831681178455604051919092169283917f8be0079c531659141344cd1fd0a4f28419497f9722a3daafe3b4186f6b6457e09190a35050565b6001600160a01b038116811461024f57600080fd5b6000602082840312156104b557600080fd5b81356104c08161048e565b9392505050565b808201808211156104e857634e487b7160e01b600052601160045260246000fd5b9291505056fea26469706673582212201db7b560f8a587875f655b0c70bd5a1c071d3efcf05cc3ab888bc5b1b66396ef64736f6c63430008120033",
  "immutableReferences": {
    "147": [
      {
        "length": 32,
        "start": 5876
      },
      {
        "length": 32,
        "start": 7093
      }
    ]
  },
  "source": "// SPDX-License-Identifier: MIT\npragma solidity ^0.8.18;\n\nimport \"@openzeppelin/contracts/token/ERC721/extensions/ERC721URIStorage.sol\";\nimport \"@openzeppelin/contracts/utils/Counters.sol\";\nimport \"@openzeppelin/contracts/security/PullPayment.sol\";\nimport \"@openzeppelin/contracts/access/Ownable.sol\";\nimport \"./Tarti.sol\";\n\ncontract Tartist is ERC721URIStorage, ERC721Enumerable, PullPayment, Ownable {\n    using Counters for Counters.Counter;\n\n    uint256 public constant MINT_TARTIST_PRICE = 0.18 ether;\n    uint256 public constant MINT_TARTI_PRICE = 0.048 ether;\n    bytes private constant _newMetadataCid = \"QhashOfNewTartistMetadata\";\n    bytes private constant _inProcessMetadataCid =\n        \"QhashOfCreatingTartistMetadata\";\n    mapping(bytes32 => bool) private _usedTraitComboHashes;\n\n    uint256[] public allTraits;\n    mapping(uint256 => uint256[]) public botTraits;\n    mapping(uint256 => uint256[]) public botTraitDominances;\n    mapping(uint256 => string) public availableTraits;\n    mapping(uint256 => string[]) public botTraitValues;\n    string public baseTokenURI;\n\n    Counters.Counter private _currentTokenId;\n    address private _tartiAddr;\n\n    constructor() ERC721(\"Tarti Artist\", \"TARTIST\") {\n        baseTokenURI = \"ipfs://\";\n    }\n\n    /**\n        `traitName` will either be:\n        - The name of the Trait class (ie MusicProducer)\n        - The name of the Trait with dot then the name of the trait prop appended (ie DynMusicProductionStyle.FavoriteKeys)\n        -- In this case the TraitAI trait being added to the bot is DynMusicProductionStyle, \n        -- and the prop the value wll map to is FavoriteKeys.\n        -- This flat structure will be nice for the NFT metadata to be standard and easy.\n        -- When it gets sent into the TraitHttpIO we will need to pull out the props and put them all beneath the same single trait.\n     */\n    function addTrait(\n        uint256 traitCode,\n        string memory traitName\n    ) public onlyOwner {\n        require(\n            bytes(availableTraits[traitCode]).length > 0,\n            \"Trait already exists\"\n        );\n        availableTraits[traitCode] = traitName;\n        allTraits.push(traitCode);\n    }\n\n    function cancelTrait(uint256 traitCode) public onlyOwner {\n        availableTraits[traitCode] = \"\";\n\n        //doesnt provide any use to remove it from allTraits, waste of gas. So we will just leave it.\n    }\n\n    function giveBirth(\n        address recipient,\n        uint256[] memory traits,\n        string[] memory dynamicTraitValues,\n        uint8[] memory traitDominance\n    ) public payable returns (uint256) {\n        require(\n            msg.value == MINT_TARTIST_PRICE,\n            \"Transaction value did not equal the mint price\"\n        );\n        require(traits.length < 100, \"Too many traits\");\n        require(dynamicTraitValues.length < 100, \"Too many trait values\");\n        require(traitDominance.length < 100, \"Too many trait dominance\");\n\n        //check that the passed traits are valid\n        for (uint256 i = 0; i < traits.length; i++) {\n            require(\n                bytes(availableTraits[traits[i]]).length > 0,\n                \"Invalid trait specified\"\n            );\n        }\n\n        //can optimize the heck out of this stuff but resisting for now.\n        //Dont set storage vars in loops!\n        bytes memory traitBytes;\n        for (uint256 i = 0; i < traits.length; i++) {\n            traitBytes = abi.encodePacked(traitBytes, traits[i]);\n        }\n\n        bytes memory dynTraitValuesBytes;\n        for (uint256 i = 0; i < dynamicTraitValues.length; i++) {\n            dynTraitValuesBytes = abi.encodePacked(\n                dynTraitValuesBytes,\n                dynamicTraitValues[i]\n            );\n        }\n        bytes32 botTraitsHash = keccak256(\n            bytes.concat(traitBytes, dynTraitValuesBytes)\n        );\n        require(\n            _usedTraitComboHashes[botTraitsHash] != true,\n            \"Bot genetics are not unique enough\"\n        );\n\n        _usedTraitComboHashes[botTraitsHash] = true;\n        _currentTokenId.increment();\n        uint256 newItemId = _currentTokenId.current();\n        botTraits[newItemId] = traits;\n        botTraitValues[newItemId] = dynamicTraitValues;\n        botTraitDominances[newItemId] = traitDominance;\n        _safeMint(recipient, newItemId);\n        _setTokenURI(newItemId, string(abi.encodePacked(_newMetadataCid)));\n        return newItemId;\n    }\n\n    function newArt(uint8 artistId) public payable returns (uint256) {\n        //address canot be blank\n        require(_tartiAddr != address(0), \"tarticontractnotset\");\n        require(msg.value == MINT_TARTI_PRICE, \"must send commission\"); //.01 eth\n\n        //call newArt on the Tarti contract\n        //Tarti only allows this contract to call that method\n        //Tell the new art method who the artist is\n\n        //First check that the caller is the owner of the artist\n        //if an artist has no owner, I forget who is allowed to use it? (maybe anyone but only if I get commissions)\n        //thats a good idea. For ownerless i get commissions. for owned I dont\n\n        //norights = specified artist is not contractually obligated, nor even allowed, to make any art for you.\n        require(msg.sender == ownerOf(artistId), \"norights\");\n\n        //use the art contract to create a new Tart token\n        //Trait engine will see the new Art on the blockchain and create the art\n        //the art package url will be based on the Tart tokenId\n        //we will own the dns of whatever we use for IPFS so we can pre generate here and guarantee to have it\n\n        Tarti tarti = Tarti(_tartiAddr);\n\n        return tarti.newArt(msg.sender, artistId);\n    }\n\n    /// @dev Returns an URI for a given token ID\n    function _baseURI() internal view virtual override returns (string memory) {\n        return baseTokenURI;\n    }\n\n    function setTartiAddr(address tartiAddr) public onlyOwner {\n        _tartiAddr = tartiAddr;\n    }\n\n    /// @dev Sets the base token URI prefix.\n    function setBaseTokenURI(string memory newBaseTokenURI) public onlyOwner {\n        baseTokenURI = newBaseTokenURI;\n    }\n\n    function setCreationStarted(\n        uint256 tokenId,\n        bool onTarti\n    ) public onlyOwner {\n        if (onTarti) {\n            require(_tartiAddr != address(0), \"tarticontractnotset\");\n            Tarti tarti = Tarti(_tartiAddr);\n            return tarti.setCreationStarted(tokenId);\n        }\n        _setTokenURI(tokenId, string(abi.encodePacked(_inProcessMetadataCid)));\n    }\n\n    function setCreated(\n        uint256 tokenId,\n        bytes calldata cid,\n        bool onTarti\n    ) public onlyOwner {\n        if (onTarti) {\n            require(_tartiAddr != address(0), \"tarticontractnotset\");\n            Tarti tarti = Tarti(_tartiAddr);\n            return tarti.setCreated(tokenId, cid);\n        }\n        //Don't allow the URI to ever change once it is set!\n        //We ensure that the current URL is one of the default hashes. \n        //If its not, that means its already been set, so we will not reset it in that case.\n        bytes32 tokenUriBytesHash = keccak256(bytes(tokenURI(tokenId))); //cant compare strings so lets compare hashes of strings\n        // if (\n        //     tokenUriBytesHash == keccak256(abi.encodePacked('ipfs://', _newMetadataCid)) ||\n        //     tokenUriBytesHash == keccak256(abi.encodePacked('ipfs://', _inProcessMetadataCid))\n        // ) {\n            _setTokenURI(tokenId, string(abi.encodePacked(cid)));\n        // }\n    }\n\n    function getTraits(uint256 tokenId) external view returns(uint256[] memory) {\n        return botTraits[tokenId];\n    }\n    function getTraitValues(uint256 tokenId) external view returns(string[] memory) {\n        return botTraitValues[tokenId];\n    }\n    function getTraitDominances(uint256 tokenId) external view returns(uint256[] memory) {\n        return botTraitDominances[tokenId];\n    }\n\n    /// @dev Overridden in order to make it an onlyOwner function\n    function withdrawPayments(\n        address payable payee\n    ) public virtual override onlyOwner {\n        super.withdrawPayments(payee);\n    }\n\n    function _burn(\n        uint256 tokenId\n    ) internal override(ERC721, ERC721URIStorage) {\n        super._burn(tokenId);\n    }\n\n    function _beforeTokenTransfer(\n        address from,\n        address to,\n        uint256 firstTokenId,\n        uint256 batchSize\n    ) internal override(ERC721, ERC721Enumerable) {\n        super._beforeTokenTransfer(from, to, firstTokenId, batchSize);\n    }\n\n    function supportsInterface(\n        bytes4 interfaceId\n    ) public view override(ERC721Enumerable, ERC721URIStorage) returns (bool) {\n        return super.supportsInterface(interfaceId);\n    }\n\n    function tokenURI(\n        uint256 tokenId\n    ) public view override(ERC721, ERC721URIStorage) returns (string memory) {\n        return ERC721URIStorage.tokenURI(tokenId);\n    }\n}\n",
  "sourcePath": "/home/evan/tartst/contracts/Tartist.sol",
  "compiler": {
    "name": "solc",
    "version": "0.8.18+commit.87f61d96.Emscripten.clang"
  },
  "schemaVersion": "3.4.14",
  "updatedAt": "2023-07-12T00:28:33.201Z",
  "networkType": "ethereum",
  "devdoc": {
    "events": {
      "Approval(address,address,uint256)": {
        "details": "Emitted when `owner` enables `approved` to manage the `tokenId` token."
      },
      "ApprovalForAll(address,address,bool)": {
        "details": "Emitted when `owner` enables or disables (`approved`) `operator` to manage all of its assets."
      },
      "BatchMetadataUpdate(uint256,uint256)": {
        "details": "This event emits when the metadata of a range of tokens is changed. So that the third-party platforms such as NFT market could timely update the images and related attributes of the NFTs."
      },
      "MetadataUpdate(uint256)": {
        "details": "This event emits when the metadata of a token is changed. So that the third-party platforms such as NFT market could timely update the images and related attributes of the NFT."
      },
      "Transfer(address,address,uint256)": {
        "details": "Emitted when `tokenId` token is transferred from `from` to `to`."
      }
    },
    "kind": "dev",
    "methods": {
      "approve(address,uint256)": {
        "details": "See {IERC721-approve}."
      },
      "balanceOf(address)": {
        "details": "See {IERC721-balanceOf}."
      },
      "getApproved(uint256)": {
        "details": "See {IERC721-getApproved}."
      },
      "isApprovedForAll(address,address)": {
        "details": "See {IERC721-isApprovedForAll}."
      },
      "name()": {
        "details": "See {IERC721Metadata-name}."
      },
      "owner()": {
        "details": "Returns the address of the current owner."
      },
      "ownerOf(uint256)": {
        "details": "See {IERC721-ownerOf}."
      },
      "payments(address)": {
        "details": "Returns the payments owed to an address.",
        "params": {
          "dest": "The creditor's address."
        }
      },
      "renounceOwnership()": {
        "details": "Leaves the contract without owner. It will not be possible to call `onlyOwner` functions. Can only be called by the current owner. NOTE: Renouncing ownership will leave the contract without an owner, thereby disabling any functionality that is only available to the owner."
      },
      "safeTransferFrom(address,address,uint256)": {
        "details": "See {IERC721-safeTransferFrom}."
      },
      "safeTransferFrom(address,address,uint256,bytes)": {
        "details": "See {IERC721-safeTransferFrom}."
      },
      "setApprovalForAll(address,bool)": {
        "details": "See {IERC721-setApprovalForAll}."
      },
      "setBaseTokenURI(string)": {
        "details": "Sets the base token URI prefix."
      },
      "symbol()": {
        "details": "See {IERC721Metadata-symbol}."
      },
      "tokenByIndex(uint256)": {
        "details": "See {IERC721Enumerable-tokenByIndex}."
      },
      "tokenOfOwnerByIndex(address,uint256)": {
        "details": "See {IERC721Enumerable-tokenOfOwnerByIndex}."
      },
      "totalSupply()": {
        "details": "See {IERC721Enumerable-totalSupply}."
      },
      "transferFrom(address,address,uint256)": {
        "details": "See {IERC721-transferFrom}."
      },
      "transferOwnership(address)": {
        "details": "Transfers ownership of the contract to a new account (`newOwner`). Can only be called by the current owner."
      },
      "withdrawPayments(address)": {
        "details": "Overridden in order to make it an onlyOwner function"
      }
    },
    "version": 1
  },
  "userdoc": {
    "kind": "user",
    "methods": {
      "addTrait(uint256,string)": {
        "notice": "`traitName` will either be: - The name of the Trait class (ie MusicProducer) - The name of the Trait with dot then the name of the trait prop appended (ie DynMusicProductionStyle.FavoriteKeys) -- In this case the TraitAI trait being added to the bot is DynMusicProductionStyle,  -- and the prop the value wll map to is FavoriteKeys. -- This flat structure will be nice for the NFT metadata to be standard and easy. -- When it gets sent into the TraitHttpIO we will need to pull out the props and put them all beneath the same single trait."
      }
    },
    "version": 1
  }
}