{
  "contractName": "Tartist",
  "abi": [
    {
      "inputs": [],
      "stateMutability": "nonpayable",
      "type": "constructor"
    },
    {
      "anonymous": false,
      "inputs": [
        {
          "indexed": true,
          "internalType": "address",
          "name": "owner",
          "type": "address"
        },
        {
          "indexed": true,
          "internalType": "address",
          "name": "approved",
          "type": "address"
        },
        {
          "indexed": true,
          "internalType": "uint256",
          "name": "tokenId",
          "type": "uint256"
        }
      ],
      "name": "Approval",
      "type": "event"
    },
    {
      "anonymous": false,
      "inputs": [
        {
          "indexed": true,
          "internalType": "address",
          "name": "owner",
          "type": "address"
        },
        {
          "indexed": true,
          "internalType": "address",
          "name": "operator",
          "type": "address"
        },
        {
          "indexed": false,
          "internalType": "bool",
          "name": "approved",
          "type": "bool"
        }
      ],
      "name": "ApprovalForAll",
      "type": "event"
    },
    {
      "anonymous": false,
      "inputs": [
        {
          "indexed": false,
          "internalType": "uint256",
          "name": "_fromTokenId",
          "type": "uint256"
        },
        {
          "indexed": false,
          "internalType": "uint256",
          "name": "_toTokenId",
          "type": "uint256"
        }
      ],
      "name": "BatchMetadataUpdate",
      "type": "event"
    },
    {
      "anonymous": false,
      "inputs": [
        {
          "indexed": false,
          "internalType": "uint256",
          "name": "_tokenId",
          "type": "uint256"
        }
      ],
      "name": "MetadataUpdate",
      "type": "event"
    },
    {
      "anonymous": false,
      "inputs": [
        {
          "indexed": true,
          "internalType": "address",
          "name": "previousOwner",
          "type": "address"
        },
        {
          "indexed": true,
          "internalType": "address",
          "name": "newOwner",
          "type": "address"
        }
      ],
      "name": "OwnershipTransferred",
      "type": "event"
    },
    {
      "anonymous": false,
      "inputs": [
        {
          "indexed": true,
          "internalType": "address",
          "name": "from",
          "type": "address"
        },
        {
          "indexed": true,
          "internalType": "address",
          "name": "to",
          "type": "address"
        },
        {
          "indexed": true,
          "internalType": "uint256",
          "name": "tokenId",
          "type": "uint256"
        }
      ],
      "name": "Transfer",
      "type": "event"
    },
    {
      "inputs": [],
      "name": "MINT_TARTIST_PRICE",
      "outputs": [
        {
          "internalType": "uint256",
          "name": "",
          "type": "uint256"
        }
      ],
      "stateMutability": "view",
      "type": "function",
      "constant": true
    },
    {
      "inputs": [],
      "name": "MINT_TARTI_PRICE",
      "outputs": [
        {
          "internalType": "uint256",
          "name": "",
          "type": "uint256"
        }
      ],
      "stateMutability": "view",
      "type": "function",
      "constant": true
    },
    {
      "inputs": [
        {
          "internalType": "uint256",
          "name": "",
          "type": "uint256"
        }
      ],
      "name": "allTraits",
      "outputs": [
        {
          "internalType": "bytes2",
          "name": "",
          "type": "bytes2"
        }
      ],
      "stateMutability": "view",
      "type": "function",
      "constant": true
    },
    {
      "inputs": [
        {
          "internalType": "address",
          "name": "to",
          "type": "address"
        },
        {
          "internalType": "uint256",
          "name": "tokenId",
          "type": "uint256"
        }
      ],
      "name": "approve",
      "outputs": [],
      "stateMutability": "nonpayable",
      "type": "function"
    },
    {
      "inputs": [
        {
          "internalType": "address",
          "name": "owner",
          "type": "address"
        }
      ],
      "name": "balanceOf",
      "outputs": [
        {
          "internalType": "uint256",
          "name": "",
          "type": "uint256"
        }
      ],
      "stateMutability": "view",
      "type": "function",
      "constant": true
    },
    {
      "inputs": [],
      "name": "baseTokenURI",
      "outputs": [
        {
          "internalType": "string",
          "name": "",
          "type": "string"
        }
      ],
      "stateMutability": "view",
      "type": "function",
      "constant": true
    },
    {
      "inputs": [
        {
          "internalType": "uint256",
          "name": "",
          "type": "uint256"
        },
        {
          "internalType": "uint256",
          "name": "",
          "type": "uint256"
        }
      ],
      "name": "botTraitDominance",
      "outputs": [
        {
          "internalType": "uint8",
          "name": "",
          "type": "uint8"
        }
      ],
      "stateMutability": "view",
      "type": "function",
      "constant": true
    },
    {
      "inputs": [
        {
          "internalType": "uint256",
          "name": "",
          "type": "uint256"
        },
        {
          "internalType": "uint256",
          "name": "",
          "type": "uint256"
        }
      ],
      "name": "botTraitDynValues",
      "outputs": [
        {
          "internalType": "string",
          "name": "",
          "type": "string"
        }
      ],
      "stateMutability": "view",
      "type": "function",
      "constant": true
    },
    {
      "inputs": [
        {
          "internalType": "uint256",
          "name": "",
          "type": "uint256"
        }
      ],
      "name": "botTraits",
      "outputs": [
        {
          "internalType": "bytes",
          "name": "",
          "type": "bytes"
        }
      ],
      "stateMutability": "view",
      "type": "function",
      "constant": true
    },
    {
      "inputs": [
        {
          "internalType": "uint256",
          "name": "tokenId",
          "type": "uint256"
        }
      ],
      "name": "getApproved",
      "outputs": [
        {
          "internalType": "address",
          "name": "",
          "type": "address"
        }
      ],
      "stateMutability": "view",
      "type": "function",
      "constant": true
    },
    {
      "inputs": [
        {
          "internalType": "address",
          "name": "owner",
          "type": "address"
        },
        {
          "internalType": "address",
          "name": "operator",
          "type": "address"
        }
      ],
      "name": "isApprovedForAll",
      "outputs": [
        {
          "internalType": "bool",
          "name": "",
          "type": "bool"
        }
      ],
      "stateMutability": "view",
      "type": "function",
      "constant": true
    },
    {
      "inputs": [],
      "name": "name",
      "outputs": [
        {
          "internalType": "string",
          "name": "",
          "type": "string"
        }
      ],
      "stateMutability": "view",
      "type": "function",
      "constant": true
    },
    {
      "inputs": [],
      "name": "owner",
      "outputs": [
        {
          "internalType": "address",
          "name": "",
          "type": "address"
        }
      ],
      "stateMutability": "view",
      "type": "function",
      "constant": true
    },
    {
      "inputs": [
        {
          "internalType": "uint256",
          "name": "tokenId",
          "type": "uint256"
        }
      ],
      "name": "ownerOf",
      "outputs": [
        {
          "internalType": "address",
          "name": "",
          "type": "address"
        }
      ],
      "stateMutability": "view",
      "type": "function",
      "constant": true
    },
    {
      "inputs": [
        {
          "internalType": "address",
          "name": "dest",
          "type": "address"
        }
      ],
      "name": "payments",
      "outputs": [
        {
          "internalType": "uint256",
          "name": "",
          "type": "uint256"
        }
      ],
      "stateMutability": "view",
      "type": "function",
      "constant": true
    },
    {
      "inputs": [],
      "name": "renounceOwnership",
      "outputs": [],
      "stateMutability": "nonpayable",
      "type": "function"
    },
    {
      "inputs": [
        {
          "internalType": "address",
          "name": "from",
          "type": "address"
        },
        {
          "internalType": "address",
          "name": "to",
          "type": "address"
        },
        {
          "internalType": "uint256",
          "name": "tokenId",
          "type": "uint256"
        }
      ],
      "name": "safeTransferFrom",
      "outputs": [],
      "stateMutability": "nonpayable",
      "type": "function"
    },
    {
      "inputs": [
        {
          "internalType": "address",
          "name": "from",
          "type": "address"
        },
        {
          "internalType": "address",
          "name": "to",
          "type": "address"
        },
        {
          "internalType": "uint256",
          "name": "tokenId",
          "type": "uint256"
        },
        {
          "internalType": "bytes",
          "name": "data",
          "type": "bytes"
        }
      ],
      "name": "safeTransferFrom",
      "outputs": [],
      "stateMutability": "nonpayable",
      "type": "function"
    },
    {
      "inputs": [
        {
          "internalType": "address",
          "name": "operator",
          "type": "address"
        },
        {
          "internalType": "bool",
          "name": "approved",
          "type": "bool"
        }
      ],
      "name": "setApprovalForAll",
      "outputs": [],
      "stateMutability": "nonpayable",
      "type": "function"
    },
    {
      "inputs": [],
      "name": "symbol",
      "outputs": [
        {
          "internalType": "string",
          "name": "",
          "type": "string"
        }
      ],
      "stateMutability": "view",
      "type": "function",
      "constant": true
    },
    {
      "inputs": [
        {
          "internalType": "uint256",
          "name": "index",
          "type": "uint256"
        }
      ],
      "name": "tokenByIndex",
      "outputs": [
        {
          "internalType": "uint256",
          "name": "",
          "type": "uint256"
        }
      ],
      "stateMutability": "view",
      "type": "function",
      "constant": true
    },
    {
      "inputs": [
        {
          "internalType": "address",
          "name": "owner",
          "type": "address"
        },
        {
          "internalType": "uint256",
          "name": "index",
          "type": "uint256"
        }
      ],
      "name": "tokenOfOwnerByIndex",
      "outputs": [
        {
          "internalType": "uint256",
          "name": "",
          "type": "uint256"
        }
      ],
      "stateMutability": "view",
      "type": "function",
      "constant": true
    },
    {
      "inputs": [],
      "name": "totalSupply",
      "outputs": [
        {
          "internalType": "uint256",
          "name": "",
          "type": "uint256"
        }
      ],
      "stateMutability": "view",
      "type": "function",
      "constant": true
    },
    {
      "inputs": [
        {
          "internalType": "bytes2",
          "name": "",
          "type": "bytes2"
        }
      ],
      "name": "traitsActive",
      "outputs": [
        {
          "internalType": "bool",
          "name": "",
          "type": "bool"
        }
      ],
      "stateMutability": "view",
      "type": "function",
      "constant": true
    },
    {
      "inputs": [
        {
          "internalType": "address",
          "name": "from",
          "type": "address"
        },
        {
          "internalType": "address",
          "name": "to",
          "type": "address"
        },
        {
          "internalType": "uint256",
          "name": "tokenId",
          "type": "uint256"
        }
      ],
      "name": "transferFrom",
      "outputs": [],
      "stateMutability": "nonpayable",
      "type": "function"
    },
    {
      "inputs": [
        {
          "internalType": "address",
          "name": "newOwner",
          "type": "address"
        }
      ],
      "name": "transferOwnership",
      "outputs": [],
      "stateMutability": "nonpayable",
      "type": "function"
    },
    {
      "inputs": [
        {
          "internalType": "bytes32",
          "name": "",
          "type": "bytes32"
        }
      ],
      "name": "usedTraitComboHashes",
      "outputs": [
        {
          "internalType": "bool",
          "name": "",
          "type": "bool"
        }
      ],
      "stateMutability": "view",
      "type": "function",
      "constant": true
    },
    {
      "inputs": [
        {
          "internalType": "bytes2",
          "name": "traitCode",
          "type": "bytes2"
        }
      ],
      "name": "addTrait",
      "outputs": [],
      "stateMutability": "nonpayable",
      "type": "function"
    },
    {
      "inputs": [
        {
          "internalType": "bytes2",
          "name": "traitCode",
          "type": "bytes2"
        }
      ],
      "name": "cancelTrait",
      "outputs": [],
      "stateMutability": "nonpayable",
      "type": "function"
    },
    {
      "inputs": [
        {
          "internalType": "address",
          "name": "recipient",
          "type": "address"
        },
        {
          "internalType": "bytes",
          "name": "traits",
          "type": "bytes"
        },
        {
          "internalType": "string[]",
          "name": "dynamicTraitValues",
          "type": "string[]"
        },
        {
          "internalType": "uint8[]",
          "name": "traitDominance",
          "type": "uint8[]"
        }
      ],
      "name": "giveBirth",
      "outputs": [
        {
          "internalType": "uint256",
          "name": "",
          "type": "uint256"
        }
      ],
      "stateMutability": "payable",
      "type": "function",
      "payable": true
    },
    {
      "inputs": [
        {
          "internalType": "uint8",
          "name": "artistId",
          "type": "uint8"
        }
      ],
      "name": "newArt",
      "outputs": [
        {
          "internalType": "uint256",
          "name": "",
          "type": "uint256"
        }
      ],
      "stateMutability": "payable",
      "type": "function",
      "payable": true
    },
    {
      "inputs": [
        {
          "internalType": "address",
          "name": "tartiAddr",
          "type": "address"
        }
      ],
      "name": "setTartiAddr",
      "outputs": [],
      "stateMutability": "nonpayable",
      "type": "function"
    },
    {
      "inputs": [
        {
          "internalType": "string",
          "name": "_baseTokenURI",
          "type": "string"
        }
      ],
      "name": "setBaseTokenURI",
      "outputs": [],
      "stateMutability": "nonpayable",
      "type": "function"
    },
    {
      "inputs": [
        {
          "internalType": "address payable",
          "name": "payee",
          "type": "address"
        }
      ],
      "name": "withdrawPayments",
      "outputs": [],
      "stateMutability": "nonpayable",
      "type": "function"
    },
    {
      "inputs": [
        {
          "internalType": "bytes4",
          "name": "interfaceId",
          "type": "bytes4"
        }
      ],
      "name": "supportsInterface",
      "outputs": [
        {
          "internalType": "bool",
          "name": "",
          "type": "bool"
        }
      ],
      "stateMutability": "view",
      "type": "function",
      "constant": true
    },
    {
      "inputs": [
        {
          "internalType": "uint256",
          "name": "tokenId",
          "type": "uint256"
        }
      ],
      "name": "tokenURI",
      "outputs": [
        {
          "internalType": "string",
          "name": "",
          "type": "string"
        }
      ],
      "stateMutability": "view",
      "type": "function",
      "constant": true
    }
  ],
  "bytecode": "0x60a06040523480156200001157600080fd5b506040518060400160405280600c81526020016b15185c9d1a48105c9d1a5cdd60a21b81525060405180604001604052806007815260200166151054951254d560ca1b8152508160009081620000689190620001f2565b506001620000778282620001f2565b50505060405162000088906200013f565b604051809103906000f080158015620000a5573d6000803e3d6000fd5b506001600160a01b0316608052620000bd33620000ed565b6040518060600160405280602481526020016200366860249139600d90620000e69082620001f2565b50620002be565b600b80546001600160a01b038381166001600160a01b0319831681179093556040519116919082907f8be0079c531659141344cd1fd0a4f28419497f9722a3daafe3b4186f6b6457e090600090a35050565b6105a280620030c683390190565b634e487b7160e01b600052604160045260246000fd5b600181811c908216806200017857607f821691505b6020821081036200019957634e487b7160e01b600052602260045260246000fd5b50919050565b601f821115620001ed57600081815260208120601f850160051c81016020861015620001c85750805b601f850160051c820191505b81811015620001e957828155600101620001d4565b5050505b505050565b81516001600160401b038111156200020e576200020e6200014d565b62000226816200021f845462000163565b846200019f565b602080601f8311600181146200025e5760008415620002455750858301515b600019600386901b1c1916600185901b178555620001e9565b600085815260208120601f198616915b828110156200028f578886015182559484019460019091019084016200026e565b5085821015620002ae5787850151600019600388901b60f8161c191681555b5050505050600190811b01905550565b608051612de5620002e1600039600081816113a301526117a80152612de56000f3fe60806040526004361061019f5760003560e01c806301ffc9a7146101a457806306fdde03146101d9578063081812fc146101fb578063095ea7b3146102285780630b518d9b1461024a57806311f96bc01461026a57806318160ddd1461028a57806323b872dd146102a95780632f745c59146102c957806330176e13146102e95780633029fe401461030957806331b3eb941461032957806340eb171a1461034957806342842e0e146103695780634977da32146103895780634f6ccce7146103b9578063580a294b146103d95780636352211e146103f557806369d50501146104155780636bf1c36a1461044557806370a0823114610460578063715018a614610480578063750f681c1461049557806385758ad5146104ce5780638da5cb5b1461050057806394bc38ea1461051557806395d89b41146105285780639ab5dc471461053d578063a22cb46514610550578063b88d4fde14610570578063c690846114610590578063c87b56dd146105b0578063d547cfb7146105d0578063e2982c21146105e5578063e985e9c514610605578063f2fde38b14610625575b600080fd5b3480156101b057600080fd5b506101c46101bf366004612439565b610645565b60405190151581526020015b60405180910390f35b3480156101e557600080fd5b506101ee610656565b6040516101d091906124a6565b34801561020757600080fd5b5061021b6102163660046124b9565b6106e8565b6040516101d091906124d2565b34801561023457600080fd5b506102486102433660046124fb565b61070f565b005b34801561025657600080fd5b506101ee610265366004612527565b610829565b34801561027657600080fd5b50610248610285366004612549565b6108e2565b34801561029657600080fd5b506009545b6040519081526020016101d0565b3480156102b557600080fd5b506102486102c4366004612573565b6109d0565b3480156102d557600080fd5b5061029b6102e43660046124fb565b610a01565b3480156102f557600080fd5b50610248610304366004612669565b610a97565b34801561031557600080fd5b50610248610324366004612549565b610aaf565b34801561033557600080fd5b5061024861034436600461269d565b610ad9565b34801561035557600080fd5b5061024861036436600461269d565b610aed565b34801561037557600080fd5b50610248610384366004612573565b610b17565b34801561039557600080fd5b506101c46103a4366004612549565b600f6020526000908152604090205460ff1681565b3480156103c557600080fd5b5061029b6103d43660046124b9565b610b32565b3480156103e557600080fd5b5061029b67027f7d0bdb92000081565b34801561040157600080fd5b5061021b6104103660046124b9565b610bc5565b34801561042157600080fd5b506101c46104303660046124b9565b60106020526000908152604090205460ff1681565b34801561045157600080fd5b5061029b66aa87bee538000081565b34801561046c57600080fd5b5061029b61047b36600461269d565b610bf9565b34801561048c57600080fd5b50610248610c7f565b3480156104a157600080fd5b506104b56104b03660046124b9565b610c93565b6040516001600160f01b031990911681526020016101d0565b3480156104da57600080fd5b506104ee6104e9366004612527565b610cca565b60405160ff90911681526020016101d0565b34801561050c57600080fd5b5061021b610d0d565b61029b610523366004612765565b610d1c565b34801561053457600080fd5b506101ee611191565b61029b61054b366004612871565b6111a0565b34801561055c57600080fd5b5061024861056b36600461288c565b611315565b34801561057c57600080fd5b5061024861058b3660046128ca565b611320565b34801561059c57600080fd5b506101ee6105ab3660046124b9565b611358565b3480156105bc57600080fd5b506101ee6105cb3660046124b9565b611371565b3480156105dc57600080fd5b506101ee61137c565b3480156105f157600080fd5b5061029b61060036600461269d565b611389565b34801561061157600080fd5b506101c4610620366004612929565b611419565b34801561063157600080fd5b5061024861064036600461269d565b611447565b6000610650826114bd565b92915050565b60606000805461066590612957565b80601f016020809104026020016040519081016040528092919081815260200182805461069190612957565b80156106de5780601f106106b3576101008083540402835291602001916106de565b820191906000526020600020905b8154815290600101906020018083116106c157829003601f168201915b5050505050905090565b60006106f3826114e2565b506000908152600460205260409020546001600160a01b031690565b600061071a82610bc5565b9050806001600160a01b0316836001600160a01b03160361078c5760405162461bcd60e51b815260206004820152602160248201527f4552433732313a20617070726f76616c20746f2063757272656e74206f776e656044820152603960f91b60648201526084015b60405180910390fd5b336001600160a01b03821614806107a857506107a88133611419565b61081a5760405162461bcd60e51b815260206004820152603d60248201527f4552433732313a20617070726f76652063616c6c6572206973206e6f7420746f60448201527f6b656e206f776e6572206f7220617070726f76656420666f7220616c6c0000006064820152608401610783565b6108248383611507565b505050565b6012602052816000526040600020818154811061084557600080fd5b9060005260206000200160009150915050805461086190612957565b80601f016020809104026020016040519081016040528092919081815260200182805461088d90612957565b80156108da5780601f106108af576101008083540402835291602001916108da565b820191906000526020600020905b8154815290600101906020018083116108bd57829003601f168201915b505050505081565b6108ea611575565b6001600160f01b031981166000908152600f602052604090205460ff161561094b5760405162461bcd60e51b8152602060048201526014602482015273547261697420616c72656164792065786973747360601b6044820152606401610783565b6001600160f01b031981166000908152600f6020819052604082208054600160ff199091168117909155600e805491820181559092527fbb7b4a454dc3493923482f07822329ed19e8244eff582cc204f8554c3620c3fd6010830401805461ffff939092166002026101000a9283021990911660f09390931c91909102919091179055565b6109da33826115d4565b6109f65760405162461bcd60e51b815260040161078390612991565b610824838383611632565b6000610a0c83610bf9565b8210610a6e5760405162461bcd60e51b815260206004820152602b60248201527f455243373231456e756d657261626c653a206f776e657220696e646578206f7560448201526a74206f6620626f756e647360a81b6064820152608401610783565b506001600160a01b03919091166000908152600760209081526040808320938352929052205490565b610a9f611575565b600d610aab8282612a2c565b5050565b610ab7611575565b6001600160f01b0319166000908152600f60205260409020805460ff19169055565b610ae1611575565b610aea81611791565b50565b610af5611575565b601480546001600160a01b0319166001600160a01b0392909216919091179055565b61082483838360405180602001604052806000815250611320565b6000610b3d60095490565b8210610ba05760405162461bcd60e51b815260206004820152602c60248201527f455243373231456e756d657261626c653a20676c6f62616c20696e646578206f60448201526b7574206f6620626f756e647360a01b6064820152608401610783565b60098281548110610bb357610bb3612aeb565b90600052602060002001549050919050565b600080610bd183611812565b90506001600160a01b0381166106505760405162461bcd60e51b815260040161078390612b01565b60006001600160a01b038216610c635760405162461bcd60e51b815260206004820152602960248201527f4552433732313a2061646472657373207a65726f206973206e6f7420612076616044820152683634b21037bbb732b960b91b6064820152608401610783565b506001600160a01b031660009081526003602052604090205490565b610c87611575565b610c91600061182d565b565b600e8181548110610ca357600080fd5b9060005260206000209060109182820401919006600202915054906101000a900460f01b81565b60136020528160005260406000208181548110610ce657600080fd5b9060005260206000209060209182820401919006915091509054906101000a900460ff1681565b600b546001600160a01b031690565b600067027f7d0bdb9200003414610d8c5760405162461bcd60e51b815260206004820152602e60248201527f5472616e73616374696f6e2076616c756520646964206e6f7420657175616c2060448201526d746865206d696e7420707269636560901b6064820152608401610783565b6064845110610dcf5760405162461bcd60e51b815260206004820152600f60248201526e546f6f206d616e792074726169747360881b6044820152606401610783565b6064835110610e185760405162461bcd60e51b8152602060048201526015602482015274546f6f206d616e792074726169742076616c75657360581b6044820152606401610783565b6064825110610e645760405162461bcd60e51b8152602060048201526018602482015277546f6f206d616e7920747261697420646f6d696e616e636560401b6044820152606401610783565b60028451610e729190612b33565b15610eb65760405162461bcd60e51b8152602060048201526014602482015273092dcecc2d8d2c840e8e4c2d2e840d8cadccee8d60631b6044820152606401610783565b60005b8451811015610fbf57600f6000868381518110610ed857610ed8612aeb565b01602001516001600160f81b03191687610ef3856001612b6b565b81518110610f0357610f03612aeb565b016020908101516040516001600160f81b031993841692810192909252919091166021820152602201604051602081830303815290604052610f4490612b7e565b6001600160f01b031916815260208101919091526040016000205460ff161515600114610fad5760405162461bcd60e51b8152602060048201526017602482015276125b9d985b1a59081d1c985a5d081cdc1958da599a5959604a1b6044820152606401610783565b610fb8600282612b6b565b9050610eb9565b50606060005b845181101561101e5781858281518110610fe157610fe1612aeb565b6020026020010151604051602001610ffa929190612bb5565b6040516020818303038152906040529150808061101690612be4565b915050610fc5565b5060008582604051602001611034929190612bb5565b60408051601f1981840301815291815281516020928301206000818152601090935291205490915060ff1615156001036110bb5760405162461bcd60e51b815260206004820152602260248201527f426f742067656e657469637320617265206e6f7420756e6971756520656e6f756044820152610ced60f31b6064820152608401610783565b6000818152601060205260409020805460ff191660011790556110e2600c80546001019055565b60006110ed600c5490565b60008181526011602052604090209091506111088882612a2c565b5060008181526012602090815260409091208751611128928901906122bf565b506000818152601360209081526040909120865161114892880190612315565b50611153888261187f565b6111848161116083611899565b6040516020016111709190612bfd565b60405160208183030381529060405261192b565b925050505b949350505050565b60606001805461066590612957565b6014546000906001600160a01b03166111f15760405162461bcd60e51b81526020600482015260136024820152721d185c9d1cd8dbdb9d1c9858dd1b9bdd1cd95d606a1b6044820152606401610783565b66aa87bee5380000341461123e5760405162461bcd60e51b815260206004820152601460248201527336bab9ba1039b2b7321031b7b6b6b4b9b9b4b7b760611b6044820152606401610783565b61124a8260ff16610bc5565b6001600160a01b0316336001600160a01b0316146112955760405162461bcd60e51b81526020600482015260086024820152676e6f72696768747360c01b6044820152606401610783565b601454604051639e31203160e01b815233600482015260ff841660248201526001600160a01b03909116908190639e312031906044016020604051808303816000875af11580156112ea573d6000803e3d6000fd5b505050506040513d601f19601f8201168201806040525081019061130e9190612c26565b9392505050565b610aab3383836119e7565b61132a33836115d4565b6113465760405162461bcd60e51b815260040161078390612991565b61135284848484611ab1565b50505050565b6011602052600090815260409020805461086190612957565b606061065082611ae4565b600d805461086190612957565b6040516371d4ed8d60e11b81526000906001600160a01b037f0000000000000000000000000000000000000000000000000000000000000000169063e3a9db1a906113d89085906004016124d2565b602060405180830381865afa1580156113f5573d6000803e3d6000fd5b505050506040513d601f19601f820116820180604052508101906106509190612c26565b6001600160a01b03918216600090815260056020908152604080832093909416825291909152205460ff1690565b61144f611575565b6001600160a01b0381166114b45760405162461bcd60e51b815260206004820152602660248201527f4f776e61626c653a206e6577206f776e657220697320746865207a65726f206160448201526564647265737360d01b6064820152608401610783565b610aea8161182d565b60006001600160e01b0319821663780e9d6360e01b1480610650575061065082611bdf565b6114eb81611c04565b610aea5760405162461bcd60e51b815260040161078390612b01565b600081815260046020526040902080546001600160a01b0319166001600160a01b038416908117909155819061153c82610bc5565b6001600160a01b03167f8c5be1e5ebec7d5bd14f71427d1e84f3dd0314c0f7b2291e5b200ac8c7c3b92560405160405180910390a45050565b3361157e610d0d565b6001600160a01b031614610c915760405162461bcd60e51b815260206004820181905260248201527f4f776e61626c653a2063616c6c6572206973206e6f7420746865206f776e65726044820152606401610783565b6000806115e083610bc5565b9050806001600160a01b0316846001600160a01b0316148061160757506116078185611419565b806111895750836001600160a01b0316611620846106e8565b6001600160a01b031614949350505050565b826001600160a01b031661164582610bc5565b6001600160a01b03161461166b5760405162461bcd60e51b815260040161078390612c3f565b6001600160a01b0382166116cd5760405162461bcd60e51b8152602060048201526024808201527f4552433732313a207472616e7366657220746f20746865207a65726f206164646044820152637265737360e01b6064820152608401610783565b6116da8383836001611c21565b826001600160a01b03166116ed82610bc5565b6001600160a01b0316146117135760405162461bcd60e51b815260040161078390612c3f565b600081815260046020908152604080832080546001600160a01b03199081169091556001600160a01b038781168086526003855283862080546000190190559087168086528386208054600101905586865260029094528285208054909216841790915590518493600080516020612d9083398151915291a4505050565b6040516351cff8d960e01b81526001600160a01b037f000000000000000000000000000000000000000000000000000000000000000016906351cff8d9906117dd9084906004016124d2565b600060405180830381600087803b1580156117f757600080fd5b505af115801561180b573d6000803e3d6000fd5b5050505050565b6000908152600260205260409020546001600160a01b031690565b600b80546001600160a01b038381166001600160a01b0319831681179093556040519116919082907f8be0079c531659141344cd1fd0a4f28419497f9722a3daafe3b4186f6b6457e090600090a35050565b610aab828260405180602001604052806000815250611c2d565b606060006118a683611c60565b60010190506000816001600160401b038111156118c5576118c56125b4565b6040519080825280601f01601f1916602001820160405280156118ef576020820181803683370190505b5090508181016020015b600019016f181899199a1a9b1b9c1cb0b131b232b360811b600a86061a8153600a85049450846118f957509392505050565b61193482611c04565b6119975760405162461bcd60e51b815260206004820152602e60248201527f45524337323155524953746f726167653a2055524920736574206f66206e6f6e60448201526d32bc34b9ba32b73a103a37b5b2b760911b6064820152608401610783565b60008281526006602052604090206119af8282612a2c565b506040518281527ff8e1a15aba9398e019f0b49df1a4fde98ee17ae345cb5f6b5e2c27f5033e8ce79060200160405180910390a15050565b816001600160a01b0316836001600160a01b031603611a445760405162461bcd60e51b815260206004820152601960248201527822a9219b99189d1030b8383937bb32903a379031b0b63632b960391b6044820152606401610783565b6001600160a01b03838116600081815260056020908152604080832094871680845294825291829020805460ff191686151590811790915591519182527f17307eab39ab6107e8899845ad3d59bd9653f200f220920489ca2b5937696c31910160405180910390a3505050565b611abc848484611632565b611ac884848484611d36565b6113525760405162461bcd60e51b815260040161078390612c84565b6060611aef826114e2565b60008281526006602052604081208054611b0890612957565b80601f0160208091040260200160405190810160405280929190818152602001828054611b3490612957565b8015611b815780601f10611b5657610100808354040283529160200191611b81565b820191906000526020600020905b815481529060010190602001808311611b6457829003601f168201915b505050505090506000611b92611e34565b90508051600003611ba4575092915050565b815115611bd6578082604051602001611bbe929190612bb5565b60405160208183030381529060405292505050919050565b61118984611e43565b60006001600160e01b03198216632483248360e11b1480610650575061065082611ea9565b600080611c1083611812565b6001600160a01b0316141592915050565b61135284848484611ef9565b611c378383612026565b611c446000848484611d36565b6108245760405162461bcd60e51b815260040161078390612c84565b60008072184f03e93ff9f4daa797ed6e38ed64bf6a1f0160401b8310611c9f5772184f03e93ff9f4daa797ed6e38ed64bf6a1f0160401b830492506040015b6904ee2d6d415b85acef8160201b8310611cc9576904ee2d6d415b85acef8160201b830492506020015b662386f26fc100008310611ce757662386f26fc10000830492506010015b6305f5e1008310611cff576305f5e100830492506008015b6127108310611d1357612710830492506004015b60648310611d25576064830492506002015b600a83106106505760010192915050565b60006001600160a01b0384163b15611e2c57604051630a85bd0160e11b81526001600160a01b0385169063150b7a0290611d7a903390899088908890600401612cd6565b6020604051808303816000875af1925050508015611db5575060408051601f3d908101601f19168201909252611db291810190612d13565b60015b611e12573d808015611de3576040519150601f19603f3d011682016040523d82523d6000602084013e611de8565b606091505b508051600003611e0a5760405162461bcd60e51b815260040161078390612c84565b805181602001fd5b6001600160e01b031916630a85bd0160e11b149050611189565b506001611189565b6060600d805461066590612957565b6060611e4e826114e2565b6000611e58611e34565b90506000815111611e78576040518060200160405280600081525061130e565b80611e8284611899565b604051602001611e93929190612bb5565b6040516020818303038152906040529392505050565b60006001600160e01b031982166380ac58cd60e01b1480611eda57506001600160e01b03198216635b5e139f60e01b145b8061065057506301ffc9a760e01b6001600160e01b0319831614610650565b6001811115611f685760405162461bcd60e51b815260206004820152603560248201527f455243373231456e756d657261626c653a20636f6e7365637574697665207472604482015274185b9cd9995c9cc81b9bdd081cdd5c1c1bdc9d1959605a1b6064820152608401610783565b816001600160a01b038516611fc457611fbf81600980546000838152600a60205260408120829055600182018355919091527f6e1540171b6c0c960b71a7020d9f60077f6af931a8bbf590da0223dacf75c7af0155565b611fe7565b836001600160a01b0316856001600160a01b031614611fe757611fe7858261212f565b6001600160a01b03841661200357611ffe816121cc565b61180b565b846001600160a01b0316846001600160a01b03161461180b5761180b848261227b565b6001600160a01b03821661207c5760405162461bcd60e51b815260206004820181905260248201527f4552433732313a206d696e7420746f20746865207a65726f20616464726573736044820152606401610783565b61208581611c04565b156120a25760405162461bcd60e51b815260040161078390612d30565b6120b0600083836001611c21565b6120b981611c04565b156120d65760405162461bcd60e51b815260040161078390612d30565b6001600160a01b038216600081815260036020908152604080832080546001019055848352600290915280822080546001600160a01b031916841790555183929190600080516020612d90833981519152908290a45050565b6000600161213c84610bf9565b6121469190612d66565b600083815260086020526040902054909150808214612199576001600160a01b03841660009081526007602090815260408083208584528252808320548484528184208190558352600890915290208190555b5060009182526008602090815260408084208490556001600160a01b039094168352600781528383209183525290812055565b6009546000906121de90600190612d66565b6000838152600a60205260408120546009805493945090928490811061220657612206612aeb565b90600052602060002001549050806009838154811061222757612227612aeb565b6000918252602080832090910192909255828152600a9091526040808220849055858252812055600980548061225f5761225f612d79565b6001900381819060005260206000200160009055905550505050565b600061228683610bf9565b6001600160a01b039093166000908152600760209081526040808320868452825280832085905593825260089052919091209190915550565b828054828255906000526020600020908101928215612305579160200282015b8281111561230557825182906122f59082612a2c565b50916020019190600101906122df565b506123119291506123b7565b5090565b82805482825590600052602060002090601f016020900481019282156123ab5791602002820160005b8382111561237c57835183826101000a81548160ff021916908360ff160217905550926020019260010160208160000104928301926001030261233e565b80156123a95782816101000a81549060ff021916905560010160208160000104928301926001030261237c565b505b506123119291506123d4565b808211156123115760006123cb82826123e9565b506001016123b7565b5b8082111561231157600081556001016123d5565b5080546123f590612957565b6000825580601f10612405575050565b601f016020900490600052602060002090810190610aea91906123d4565b6001600160e01b031981168114610aea57600080fd5b60006020828403121561244b57600080fd5b813561130e81612423565b60005b83811015612471578181015183820152602001612459565b50506000910152565b60008151808452612492816020860160208601612456565b601f01601f19169290920160200192915050565b60208152600061130e602083018461247a565b6000602082840312156124cb57600080fd5b5035919050565b6001600160a01b0391909116815260200190565b6001600160a01b0381168114610aea57600080fd5b6000806040838503121561250e57600080fd5b8235612519816124e6565b946020939093013593505050565b6000806040838503121561253a57600080fd5b50508035926020909101359150565b60006020828403121561255b57600080fd5b81356001600160f01b03198116811461130e57600080fd5b60008060006060848603121561258857600080fd5b8335612593816124e6565b925060208401356125a3816124e6565b929592945050506040919091013590565b634e487b7160e01b600052604160045260246000fd5b604051601f8201601f191681016001600160401b03811182821017156125f2576125f26125b4565b604052919050565b600082601f83011261260b57600080fd5b81356001600160401b03811115612624576126246125b4565b612637601f8201601f19166020016125ca565b81815284602083860101111561264c57600080fd5b816020850160208301376000918101602001919091529392505050565b60006020828403121561267b57600080fd5b81356001600160401b0381111561269157600080fd5b611189848285016125fa565b6000602082840312156126af57600080fd5b813561130e816124e6565b60006001600160401b038211156126d3576126d36125b4565b5060051b60200190565b803560ff811681146126ee57600080fd5b919050565b600082601f83011261270457600080fd5b81356020612719612714836126ba565b6125ca565b82815260059290921b8401810191818101908684111561273857600080fd5b8286015b8481101561275a5761274d816126dd565b835291830191830161273c565b509695505050505050565b6000806000806080858703121561277b57600080fd5b8435612786816124e6565b93506020858101356001600160401b03808211156127a357600080fd5b6127af89838a016125fa565b955060408801359150808211156127c557600080fd5b818801915088601f8301126127d957600080fd5b81356127e7612714826126ba565b81815260059190911b8301840190848101908b83111561280657600080fd5b8585015b8381101561283e578035858111156128225760008081fd5b6128308e89838a01016125fa565b84525091860191860161280a565b5096505050606088013592508083111561285757600080fd5b5050612865878288016126f3565b91505092959194509250565b60006020828403121561288357600080fd5b61130e826126dd565b6000806040838503121561289f57600080fd5b82356128aa816124e6565b9150602083013580151581146128bf57600080fd5b809150509250929050565b600080600080608085870312156128e057600080fd5b84356128eb816124e6565b935060208501356128fb816124e6565b92506040850135915060608501356001600160401b0381111561291d57600080fd5b612865878288016125fa565b6000806040838503121561293c57600080fd5b8235612947816124e6565b915060208301356128bf816124e6565b600181811c9082168061296b57607f821691505b60208210810361298b57634e487b7160e01b600052602260045260246000fd5b50919050565b6020808252602d908201527f4552433732313a2063616c6c6572206973206e6f7420746f6b656e206f776e6560408201526c1c881bdc88185c1c1c9bdd9959609a1b606082015260800190565b601f82111561082457600081815260208120601f850160051c81016020861015612a055750805b601f850160051c820191505b81811015612a2457828155600101612a11565b505050505050565b81516001600160401b03811115612a4557612a456125b4565b612a5981612a538454612957565b846129de565b602080601f831160018114612a8e5760008415612a765750858301515b600019600386901b1c1916600185901b178555612a24565b600085815260208120601f198616915b82811015612abd57888601518255948401946001909101908401612a9e565b5085821015612adb5787850151600019600388901b60f8161c191681555b5050505050600190811b01905550565b634e487b7160e01b600052603260045260246000fd5b602080825260189082015277115490cdcc8c4e881a5b9d985b1a59081d1bdad95b88125160421b604082015260600190565b600082612b5057634e487b7160e01b600052601260045260246000fd5b500690565b634e487b7160e01b600052601160045260246000fd5b8082018082111561065057610650612b55565b805160208201516001600160f01b03198082169291906002831015612bad5780818460020360031b1b83161693505b505050919050565b60008351612bc7818460208801612456565b835190830190612bdb818360208801612456565b01949350505050565b600060018201612bf657612bf6612b55565b5060010190565b60008251612c0f818460208701612456565b64173539b7b760d91b920191825250600501919050565b600060208284031215612c3857600080fd5b5051919050565b60208082526025908201527f4552433732313a207472616e736665722066726f6d20696e636f72726563742060408201526437bbb732b960d91b606082015260800190565b60208082526032908201527f4552433732313a207472616e7366657220746f206e6f6e20455243373231526560408201527131b2b4bb32b91034b6b83632b6b2b73a32b960711b606082015260800190565b6001600160a01b0385811682528416602082015260408101839052608060608201819052600090612d099083018461247a565b9695505050505050565b600060208284031215612d2557600080fd5b815161130e81612423565b6020808252601c908201527b115490cdcc8c4e881d1bdad95b88185b1c9958591e481b5a5b9d195960221b604082015260600190565b8181038181111561065057610650612b55565b634e487b7160e01b600052603160045260246000fdfeddf252ad1be2c89b69c2b068fc378daa952ba7f163c4a11628f55a4df523b3efa26469706673582212209e9965b994d9b92f2e4f951f35fa0fc924870d92338da07b213d429244b2fa8e64736f6c63430008120033608060405234801561001057600080fd5b5061001a3361001f565b61006f565b600080546001600160a01b038381166001600160a01b0319831681178455604051919092169283917f8be0079c531659141344cd1fd0a4f28419497f9722a3daafe3b4186f6b6457e09190a35050565b6105248061007e6000396000f3fe6080604052600436106100555760003560e01c806351cff8d91461005a578063715018a61461007c5780638da5cb5b14610091578063e3a9db1a146100c3578063f2fde38b14610107578063f340fa0114610127575b600080fd5b34801561006657600080fd5b5061007a6100753660046104a3565b61013a565b005b34801561008857600080fd5b5061007a6101b1565b34801561009d57600080fd5b506100a66101c5565b6040516001600160a01b0390911681526020015b60405180910390f35b3480156100cf57600080fd5b506100f96100de3660046104a3565b6001600160a01b031660009081526001602052604090205490565b6040519081526020016100ba565b34801561011357600080fd5b5061007a6101223660046104a3565b6101d4565b61007a6101353660046104a3565b610252565b6101426102c4565b6001600160a01b038116600081815260016020526040812080549190559061016a9082610323565b816001600160a01b03167f7084f5476618d8e60b11ef0d7d3f06914655adb8793e28ff7f018d4c76d505d5826040516101a591815260200190565b60405180910390a25050565b6101b96102c4565b6101c3600061043e565b565b6000546001600160a01b031690565b6101dc6102c4565b6001600160a01b0381166102465760405162461bcd60e51b815260206004820152602660248201527f4f776e61626c653a206e6577206f776e657220697320746865207a65726f206160448201526564647265737360d01b60648201526084015b60405180910390fd5b61024f8161043e565b50565b61025a6102c4565b6001600160a01b0381166000908152600160205260408120805434928392916102849084906104c7565b90915550506040518181526001600160a01b038316907f2da466a7b24304f47e87fa2e1e5a81b9831ce54fec19055ce277ca2f39ba42c4906020016101a5565b336102cd6101c5565b6001600160a01b0316146101c35760405162461bcd60e51b815260206004820181905260248201527f4f776e61626c653a2063616c6c6572206973206e6f7420746865206f776e6572604482015260640161023d565b804710156103735760405162461bcd60e51b815260206004820152601d60248201527f416464726573733a20696e73756666696369656e742062616c616e6365000000604482015260640161023d565b6000826001600160a01b03168260405160006040518083038185875af1925050503d80600081146103c0576040519150601f19603f3d011682016040523d82523d6000602084013e6103c5565b606091505b50509050806104395760405162461bcd60e51b815260206004820152603a60248201527f416464726573733a20756e61626c6520746f2073656e642076616c75652c20726044820152791958da5c1a595b9d081b585e481a185d99481c995d995c9d195960321b606482015260840161023d565b505050565b600080546001600160a01b038381166001600160a01b0319831681178455604051919092169283917f8be0079c531659141344cd1fd0a4f28419497f9722a3daafe3b4186f6b6457e09190a35050565b6001600160a01b038116811461024f57600080fd5b6000602082840312156104b557600080fd5b81356104c08161048e565b9392505050565b808201808211156104e857634e487b7160e01b600052601160045260246000fd5b9291505056fea26469706673582212201db7b560f8a587875f655b0c70bd5a1c071d3efcf05cc3ab888bc5b1b66396ef64736f6c63430008120033697066733a2f2f697066732e74617274692e6574682f74617274692f617274697374732f",
  "immutableReferences": {
    "147": [
      {
        "length": 32,
        "start": 5027
      },
      {
        "length": 32,
        "start": 6056
      }
    ]
  },
  "source": "// SPDX-License-Identifier: MIT\npragma solidity ^0.8.18;\n\nimport \"@openzeppelin/contracts/token/ERC721/extensions/ERC721URIStorage.sol\";\nimport \"@openzeppelin/contracts/utils/Counters.sol\";\nimport \"@openzeppelin/contracts/security/PullPayment.sol\";\nimport \"@openzeppelin/contracts/access/Ownable.sol\";\nimport \"./Tarti.sol\";\n\ncontract Tartist is ERC721URIStorage, ERC721Enumerable, PullPayment, Ownable {\n    using Counters for Counters.Counter;\n\n    uint256 public constant MINT_TARTIST_PRICE = 0.18 ether;\n    uint256 public constant MINT_TARTI_PRICE = 0.048 ether;\n\n    Counters.Counter private _currentTokenId;\n\n    /// @dev Base token URI used as a prefix by tokenURI().\n    string public baseTokenURI;\n    bytes2[] public allTraits;\n    mapping(bytes2 => bool) public traitsActive;\n    mapping(bytes32 => bool) public usedTraitComboHashes;\n    mapping(uint256 => bytes) public botTraits;\n    mapping(uint256 => string[]) public botTraitDynValues;\n    mapping(uint256 => uint8[]) public botTraitDominance;\n\n    address private _tartiAddr;\n\n    constructor() ERC721(\"Tarti Artist\", \"TARTIST\") {\n        baseTokenURI = \"ipfs://ipfs.tarti.eth/tarti/artists/\";\n    }\n\n    function addTrait(bytes2 traitCode) public onlyOwner {\n        require(traitsActive[traitCode] == false, \"Trait already exists\");\n        traitsActive[traitCode] = true;\n        allTraits.push(traitCode);\n    }\n\n    function cancelTrait(bytes2 traitCode) public onlyOwner {\n        traitsActive[traitCode] = false;\n    }\n\n    function giveBirth(\n        address recipient,\n        bytes memory traits,\n        string[] memory dynamicTraitValues,\n        uint8[] memory traitDominance\n    ) public payable returns (uint256) {\n        require(\n            msg.value == MINT_TARTIST_PRICE,\n            \"Transaction value did not equal the mint price\"\n        );\n        require(traits.length < 100, \"Too many traits\");\n        require(dynamicTraitValues.length < 100, \"Too many trait values\");\n        require(traitDominance.length < 100, \"Too many trait dominance\");\n        require(traits.length % 2 == 0, \"Invalid trait length\");\n\n        // when we implement the allTraits/AddTraits here is how they should be keyed\n        // allTraits[\"aa\"] = true;\n        // allTraits[\"bb\"] = true;\n        // allTraits[\"cc\"] = true;\n\n        //check that the passed traits are valid\n        //every two bytes identifes a trait\n        for (uint256 i = 0; i < traits.length; i += 2) {\n            require(\n                traitsActive[bytes2(bytes.concat(traits[i], traits[i + 1]))] ==\n                    true,\n                \"Invalid trait specified\"\n            );\n        }\n\n        bytes memory dynTraitValuesBytes;\n        for (uint256 i = 0; i < dynamicTraitValues.length; i++) {\n            dynTraitValuesBytes = abi.encodePacked(\n                dynTraitValuesBytes,\n                dynamicTraitValues[i]\n            );\n        }\n        bytes32 botTraitsHash = keccak256(\n            bytes.concat(traits, dynTraitValuesBytes)\n        );\n        require(\n            usedTraitComboHashes[botTraitsHash] != true,\n            \"Bot genetics are not unique enough\"\n        );\n\n        usedTraitComboHashes[botTraitsHash] = true;\n        _currentTokenId.increment();\n        uint256 newItemId = _currentTokenId.current();\n        botTraits[newItemId] = traits;\n        botTraitDynValues[newItemId] = dynamicTraitValues;\n        botTraitDominance[newItemId] = traitDominance;\n        _safeMint(recipient, newItemId);\n        _setTokenURI(\n            newItemId,\n            string.concat(Strings.toString(newItemId), \".json\")\n        );\n        return newItemId;\n    }\n\n    function newArt(uint8 artistId) public payable returns (uint256) {\n        //address canot be blank\n        require(_tartiAddr != address(0), \"tartscontractnotset\");\n        require(msg.value == MINT_TARTI_PRICE, \"must send commission\"); //.01 eth\n\n        //call newArt on the Tarti contract\n        //Tarti only allows this contract to call that method\n        //Tell the new art method who the artist is\n\n        //First check that the caller is the owner of the artist\n        //if an artist has no owner, I forget who is allowed to use it? (maybe anyone but only if I get commissions)\n        //thats a good idea. For ownerless i get commissions. for owned I dont\n\n        //norights = specified artist is not contractually obligated, nor even allowed, to make any art for you.\n        require(msg.sender == ownerOf(artistId), \"norights\");\n\n        //use the art contract to create a new Tart token\n        //Trait engine will see the new Art on the blockchain and create the art\n        //the art package url will be based on the Tart tokenId\n        //we will own the dns of whatever we use for IPFS so we can pre generate here and guarantee to have it\n\n        Tarti tarti = Tarti(_tartiAddr);\n\n        return tarti.newArt(msg.sender, artistId);\n    }\n\n    /// @dev Returns an URI for a given token ID\n    function _baseURI() internal view virtual override returns (string memory) {\n        return baseTokenURI;\n    }\n\n    function setTartiAddr(address tartiAddr) public onlyOwner {\n        _tartiAddr = tartiAddr;\n    }\n\n    /// @dev Sets the base token URI prefix.\n    function setBaseTokenURI(string memory _baseTokenURI) public onlyOwner {\n        baseTokenURI = _baseTokenURI;\n    }\n\n    /// @dev Overridden in order to make it an onlyOwner function\n    function withdrawPayments(\n        address payable payee\n    ) public virtual override onlyOwner {\n        super.withdrawPayments(payee);\n    }\n\n    function _burn(\n        uint256 tokenId\n    ) internal override(ERC721, ERC721URIStorage) {\n        super._burn(tokenId);\n    }\n\n    function _beforeTokenTransfer(\n        address from,\n        address to,\n        uint256 firstTokenId,\n        uint256 batchSize\n    ) internal override(ERC721, ERC721Enumerable) {\n        super._beforeTokenTransfer(from, to, firstTokenId, batchSize);\n    }\n\n    function supportsInterface(\n        bytes4 interfaceId\n    ) public view override(ERC721Enumerable, ERC721URIStorage) returns (bool) {\n        return super.supportsInterface(interfaceId);\n    }\n\n    function tokenURI(\n        uint256 tokenId\n    ) public view override(ERC721, ERC721URIStorage) returns (string memory) {\n        return ERC721URIStorage.tokenURI(tokenId);\n    }\n}\n",
  "sourcePath": "/home/evan/tartst/contracts/Tartist.sol",
  "compiler": {
    "name": "solc",
    "version": "0.8.18+commit.87f61d96.Emscripten.clang"
  },
  "schemaVersion": "3.4.14",
  "updatedAt": "2023-06-26T19:35:39.585Z",
  "networkType": "ethereum",
  "devdoc": {
    "events": {
      "Approval(address,address,uint256)": {
        "details": "Emitted when `owner` enables `approved` to manage the `tokenId` token."
      },
      "ApprovalForAll(address,address,bool)": {
        "details": "Emitted when `owner` enables or disables (`approved`) `operator` to manage all of its assets."
      },
      "BatchMetadataUpdate(uint256,uint256)": {
        "details": "This event emits when the metadata of a range of tokens is changed. So that the third-party platforms such as NFT market could timely update the images and related attributes of the NFTs."
      },
      "MetadataUpdate(uint256)": {
        "details": "This event emits when the metadata of a token is changed. So that the third-party platforms such as NFT market could timely update the images and related attributes of the NFT."
      },
      "Transfer(address,address,uint256)": {
        "details": "Emitted when `tokenId` token is transferred from `from` to `to`."
      }
    },
    "kind": "dev",
    "methods": {
      "approve(address,uint256)": {
        "details": "See {IERC721-approve}."
      },
      "balanceOf(address)": {
        "details": "See {IERC721-balanceOf}."
      },
      "getApproved(uint256)": {
        "details": "See {IERC721-getApproved}."
      },
      "isApprovedForAll(address,address)": {
        "details": "See {IERC721-isApprovedForAll}."
      },
      "name()": {
        "details": "See {IERC721Metadata-name}."
      },
      "owner()": {
        "details": "Returns the address of the current owner."
      },
      "ownerOf(uint256)": {
        "details": "See {IERC721-ownerOf}."
      },
      "payments(address)": {
        "details": "Returns the payments owed to an address.",
        "params": {
          "dest": "The creditor's address."
        }
      },
      "renounceOwnership()": {
        "details": "Leaves the contract without owner. It will not be possible to call `onlyOwner` functions. Can only be called by the current owner. NOTE: Renouncing ownership will leave the contract without an owner, thereby disabling any functionality that is only available to the owner."
      },
      "safeTransferFrom(address,address,uint256)": {
        "details": "See {IERC721-safeTransferFrom}."
      },
      "safeTransferFrom(address,address,uint256,bytes)": {
        "details": "See {IERC721-safeTransferFrom}."
      },
      "setApprovalForAll(address,bool)": {
        "details": "See {IERC721-setApprovalForAll}."
      },
      "setBaseTokenURI(string)": {
        "details": "Sets the base token URI prefix."
      },
      "symbol()": {
        "details": "See {IERC721Metadata-symbol}."
      },
      "tokenByIndex(uint256)": {
        "details": "See {IERC721Enumerable-tokenByIndex}."
      },
      "tokenOfOwnerByIndex(address,uint256)": {
        "details": "See {IERC721Enumerable-tokenOfOwnerByIndex}."
      },
      "totalSupply()": {
        "details": "See {IERC721Enumerable-totalSupply}."
      },
      "transferFrom(address,address,uint256)": {
        "details": "See {IERC721-transferFrom}."
      },
      "transferOwnership(address)": {
        "details": "Transfers ownership of the contract to a new account (`newOwner`). Can only be called by the current owner."
      },
      "withdrawPayments(address)": {
        "details": "Overridden in order to make it an onlyOwner function"
      }
    },
    "stateVariables": {
      "baseTokenURI": {
        "details": "Base token URI used as a prefix by tokenURI()."
      }
    },
    "version": 1
  },
  "userdoc": {
    "kind": "user",
    "methods": {},
    "version": 1
  }
}