{
  "contractName": "Tartist",
  "abi": [
    {
      "inputs": [],
      "stateMutability": "nonpayable",
      "type": "constructor"
    },
    {
      "anonymous": false,
      "inputs": [
        {
          "indexed": true,
          "internalType": "address",
          "name": "owner",
          "type": "address"
        },
        {
          "indexed": true,
          "internalType": "address",
          "name": "approved",
          "type": "address"
        },
        {
          "indexed": true,
          "internalType": "uint256",
          "name": "tokenId",
          "type": "uint256"
        }
      ],
      "name": "Approval",
      "type": "event"
    },
    {
      "anonymous": false,
      "inputs": [
        {
          "indexed": true,
          "internalType": "address",
          "name": "owner",
          "type": "address"
        },
        {
          "indexed": true,
          "internalType": "address",
          "name": "operator",
          "type": "address"
        },
        {
          "indexed": false,
          "internalType": "bool",
          "name": "approved",
          "type": "bool"
        }
      ],
      "name": "ApprovalForAll",
      "type": "event"
    },
    {
      "anonymous": false,
      "inputs": [
        {
          "indexed": false,
          "internalType": "uint256",
          "name": "_fromTokenId",
          "type": "uint256"
        },
        {
          "indexed": false,
          "internalType": "uint256",
          "name": "_toTokenId",
          "type": "uint256"
        }
      ],
      "name": "BatchMetadataUpdate",
      "type": "event"
    },
    {
      "anonymous": false,
      "inputs": [
        {
          "indexed": false,
          "internalType": "uint256",
          "name": "_tokenId",
          "type": "uint256"
        }
      ],
      "name": "MetadataUpdate",
      "type": "event"
    },
    {
      "anonymous": false,
      "inputs": [
        {
          "indexed": true,
          "internalType": "address",
          "name": "previousOwner",
          "type": "address"
        },
        {
          "indexed": true,
          "internalType": "address",
          "name": "newOwner",
          "type": "address"
        }
      ],
      "name": "OwnershipTransferred",
      "type": "event"
    },
    {
      "anonymous": false,
      "inputs": [
        {
          "indexed": true,
          "internalType": "address",
          "name": "from",
          "type": "address"
        },
        {
          "indexed": true,
          "internalType": "address",
          "name": "to",
          "type": "address"
        },
        {
          "indexed": true,
          "internalType": "uint256",
          "name": "tokenId",
          "type": "uint256"
        }
      ],
      "name": "Transfer",
      "type": "event"
    },
    {
      "inputs": [],
      "name": "MINT_TARTIST_PRICE",
      "outputs": [
        {
          "internalType": "uint256",
          "name": "",
          "type": "uint256"
        }
      ],
      "stateMutability": "view",
      "type": "function",
      "constant": true
    },
    {
      "inputs": [],
      "name": "MINT_TARTI_PRICE",
      "outputs": [
        {
          "internalType": "uint256",
          "name": "",
          "type": "uint256"
        }
      ],
      "stateMutability": "view",
      "type": "function",
      "constant": true
    },
    {
      "inputs": [
        {
          "internalType": "uint256",
          "name": "",
          "type": "uint256"
        }
      ],
      "name": "allTraits",
      "outputs": [
        {
          "internalType": "bytes2",
          "name": "",
          "type": "bytes2"
        }
      ],
      "stateMutability": "view",
      "type": "function",
      "constant": true
    },
    {
      "inputs": [
        {
          "internalType": "address",
          "name": "to",
          "type": "address"
        },
        {
          "internalType": "uint256",
          "name": "tokenId",
          "type": "uint256"
        }
      ],
      "name": "approve",
      "outputs": [],
      "stateMutability": "nonpayable",
      "type": "function"
    },
    {
      "inputs": [
        {
          "internalType": "address",
          "name": "owner",
          "type": "address"
        }
      ],
      "name": "balanceOf",
      "outputs": [
        {
          "internalType": "uint256",
          "name": "",
          "type": "uint256"
        }
      ],
      "stateMutability": "view",
      "type": "function",
      "constant": true
    },
    {
      "inputs": [],
      "name": "baseTokenURI",
      "outputs": [
        {
          "internalType": "string",
          "name": "",
          "type": "string"
        }
      ],
      "stateMutability": "view",
      "type": "function",
      "constant": true
    },
    {
      "inputs": [
        {
          "internalType": "uint256",
          "name": "",
          "type": "uint256"
        },
        {
          "internalType": "uint256",
          "name": "",
          "type": "uint256"
        }
      ],
      "name": "botTraitDominance",
      "outputs": [
        {
          "internalType": "uint8",
          "name": "",
          "type": "uint8"
        }
      ],
      "stateMutability": "view",
      "type": "function",
      "constant": true
    },
    {
      "inputs": [
        {
          "internalType": "uint256",
          "name": "",
          "type": "uint256"
        },
        {
          "internalType": "uint256",
          "name": "",
          "type": "uint256"
        }
      ],
      "name": "botTraitDynValues",
      "outputs": [
        {
          "internalType": "string",
          "name": "",
          "type": "string"
        }
      ],
      "stateMutability": "view",
      "type": "function",
      "constant": true
    },
    {
      "inputs": [
        {
          "internalType": "uint256",
          "name": "",
          "type": "uint256"
        }
      ],
      "name": "botTraits",
      "outputs": [
        {
          "internalType": "bytes",
          "name": "",
          "type": "bytes"
        }
      ],
      "stateMutability": "view",
      "type": "function",
      "constant": true
    },
    {
      "inputs": [
        {
          "internalType": "uint256",
          "name": "tokenId",
          "type": "uint256"
        }
      ],
      "name": "getApproved",
      "outputs": [
        {
          "internalType": "address",
          "name": "",
          "type": "address"
        }
      ],
      "stateMutability": "view",
      "type": "function",
      "constant": true
    },
    {
      "inputs": [
        {
          "internalType": "address",
          "name": "owner",
          "type": "address"
        },
        {
          "internalType": "address",
          "name": "operator",
          "type": "address"
        }
      ],
      "name": "isApprovedForAll",
      "outputs": [
        {
          "internalType": "bool",
          "name": "",
          "type": "bool"
        }
      ],
      "stateMutability": "view",
      "type": "function",
      "constant": true
    },
    {
      "inputs": [],
      "name": "name",
      "outputs": [
        {
          "internalType": "string",
          "name": "",
          "type": "string"
        }
      ],
      "stateMutability": "view",
      "type": "function",
      "constant": true
    },
    {
      "inputs": [],
      "name": "owner",
      "outputs": [
        {
          "internalType": "address",
          "name": "",
          "type": "address"
        }
      ],
      "stateMutability": "view",
      "type": "function",
      "constant": true
    },
    {
      "inputs": [
        {
          "internalType": "uint256",
          "name": "tokenId",
          "type": "uint256"
        }
      ],
      "name": "ownerOf",
      "outputs": [
        {
          "internalType": "address",
          "name": "",
          "type": "address"
        }
      ],
      "stateMutability": "view",
      "type": "function",
      "constant": true
    },
    {
      "inputs": [
        {
          "internalType": "address",
          "name": "dest",
          "type": "address"
        }
      ],
      "name": "payments",
      "outputs": [
        {
          "internalType": "uint256",
          "name": "",
          "type": "uint256"
        }
      ],
      "stateMutability": "view",
      "type": "function",
      "constant": true
    },
    {
      "inputs": [],
      "name": "renounceOwnership",
      "outputs": [],
      "stateMutability": "nonpayable",
      "type": "function"
    },
    {
      "inputs": [
        {
          "internalType": "address",
          "name": "from",
          "type": "address"
        },
        {
          "internalType": "address",
          "name": "to",
          "type": "address"
        },
        {
          "internalType": "uint256",
          "name": "tokenId",
          "type": "uint256"
        }
      ],
      "name": "safeTransferFrom",
      "outputs": [],
      "stateMutability": "nonpayable",
      "type": "function"
    },
    {
      "inputs": [
        {
          "internalType": "address",
          "name": "from",
          "type": "address"
        },
        {
          "internalType": "address",
          "name": "to",
          "type": "address"
        },
        {
          "internalType": "uint256",
          "name": "tokenId",
          "type": "uint256"
        },
        {
          "internalType": "bytes",
          "name": "data",
          "type": "bytes"
        }
      ],
      "name": "safeTransferFrom",
      "outputs": [],
      "stateMutability": "nonpayable",
      "type": "function"
    },
    {
      "inputs": [
        {
          "internalType": "address",
          "name": "operator",
          "type": "address"
        },
        {
          "internalType": "bool",
          "name": "approved",
          "type": "bool"
        }
      ],
      "name": "setApprovalForAll",
      "outputs": [],
      "stateMutability": "nonpayable",
      "type": "function"
    },
    {
      "inputs": [],
      "name": "symbol",
      "outputs": [
        {
          "internalType": "string",
          "name": "",
          "type": "string"
        }
      ],
      "stateMutability": "view",
      "type": "function",
      "constant": true
    },
    {
      "inputs": [
        {
          "internalType": "uint256",
          "name": "index",
          "type": "uint256"
        }
      ],
      "name": "tokenByIndex",
      "outputs": [
        {
          "internalType": "uint256",
          "name": "",
          "type": "uint256"
        }
      ],
      "stateMutability": "view",
      "type": "function",
      "constant": true
    },
    {
      "inputs": [
        {
          "internalType": "address",
          "name": "owner",
          "type": "address"
        },
        {
          "internalType": "uint256",
          "name": "index",
          "type": "uint256"
        }
      ],
      "name": "tokenOfOwnerByIndex",
      "outputs": [
        {
          "internalType": "uint256",
          "name": "",
          "type": "uint256"
        }
      ],
      "stateMutability": "view",
      "type": "function",
      "constant": true
    },
    {
      "inputs": [],
      "name": "totalSupply",
      "outputs": [
        {
          "internalType": "uint256",
          "name": "",
          "type": "uint256"
        }
      ],
      "stateMutability": "view",
      "type": "function",
      "constant": true
    },
    {
      "inputs": [
        {
          "internalType": "bytes2",
          "name": "",
          "type": "bytes2"
        }
      ],
      "name": "traitsActive",
      "outputs": [
        {
          "internalType": "bool",
          "name": "",
          "type": "bool"
        }
      ],
      "stateMutability": "view",
      "type": "function",
      "constant": true
    },
    {
      "inputs": [
        {
          "internalType": "address",
          "name": "from",
          "type": "address"
        },
        {
          "internalType": "address",
          "name": "to",
          "type": "address"
        },
        {
          "internalType": "uint256",
          "name": "tokenId",
          "type": "uint256"
        }
      ],
      "name": "transferFrom",
      "outputs": [],
      "stateMutability": "nonpayable",
      "type": "function"
    },
    {
      "inputs": [
        {
          "internalType": "address",
          "name": "newOwner",
          "type": "address"
        }
      ],
      "name": "transferOwnership",
      "outputs": [],
      "stateMutability": "nonpayable",
      "type": "function"
    },
    {
      "inputs": [
        {
          "internalType": "bytes32",
          "name": "",
          "type": "bytes32"
        }
      ],
      "name": "usedTraitComboHashes",
      "outputs": [
        {
          "internalType": "bool",
          "name": "",
          "type": "bool"
        }
      ],
      "stateMutability": "view",
      "type": "function",
      "constant": true
    },
    {
      "inputs": [
        {
          "internalType": "bytes2",
          "name": "traitCode",
          "type": "bytes2"
        }
      ],
      "name": "addTrait",
      "outputs": [],
      "stateMutability": "nonpayable",
      "type": "function"
    },
    {
      "inputs": [
        {
          "internalType": "bytes2",
          "name": "traitCode",
          "type": "bytes2"
        }
      ],
      "name": "cancelTrait",
      "outputs": [],
      "stateMutability": "nonpayable",
      "type": "function"
    },
    {
      "inputs": [
        {
          "internalType": "address",
          "name": "recipient",
          "type": "address"
        },
        {
          "internalType": "bytes",
          "name": "traits",
          "type": "bytes"
        },
        {
          "internalType": "string[]",
          "name": "dynamicTraitValues",
          "type": "string[]"
        },
        {
          "internalType": "uint8[]",
          "name": "traitDominance",
          "type": "uint8[]"
        }
      ],
      "name": "giveBirth",
      "outputs": [
        {
          "internalType": "uint256",
          "name": "",
          "type": "uint256"
        }
      ],
      "stateMutability": "payable",
      "type": "function",
      "payable": true
    },
    {
      "inputs": [
        {
          "internalType": "uint8",
          "name": "artistId",
          "type": "uint8"
        }
      ],
      "name": "newArt",
      "outputs": [
        {
          "internalType": "uint256",
          "name": "",
          "type": "uint256"
        }
      ],
      "stateMutability": "payable",
      "type": "function",
      "payable": true
    },
    {
      "inputs": [
        {
          "internalType": "address",
          "name": "tartiAddr",
          "type": "address"
        }
      ],
      "name": "setTartiAddr",
      "outputs": [],
      "stateMutability": "nonpayable",
      "type": "function"
    },
    {
      "inputs": [
        {
          "internalType": "string",
          "name": "newBaseTokenURI",
          "type": "string"
        }
      ],
      "name": "setBaseTokenURI",
      "outputs": [],
      "stateMutability": "nonpayable",
      "type": "function"
    },
    {
      "inputs": [
        {
          "internalType": "uint256",
          "name": "tokenId",
          "type": "uint256"
        },
        {
          "internalType": "bool",
          "name": "onTarti",
          "type": "bool"
        }
      ],
      "name": "setCreationStarted",
      "outputs": [],
      "stateMutability": "nonpayable",
      "type": "function"
    },
    {
      "inputs": [
        {
          "internalType": "uint256",
          "name": "tokenId",
          "type": "uint256"
        },
        {
          "internalType": "bytes32",
          "name": "cid",
          "type": "bytes32"
        },
        {
          "internalType": "bool",
          "name": "onTarti",
          "type": "bool"
        }
      ],
      "name": "setCreated",
      "outputs": [],
      "stateMutability": "nonpayable",
      "type": "function"
    },
    {
      "inputs": [
        {
          "internalType": "address payable",
          "name": "payee",
          "type": "address"
        }
      ],
      "name": "withdrawPayments",
      "outputs": [],
      "stateMutability": "nonpayable",
      "type": "function"
    },
    {
      "inputs": [
        {
          "internalType": "bytes4",
          "name": "interfaceId",
          "type": "bytes4"
        }
      ],
      "name": "supportsInterface",
      "outputs": [
        {
          "internalType": "bool",
          "name": "",
          "type": "bool"
        }
      ],
      "stateMutability": "view",
      "type": "function",
      "constant": true
    },
    {
      "inputs": [
        {
          "internalType": "uint256",
          "name": "tokenId",
          "type": "uint256"
        }
      ],
      "name": "tokenURI",
      "outputs": [
        {
          "internalType": "string",
          "name": "",
          "type": "string"
        }
      ],
      "stateMutability": "view",
      "type": "function",
      "constant": true
    }
  ],
  "bytecode": "0x60a06040523480156200001157600080fd5b506040518060400160405280600c81526020016b15185c9d1a48105c9d1a5cdd60a21b81525060405180604001604052806007815260200166151054951254d560ca1b8152508160009081620000689190620001f6565b506001620000778282620001f6565b505050604051620000889062000143565b604051809103906000f080158015620000a5573d6000803e3d6000fd5b506001600160a01b0316608052620000bd33620000f1565b604080518082019091526007815266697066733a2f2f60c81b6020820152600d90620000ea9082620001f6565b50620002c2565b600b80546001600160a01b038381166001600160a01b0319831681179093556040519116919082907f8be0079c531659141344cd1fd0a4f28419497f9722a3daafe3b4186f6b6457e090600090a35050565b6105a280620033e183390190565b634e487b7160e01b600052604160045260246000fd5b600181811c908216806200017c57607f821691505b6020821081036200019d57634e487b7160e01b600052602260045260246000fd5b50919050565b601f821115620001f157600081815260208120601f850160051c81016020861015620001cc5750805b601f850160051c820191505b81811015620001ed57828155600101620001d8565b5050505b505050565b81516001600160401b0381111562000212576200021262000151565b6200022a8162000223845462000167565b84620001a3565b602080601f831160018114620002625760008415620002495750858301515b600019600386901b1c1916600185901b178555620001ed565b600085815260208120601f198616915b82811015620002935788860151825594840194600190910190840162000272565b5085821015620002b25787850151600019600388901b60f8161c191681555b5050505050600190811b01905550565b6080516130fc620002e5600039600081816116130152611a1801526130fc6000f3fe6080604052600436106101b55760003560e01c806301ffc9a7146101ba57806306fdde03146101ef578063081812fc14610211578063095ea7b31461023e5780630b518d9b1461026057806311f96bc01461028057806318160ddd146102a057806323b872dd146102bf5780632f745c59146102df57806330176e13146102ff5780633029fe401461031f57806331b3eb941461033f57806340eb171a1461035f57806342842e0e1461037f5780634977da321461039f5780634f6ccce7146103cf578063580a294b146103ef5780636352211e1461040b57806369d505011461042b5780636bf1c36a1461045b57806370a0823114610476578063715018a614610496578063750f681c146104ab57806385758ad5146104e45780638da5cb5b1461051657806394bc38ea1461052b57806395d89b411461053e5780639ab5dc47146105535780639b848ea914610566578063a22cb46514610586578063ad46f2e6146105a6578063b88d4fde146105c6578063c6908461146105e6578063c87b56dd14610606578063d547cfb714610626578063e2982c211461063b578063e985e9c51461065b578063f2fde38b1461067b575b600080fd5b3480156101c657600080fd5b506101da6101d53660046126a9565b61069b565b60405190151581526020015b60405180910390f35b3480156101fb57600080fd5b506102046106ac565b6040516101e69190612716565b34801561021d57600080fd5b5061023161022c366004612729565b61073e565b6040516101e69190612742565b34801561024a57600080fd5b5061025e61025936600461276b565b610765565b005b34801561026c57600080fd5b5061020461027b366004612797565b61087f565b34801561028c57600080fd5b5061025e61029b3660046127b9565b610938565b3480156102ac57600080fd5b506009545b6040519081526020016101e6565b3480156102cb57600080fd5b5061025e6102da3660046127e3565b610a26565b3480156102eb57600080fd5b506102b16102fa36600461276b565b610a57565b34801561030b57600080fd5b5061025e61031a3660046128d9565b610aed565b34801561032b57600080fd5b5061025e61033a3660046127b9565b610b05565b34801561034b57600080fd5b5061025e61035a36600461290d565b610b2f565b34801561036b57600080fd5b5061025e61037a36600461290d565b610b43565b34801561038b57600080fd5b5061025e61039a3660046127e3565b610b6d565b3480156103ab57600080fd5b506101da6103ba3660046127b9565b600f6020526000908152604090205460ff1681565b3480156103db57600080fd5b506102b16103ea366004612729565b610b88565b3480156103fb57600080fd5b506102b167027f7d0bdb92000081565b34801561041757600080fd5b50610231610426366004612729565b610c1b565b34801561043757600080fd5b506101da610446366004612729565b60106020526000908152604090205460ff1681565b34801561046757600080fd5b506102b166aa87bee538000081565b34801561048257600080fd5b506102b161049136600461290d565b610c4f565b3480156104a257600080fd5b5061025e610cd5565b3480156104b757600080fd5b506104cb6104c6366004612729565b610ce9565b6040516001600160f01b031990911681526020016101e6565b3480156104f057600080fd5b506105046104ff366004612797565b610d20565b60405160ff90911681526020016101e6565b34801561052257600080fd5b50610231610d63565b6102b16105393660046129d5565b610d72565b34801561054a57600080fd5b506102046111fd565b6102b1610561366004612ae1565b61120c565b34801561057257600080fd5b5061025e610581366004612b0c565b61135b565b34801561059257600080fd5b5061025e6105a1366004612b38565b61141b565b3480156105b257600080fd5b5061025e6105c1366004612b64565b611426565b3480156105d257600080fd5b5061025e6105e1366004612b99565b611596565b3480156105f257600080fd5b50610204610601366004612729565b6115c8565b34801561061257600080fd5b50610204610621366004612729565b6115e1565b34801561063257600080fd5b506102046115ec565b34801561064757600080fd5b506102b161065636600461290d565b6115f9565b34801561066757600080fd5b506101da610676366004612bf8565b611689565b34801561068757600080fd5b5061025e61069636600461290d565b6116b7565b60006106a68261172d565b92915050565b6060600080546106bb90612c31565b80601f01602080910402602001604051908101604052809291908181526020018280546106e790612c31565b80156107345780601f1061070957610100808354040283529160200191610734565b820191906000526020600020905b81548152906001019060200180831161071757829003601f168201915b5050505050905090565b600061074982611752565b506000908152600460205260409020546001600160a01b031690565b600061077082610c1b565b9050806001600160a01b0316836001600160a01b0316036107e25760405162461bcd60e51b815260206004820152602160248201527f4552433732313a20617070726f76616c20746f2063757272656e74206f776e656044820152603960f91b60648201526084015b60405180910390fd5b336001600160a01b03821614806107fe57506107fe8133611689565b6108705760405162461bcd60e51b815260206004820152603d60248201527f4552433732313a20617070726f76652063616c6c6572206973206e6f7420746f60448201527f6b656e206f776e6572206f7220617070726f76656420666f7220616c6c00000060648201526084016107d9565b61087a8383611777565b505050565b6012602052816000526040600020818154811061089b57600080fd5b906000526020600020016000915091505080546108b790612c31565b80601f01602080910402602001604051908101604052809291908181526020018280546108e390612c31565b80156109305780601f1061090557610100808354040283529160200191610930565b820191906000526020600020905b81548152906001019060200180831161091357829003601f168201915b505050505081565b6109406117e5565b6001600160f01b031981166000908152600f602052604090205460ff16156109a15760405162461bcd60e51b8152602060048201526014602482015273547261697420616c72656164792065786973747360601b60448201526064016107d9565b6001600160f01b031981166000908152600f6020819052604082208054600160ff199091168117909155600e805491820181559092527fbb7b4a454dc3493923482f07822329ed19e8244eff582cc204f8554c3620c3fd6010830401805461ffff939092166002026101000a9283021990911660f09390931c91909102919091179055565b610a303382611844565b610a4c5760405162461bcd60e51b81526004016107d990612c6b565b61087a8383836118a2565b6000610a6283610c4f565b8210610ac45760405162461bcd60e51b815260206004820152602b60248201527f455243373231456e756d657261626c653a206f776e657220696e646578206f7560448201526a74206f6620626f756e647360a81b60648201526084016107d9565b506001600160a01b03919091166000908152600760209081526040808320938352929052205490565b610af56117e5565b600d610b018282612d06565b5050565b610b0d6117e5565b6001600160f01b0319166000908152600f60205260409020805460ff19169055565b610b376117e5565b610b4081611a01565b50565b610b4b6117e5565b601480546001600160a01b0319166001600160a01b0392909216919091179055565b61087a83838360405180602001604052806000815250611596565b6000610b9360095490565b8210610bf65760405162461bcd60e51b815260206004820152602c60248201527f455243373231456e756d657261626c653a20676c6f62616c20696e646578206f60448201526b7574206f6620626f756e647360a01b60648201526084016107d9565b60098281548110610c0957610c09612dc5565b90600052602060002001549050919050565b600080610c2783611a82565b90506001600160a01b0381166106a65760405162461bcd60e51b81526004016107d990612ddb565b60006001600160a01b038216610cb95760405162461bcd60e51b815260206004820152602960248201527f4552433732313a2061646472657373207a65726f206973206e6f7420612076616044820152683634b21037bbb732b960b91b60648201526084016107d9565b506001600160a01b031660009081526003602052604090205490565b610cdd6117e5565b610ce76000611a9d565b565b600e8181548110610cf957600080fd5b9060005260206000209060109182820401919006600202915054906101000a900460f01b81565b60136020528160005260406000208181548110610d3c57600080fd5b9060005260206000209060209182820401919006915091509054906101000a900460ff1681565b600b546001600160a01b031690565b600067027f7d0bdb9200003414610de25760405162461bcd60e51b815260206004820152602e60248201527f5472616e73616374696f6e2076616c756520646964206e6f7420657175616c2060448201526d746865206d696e7420707269636560901b60648201526084016107d9565b6064845110610e255760405162461bcd60e51b815260206004820152600f60248201526e546f6f206d616e792074726169747360881b60448201526064016107d9565b6064835110610e6e5760405162461bcd60e51b8152602060048201526015602482015274546f6f206d616e792074726169742076616c75657360581b60448201526064016107d9565b6064825110610eba5760405162461bcd60e51b8152602060048201526018602482015277546f6f206d616e7920747261697420646f6d696e616e636560401b60448201526064016107d9565b60028451610ec89190612e0d565b15610f0c5760405162461bcd60e51b8152602060048201526014602482015273092dcecc2d8d2c840e8e4c2d2e840d8cadccee8d60631b60448201526064016107d9565b60005b845181101561101557600f6000868381518110610f2e57610f2e612dc5565b01602001516001600160f81b03191687610f49856001612e45565b81518110610f5957610f59612dc5565b016020908101516040516001600160f81b031993841692810192909252919091166021820152602201604051602081830303815290604052610f9a90612e58565b6001600160f01b031916815260208101919091526040016000205460ff1615156001146110035760405162461bcd60e51b8152602060048201526017602482015276125b9d985b1a59081d1c985a5d081cdc1958da599a5959604a1b60448201526064016107d9565b61100e600282612e45565b9050610f0f565b50606060005b8451811015611074578185828151811061103757611037612dc5565b6020026020010151604051602001611050929190612e8f565b6040516020818303038152906040529150808061106c90612ebe565b91505061101b565b506000858260405160200161108a929190612e8f565b60408051601f1981840301815291815281516020928301206000818152601090935291205490915060ff1615156001036111115760405162461bcd60e51b815260206004820152602260248201527f426f742067656e657469637320617265206e6f7420756e6971756520656e6f756044820152610ced60f31b60648201526084016107d9565b6000818152601060205260409020805460ff19166001179055611138600c80546001019055565b6000611143600c5490565b600081815260116020526040902090915061115e8882612d06565b506000818152601260209081526040909120875161117e9289019061252f565b506000818152601360209081526040909120865161119e92880190612585565b506111a98882611aef565b6111f0817851686173684f664e6577546172746973744d6574616461746160381b6040516020016111dc91815260200190565b604051602081830303815290604052611b09565b925050505b949350505050565b6060600180546106bb90612c31565b6014546000906001600160a01b03166112375760405162461bcd60e51b81526004016107d990612ed7565b66aa87bee538000034146112845760405162461bcd60e51b815260206004820152601460248201527336bab9ba1039b2b7321031b7b6b6b4b9b9b4b7b760611b60448201526064016107d9565b6112908260ff16610c1b565b6001600160a01b0316336001600160a01b0316146112db5760405162461bcd60e51b81526020600482015260086024820152676e6f72696768747360c01b60448201526064016107d9565b601454604051639e31203160e01b815233600482015260ff841660248201526001600160a01b03909116908190639e312031906044016020604051808303816000875af1158015611330573d6000803e3d6000fd5b505050506040513d601f19601f820116820180604052508101906113549190612f04565b9392505050565b6113636117e5565b80156113f6576014546001600160a01b03166113915760405162461bcd60e51b81526004016107d990612ed7565b601454604051632d0de82160e01b8152600481018490526001600160a01b03909116908190632d0de82190602401600060405180830381600087803b1580156113d957600080fd5b505af11580156113ed573d6000803e3d6000fd5b50505050505050565b610b01826000805160206130878339815191526040516020016111dc91815260200190565b610b01338383611bc5565b61142e6117e5565b80156114e1576014546001600160a01b031661145c5760405162461bcd60e51b81526004016107d990612ed7565b60145460408051602080820186905282518083039091018152818301928390526380254b5d60e01b9092526001600160a01b039092169182916380254b5d916114a9918891604401612f1d565b600060405180830381600087803b1580156114c357600080fd5b505af11580156114d7573d6000803e3d6000fd5b5050505050505050565b60006114ec846115e1565b8051906020012090507851686173684f664e6577546172746973744d6574616461746160381b60405160200161152491815260200190565b604051602081830303815290604052805190602001208114806115745750604080516000805160206130878339815191526020820152016040516020818303038152906040528051906020012081145b156115905761159084846040516020016111dc91815260200190565b50505050565b6115a03383611844565b6115bc5760405162461bcd60e51b81526004016107d990612c6b565b61159084848484611c8f565b601160205260009081526040902080546108b790612c31565b60606106a682611cc2565b600d80546108b790612c31565b6040516371d4ed8d60e11b81526000906001600160a01b037f0000000000000000000000000000000000000000000000000000000000000000169063e3a9db1a90611648908590600401612742565b602060405180830381865afa158015611665573d6000803e3d6000fd5b505050506040513d601f19601f820116820180604052508101906106a69190612f04565b6001600160a01b03918216600090815260056020908152604080832093909416825291909152205460ff1690565b6116bf6117e5565b6001600160a01b0381166117245760405162461bcd60e51b815260206004820152602660248201527f4f776e61626c653a206e6577206f776e657220697320746865207a65726f206160448201526564647265737360d01b60648201526084016107d9565b610b4081611a9d565b60006001600160e01b0319821663780e9d6360e01b14806106a657506106a682611dbd565b61175b81611de2565b610b405760405162461bcd60e51b81526004016107d990612ddb565b600081815260046020526040902080546001600160a01b0319166001600160a01b03841690811790915581906117ac82610c1b565b6001600160a01b03167f8c5be1e5ebec7d5bd14f71427d1e84f3dd0314c0f7b2291e5b200ac8c7c3b92560405160405180910390a45050565b336117ee610d63565b6001600160a01b031614610ce75760405162461bcd60e51b815260206004820181905260248201527f4f776e61626c653a2063616c6c6572206973206e6f7420746865206f776e657260448201526064016107d9565b60008061185083610c1b565b9050806001600160a01b0316846001600160a01b0316148061187757506118778185611689565b806111f55750836001600160a01b03166118908461073e565b6001600160a01b031614949350505050565b826001600160a01b03166118b582610c1b565b6001600160a01b0316146118db5760405162461bcd60e51b81526004016107d990612f36565b6001600160a01b03821661193d5760405162461bcd60e51b8152602060048201526024808201527f4552433732313a207472616e7366657220746f20746865207a65726f206164646044820152637265737360e01b60648201526084016107d9565b61194a8383836001611dff565b826001600160a01b031661195d82610c1b565b6001600160a01b0316146119835760405162461bcd60e51b81526004016107d990612f36565b600081815260046020908152604080832080546001600160a01b03199081169091556001600160a01b0387811680865260038552838620805460001901905590871680865283862080546001019055868652600290945282852080549092168417909155905184936000805160206130a783398151915291a4505050565b6040516351cff8d960e01b81526001600160a01b037f000000000000000000000000000000000000000000000000000000000000000016906351cff8d990611a4d908490600401612742565b600060405180830381600087803b158015611a6757600080fd5b505af1158015611a7b573d6000803e3d6000fd5b5050505050565b6000908152600260205260409020546001600160a01b031690565b600b80546001600160a01b038381166001600160a01b0319831681179093556040519116919082907f8be0079c531659141344cd1fd0a4f28419497f9722a3daafe3b4186f6b6457e090600090a35050565b610b01828260405180602001604052806000815250611e0b565b611b1282611de2565b611b755760405162461bcd60e51b815260206004820152602e60248201527f45524337323155524953746f726167653a2055524920736574206f66206e6f6e60448201526d32bc34b9ba32b73a103a37b5b2b760911b60648201526084016107d9565b6000828152600660205260409020611b8d8282612d06565b506040518281527ff8e1a15aba9398e019f0b49df1a4fde98ee17ae345cb5f6b5e2c27f5033e8ce79060200160405180910390a15050565b816001600160a01b0316836001600160a01b031603611c225760405162461bcd60e51b815260206004820152601960248201527822a9219b99189d1030b8383937bb32903a379031b0b63632b960391b60448201526064016107d9565b6001600160a01b03838116600081815260056020908152604080832094871680845294825291829020805460ff191686151590811790915591519182527f17307eab39ab6107e8899845ad3d59bd9653f200f220920489ca2b5937696c31910160405180910390a3505050565b611c9a8484846118a2565b611ca684848484611e3e565b6115905760405162461bcd60e51b81526004016107d990612f7b565b6060611ccd82611752565b60008281526006602052604081208054611ce690612c31565b80601f0160208091040260200160405190810160405280929190818152602001828054611d1290612c31565b8015611d5f5780601f10611d3457610100808354040283529160200191611d5f565b820191906000526020600020905b815481529060010190602001808311611d4257829003601f168201915b505050505090506000611d70611f3c565b90508051600003611d82575092915050565b815115611db4578082604051602001611d9c929190612e8f565b60405160208183030381529060405292505050919050565b6111f584611f4b565b60006001600160e01b03198216632483248360e11b14806106a657506106a682611fb1565b600080611dee83611a82565b6001600160a01b0316141592915050565b61159084848484612001565b611e15838361212e565b611e226000848484611e3e565b61087a5760405162461bcd60e51b81526004016107d990612f7b565b60006001600160a01b0384163b15611f3457604051630a85bd0160e11b81526001600160a01b0385169063150b7a0290611e82903390899088908890600401612fcd565b6020604051808303816000875af1925050508015611ebd575060408051601f3d908101601f19168201909252611eba9181019061300a565b60015b611f1a573d808015611eeb576040519150601f19603f3d011682016040523d82523d6000602084013e611ef0565b606091505b508051600003611f125760405162461bcd60e51b81526004016107d990612f7b565b805181602001fd5b6001600160e01b031916630a85bd0160e11b1490506111f5565b5060016111f5565b6060600d80546106bb90612c31565b6060611f5682611752565b6000611f60611f3c565b90506000815111611f805760405180602001604052806000815250611354565b80611f8a84612237565b604051602001611f9b929190612e8f565b6040516020818303038152906040529392505050565b60006001600160e01b031982166380ac58cd60e01b1480611fe257506001600160e01b03198216635b5e139f60e01b145b806106a657506301ffc9a760e01b6001600160e01b03198316146106a6565b60018111156120705760405162461bcd60e51b815260206004820152603560248201527f455243373231456e756d657261626c653a20636f6e7365637574697665207472604482015274185b9cd9995c9cc81b9bdd081cdd5c1c1bdc9d1959605a1b60648201526084016107d9565b816001600160a01b0385166120cc576120c781600980546000838152600a60205260408120829055600182018355919091527f6e1540171b6c0c960b71a7020d9f60077f6af931a8bbf590da0223dacf75c7af0155565b6120ef565b836001600160a01b0316856001600160a01b0316146120ef576120ef85826122c9565b6001600160a01b03841661210b5761210681612366565b611a7b565b846001600160a01b0316846001600160a01b031614611a7b57611a7b8482612415565b6001600160a01b0382166121845760405162461bcd60e51b815260206004820181905260248201527f4552433732313a206d696e7420746f20746865207a65726f206164647265737360448201526064016107d9565b61218d81611de2565b156121aa5760405162461bcd60e51b81526004016107d990613027565b6121b8600083836001611dff565b6121c181611de2565b156121de5760405162461bcd60e51b81526004016107d990613027565b6001600160a01b038216600081815260036020908152604080832080546001019055848352600290915280822080546001600160a01b0319168417905551839291906000805160206130a7833981519152908290a45050565b6060600061224483612459565b60010190506000816001600160401b0381111561226357612263612824565b6040519080825280601f01601f19166020018201604052801561228d576020820181803683370190505b5090508181016020015b600019016f181899199a1a9b1b9c1cb0b131b232b360811b600a86061a8153600a850494508461229757509392505050565b600060016122d684610c4f565b6122e0919061305d565b600083815260086020526040902054909150808214612333576001600160a01b03841660009081526007602090815260408083208584528252808320548484528184208190558352600890915290208190555b5060009182526008602090815260408084208490556001600160a01b039094168352600781528383209183525290812055565b6009546000906123789060019061305d565b6000838152600a6020526040812054600980549394509092849081106123a0576123a0612dc5565b9060005260206000200154905080600983815481106123c1576123c1612dc5565b6000918252602080832090910192909255828152600a909152604080822084905585825281205560098054806123f9576123f9613070565b6001900381819060005260206000200160009055905550505050565b600061242083610c4f565b6001600160a01b039093166000908152600760209081526040808320868452825280832085905593825260089052919091209190915550565b60008072184f03e93ff9f4daa797ed6e38ed64bf6a1f0160401b83106124985772184f03e93ff9f4daa797ed6e38ed64bf6a1f0160401b830492506040015b6904ee2d6d415b85acef8160201b83106124c2576904ee2d6d415b85acef8160201b830492506020015b662386f26fc1000083106124e057662386f26fc10000830492506010015b6305f5e10083106124f8576305f5e100830492506008015b612710831061250c57612710830492506004015b6064831061251e576064830492506002015b600a83106106a65760010192915050565b828054828255906000526020600020908101928215612575579160200282015b8281111561257557825182906125659082612d06565b509160200191906001019061254f565b50612581929150612627565b5090565b82805482825590600052602060002090601f0160209004810192821561261b5791602002820160005b838211156125ec57835183826101000a81548160ff021916908360ff16021790555092602001926001016020816000010492830192600103026125ae565b80156126195782816101000a81549060ff02191690556001016020816000010492830192600103026125ec565b505b50612581929150612644565b8082111561258157600061263b8282612659565b50600101612627565b5b808211156125815760008155600101612645565b50805461266590612c31565b6000825580601f10612675575050565b601f016020900490600052602060002090810190610b409190612644565b6001600160e01b031981168114610b4057600080fd5b6000602082840312156126bb57600080fd5b813561135481612693565b60005b838110156126e15781810151838201526020016126c9565b50506000910152565b600081518084526127028160208601602086016126c6565b601f01601f19169290920160200192915050565b60208152600061135460208301846126ea565b60006020828403121561273b57600080fd5b5035919050565b6001600160a01b0391909116815260200190565b6001600160a01b0381168114610b4057600080fd5b6000806040838503121561277e57600080fd5b823561278981612756565b946020939093013593505050565b600080604083850312156127aa57600080fd5b50508035926020909101359150565b6000602082840312156127cb57600080fd5b81356001600160f01b03198116811461135457600080fd5b6000806000606084860312156127f857600080fd5b833561280381612756565b9250602084013561281381612756565b929592945050506040919091013590565b634e487b7160e01b600052604160045260246000fd5b604051601f8201601f191681016001600160401b038111828210171561286257612862612824565b604052919050565b600082601f83011261287b57600080fd5b81356001600160401b0381111561289457612894612824565b6128a7601f8201601f191660200161283a565b8181528460208386010111156128bc57600080fd5b816020850160208301376000918101602001919091529392505050565b6000602082840312156128eb57600080fd5b81356001600160401b0381111561290157600080fd5b6111f58482850161286a565b60006020828403121561291f57600080fd5b813561135481612756565b60006001600160401b0382111561294357612943612824565b5060051b60200190565b803560ff8116811461295e57600080fd5b919050565b600082601f83011261297457600080fd5b813560206129896129848361292a565b61283a565b82815260059290921b840181019181810190868411156129a857600080fd5b8286015b848110156129ca576129bd8161294d565b83529183019183016129ac565b509695505050505050565b600080600080608085870312156129eb57600080fd5b84356129f681612756565b93506020858101356001600160401b0380821115612a1357600080fd5b612a1f89838a0161286a565b95506040880135915080821115612a3557600080fd5b818801915088601f830112612a4957600080fd5b8135612a576129848261292a565b81815260059190911b8301840190848101908b831115612a7657600080fd5b8585015b83811015612aae57803585811115612a925760008081fd5b612aa08e89838a010161286a565b845250918601918601612a7a565b50965050506060880135925080831115612ac757600080fd5b5050612ad587828801612963565b91505092959194509250565b600060208284031215612af357600080fd5b6113548261294d565b8035801515811461295e57600080fd5b60008060408385031215612b1f57600080fd5b82359150612b2f60208401612afc565b90509250929050565b60008060408385031215612b4b57600080fd5b8235612b5681612756565b9150612b2f60208401612afc565b600080600060608486031215612b7957600080fd5b8335925060208401359150612b9060408501612afc565b90509250925092565b60008060008060808587031215612baf57600080fd5b8435612bba81612756565b93506020850135612bca81612756565b92506040850135915060608501356001600160401b03811115612bec57600080fd5b612ad58782880161286a565b60008060408385031215612c0b57600080fd5b8235612c1681612756565b91506020830135612c2681612756565b809150509250929050565b600181811c90821680612c4557607f821691505b602082108103612c6557634e487b7160e01b600052602260045260246000fd5b50919050565b6020808252602d908201527f4552433732313a2063616c6c6572206973206e6f7420746f6b656e206f776e6560408201526c1c881bdc88185c1c1c9bdd9959609a1b606082015260800190565b601f82111561087a57600081815260208120601f850160051c81016020861015612cdf5750805b601f850160051c820191505b81811015612cfe57828155600101612ceb565b505050505050565b81516001600160401b03811115612d1f57612d1f612824565b612d3381612d2d8454612c31565b84612cb8565b602080601f831160018114612d685760008415612d505750858301515b600019600386901b1c1916600185901b178555612cfe565b600085815260208120601f198616915b82811015612d9757888601518255948401946001909101908401612d78565b5085821015612db55787850151600019600388901b60f8161c191681555b5050505050600190811b01905550565b634e487b7160e01b600052603260045260246000fd5b602080825260189082015277115490cdcc8c4e881a5b9d985b1a59081d1bdad95b88125160421b604082015260600190565b600082612e2a57634e487b7160e01b600052601260045260246000fd5b500690565b634e487b7160e01b600052601160045260246000fd5b808201808211156106a6576106a6612e2f565b805160208201516001600160f01b03198082169291906002831015612e875780818460020360031b1b83161693505b505050919050565b60008351612ea18184602088016126c6565b835190830190612eb58183602088016126c6565b01949350505050565b600060018201612ed057612ed0612e2f565b5060010190565b6020808252601390820152721d185c9d1a58dbdb9d1c9858dd1b9bdd1cd95d606a1b604082015260600190565b600060208284031215612f1657600080fd5b5051919050565b8281526040602082015260006111f560408301846126ea565b60208082526025908201527f4552433732313a207472616e736665722066726f6d20696e636f72726563742060408201526437bbb732b960d91b606082015260800190565b60208082526032908201527f4552433732313a207472616e7366657220746f206e6f6e20455243373231526560408201527131b2b4bb32b91034b6b83632b6b2b73a32b960711b606082015260800190565b6001600160a01b0385811682528416602082015260408101839052608060608201819052600090613000908301846126ea565b9695505050505050565b60006020828403121561301c57600080fd5b815161135481612693565b6020808252601c908201527b115490cdcc8c4e881d1bdad95b88185b1c9958591e481b5a5b9d195960221b604082015260600190565b818103818111156106a6576106a6612e2f565b634e487b7160e01b600052603160045260246000fdfe51686173684f664372656174696e67546172746973744d657461646174610000ddf252ad1be2c89b69c2b068fc378daa952ba7f163c4a11628f55a4df523b3efa26469706673582212203bc8d69e6c5d56934b209a4a055905896055eb5a48354815732964dc6998062264736f6c63430008120033608060405234801561001057600080fd5b5061001a3361001f565b61006f565b600080546001600160a01b038381166001600160a01b0319831681178455604051919092169283917f8be0079c531659141344cd1fd0a4f28419497f9722a3daafe3b4186f6b6457e09190a35050565b6105248061007e6000396000f3fe6080604052600436106100555760003560e01c806351cff8d91461005a578063715018a61461007c5780638da5cb5b14610091578063e3a9db1a146100c3578063f2fde38b14610107578063f340fa0114610127575b600080fd5b34801561006657600080fd5b5061007a6100753660046104a3565b61013a565b005b34801561008857600080fd5b5061007a6101b1565b34801561009d57600080fd5b506100a66101c5565b6040516001600160a01b0390911681526020015b60405180910390f35b3480156100cf57600080fd5b506100f96100de3660046104a3565b6001600160a01b031660009081526001602052604090205490565b6040519081526020016100ba565b34801561011357600080fd5b5061007a6101223660046104a3565b6101d4565b61007a6101353660046104a3565b610252565b6101426102c4565b6001600160a01b038116600081815260016020526040812080549190559061016a9082610323565b816001600160a01b03167f7084f5476618d8e60b11ef0d7d3f06914655adb8793e28ff7f018d4c76d505d5826040516101a591815260200190565b60405180910390a25050565b6101b96102c4565b6101c3600061043e565b565b6000546001600160a01b031690565b6101dc6102c4565b6001600160a01b0381166102465760405162461bcd60e51b815260206004820152602660248201527f4f776e61626c653a206e6577206f776e657220697320746865207a65726f206160448201526564647265737360d01b60648201526084015b60405180910390fd5b61024f8161043e565b50565b61025a6102c4565b6001600160a01b0381166000908152600160205260408120805434928392916102849084906104c7565b90915550506040518181526001600160a01b038316907f2da466a7b24304f47e87fa2e1e5a81b9831ce54fec19055ce277ca2f39ba42c4906020016101a5565b336102cd6101c5565b6001600160a01b0316146101c35760405162461bcd60e51b815260206004820181905260248201527f4f776e61626c653a2063616c6c6572206973206e6f7420746865206f776e6572604482015260640161023d565b804710156103735760405162461bcd60e51b815260206004820152601d60248201527f416464726573733a20696e73756666696369656e742062616c616e6365000000604482015260640161023d565b6000826001600160a01b03168260405160006040518083038185875af1925050503d80600081146103c0576040519150601f19603f3d011682016040523d82523d6000602084013e6103c5565b606091505b50509050806104395760405162461bcd60e51b815260206004820152603a60248201527f416464726573733a20756e61626c6520746f2073656e642076616c75652c20726044820152791958da5c1a595b9d081b585e481a185d99481c995d995c9d195960321b606482015260840161023d565b505050565b600080546001600160a01b038381166001600160a01b0319831681178455604051919092169283917f8be0079c531659141344cd1fd0a4f28419497f9722a3daafe3b4186f6b6457e09190a35050565b6001600160a01b038116811461024f57600080fd5b6000602082840312156104b557600080fd5b81356104c08161048e565b9392505050565b808201808211156104e857634e487b7160e01b600052601160045260246000fd5b9291505056fea26469706673582212201db7b560f8a587875f655b0c70bd5a1c071d3efcf05cc3ab888bc5b1b66396ef64736f6c63430008120033",
  "immutableReferences": {
    "147": [
      {
        "length": 32,
        "start": 5651
      },
      {
        "length": 32,
        "start": 6680
      }
    ]
  },
  "source": "// SPDX-License-Identifier: MIT\npragma solidity ^0.8.18;\n\nimport \"@openzeppelin/contracts/token/ERC721/extensions/ERC721URIStorage.sol\";\nimport \"@openzeppelin/contracts/utils/Counters.sol\";\nimport \"@openzeppelin/contracts/security/PullPayment.sol\";\nimport \"@openzeppelin/contracts/access/Ownable.sol\";\nimport \"./Tarti.sol\";\n\ncontract Tartist is ERC721URIStorage, ERC721Enumerable, PullPayment, Ownable {\n    using Counters for Counters.Counter;\n\n    uint256 public constant MINT_TARTIST_PRICE = 0.18 ether;\n    uint256 public constant MINT_TARTI_PRICE = 0.048 ether;\n\n    Counters.Counter private _currentTokenId;\n\n    string public baseTokenURI;\n    bytes2[] public allTraits;\n    mapping(bytes2 => bool) public traitsActive;\n    mapping(bytes32 => bool) public usedTraitComboHashes;\n    mapping(uint256 => bytes) public botTraits;\n    mapping(uint256 => string[]) public botTraitDynValues;\n    mapping(uint256 => uint8[]) public botTraitDominance;\n\n    address private _tartiAddr;\n    bytes32 private constant _newMetadataCid = \"QhashOfNewTartistMetadata\";\n    bytes32 private constant _inProcessMetadataCid = \"QhashOfCreatingTartistMetadata\";\n\n    constructor() ERC721(\"Tarti Artist\", \"TARTIST\") {\n        baseTokenURI = \"ipfs://\";\n    }\n\n    function addTrait(bytes2 traitCode) public onlyOwner {\n        require(traitsActive[traitCode] == false, \"Trait already exists\");\n        traitsActive[traitCode] = true;\n        allTraits.push(traitCode);\n    }\n\n    function cancelTrait(bytes2 traitCode) public onlyOwner {\n        traitsActive[traitCode] = false;\n\n        //doesnt provide any use to remove it from allTraits, waste of gas. So we will just leave it.\n    }\n\n    function giveBirth(\n        address recipient,\n        bytes memory traits,\n        string[] memory dynamicTraitValues,\n        uint8[] memory traitDominance\n    ) public payable returns (uint256) {\n        require(\n            msg.value == MINT_TARTIST_PRICE,\n            \"Transaction value did not equal the mint price\"\n        );\n        require(traits.length < 100, \"Too many traits\");\n        require(dynamicTraitValues.length < 100, \"Too many trait values\");\n        require(traitDominance.length < 100, \"Too many trait dominance\");\n        require(traits.length % 2 == 0, \"Invalid trait length\");\n\n        // when we implement the allTraits/AddTraits here is how they should be keyed\n        // allTraits[\"aa\"] = true;\n        // allTraits[\"bb\"] = true;\n        // allTraits[\"cc\"] = true;\n\n        //check that the passed traits are valid\n        //every two bytes identifes a trait\n        for (uint256 i = 0; i < traits.length; i += 2) {\n            require(\n                traitsActive[bytes2(bytes.concat(traits[i], traits[i + 1]))] ==\n                    true,\n                \"Invalid trait specified\"\n            );\n        }\n\n//can optimize the heck out of this stuff but resisting for now.\n//Dont set storage vars in loops!\n        bytes memory dynTraitValuesBytes;\n        for (uint256 i = 0; i < dynamicTraitValues.length; i++) {\n            dynTraitValuesBytes = abi.encodePacked(\n                dynTraitValuesBytes,\n                dynamicTraitValues[i]\n            );\n        }\n        bytes32 botTraitsHash = keccak256(\n            bytes.concat(traits, dynTraitValuesBytes)\n        );\n        require(\n            usedTraitComboHashes[botTraitsHash] != true,\n            \"Bot genetics are not unique enough\"\n        );\n\n        usedTraitComboHashes[botTraitsHash] = true;\n        _currentTokenId.increment();\n        uint256 newItemId = _currentTokenId.current();\n        botTraits[newItemId] = traits;\n        botTraitDynValues[newItemId] = dynamicTraitValues;\n        botTraitDominance[newItemId] = traitDominance;\n        _safeMint(recipient, newItemId);\n        _setTokenURI(newItemId, string(abi.encodePacked(_newMetadataCid)));\n        return newItemId;\n    }\n\n    function newArt(uint8 artistId) public payable returns (uint256) {\n        //address canot be blank\n        require(_tartiAddr != address(0), \"tarticontractnotset\");\n        require(msg.value == MINT_TARTI_PRICE, \"must send commission\"); //.01 eth\n\n        //call newArt on the Tarti contract\n        //Tarti only allows this contract to call that method\n        //Tell the new art method who the artist is\n\n        //First check that the caller is the owner of the artist\n        //if an artist has no owner, I forget who is allowed to use it? (maybe anyone but only if I get commissions)\n        //thats a good idea. For ownerless i get commissions. for owned I dont\n\n        //norights = specified artist is not contractually obligated, nor even allowed, to make any art for you.\n        require(msg.sender == ownerOf(artistId), \"norights\");\n\n        //use the art contract to create a new Tart token\n        //Trait engine will see the new Art on the blockchain and create the art\n        //the art package url will be based on the Tart tokenId\n        //we will own the dns of whatever we use for IPFS so we can pre generate here and guarantee to have it\n\n        Tarti tarti = Tarti(_tartiAddr);\n\n        return tarti.newArt(msg.sender, artistId);\n    }\n\n    /// @dev Returns an URI for a given token ID\n    function _baseURI() internal view virtual override returns (string memory) {\n        return baseTokenURI;\n    }\n\n    function setTartiAddr(address tartiAddr) public onlyOwner {\n        _tartiAddr = tartiAddr;\n    }\n\n    /// @dev Sets the base token URI prefix.\n    function setBaseTokenURI(string memory newBaseTokenURI) public onlyOwner {\n        baseTokenURI = newBaseTokenURI;\n    }\n\n    function setCreationStarted(uint256 tokenId, bool onTarti) public onlyOwner() {\n        if (onTarti) {\n            require(_tartiAddr != address(0), \"tarticontractnotset\");\n            Tarti tarti = Tarti(_tartiAddr);\n            return tarti.setCreationStarted(tokenId);\n        }\n        _setTokenURI(tokenId, string(abi.encodePacked(_inProcessMetadataCid)));\n    }\n\n    function setCreated(uint256 tokenId, bytes32 cid, bool onTarti) public onlyOwner() {\n        if (onTarti) {\n            require(_tartiAddr != address(0), \"tarticontractnotset\");\n            Tarti tarti = Tarti(_tartiAddr);\n            return tarti.setCreated(tokenId, string(abi.encodePacked(cid)));\n        }\n        //Don't allow the URI to ever change once it is set!\n        bytes32 tokenUriBytesHash = keccak256(bytes(tokenURI(tokenId))); //cant copare strings so lets compare hashes of strings\n        if (tokenUriBytesHash == keccak256(abi.encodePacked(_newMetadataCid)) || tokenUriBytesHash == keccak256(abi.encodePacked(_inProcessMetadataCid))) {\n            _setTokenURI(tokenId, string(abi.encodePacked(cid)));\n        }\n    }\n\n    /// @dev Overridden in order to make it an onlyOwner function\n    function withdrawPayments(\n        address payable payee\n    ) public virtual override onlyOwner {\n        super.withdrawPayments(payee);\n    }\n\n    function _burn(\n        uint256 tokenId\n    ) internal override(ERC721, ERC721URIStorage) {\n        super._burn(tokenId);\n    }\n\n    function _beforeTokenTransfer(\n        address from,\n        address to,\n        uint256 firstTokenId,\n        uint256 batchSize\n    ) internal override(ERC721, ERC721Enumerable) {\n        super._beforeTokenTransfer(from, to, firstTokenId, batchSize);\n    }\n\n    function supportsInterface(\n        bytes4 interfaceId\n    ) public view override(ERC721Enumerable, ERC721URIStorage) returns (bool) {\n        return super.supportsInterface(interfaceId);\n    }\n\n    function tokenURI(\n        uint256 tokenId\n    ) public view override(ERC721, ERC721URIStorage) returns (string memory) {\n        return ERC721URIStorage.tokenURI(tokenId);\n    }\n}\n",
  "sourcePath": "/home/evan/tarti/contracts/Tartist.sol",
  "compiler": {
    "name": "solc",
    "version": "0.8.18+commit.87f61d96.Emscripten.clang"
  },
  "schemaVersion": "3.4.14",
  "updatedAt": "2023-06-28T18:28:08.981Z",
  "networkType": "ethereum",
  "devdoc": {
    "events": {
      "Approval(address,address,uint256)": {
        "details": "Emitted when `owner` enables `approved` to manage the `tokenId` token."
      },
      "ApprovalForAll(address,address,bool)": {
        "details": "Emitted when `owner` enables or disables (`approved`) `operator` to manage all of its assets."
      },
      "BatchMetadataUpdate(uint256,uint256)": {
        "details": "This event emits when the metadata of a range of tokens is changed. So that the third-party platforms such as NFT market could timely update the images and related attributes of the NFTs."
      },
      "MetadataUpdate(uint256)": {
        "details": "This event emits when the metadata of a token is changed. So that the third-party platforms such as NFT market could timely update the images and related attributes of the NFT."
      },
      "Transfer(address,address,uint256)": {
        "details": "Emitted when `tokenId` token is transferred from `from` to `to`."
      }
    },
    "kind": "dev",
    "methods": {
      "approve(address,uint256)": {
        "details": "See {IERC721-approve}."
      },
      "balanceOf(address)": {
        "details": "See {IERC721-balanceOf}."
      },
      "getApproved(uint256)": {
        "details": "See {IERC721-getApproved}."
      },
      "isApprovedForAll(address,address)": {
        "details": "See {IERC721-isApprovedForAll}."
      },
      "name()": {
        "details": "See {IERC721Metadata-name}."
      },
      "owner()": {
        "details": "Returns the address of the current owner."
      },
      "ownerOf(uint256)": {
        "details": "See {IERC721-ownerOf}."
      },
      "payments(address)": {
        "details": "Returns the payments owed to an address.",
        "params": {
          "dest": "The creditor's address."
        }
      },
      "renounceOwnership()": {
        "details": "Leaves the contract without owner. It will not be possible to call `onlyOwner` functions. Can only be called by the current owner. NOTE: Renouncing ownership will leave the contract without an owner, thereby disabling any functionality that is only available to the owner."
      },
      "safeTransferFrom(address,address,uint256)": {
        "details": "See {IERC721-safeTransferFrom}."
      },
      "safeTransferFrom(address,address,uint256,bytes)": {
        "details": "See {IERC721-safeTransferFrom}."
      },
      "setApprovalForAll(address,bool)": {
        "details": "See {IERC721-setApprovalForAll}."
      },
      "setBaseTokenURI(string)": {
        "details": "Sets the base token URI prefix."
      },
      "symbol()": {
        "details": "See {IERC721Metadata-symbol}."
      },
      "tokenByIndex(uint256)": {
        "details": "See {IERC721Enumerable-tokenByIndex}."
      },
      "tokenOfOwnerByIndex(address,uint256)": {
        "details": "See {IERC721Enumerable-tokenOfOwnerByIndex}."
      },
      "totalSupply()": {
        "details": "See {IERC721Enumerable-totalSupply}."
      },
      "transferFrom(address,address,uint256)": {
        "details": "See {IERC721-transferFrom}."
      },
      "transferOwnership(address)": {
        "details": "Transfers ownership of the contract to a new account (`newOwner`). Can only be called by the current owner."
      },
      "withdrawPayments(address)": {
        "details": "Overridden in order to make it an onlyOwner function"
      }
    },
    "version": 1
  },
  "userdoc": {
    "kind": "user",
    "methods": {},
    "version": 1
  }
}